{
  "_format": "hh-sol-artifact-1",
  "contractName": "AssetTokenGate",
  "sourceName": "contracts/AssetTokenGate.sol",
  "abi": [
    {
      "anonymous": false,
      "inputs": [
        {
          "indexed": true,
          "internalType": "address",
          "name": "previousOwner",
          "type": "address"
        },
        {
          "indexed": true,
          "internalType": "address",
          "name": "newOwner",
          "type": "address"
        }
      ],
      "name": "OwnershipTransferred",
      "type": "event"
    },
    {
      "inputs": [],
      "name": "owner",
      "outputs": [
        {
          "internalType": "address",
          "name": "",
          "type": "address"
        }
      ],
      "stateMutability": "view",
      "type": "function"
    },
    {
      "inputs": [],
      "name": "renounceOwnership",
      "outputs": [],
      "stateMutability": "nonpayable",
      "type": "function"
    },
    {
      "inputs": [
        {
          "internalType": "contract IERC721[]",
          "name": "_whitelist",
          "type": "address[]"
        }
      ],
      "name": "setWhitelist",
      "outputs": [],
      "stateMutability": "nonpayable",
      "type": "function"
    },
    {
      "inputs": [
        {
          "internalType": "address",
          "name": "_wallet",
          "type": "address"
        }
      ],
      "name": "totalBalanceOf",
      "outputs": [
        {
          "internalType": "uint256",
          "name": "balance",
          "type": "uint256"
        }
      ],
      "stateMutability": "view",
      "type": "function"
    },
    {
      "inputs": [
        {
          "internalType": "address",
          "name": "newOwner",
          "type": "address"
        }
      ],
      "name": "transferOwnership",
      "outputs": [],
      "stateMutability": "nonpayable",
      "type": "function"
    }
  ],
  "bytecode": "0x608060405234801561001057600080fd5b5061002d61002261003260201b60201c565b61003a60201b60201c565b6100fe565b600033905090565b60008060009054906101000a900473ffffffffffffffffffffffffffffffffffffffff169050816000806101000a81548173ffffffffffffffffffffffffffffffffffffffff021916908373ffffffffffffffffffffffffffffffffffffffff1602179055508173ffffffffffffffffffffffffffffffffffffffff168173ffffffffffffffffffffffffffffffffffffffff167f8be0079c531659141344cd1fd0a4f28419497f9722a3daafe3b4186f6b6457e060405160405180910390a35050565b610a078061010d6000396000f3fe608060405234801561001057600080fd5b50600436106100575760003560e01c80634b0ee02a1461005c578063715018a61461008c5780638da5cb5b14610096578063f2fde38b146100b4578063f4217648146100d0575b600080fd5b61007660048036038101906100719190610524565b6100ec565b604051610083919061056a565b60405180910390f35b6100946101df565b005b61009e6101f3565b6040516100ab9190610594565b60405180910390f35b6100ce60048036038101906100c99190610524565b61021c565b005b6100ea60048036038101906100e59190610746565b61029f565b005b600080600090505b6001805490508110156101d957600181815481106101155761011461078f565b5b9060005260206000200160009054906101000a900473ffffffffffffffffffffffffffffffffffffffff1673ffffffffffffffffffffffffffffffffffffffff166370a08231846040518263ffffffff1660e01b81526004016101789190610594565b602060405180830381865afa158015610195573d6000803e3d6000fd5b505050506040513d601f19601f820116820180604052508101906101b991906107ea565b826101c49190610846565b915080806101d19061087a565b9150506100f4565b50919050565b6101e76102c1565b6101f1600061033f565b565b60008060009054906101000a900473ffffffffffffffffffffffffffffffffffffffff16905090565b6102246102c1565b600073ffffffffffffffffffffffffffffffffffffffff168173ffffffffffffffffffffffffffffffffffffffff1603610293576040517f08c379a000000000000000000000000000000000000000000000000000000000815260040161028a90610945565b60405180910390fd5b61029c8161033f565b50565b6102a76102c1565b80600190805190602001906102bd92919061040b565b5050565b6102c9610403565b73ffffffffffffffffffffffffffffffffffffffff166102e76101f3565b73ffffffffffffffffffffffffffffffffffffffff161461033d576040517f08c379a0000000000000000000000000000000000000000000000000000000008152600401610334906109b1565b60405180910390fd5b565b60008060009054906101000a900473ffffffffffffffffffffffffffffffffffffffff169050816000806101000a81548173ffffffffffffffffffffffffffffffffffffffff021916908373ffffffffffffffffffffffffffffffffffffffff1602179055508173ffffffffffffffffffffffffffffffffffffffff168173ffffffffffffffffffffffffffffffffffffffff167f8be0079c531659141344cd1fd0a4f28419497f9722a3daafe3b4186f6b6457e060405160405180910390a35050565b600033905090565b828054828255906000526020600020908101928215610484579160200282015b828111156104835782518260006101000a81548173ffffffffffffffffffffffffffffffffffffffff021916908373ffffffffffffffffffffffffffffffffffffffff1602179055509160200191906001019061042b565b5b5090506104919190610495565b5090565b5b808211156104ae576000816000905550600101610496565b5090565b6000604051905090565b600080fd5b600080fd5b600073ffffffffffffffffffffffffffffffffffffffff82169050919050565b60006104f1826104c6565b9050919050565b610501816104e6565b811461050c57600080fd5b50565b60008135905061051e816104f8565b92915050565b60006020828403121561053a576105396104bc565b5b60006105488482850161050f565b91505092915050565b6000819050919050565b61056481610551565b82525050565b600060208201905061057f600083018461055b565b92915050565b61058e816104e6565b82525050565b60006020820190506105a96000830184610585565b92915050565b600080fd5b6000601f19601f8301169050919050565b7f4e487b7100000000000000000000000000000000000000000000000000000000600052604160045260246000fd5b6105fd826105b4565b810181811067ffffffffffffffff8211171561061c5761061b6105c5565b5b80604052505050565b600061062f6104b2565b905061063b82826105f4565b919050565b600067ffffffffffffffff82111561065b5761065a6105c5565b5b602082029050602081019050919050565b600080fd5b600061067c826104e6565b9050919050565b61068c81610671565b811461069757600080fd5b50565b6000813590506106a981610683565b92915050565b60006106c26106bd84610640565b610625565b905080838252602082019050602084028301858111156106e5576106e461066c565b5b835b8181101561070e57806106fa888261069a565b8452602084019350506020810190506106e7565b5050509392505050565b600082601f83011261072d5761072c6105af565b5b813561073d8482602086016106af565b91505092915050565b60006020828403121561075c5761075b6104bc565b5b600082013567ffffffffffffffff81111561077a576107796104c1565b5b61078684828501610718565b91505092915050565b7f4e487b7100000000000000000000000000000000000000000000000000000000600052603260045260246000fd5b6107c781610551565b81146107d257600080fd5b50565b6000815190506107e4816107be565b92915050565b600060208284031215610800576107ff6104bc565b5b600061080e848285016107d5565b91505092915050565b7f4e487b7100000000000000000000000000000000000000000000000000000000600052601160045260246000fd5b600061085182610551565b915061085c83610551565b925082820190508082111561087457610873610817565b5b92915050565b600061088582610551565b91507fffffffffffffffffffffffffffffffffffffffffffffffffffffffffffffffff82036108b7576108b6610817565b5b600182019050919050565b600082825260208201905092915050565b7f4f776e61626c653a206e6577206f776e657220697320746865207a65726f206160008201527f6464726573730000000000000000000000000000000000000000000000000000602082015250565b600061092f6026836108c2565b915061093a826108d3565b604082019050919050565b6000602082019050818103600083015261095e81610922565b9050919050565b7f4f776e61626c653a2063616c6c6572206973206e6f7420746865206f776e6572600082015250565b600061099b6020836108c2565b91506109a682610965565b602082019050919050565b600060208201905081810360008301526109ca8161098e565b905091905056fea26469706673582212200601395b60e93153ca9b4db6fdc55ef2f9283c33d9f47370e555e5d0657467bd64736f6c63430008110033",
  "linkReferences": {},
  "deployedLinkReferences": {}
}