{
  "_format": "hh-sol-artifact-1",
  "contractName": "AssetTokenGate",
  "sourceName": "contracts/AssetTokenGate.sol",
  "abi": [
    {
      "anonymous": false,
      "inputs": [
        {
          "indexed": true,
          "internalType": "address",
          "name": "previousOwner",
          "type": "address"
        },
        {
          "indexed": true,
          "internalType": "address",
          "name": "newOwner",
          "type": "address"
        }
      ],
      "name": "OwnershipTransferred",
      "type": "event"
    },
    {
      "inputs": [
        {
          "internalType": "address",
          "name": "_wallet",
          "type": "address"
        }
      ],
      "name": "hasWhitelistToken",
      "outputs": [
        {
          "internalType": "bool",
          "name": "",
          "type": "bool"
        }
      ],
      "stateMutability": "view",
      "type": "function"
    },
    {
      "inputs": [],
      "name": "owner",
      "outputs": [
        {
          "internalType": "address",
          "name": "",
          "type": "address"
        }
      ],
      "stateMutability": "view",
      "type": "function"
    },
    {
      "inputs": [],
      "name": "renounceOwnership",
      "outputs": [],
      "stateMutability": "nonpayable",
      "type": "function"
    },
    {
      "inputs": [
        {
          "internalType": "contract IERC721[]",
          "name": "_whitelist",
          "type": "address[]"
        }
      ],
      "name": "setWhitelist",
      "outputs": [],
      "stateMutability": "nonpayable",
      "type": "function"
    },
    {
      "inputs": [
        {
          "internalType": "address",
          "name": "newOwner",
          "type": "address"
        }
      ],
      "name": "transferOwnership",
      "outputs": [],
      "stateMutability": "nonpayable",
      "type": "function"
    }
  ],
  "bytecode": "0x608060405234801561001057600080fd5b5061002d61002261003260201b60201c565b61003a60201b60201c565b6100fe565b600033905090565b60008060009054906101000a900473ffffffffffffffffffffffffffffffffffffffff169050816000806101000a81548173ffffffffffffffffffffffffffffffffffffffff021916908373ffffffffffffffffffffffffffffffffffffffff1602179055508173ffffffffffffffffffffffffffffffffffffffff168173ffffffffffffffffffffffffffffffffffffffff167f8be0079c531659141344cd1fd0a4f28419497f9722a3daafe3b4186f6b6457e060405160405180910390a35050565b6109e98061010d6000396000f3fe608060405234801561001057600080fd5b50600436106100575760003560e01c80634ffaaa0a1461005c578063715018a61461008c5780638da5cb5b14610096578063f2fde38b146100b4578063f4217648146100d0575b600080fd5b6100766004803603810190610071919061052e565b6100ec565b6040516100839190610576565b60405180910390f35b6100946101e9565b005b61009e6101fd565b6040516100ab91906105a0565b60405180910390f35b6100ce60048036038101906100c9919061052e565b610226565b005b6100ea60048036038101906100e59190610752565b6102a9565b005b600080600090505b6001805490508110156101de576000600182815481106101175761011661079b565b5b9060005260206000200160009054906101000a900473ffffffffffffffffffffffffffffffffffffffff1673ffffffffffffffffffffffffffffffffffffffff166370a08231856040518263ffffffff1660e01b815260040161017a91906105a0565b602060405180830381865afa158015610197573d6000803e3d6000fd5b505050506040513d601f19601f820116820180604052508101906101bb9190610800565b11156101cb5760019150506101e4565b80806101d69061085c565b9150506100f4565b50600090505b919050565b6101f16102cb565b6101fb6000610349565b565b60008060009054906101000a900473ffffffffffffffffffffffffffffffffffffffff16905090565b61022e6102cb565b600073ffffffffffffffffffffffffffffffffffffffff168173ffffffffffffffffffffffffffffffffffffffff160361029d576040517f08c379a000000000000000000000000000000000000000000000000000000000815260040161029490610927565b60405180910390fd5b6102a681610349565b50565b6102b16102cb565b80600190805190602001906102c7929190610415565b5050565b6102d361040d565b73ffffffffffffffffffffffffffffffffffffffff166102f16101fd565b73ffffffffffffffffffffffffffffffffffffffff1614610347576040517f08c379a000000000000000000000000000000000000000000000000000000000815260040161033e90610993565b60405180910390fd5b565b60008060009054906101000a900473ffffffffffffffffffffffffffffffffffffffff169050816000806101000a81548173ffffffffffffffffffffffffffffffffffffffff021916908373ffffffffffffffffffffffffffffffffffffffff1602179055508173ffffffffffffffffffffffffffffffffffffffff168173ffffffffffffffffffffffffffffffffffffffff167f8be0079c531659141344cd1fd0a4f28419497f9722a3daafe3b4186f6b6457e060405160405180910390a35050565b600033905090565b82805482825590600052602060002090810192821561048e579160200282015b8281111561048d5782518260006101000a81548173ffffffffffffffffffffffffffffffffffffffff021916908373ffffffffffffffffffffffffffffffffffffffff16021790555091602001919060010190610435565b5b50905061049b919061049f565b5090565b5b808211156104b85760008160009055506001016104a0565b5090565b6000604051905090565b600080fd5b600080fd5b600073ffffffffffffffffffffffffffffffffffffffff82169050919050565b60006104fb826104d0565b9050919050565b61050b816104f0565b811461051657600080fd5b50565b60008135905061052881610502565b92915050565b600060208284031215610544576105436104c6565b5b600061055284828501610519565b91505092915050565b60008115159050919050565b6105708161055b565b82525050565b600060208201905061058b6000830184610567565b92915050565b61059a816104f0565b82525050565b60006020820190506105b56000830184610591565b92915050565b600080fd5b6000601f19601f8301169050919050565b7f4e487b7100000000000000000000000000000000000000000000000000000000600052604160045260246000fd5b610609826105c0565b810181811067ffffffffffffffff82111715610628576106276105d1565b5b80604052505050565b600061063b6104bc565b90506106478282610600565b919050565b600067ffffffffffffffff821115610667576106666105d1565b5b602082029050602081019050919050565b600080fd5b6000610688826104f0565b9050919050565b6106988161067d565b81146106a357600080fd5b50565b6000813590506106b58161068f565b92915050565b60006106ce6106c98461064c565b610631565b905080838252602082019050602084028301858111156106f1576106f0610678565b5b835b8181101561071a578061070688826106a6565b8452602084019350506020810190506106f3565b5050509392505050565b600082601f830112610739576107386105bb565b5b81356107498482602086016106bb565b91505092915050565b600060208284031215610768576107676104c6565b5b600082013567ffffffffffffffff811115610786576107856104cb565b5b61079284828501610724565b91505092915050565b7f4e487b7100000000000000000000000000000000000000000000000000000000600052603260045260246000fd5b6000819050919050565b6107dd816107ca565b81146107e857600080fd5b50565b6000815190506107fa816107d4565b92915050565b600060208284031215610816576108156104c6565b5b6000610824848285016107eb565b91505092915050565b7f4e487b7100000000000000000000000000000000000000000000000000000000600052601160045260246000fd5b6000610867826107ca565b91507fffffffffffffffffffffffffffffffffffffffffffffffffffffffffffffffff82036108995761089861082d565b5b600182019050919050565b600082825260208201905092915050565b7f4f776e61626c653a206e6577206f776e657220697320746865207a65726f206160008201527f6464726573730000000000000000000000000000000000000000000000000000602082015250565b60006109116026836108a4565b915061091c826108b5565b604082019050919050565b6000602082019050818103600083015261094081610904565b9050919050565b7f4f776e61626c653a2063616c6c6572206973206e6f7420746865206f776e6572600082015250565b600061097d6020836108a4565b915061098882610947565b602082019050919050565b600060208201905081810360008301526109ac81610970565b905091905056fea2646970667358221220c3483a59378fdf89467c0db6f8e549e99b1fc10734f63faa630ea7ead67a4c7964736f6c63430008110033",
  "linkReferences": {},
  "deployedLinkReferences": {}
}