{
  "_format": "hh-sol-artifact-1",
  "contractName": "MessageStoreV1",
  "sourceName": "contracts/imageParts/svgstore/MessageStoreV1.sol",
  "abi": [
    {
      "inputs": [
        {
          "internalType": "contract IFontProvider",
          "name": "_font",
          "type": "address"
        }
      ],
      "stateMutability": "nonpayable",
      "type": "constructor"
    },
    {
      "inputs": [],
      "name": "font",
      "outputs": [
        {
          "internalType": "contract IFontProvider",
          "name": "",
          "type": "address"
        }
      ],
      "stateMutability": "view",
      "type": "function"
    },
    {
      "inputs": [
        {
          "internalType": "uint256",
          "name": "index",
          "type": "uint256"
        }
      ],
      "name": "getSVG",
      "outputs": [
        {
          "internalType": "string",
          "name": "output",
          "type": "string"
        }
      ],
      "stateMutability": "view",
      "type": "function"
    },
    {
      "inputs": [
        {
          "internalType": "uint256",
          "name": "index",
          "type": "uint256"
        }
      ],
      "name": "getSVGBody",
      "outputs": [
        {
          "internalType": "bytes",
          "name": "output",
          "type": "bytes"
        }
      ],
      "stateMutability": "view",
      "type": "function"
    },
    {
      "inputs": [
        {
          "internalType": "string",
          "name": "message",
          "type": "string"
        },
        {
          "internalType": "string",
          "name": "color",
          "type": "string"
        },
        {
          "components": [
            {
              "internalType": "uint256",
              "name": "w",
              "type": "uint256"
            },
            {
              "internalType": "uint256",
              "name": "h",
              "type": "uint256"
            }
          ],
          "internalType": "struct IMessageStoreV1.Box",
          "name": "box",
          "type": "tuple"
        }
      ],
      "name": "getSVGMessage",
      "outputs": [
        {
          "internalType": "string",
          "name": "output",
          "type": "string"
        }
      ],
      "stateMutability": "view",
      "type": "function"
    },
    {
      "inputs": [
        {
          "components": [
            {
              "internalType": "string",
              "name": "message",
              "type": "string"
            },
            {
              "internalType": "string",
              "name": "color",
              "type": "string"
            }
          ],
          "internalType": "struct IMessageStoreV1.Asset",
          "name": "asset",
          "type": "tuple"
        }
      ],
      "name": "register",
      "outputs": [
        {
          "internalType": "uint256",
          "name": "",
          "type": "uint256"
        }
      ],
      "stateMutability": "nonpayable",
      "type": "function"
    },
    {
      "inputs": [
        {
          "internalType": "string",
          "name": "message",
          "type": "string"
        }
      ],
      "name": "test",
      "outputs": [
        {
          "internalType": "string[]",
          "name": "output",
          "type": "string[]"
        }
      ],
      "stateMutability": "view",
      "type": "function"
    }
  ],
  "bytecode": "0x60a060405260016000553480156200001657600080fd5b50604051620031f5380380620031f583398181016040528101906200003c9190620000f5565b8073ffffffffffffffffffffffffffffffffffffffff1660808173ffffffffffffffffffffffffffffffffffffffff16815250505062000127565b600080fd5b600073ffffffffffffffffffffffffffffffffffffffff82169050919050565b6000620000a9826200007c565b9050919050565b6000620000bd826200009c565b9050919050565b620000cf81620000b0565b8114620000db57600080fd5b50565b600081519050620000ef81620000c4565b92915050565b6000602082840312156200010e576200010d62000077565b5b60006200011e84828501620000de565b91505092915050565b6080516130966200015f600039600081816102a901528181610563015281816105bb0152818161065c015261070301526130966000f3fe608060405234801561001057600080fd5b50600436106100625760003560e01c80635be894c61461006757806375bbc94c146100975780639d37bc7c146100c7578063be985ac9146100e5578063dec0314e14610115578063f9fbd55414610145575b600080fd5b610081600480360381019061007c9190611cf1565b610175565b60405161008e9190611d53565b60405180910390f35b6100b160048036038101906100ac9190611dea565b6101e8565b6040516100be9190611ef4565b60405180910390f35b6100cf6102a7565b6040516100dc9190611f95565b60405180910390f35b6100ff60048036038101906100fa9190611fb0565b6102cb565b60405161010c9190611ef4565b60405180910390f35b61012f600480360381019061012a9190611fb0565b610385565b60405161013c9190612032565b60405180910390f35b61015f600480360381019061015a9190612054565b610397565b60405161016c91906121a9565b60405180910390f35b600081600160008054815260200190815260200160002060008201518160000190816101a191906123cd565b5060208201518160010190816101b791906123cd565b509050506000808154809291906101cd906124ce565b919050555060016000546101e19190612516565b9050919050565b60606000600167ffffffffffffffff81111561020757610206611b2f565b5b60405190808252806020026020018201604052801561024057816020015b61022d611ab0565b8152602001906001900390816102255790505b50905061029d6040518060400160405280600d81526020017f302030203130323420313032340000000000000000000000000000000000000081525061028d610288846103ab565b6103c9565b6102988888886104d1565b6108a3565b9150509392505050565b7f000000000000000000000000000000000000000000000000000000000000000081565b606060008067ffffffffffffffff8111156102e9576102e8611b2f565b5b60405190808252806020026020018201604052801561032257816020015b61030f611ab0565b8152602001906001900390816103075790505b50905061037d6040518060400160405280600d81526020017f302030203130323420313032340000000000000000000000000000000000000081525061036f61036a846103ab565b6103c9565b61037886610927565b6108a3565b915050919050565b606061039082610927565b9050919050565b60606103a482600a610aab565b9050919050565b6103b3611ab0565b6103bc82610b92565b8160200181905250919050565b60606000826000015151111561045b578160000151905060005b826040015151811015610455576000836040015182815181106104095761040861254a565b5b60200260200101519050828160000151826020015160405160200161043093929190612689565b604051602081830303815290604052925050808061044d906124ce565b9150506103e3565b506104a4565b6000826040015151146104a3576040517f08c379a000000000000000000000000000000000000000000000000000000000815260040161049a9061271c565b60405180910390fd5b5b8082602001516040516020016104bb92919061273c565b6040516020818303038152906040529050919050565b606060006104e085600a610aab565b90506000815167ffffffffffffffff8111156104ff576104fe611b2f565b5b60405190808252806020026020018201604052801561053857816020015b610525611ab0565b81526020019060019003908161051d5790505b50905060006004856000015161054e9190612760565b905060005b83518110156106db5760006105a27f00000000000000000000000000000000000000000000000000000000000000008684815181106105955761059461254a565b5b6020026020010151610c59565b9050828111156105b0578092505b6106a96106576000847f000000000000000000000000000000000000000000000000000000000000000073ffffffffffffffffffffffffffffffffffffffff16630ef267436040518163ffffffff1660e01b8152600401602060405180830381865afa158015610624573d6000803e3d6000fd5b505050506040513d601f19601f8201168201806040525081019061064891906127b7565b6106529190612760565b610dc1565b61069b7f000000000000000000000000000000000000000000000000000000000000000088868151811061068e5761068d61254a565b5b6020026020010151610dfd565b6110f790919063ffffffff16565b8483815181106106bc576106bb61254a565b5b60200260200101819052505080806106d3906124ce565b915050610553565b506000816103e887600001516106f19190612760565b6106fb9190612813565b9050600084517f000000000000000000000000000000000000000000000000000000000000000073ffffffffffffffffffffffffffffffffffffffff16630ef267436040518163ffffffff1660e01b8152600401602060405180830381865afa15801561076c573d6000803e3d6000fd5b505050506040513d601f19601f8201168201806040525081019061079091906127b7565b61079a9190612760565b90506000816103e889602001516107b19190612760565b6107bb9190612813565b905060006107c9848361115a565b905060006107f06107d983611173565b6107e2896111a4565b6110f790919063ffffffff16565b90506108058b826111c490919063ffffffff16565b90506000600167ffffffffffffffff81111561082457610823611b2f565b5b60405190808252806020026020018201604052801561085d57816020015b61084a611ab0565b8152602001906001900390816108425790505b50905081816000815181106108755761087461254a565b5b602002602001018190525061089161088c826103ab565b6103c9565b99505050505050505050509392505050565b60606000846040516020016108b89190612928565b60405160208183030381529060405290506000845111156108f85780846040516020016108e69291906129ed565b60405160208183030381529060405290505b808360405160200161090b929190612a73565b6040516020818303038152906040529050809150509392505050565b6060600060016000848152602001908152602001600020604051806040016040529081600082018054610959906121fa565b80601f0160208091040260200160405190810160405280929190818152602001828054610985906121fa565b80156109d25780601f106109a7576101008083540402835291602001916109d2565b820191906000526020600020905b8154815290600101906020018083116109b557829003601f168201915b505050505081526020016001820180546109eb906121fa565b80601f0160208091040260200160405190810160405280929190818152602001828054610a17906121fa565b8015610a645780601f10610a3957610100808354040283529160200191610a64565b820191906000526020600020905b815481529060010190602001808311610a4757829003601f168201915b5050505050815250509050610a77611ad1565b610400816000018181525050610400816020018181525050610aa282600001518360200151836104d1565b92505050919050565b6060600083519050600080600090505b82811015610ae857610ace868287611227565b905080915050600182610ae19190612aa2565b9150610abb565b508067ffffffffffffffff811115610b0357610b02611b2f565b5b604051908082528060200260200182016040528015610b3657816020015b6060815260200190600190039081610b215790505b5092506000905060005b82811015610b8957610b53868287611227565b858481518110610b6657610b6561254a565b5b602002602001018193508290525050600182610b829190612aa2565b9150610b40565b50505092915050565b60606000825167ffffffffffffffff811115610bb157610bb0611b2f565b5b604051908082528060200260200182016040528015610be457816020015b6060815260200190600190039081610bcf5790505b50905060005b8351811015610c4757610c16848281518110610c0957610c0861254a565b5b60200260200101516103c9565b828281518110610c2957610c2861254a565b5b60200260200101819052508080610c3f906124ce565b915050610bea565b50610c51816112b4565b915050919050565b6000808290506000600167ffffffffffffffff811115610c7c57610c7b611b2f565b5b6040519080825280601f01601f191660200182016040528015610cae5781602001600182028036833780820191505090505b50905060005b8251811015610db857828181518110610cd057610ccf61254a565b5b602001015160f81c60f81b82600081518110610cef57610cee61254a565b5b60200101907effffffffffffffffffffffffffffffffffffffffffffffffffffffffffffff1916908160001a9053508573ffffffffffffffffffffffffffffffffffffffff16637f2406a7836040518263ffffffff1660e01b8152600401610d579190611ef4565b602060405180830381865afa158015610d74573d6000803e3d6000fd5b505050506040513d601f19601f82011682018060405250810190610d9891906127b7565b84610da39190612aa2565b93508080610db0906124ce565b915050610cb4565b50505092915050565b6060610dcc8361132e565b610dd58361132e565b604051602001610de6929190612bba565b604051602081830303815290604052905092915050565b610e05611ab0565b60008290506000600167ffffffffffffffff811115610e2757610e26611b2f565b5b6040519080825280601f01601f191660200182016040528015610e595781602001600182028036833780820191505090505b5090506000825167ffffffffffffffff811115610e7957610e78611b2f565b5b604051908082528060200260200182016040528015610eb257816020015b610e9f611ab0565b815260200190600190039081610e975790505b509050600080600090505b84518110156110e157848181518110610ed957610ed861254a565b5b602001015160f81c60f81b84600081518110610ef857610ef761254a565b5b60200101907effffffffffffffffffffffffffffffffffffffffffffffffffffffffffffff1916908160001a905350610fb6610fb18973ffffffffffffffffffffffffffffffffffffffff1663a4b3eff4876040518263ffffffff1660e01b8152600401610f669190611ef4565b600060405180830381865afa158015610f83573d6000803e3d6000fd5b505050506040513d6000823e3d601f19601f82011682018060405250810190610fac9190612ca0565b611382565b61151b565b838281518110610fc957610fc861254a565b5b6020026020010181905250600082111561104757611028838281518110610ff357610ff261254a565b5b60200260200101516110048461158e565b6040516020016110149190612d35565b6040516020818303038152906040526110f7565b83828151811061103b5761103a61254a565b5b60200260200101819052505b8773ffffffffffffffffffffffffffffffffffffffff16637f2406a7856040518263ffffffff1660e01b81526004016110809190611ef4565b602060405180830381865afa15801561109d573d6000803e3d6000fd5b505050506040513d601f19601f820116820180604052508101906110c191906127b7565b826110cc9190612aa2565b915080806110d9906124ce565b915050610ebd565b506110eb826111a4565b94505050505092915050565b6110ff611ab0565b6111528360405180604001604052806040518060400160405280600981526020017f7472616e73666f726d00000000000000000000000000000000000000000000008152508152602001858152506116ee565b905092915050565b6000818310611169578161116b565b825b905092915050565b606061117e82611810565b60405160200161118e9190612dae565b6040516020818303038152906040529050919050565b6111ac611ab0565b6111bd6111b883610b92565b611a55565b9050919050565b6111cc611ab0565b61121f8360405180604001604052806040518060400160405280600481526020017f66696c6c000000000000000000000000000000000000000000000000000000008152508152602001858152506116ee565b905092915050565b60606000808551905060405192506020830185602088010160008060008990505b858110156112925760008203611271578351925082855260208401935060208501945061010091505b6008820391508860ff84841c1603611287578095505b600181019050611248565b8096508981039550858852856020890101604052505050505050935093915050565b60606000825190506040519150602082016020840160005b8381101561131957815183815160005b818110156112ff57602084019350835183526020830192506020810190506112dc565b5080860195506020850194505050506001810190506112cc565b50602084830303845281604052505050919050565b60606000821315611349576113428261158e565b905061137d565b61135b8261135690612de5565b61158e565b60405160200161136b9190612e79565b60405160208183030381529060405290505b919050565b6060806020830160036002855102046040519250602083016000805b8381101561150157600060108206036113bc57845191506018850194505b60008060028306600081146113e85760ff8560e81c169250600f8560f41c1691508460181b94506113f8565b8460f81c9250600f8560f01c1691505b5080600081146114cd5760006002610100858560081b010361040081106000811461143157602d93506003925081610400039150611439565b610400820391505b5060098111156114a3576063811115611488576103e781111561146d5760318360081b1792508160010191506103e8810690505b606481046030018360081b1792508160010191506064810690505b600a81046030018360081b179250816001019150600a810690505b60208160300160081b8460101b171792508260088302610100031b895281890198505050506114f3565b607b83106060841116605b8410604085111617156114f2578260f81b86526001860195505b5b50505060018101905061139e565b506020858303038552816040525050505080915050919050565b611523611ab0565b816040516020016115349190612ee7565b60405160208183030381529060405281600001819052506040518060400160405280600481526020017f222f3e0a000000000000000000000000000000000000000000000000000000008152508160200181905250919050565b6060600082036115d5576040518060400160405280600181526020017f300000000000000000000000000000000000000000000000000000000000000081525090506116e9565b600082905060005b600082146116075780806115f0906124ce565b915050600a826116009190612813565b91506115dd565b60008167ffffffffffffffff81111561162357611622611b2f565b5b6040519080825280601f01601f1916602001820160405280156116555781602001600182028036833780820191505090505b5090505b600085146116e25760018261166e9190612516565b9150600a8561167d9190612f09565b60306116899190612aa2565b60f81b81838151811061169f5761169e61254a565b5b60200101907effffffffffffffffffffffffffffffffffffffffffffffffffffffffffffff1916908160001a905350600a856116db9190612813565b9450611659565b8093505050505b919050565b6116f6611ab0565b826000015181600001819052508260200151816020018190525060018360400151516117229190612aa2565b67ffffffffffffffff81111561173b5761173a611b2f565b5b60405190808252806020026020018201604052801561177457816020015b611761611aeb565b8152602001906001900390816117595790505b50816040018190525060005b8360400151518110156117e157836040015181815181106117a4576117a361254a565b5b6020026020010151826040015182815181106117c3576117c261254a565b5b602002602001018190525080806117d9906124ce565b915050611780565b50818160400151846040015151815181106117ff576117fe61254a565b5b602002602001018190525092915050565b60606000600367ffffffffffffffff81111561182f5761182e611b2f565b5b60405190808252806020026020018201604052801561186257816020015b606081526020019060019003908161184d5790505b5090506103e88311156118a9576118856103e8846118809190612813565b61158e565b816000815181106118995761189861254a565b5b60200260200101819052506118ff565b6040518060400160405280600181526020017f3000000000000000000000000000000000000000000000000000000000000000815250816000815181106118f3576118f261254a565b5b60200260200101819052505b600a831015611962576040518060400160405280600381526020017f2e30300000000000000000000000000000000000000000000000000000000000815250816001815181106119525761195161254a565b5b6020026020010181905250611a1c565b60648310156119c5576040518060400160405280600281526020017f2e30000000000000000000000000000000000000000000000000000000000000815250816001815181106119b5576119b461254a565b5b6020026020010181905250611a1b565b6040518060400160405280600181526020017f2e0000000000000000000000000000000000000000000000000000000000000081525081600181518110611a0f57611a0e61254a565b5b60200260200101819052505b5b611a258361158e565b81600281518110611a3957611a3861254a565b5b6020026020010181905250611a4d816112b4565b915050919050565b611a5d611ab0565b604051602001611a6c90612f86565b604051602081830303815290604052816000018190525081604051602001611a949190613033565b6040516020818303038152906040528160200181905250919050565b60405180606001604052806060815260200160608152602001606081525090565b604051806040016040528060008152602001600081525090565b604051806040016040528060608152602001606081525090565b6000604051905090565b600080fd5b600080fd5b600080fd5b6000601f19601f8301169050919050565b7f4e487b7100000000000000000000000000000000000000000000000000000000600052604160045260246000fd5b611b6782611b1e565b810181811067ffffffffffffffff82111715611b8657611b85611b2f565b5b80604052505050565b6000611b99611b05565b9050611ba58282611b5e565b919050565b600080fd5b600080fd5b600080fd5b600067ffffffffffffffff821115611bd457611bd3611b2f565b5b611bdd82611b1e565b9050602081019050919050565b82818337600083830152505050565b6000611c0c611c0784611bb9565b611b8f565b905082815260208101848484011115611c2857611c27611bb4565b5b611c33848285611bea565b509392505050565b600082601f830112611c5057611c4f611baf565b5b8135611c60848260208601611bf9565b91505092915050565b600060408284031215611c7f57611c7e611b19565b5b611c896040611b8f565b9050600082013567ffffffffffffffff811115611ca957611ca8611baa565b5b611cb584828501611c3b565b600083015250602082013567ffffffffffffffff811115611cd957611cd8611baa565b5b611ce584828501611c3b565b60208301525092915050565b600060208284031215611d0757611d06611b0f565b5b600082013567ffffffffffffffff811115611d2557611d24611b14565b5b611d3184828501611c69565b91505092915050565b6000819050919050565b611d4d81611d3a565b82525050565b6000602082019050611d686000830184611d44565b92915050565b611d7781611d3a565b8114611d8257600080fd5b50565b600081359050611d9481611d6e565b92915050565b600060408284031215611db057611daf611b19565b5b611dba6040611b8f565b90506000611dca84828501611d85565b6000830152506020611dde84828501611d85565b60208301525092915050565b600080600060808486031215611e0357611e02611b0f565b5b600084013567ffffffffffffffff811115611e2157611e20611b14565b5b611e2d86828701611c3b565b935050602084013567ffffffffffffffff811115611e4e57611e4d611b14565b5b611e5a86828701611c3b565b9250506040611e6b86828701611d9a565b9150509250925092565b600081519050919050565b600082825260208201905092915050565b60005b83811015611eaf578082015181840152602081019050611e94565b60008484015250505050565b6000611ec682611e75565b611ed08185611e80565b9350611ee0818560208601611e91565b611ee981611b1e565b840191505092915050565b60006020820190508181036000830152611f0e8184611ebb565b905092915050565b600073ffffffffffffffffffffffffffffffffffffffff82169050919050565b6000819050919050565b6000611f5b611f56611f5184611f16565b611f36565b611f16565b9050919050565b6000611f6d82611f40565b9050919050565b6000611f7f82611f62565b9050919050565b611f8f81611f74565b82525050565b6000602082019050611faa6000830184611f86565b92915050565b600060208284031215611fc657611fc5611b0f565b5b6000611fd484828501611d85565b91505092915050565b600081519050919050565b600082825260208201905092915050565b600061200482611fdd565b61200e8185611fe8565b935061201e818560208601611e91565b61202781611b1e565b840191505092915050565b6000602082019050818103600083015261204c8184611ff9565b905092915050565b60006020828403121561206a57612069611b0f565b5b600082013567ffffffffffffffff81111561208857612087611b14565b5b61209484828501611c3b565b91505092915050565b600081519050919050565b600082825260208201905092915050565b6000819050602082019050919050565b600082825260208201905092915050565b60006120e582611e75565b6120ef81856120c9565b93506120ff818560208601611e91565b61210881611b1e565b840191505092915050565b600061211f83836120da565b905092915050565b6000602082019050919050565b600061213f8261209d565b61214981856120a8565b93508360208202850161215b856120b9565b8060005b8581101561219757848403895281516121788582612113565b945061218383612127565b925060208a0199505060018101905061215f565b50829750879550505050505092915050565b600060208201905081810360008301526121c38184612134565b905092915050565b7f4e487b7100000000000000000000000000000000000000000000000000000000600052602260045260246000fd5b6000600282049050600182168061221257607f821691505b602082108103612225576122246121cb565b5b50919050565b60008190508160005260206000209050919050565b60006020601f8301049050919050565b600082821b905092915050565b60006008830261228d7fffffffffffffffffffffffffffffffffffffffffffffffffffffffffffffffff82612250565b6122978683612250565b95508019841693508086168417925050509392505050565b60006122ca6122c56122c084611d3a565b611f36565b611d3a565b9050919050565b6000819050919050565b6122e4836122af565b6122f86122f0826122d1565b84845461225d565b825550505050565b600090565b61230d612300565b6123188184846122db565b505050565b5b8181101561233c57612331600082612305565b60018101905061231e565b5050565b601f821115612381576123528161222b565b61235b84612240565b8101602085101561236a578190505b61237e61237685612240565b83018261231d565b50505b505050565b600082821c905092915050565b60006123a460001984600802612386565b1980831691505092915050565b60006123bd8383612393565b9150826002028217905092915050565b6123d682611e75565b67ffffffffffffffff8111156123ef576123ee611b2f565b5b6123f982546121fa565b612404828285612340565b600060209050601f8311600181146124375760008415612425578287015190505b61242f85826123b1565b865550612497565b601f1984166124458661222b565b60005b8281101561246d57848901518255600182019150602085019450602081019050612448565b8683101561248a5784890151612486601f891682612393565b8355505b6001600288020188555050505b505050505050565b7f4e487b7100000000000000000000000000000000000000000000000000000000600052601160045260246000fd5b60006124d982611d3a565b91507fffffffffffffffffffffffffffffffffffffffffffffffffffffffffffffffff820361250b5761250a61249f565b5b600182019050919050565b600061252182611d3a565b915061252c83611d3a565b92508282039050818111156125445761254361249f565b5b92915050565b7f4e487b7100000000000000000000000000000000000000000000000000000000600052603260045260246000fd5b600081905092915050565b600061258f82611fdd565b6125998185612579565b93506125a9818560208601611e91565b80840191505092915050565b600081905092915050565b7f2220000000000000000000000000000000000000000000000000000000000000600082015250565b60006125f66002836125b5565b9150612601826125c0565b600282019050919050565b600061261782611e75565b61262181856125b5565b9350612631818560208601611e91565b80840191505092915050565b7f3d22000000000000000000000000000000000000000000000000000000000000600082015250565b60006126736002836125b5565b915061267e8261263d565b600282019050919050565b60006126958286612584565b91506126a0826125e9565b91506126ac828561260c565b91506126b782612666565b91506126c3828461260c565b9150819050949350505050565b7f41747472696275746573206f6e206c6973740000000000000000000000000000600082015250565b6000612706601283611e80565b9150612711826126d0565b602082019050919050565b60006020820190508181036000830152612735816126f9565b9050919050565b60006127488285612584565b91506127548284612584565b91508190509392505050565b600061276b82611d3a565b915061277683611d3a565b925082820261278481611d3a565b9150828204841483151761279b5761279a61249f565b5b5092915050565b6000815190506127b181611d6e565b92915050565b6000602082840312156127cd576127cc611b0f565b5b60006127db848285016127a2565b91505092915050565b7f4e487b7100000000000000000000000000000000000000000000000000000000600052601260045260246000fd5b600061281e82611d3a565b915061282983611d3a565b925082612839576128386127e4565b5b828204905092915050565b7f3c3f786d6c2076657273696f6e3d22312e302220656e636f64696e673d22555460008201527f462d38223f3e3c7376672076696577426f783d22000000000000000000000000602082015250565b60006128a06034836125b5565b91506128ab82612844565b603482019050919050565b7f2220786d6c6e733d22687474703a2f2f7777772e77332e6f72672f323030302f60008201527f737667223e0a0000000000000000000000000000000000000000000000000000602082015250565b60006129126026836125b5565b915061291d826128b6565b602682019050919050565b600061293382612893565b915061293f828461260c565b915061294a82612905565b915081905092915050565b7f3c646566733e0a00000000000000000000000000000000000000000000000000600082015250565b600061298b6007836125b5565b915061299682612955565b600782019050919050565b7f3c2f646566733e0a000000000000000000000000000000000000000000000000600082015250565b60006129d76008836125b5565b91506129e2826129a1565b600882019050919050565b60006129f98285612584565b9150612a048261297e565b9150612a108284612584565b9150612a1b826129ca565b91508190509392505050565b7f3c2f7376673e0a00000000000000000000000000000000000000000000000000600082015250565b6000612a5d6007836125b5565b9150612a6882612a27565b600782019050919050565b6000612a7f8285612584565b9150612a8b8284612584565b9150612a9682612a50565b91508190509392505050565b6000612aad82611d3a565b9150612ab883611d3a565b9250828201905080821115612ad057612acf61249f565b5b92915050565b7f7472616e736c6174652800000000000000000000000000000000000000000000600082015250565b6000612b0c600a836125b5565b9150612b1782612ad6565b600a82019050919050565b7f2000000000000000000000000000000000000000000000000000000000000000600082015250565b6000612b586001836125b5565b9150612b6382612b22565b600182019050919050565b7f2900000000000000000000000000000000000000000000000000000000000000600082015250565b6000612ba46001836125b5565b9150612baf82612b6e565b600182019050919050565b6000612bc582612aff565b9150612bd1828561260c565b9150612bdc82612b4b565b9150612be8828461260c565b9150612bf382612b97565b91508190509392505050565b600067ffffffffffffffff821115612c1a57612c19611b2f565b5b612c2382611b1e565b9050602081019050919050565b6000612c43612c3e84612bff565b611b8f565b905082815260208101848484011115612c5f57612c5e611bb4565b5b612c6a848285611e91565b509392505050565b600082601f830112612c8757612c86611baf565b5b8151612c97848260208601612c30565b91505092915050565b600060208284031215612cb657612cb5611b0f565b5b600082015167ffffffffffffffff811115612cd457612cd3611b14565b5b612ce084828501612c72565b91505092915050565b7f2030290000000000000000000000000000000000000000000000000000000000600082015250565b6000612d1f6003836125b5565b9150612d2a82612ce9565b600382019050919050565b6000612d4082612aff565b9150612d4c828461260c565b9150612d5782612d12565b915081905092915050565b7f7363616c65280000000000000000000000000000000000000000000000000000600082015250565b6000612d986006836125b5565b9150612da382612d62565b600682019050919050565b6000612db982612d8b565b9150612dc5828461260c565b9150612dd082612b97565b915081905092915050565b6000819050919050565b6000612df082612ddb565b91507f80000000000000000000000000000000000000000000000000000000000000008203612e2257612e2161249f565b5b816000039050919050565b7f2d00000000000000000000000000000000000000000000000000000000000000600082015250565b6000612e636001836125b5565b9150612e6e82612e2d565b600182019050919050565b6000612e8482612e56565b9150612e90828461260c565b915081905092915050565b7f3c7061746820643d220000000000000000000000000000000000000000000000600082015250565b6000612ed16009836125b5565b9150612edc82612e9b565b600982019050919050565b6000612ef282612ec4565b9150612efe8284612584565b915081905092915050565b6000612f1482611d3a565b9150612f1f83611d3a565b925082612f2f57612f2e6127e4565b5b828206905092915050565b7f3c6720785f783d22780000000000000000000000000000000000000000000000600082015250565b6000612f706009836125b5565b9150612f7b82612f3a565b600982019050919050565b6000612f9182612f63565b9150819050919050565b7f223e000000000000000000000000000000000000000000000000000000000000600082015250565b6000612fd16002836125b5565b9150612fdc82612f9b565b600282019050919050565b7f3c2f673e0a000000000000000000000000000000000000000000000000000000600082015250565b600061301d6005836125b5565b915061302882612fe7565b600582019050919050565b600061303e82612fc4565b915061304a8284612584565b915061305582613010565b91508190509291505056fea26469706673582212204769d08a2ec04a75e6de50d8e20865fffaf156f7fb996a39950da6a29100b63764736f6c63430008110033",
  "linkReferences": {},
  "deployedLinkReferences": {}
}