{
  "_format": "hh-sol-artifact-1",
  "contractName": "MessageProvider3",
  "sourceName": "contracts/providers/MessageProvider3.sol",
  "abi": [
    {
      "inputs": [
        {
          "internalType": "contract IMessageStoreV2",
          "name": "_messageStore",
          "type": "address"
        }
      ],
      "stateMutability": "nonpayable",
      "type": "constructor"
    },
    {
      "anonymous": false,
      "inputs": [
        {
          "indexed": true,
          "internalType": "address",
          "name": "previousOwner",
          "type": "address"
        },
        {
          "indexed": true,
          "internalType": "address",
          "name": "newOwner",
          "type": "address"
        }
      ],
      "name": "OwnershipTransferred",
      "type": "event"
    },
    {
      "anonymous": false,
      "inputs": [
        {
          "indexed": false,
          "internalType": "string",
          "name": "providerKey",
          "type": "string"
        },
        {
          "indexed": false,
          "internalType": "uint256",
          "name": "assetId",
          "type": "uint256"
        },
        {
          "indexed": false,
          "internalType": "address payable",
          "name": "to",
          "type": "address"
        },
        {
          "indexed": false,
          "internalType": "uint256",
          "name": "amount",
          "type": "uint256"
        }
      ],
      "name": "Payout",
      "type": "event"
    },
    {
      "inputs": [
        {
          "internalType": "string",
          "name": "",
          "type": "string"
        }
      ],
      "name": "assets",
      "outputs": [
        {
          "internalType": "contract IAssetProvider",
          "name": "",
          "type": "address"
        }
      ],
      "stateMutability": "view",
      "type": "function"
    },
    {
      "inputs": [
        {
          "internalType": "uint256",
          "name": "_assetId",
          "type": "uint256"
        }
      ],
      "name": "generateSVGDocument",
      "outputs": [
        {
          "internalType": "string",
          "name": "svgDocument",
          "type": "string"
        }
      ],
      "stateMutability": "view",
      "type": "function"
    },
    {
      "inputs": [
        {
          "internalType": "string",
          "name": "message",
          "type": "string"
        },
        {
          "internalType": "string",
          "name": "color",
          "type": "string"
        },
        {
          "internalType": "string",
          "name": "fontName",
          "type": "string"
        },
        {
          "internalType": "string",
          "name": "assetName",
          "type": "string"
        },
        {
          "components": [
            {
              "internalType": "uint256",
              "name": "w",
              "type": "uint256"
            },
            {
              "internalType": "uint256",
              "name": "h",
              "type": "uint256"
            }
          ],
          "internalType": "struct IMessageStoreV2.Box",
          "name": "box",
          "type": "tuple"
        }
      ],
      "name": "generateSVGMessage",
      "outputs": [
        {
          "internalType": "string",
          "name": "output",
          "type": "string"
        }
      ],
      "stateMutability": "view",
      "type": "function"
    },
    {
      "inputs": [
        {
          "internalType": "uint256",
          "name": "_assetId",
          "type": "uint256"
        }
      ],
      "name": "generateSVGPart",
      "outputs": [
        {
          "internalType": "string",
          "name": "svgPart",
          "type": "string"
        },
        {
          "internalType": "string",
          "name": "tag",
          "type": "string"
        }
      ],
      "stateMutability": "view",
      "type": "function"
    },
    {
      "inputs": [
        {
          "internalType": "uint256",
          "name": "_assetId",
          "type": "uint256"
        }
      ],
      "name": "generateTraits",
      "outputs": [
        {
          "internalType": "string",
          "name": "traits",
          "type": "string"
        }
      ],
      "stateMutability": "pure",
      "type": "function"
    },
    {
      "inputs": [],
      "name": "getOwner",
      "outputs": [
        {
          "internalType": "address",
          "name": "",
          "type": "address"
        }
      ],
      "stateMutability": "view",
      "type": "function"
    },
    {
      "inputs": [],
      "name": "getProviderInfo",
      "outputs": [
        {
          "components": [
            {
              "internalType": "string",
              "name": "key",
              "type": "string"
            },
            {
              "internalType": "string",
              "name": "name",
              "type": "string"
            },
            {
              "internalType": "contract IAssetProvider",
              "name": "provider",
              "type": "address"
            }
          ],
          "internalType": "struct IAssetProvider.ProviderInfo",
          "name": "",
          "type": "tuple"
        }
      ],
      "stateMutability": "view",
      "type": "function"
    },
    {
      "inputs": [
        {
          "internalType": "string",
          "name": "assetName",
          "type": "string"
        }
      ],
      "name": "isAssetRegistered",
      "outputs": [
        {
          "internalType": "bool",
          "name": "",
          "type": "bool"
        }
      ],
      "stateMutability": "view",
      "type": "function"
    },
    {
      "inputs": [],
      "name": "owner",
      "outputs": [
        {
          "internalType": "address",
          "name": "",
          "type": "address"
        }
      ],
      "stateMutability": "view",
      "type": "function"
    },
    {
      "inputs": [
        {
          "internalType": "uint256",
          "name": "_assetId",
          "type": "uint256"
        }
      ],
      "name": "processPayout",
      "outputs": [],
      "stateMutability": "payable",
      "type": "function"
    },
    {
      "inputs": [],
      "name": "receiver",
      "outputs": [
        {
          "internalType": "address",
          "name": "",
          "type": "address"
        }
      ],
      "stateMutability": "view",
      "type": "function"
    },
    {
      "inputs": [
        {
          "internalType": "string",
          "name": "assetName",
          "type": "string"
        },
        {
          "internalType": "contract IAssetProvider",
          "name": "assetProvider",
          "type": "address"
        }
      ],
      "name": "registerAsset",
      "outputs": [],
      "stateMutability": "nonpayable",
      "type": "function"
    },
    {
      "inputs": [],
      "name": "renounceOwnership",
      "outputs": [],
      "stateMutability": "nonpayable",
      "type": "function"
    },
    {
      "inputs": [
        {
          "internalType": "address",
          "name": "_receiver",
          "type": "address"
        }
      ],
      "name": "setReceiver",
      "outputs": [],
      "stateMutability": "nonpayable",
      "type": "function"
    },
    {
      "inputs": [
        {
          "internalType": "bytes4",
          "name": "interfaceId",
          "type": "bytes4"
        }
      ],
      "name": "supportsInterface",
      "outputs": [
        {
          "internalType": "bool",
          "name": "",
          "type": "bool"
        }
      ],
      "stateMutability": "view",
      "type": "function"
    },
    {
      "inputs": [],
      "name": "totalSupply",
      "outputs": [
        {
          "internalType": "uint256",
          "name": "",
          "type": "uint256"
        }
      ],
      "stateMutability": "pure",
      "type": "function"
    },
    {
      "inputs": [
        {
          "internalType": "address",
          "name": "newOwner",
          "type": "address"
        }
      ],
      "name": "transferOwnership",
      "outputs": [],
      "stateMutability": "nonpayable",
      "type": "function"
    }
  ],
  "bytecode": "0x60a06040523480156200001157600080fd5b5060405162002f4738038062002f47833981810160405281019062000037919062000255565b620000576200004b620000e260201b60201c565b620000ea60201b60201c565b8073ffffffffffffffffffffffffffffffffffffffff1660808173ffffffffffffffffffffffffffffffffffffffff16815250506200009b620001ae60201b60201c565b600160006101000a81548173ffffffffffffffffffffffffffffffffffffffff021916908373ffffffffffffffffffffffffffffffffffffffff1602179055505062000287565b600033905090565b60008060009054906101000a900473ffffffffffffffffffffffffffffffffffffffff169050816000806101000a81548173ffffffffffffffffffffffffffffffffffffffff021916908373ffffffffffffffffffffffffffffffffffffffff1602179055508173ffffffffffffffffffffffffffffffffffffffff168173ffffffffffffffffffffffffffffffffffffffff167f8be0079c531659141344cd1fd0a4f28419497f9722a3daafe3b4186f6b6457e060405160405180910390a35050565b60008060009054906101000a900473ffffffffffffffffffffffffffffffffffffffff16905090565b600080fd5b600073ffffffffffffffffffffffffffffffffffffffff82169050919050565b60006200020982620001dc565b9050919050565b60006200021d82620001fc565b9050919050565b6200022f8162000210565b81146200023b57600080fd5b50565b6000815190506200024f8162000224565b92915050565b6000602082840312156200026e576200026d620001d7565b5b60006200027e848285016200023e565b91505092915050565b608051612c8f620002b860003960008181610511015281816105ba01528181610be10152610ce50152612c8f6000f3fe6080604052600436106100fe5760003560e01c806385936228116100955780638c40188e116100645780638c40188e1461034c5780638da5cb5b14610377578063e3f24f02146103a2578063f2fde38b146103e0578063f7260d3e14610409576100fe565b8063859362281461029f578063893d20e8146102dc57806389ee68bf146103075780638c2261ad14610323576100fe565b80635d6e0dd5116100d15780635d6e0dd5146101e5578063715018a614610222578063718da7ee1461023957806379b92f2714610262576100fe565b806301ffc9a71461010357806318160ddd14610140578063195478b91461016b57806342d97aec146101a8575b600080fd5b34801561010f57600080fd5b5061012a6004803603810190610125919061177e565b610434565b60405161013791906117c6565b60405180910390f35b34801561014c57600080fd5b50610155610506565b60405161016291906117fa565b60405180910390f35b34801561017757600080fd5b50610192600480360381019061018d91906119e1565b61050b565b60405161019f9190611b4b565b60405180910390f35b3480156101b457600080fd5b506101cf60048036038101906101ca9190611b6d565b61081f565b6040516101dc91906117c6565b60405180910390f35b3480156101f157600080fd5b5061020c60048036038101906102079190611bb6565b610896565b6040516102199190611b4b565b60405180910390f35b34801561022e57600080fd5b50610237610905565b005b34801561024557600080fd5b50610260600480360381019061025b9190611c41565b610919565b005b34801561026e57600080fd5b5061028960048036038101906102849190611bb6565b610965565b6040516102969190611b4b565b60405180910390f35b3480156102ab57600080fd5b506102c660048036038101906102c19190611b6d565b61096c565b6040516102d39190611ccd565b60405180910390f35b3480156102e857600080fd5b506102f16109b5565b6040516102fe9190611cf7565b60405180910390f35b610321600480360381019061031c9190611bb6565b6109c4565b005b34801561032f57600080fd5b5061034a60048036038101906103459190611d50565b610aa8565b005b34801561035857600080fd5b50610361610b09565b60405161036e9190611e5c565b60405180910390f35b34801561038357600080fd5b5061038c610bb1565b6040516103999190611cf7565b60405180910390f35b3480156103ae57600080fd5b506103c960048036038101906103c49190611bb6565b610bda565b6040516103d7929190611e7e565b60405180910390f35b3480156103ec57600080fd5b5061040760048036038101906104029190611c41565b610ead565b005b34801561041557600080fd5b5061041e610f30565b60405161042b9190611cf7565b60405180910390f35b60007f0ece3d21000000000000000000000000000000000000000000000000000000007bffffffffffffffffffffffffffffffffffffffffffffffffffffffff1916827bffffffffffffffffffffffffffffffffffffffffffffffffffffffff191614806104ff57507f01ffc9a7000000000000000000000000000000000000000000000000000000007bffffffffffffffffffffffffffffffffffffffffffffffffffffffff1916827bffffffffffffffffffffffffffffffffffffffffffffffffffffffff1916145b9050919050565b600090565b606060007f000000000000000000000000000000000000000000000000000000000000000073ffffffffffffffffffffffffffffffffffffffff1663e61270e5888888876040518563ffffffff1660e01b815260040161056e9493929190611ef3565b600060405180830381865afa15801561058b573d6000803e3d6000fd5b505050506040513d6000823e3d601f19601f820116820180604052508101906105b49190611fee565b905060007f000000000000000000000000000000000000000000000000000000000000000073ffffffffffffffffffffffffffffffffffffffff166316e921c06040518163ffffffff1660e01b8152600401602060405180830381865afa158015610623573d6000803e3d6000fd5b505050506040513d601f19601f82011682018060405250810190610647919061204c565b905060006040518060400160405280600981526020017f4d6573736167655632000000000000000000000000000000000000000000000081525061068a83610f56565b60405160200161069b9291906120b5565b60405160208183030381529060405290506000806002886040516106bf91906120d9565b908152602001604051809103902060009054906101000a900473ffffffffffffffffffffffffffffffffffffffff1673ffffffffffffffffffffffffffffffffffffffff1663e3f24f02856040518263ffffffff1660e01b815260040161072691906117fa565b600060405180830381865afa158015610743573d6000803e3d6000fd5b505050506040513d6000823e3d601f19601f8201168201806040525081019061076c9190612160565b915091506000828660405160200161078592919061234f565b604051602081830303815290604052905060006107bb6107b6866107a885611024565b61107f90919063ffffffff16565b6110e2565b905061080d6040518060400160405280600d81526020017f302030203130323420313032340000000000000000000000000000000000000081525082610808610803896111ea565b6110e2565b61125d565b97505050505050505095945050505050565b60008073ffffffffffffffffffffffffffffffffffffffff1660028360405161084891906120d9565b908152602001604051809103902060009054906101000a900473ffffffffffffffffffffffffffffffffffffffff1673ffffffffffffffffffffffffffffffffffffffff1614159050919050565b60608060606108a484610bda565b80925081935050506108fc6040518060400160405280600d81526020017f3020302031303234203130323400000000000000000000000000000000000000815250836108f76108f2856111ea565b6110e2565b61125d565b92505050919050565b61090d6112e1565b610917600061135f565b565b6109216112e1565b80600160006101000a81548173ffffffffffffffffffffffffffffffffffffffff021916908373ffffffffffffffffffffffffffffffffffffffff16021790555050565b6060919050565b6002818051602081018201805184825260208301602085012081835280955050505050506000915054906101000a900473ffffffffffffffffffffffffffffffffffffffff1681565b60006109bf610bb1565b905090565b6000600160009054906101000a900473ffffffffffffffffffffffffffffffffffffffff1690508073ffffffffffffffffffffffffffffffffffffffff166108fc349081150290604051600060405180830381858888f19350505050158015610a31573d6000803e3d6000fd5b507fbb0eeee27936db25b1a46a81ab6d97326392a3e961efa7273d5d756d7a2e1cad6040518060400160405280600981526020017f4d65737361676556320000000000000000000000000000000000000000000000815250838334604051610a9c94939291906123c0565b60405180910390a15050565b80600283604051610ab991906120d9565b908152602001604051809103902060006101000a81548173ffffffffffffffffffffffffffffffffffffffff021916908373ffffffffffffffffffffffffffffffffffffffff1602179055505050565b610b116116a0565b60405180606001604052806040518060400160405280600981526020017f4d6573736167655632000000000000000000000000000000000000000000000081525081526020016040518060400160405280600781526020017f4d6573736167650000000000000000000000000000000000000000000000000081525081526020013073ffffffffffffffffffffffffffffffffffffffff16815250905090565b60008060009054906101000a900473ffffffffffffffffffffffffffffffffffffffff16905090565b60608060007f000000000000000000000000000000000000000000000000000000000000000073ffffffffffffffffffffffffffffffffffffffff1663dec0314e856040518263ffffffff1660e01b8152600401610c3891906117fa565b600060405180830381865afa158015610c55573d6000803e3d6000fd5b505050506040513d6000823e3d601f19601f82011682018060405250810190610c7e9190611fee565b90506040518060400160405280600981526020017f4d65737361676556320000000000000000000000000000000000000000000000815250610cbf85610f56565b604051602001610cd09291906120b5565b604051602081830303815290604052915060007f000000000000000000000000000000000000000000000000000000000000000073ffffffffffffffffffffffffffffffffffffffff1663eac8f5b8866040518263ffffffff1660e01b8152600401610d3c91906117fa565b600060405180830381865afa158015610d59573d6000803e3d6000fd5b505050506040513d6000823e3d601f19601f82011682018060405250810190610d8291906124f4565b90506000816060015190506000600282604051610d9f91906120d9565b908152602001604051809103902060009054906101000a900473ffffffffffffffffffffffffffffffffffffffff1690506000808273ffffffffffffffffffffffffffffffffffffffff1663e3f24f028a6040518263ffffffff1660e01b8152600401610e0c91906117fa565b600060405180830381865afa158015610e29573d6000803e3d6000fd5b505050506040513d6000823e3d601f19601f82011682018060405250810190610e529190612160565b9150915060008287604051602001610e6b92919061234f565b6040516020818303038152906040529050610e9f610e9a89610e8c84611024565b61107f90919063ffffffff16565b6110e2565b985050505050505050915091565b610eb56112e1565b600073ffffffffffffffffffffffffffffffffffffffff168173ffffffffffffffffffffffffffffffffffffffff1603610f24576040517f08c379a0000000000000000000000000000000000000000000000000000000008152600401610f1b906125af565b60405180910390fd5b610f2d8161135f565b50565b600160009054906101000a900473ffffffffffffffffffffffffffffffffffffffff1681565b606060006001610f6584611423565b01905060008167ffffffffffffffff811115610f8457610f83611830565b5b6040519080825280601f01601f191660200182016040528015610fb65781602001600182028036833780820191505090505b509050600082602001820190505b600115611019578080600190039150507f3031323334353637383961626364656600000000000000000000000000000000600a86061a8153600a858161100d5761100c6125cf565b5b04945060008503610fc4575b819350505050919050565b61102c6116d7565b60405160200161103b9061264a565b60405160208183030381529060405281600001819052508160405160200161106391906126ab565b6040516020818303038152906040528160200181905250919050565b6110876116d7565b6110da8360405180604001604052806040518060400160405280600281526020017f6964000000000000000000000000000000000000000000000000000000000000815250815260200185815250611576565b905092915050565b606060008260000151511115611174578160000151905060005b82604001515181101561116e57600083604001518281518110611122576111216126d8565b5b6020026020010151905082816000015182602001516040516020016111499392919061279f565b604051602081830303815290604052925050808061116690612815565b9150506110fc565b506111bd565b6000826040015151146111bc576040517f08c379a00000000000000000000000000000000000000000000000000000000081526004016111b3906128a9565b60405180910390fd5b5b8082602001516040516020016111d49291906128c9565b6040516020818303038152906040529050919050565b6111f26116d7565b816040516020016112039190612939565b60405160208183030381529060405281600001819052506040518060400160405280600481526020017f222f3e0a000000000000000000000000000000000000000000000000000000008152508160200181905250919050565b60606000846040516020016112729190612a3f565b60405160208183030381529060405290506000845111156112b25780846040516020016112a0929190612b04565b60405160208183030381529060405290505b80836040516020016112c5929190612b8a565b6040516020818303038152906040529050809150509392505050565b6112e9611698565b73ffffffffffffffffffffffffffffffffffffffff16611307610bb1565b73ffffffffffffffffffffffffffffffffffffffff161461135d576040517f08c379a000000000000000000000000000000000000000000000000000000000815260040161135490612c05565b60405180910390fd5b565b60008060009054906101000a900473ffffffffffffffffffffffffffffffffffffffff169050816000806101000a81548173ffffffffffffffffffffffffffffffffffffffff021916908373ffffffffffffffffffffffffffffffffffffffff1602179055508173ffffffffffffffffffffffffffffffffffffffff168173ffffffffffffffffffffffffffffffffffffffff167f8be0079c531659141344cd1fd0a4f28419497f9722a3daafe3b4186f6b6457e060405160405180910390a35050565b600080600090507a184f03e93ff9f4daa797ed6e38ed64bf6a1f0100000000000000008310611481577a184f03e93ff9f4daa797ed6e38ed64bf6a1f0100000000000000008381611477576114766125cf565b5b0492506040810190505b6d04ee2d6d415b85acef810000000083106114be576d04ee2d6d415b85acef810000000083816114b4576114b36125cf565b5b0492506020810190505b662386f26fc1000083106114ed57662386f26fc1000083816114e3576114e26125cf565b5b0492506010810190505b6305f5e1008310611516576305f5e100838161150c5761150b6125cf565b5b0492506008810190505b612710831061153b576127108381611531576115306125cf565b5b0492506004810190505b6064831061155e5760648381611554576115536125cf565b5b0492506002810190505b600a831061156d576001810190505b80915050919050565b61157e6116d7565b826000015181600001819052508260200151816020018190525060018360400151516115aa9190612c25565b67ffffffffffffffff8111156115c3576115c2611830565b5b6040519080825280602002602001820160405280156115fc57816020015b6115e96116f8565b8152602001906001900390816115e15790505b50816040018190525060005b836040015151811015611669578360400151818151811061162c5761162b6126d8565b5b60200260200101518260400151828151811061164b5761164a6126d8565b5b6020026020010181905250808061166190612815565b915050611608565b5081816040015184604001515181518110611687576116866126d8565b5b602002602001018190525092915050565b600033905090565b60405180606001604052806060815260200160608152602001600073ffffffffffffffffffffffffffffffffffffffff1681525090565b60405180606001604052806060815260200160608152602001606081525090565b604051806040016040528060608152602001606081525090565b6000604051905090565b600080fd5b600080fd5b60007fffffffff0000000000000000000000000000000000000000000000000000000082169050919050565b61175b81611726565b811461176657600080fd5b50565b60008135905061177881611752565b92915050565b6000602082840312156117945761179361171c565b5b60006117a284828501611769565b91505092915050565b60008115159050919050565b6117c0816117ab565b82525050565b60006020820190506117db60008301846117b7565b92915050565b6000819050919050565b6117f4816117e1565b82525050565b600060208201905061180f60008301846117eb565b92915050565b600080fd5b600080fd5b6000601f19601f8301169050919050565b7f4e487b7100000000000000000000000000000000000000000000000000000000600052604160045260246000fd5b6118688261181f565b810181811067ffffffffffffffff8211171561188757611886611830565b5b80604052505050565b600061189a611712565b90506118a6828261185f565b919050565b600067ffffffffffffffff8211156118c6576118c5611830565b5b6118cf8261181f565b9050602081019050919050565b82818337600083830152505050565b60006118fe6118f9846118ab565b611890565b90508281526020810184848401111561191a5761191961181a565b5b6119258482856118dc565b509392505050565b600082601f83011261194257611941611815565b5b81356119528482602086016118eb565b91505092915050565b600080fd5b600080fd5b61196e816117e1565b811461197957600080fd5b50565b60008135905061198b81611965565b92915050565b6000604082840312156119a7576119a661195b565b5b6119b16040611890565b905060006119c18482850161197c565b60008301525060206119d58482850161197c565b60208301525092915050565b600080600080600060c086880312156119fd576119fc61171c565b5b600086013567ffffffffffffffff811115611a1b57611a1a611721565b5b611a278882890161192d565b955050602086013567ffffffffffffffff811115611a4857611a47611721565b5b611a548882890161192d565b945050604086013567ffffffffffffffff811115611a7557611a74611721565b5b611a818882890161192d565b935050606086013567ffffffffffffffff811115611aa257611aa1611721565b5b611aae8882890161192d565b9250506080611abf88828901611991565b9150509295509295909350565b600081519050919050565b600082825260208201905092915050565b60005b83811015611b06578082015181840152602081019050611aeb565b60008484015250505050565b6000611b1d82611acc565b611b278185611ad7565b9350611b37818560208601611ae8565b611b408161181f565b840191505092915050565b60006020820190508181036000830152611b658184611b12565b905092915050565b600060208284031215611b8357611b8261171c565b5b600082013567ffffffffffffffff811115611ba157611ba0611721565b5b611bad8482850161192d565b91505092915050565b600060208284031215611bcc57611bcb61171c565b5b6000611bda8482850161197c565b91505092915050565b600073ffffffffffffffffffffffffffffffffffffffff82169050919050565b6000611c0e82611be3565b9050919050565b611c1e81611c03565b8114611c2957600080fd5b50565b600081359050611c3b81611c15565b92915050565b600060208284031215611c5757611c5661171c565b5b6000611c6584828501611c2c565b91505092915050565b6000819050919050565b6000611c93611c8e611c8984611be3565b611c6e565b611be3565b9050919050565b6000611ca582611c78565b9050919050565b6000611cb782611c9a565b9050919050565b611cc781611cac565b82525050565b6000602082019050611ce26000830184611cbe565b92915050565b611cf181611c03565b82525050565b6000602082019050611d0c6000830184611ce8565b92915050565b6000611d1d82611c03565b9050919050565b611d2d81611d12565b8114611d3857600080fd5b50565b600081359050611d4a81611d24565b92915050565b60008060408385031215611d6757611d6661171c565b5b600083013567ffffffffffffffff811115611d8557611d84611721565b5b611d918582860161192d565b9250506020611da285828601611d3b565b9150509250929050565b600082825260208201905092915050565b6000611dc882611acc565b611dd28185611dac565b9350611de2818560208601611ae8565b611deb8161181f565b840191505092915050565b611dff81611cac565b82525050565b60006060830160008301518482036000860152611e228282611dbd565b91505060208301518482036020860152611e3c8282611dbd565b9150506040830151611e516040860182611df6565b508091505092915050565b60006020820190508181036000830152611e768184611e05565b905092915050565b60006040820190508181036000830152611e988185611b12565b90508181036020830152611eac8184611b12565b90509392505050565b611ebe816117e1565b82525050565b604082016000820151611eda6000850182611eb5565b506020820151611eed6020850182611eb5565b50505050565b600060a0820190508181036000830152611f0d8187611b12565b90508181036020830152611f218186611b12565b90508181036040830152611f358185611b12565b9050611f446060830184611ec4565b95945050505050565b600067ffffffffffffffff821115611f6857611f67611830565b5b611f718261181f565b9050602081019050919050565b6000611f91611f8c84611f4d565b611890565b905082815260208101848484011115611fad57611fac61181a565b5b611fb8848285611ae8565b509392505050565b600082601f830112611fd557611fd4611815565b5b8151611fe5848260208601611f7e565b91505092915050565b6000602082840312156120045761200361171c565b5b600082015167ffffffffffffffff81111561202257612021611721565b5b61202e84828501611fc0565b91505092915050565b60008151905061204681611965565b92915050565b6000602082840312156120625761206161171c565b5b600061207084828501612037565b91505092915050565b600081905092915050565b600061208f82611acc565b6120998185612079565b93506120a9818560208601611ae8565b80840191505092915050565b60006120c18285612084565b91506120cd8284612084565b91508190509392505050565b60006120e58284612084565b915081905092915050565b60006121036120fe846118ab565b611890565b90508281526020810184848401111561211f5761211e61181a565b5b61212a848285611ae8565b509392505050565b600082601f83011261214757612146611815565b5b81516121578482602086016120f0565b91505092915050565b600080604083850312156121775761217661171c565b5b600083015167ffffffffffffffff81111561219557612194611721565b5b6121a185828601612132565b925050602083015167ffffffffffffffff8111156121c2576121c1611721565b5b6121ce85828601612132565b9150509250929050565b7f3c67206f7061636974793d22302e34223e000000000000000000000000000000600082015250565b600061220e601183612079565b9150612219826121d8565b601182019050919050565b600081519050919050565b600081905092915050565b600061224582612224565b61224f818561222f565b935061225f818560208601611ae8565b80840191505092915050565b7f3c2f673e00000000000000000000000000000000000000000000000000000000600082015250565b60006122a1600483612079565b91506122ac8261226b565b600482019050919050565b7f3c673e0a00000000000000000000000000000000000000000000000000000000600082015250565b60006122ed600483612079565b91506122f8826122b7565b600482019050919050565b7f3c2f673e0a000000000000000000000000000000000000000000000000000000600082015250565b6000612339600583612079565b915061234482612303565b600582019050919050565b600061235a82612201565b9150612366828561223a565b915061237182612294565b915061237c826122e0565b9150612388828461223a565b91506123938261232c565b91508190509392505050565b60006123aa82611be3565b9050919050565b6123ba8161239f565b82525050565b600060808201905081810360008301526123da8187611b12565b90506123e960208301866117eb565b6123f660408301856123b1565b61240360608301846117eb565b95945050505050565b6000608082840312156124225761242161195b565b5b61242c6080611890565b9050600082015167ffffffffffffffff81111561244c5761244b611960565b5b61245884828501612132565b600083015250602082015167ffffffffffffffff81111561247c5761247b611960565b5b61248884828501612132565b602083015250604082015167ffffffffffffffff8111156124ac576124ab611960565b5b6124b884828501612132565b604083015250606082015167ffffffffffffffff8111156124dc576124db611960565b5b6124e884828501612132565b60608301525092915050565b60006020828403121561250a5761250961171c565b5b600082015167ffffffffffffffff81111561252857612527611721565b5b6125348482850161240c565b91505092915050565b7f4f776e61626c653a206e6577206f776e657220697320746865207a65726f206160008201527f6464726573730000000000000000000000000000000000000000000000000000602082015250565b6000612599602683611ad7565b91506125a48261253d565b604082019050919050565b600060208201905081810360008301526125c88161258c565b9050919050565b7f4e487b7100000000000000000000000000000000000000000000000000000000600052601260045260246000fd5b7f3c6720785f783d22780000000000000000000000000000000000000000000000600082015250565b6000612634600983612079565b915061263f826125fe565b600982019050919050565b600061265582612627565b9150819050919050565b7f223e000000000000000000000000000000000000000000000000000000000000600082015250565b6000612695600283612079565b91506126a08261265f565b600282019050919050565b60006126b682612688565b91506126c2828461223a565b91506126cd8261232c565b915081905092915050565b7f4e487b7100000000000000000000000000000000000000000000000000000000600052603260045260246000fd5b7f2220000000000000000000000000000000000000000000000000000000000000600082015250565b600061273d600283612079565b915061274882612707565b600282019050919050565b7f3d22000000000000000000000000000000000000000000000000000000000000600082015250565b6000612789600283612079565b915061279482612753565b600282019050919050565b60006127ab828661223a565b91506127b682612730565b91506127c28285612084565b91506127cd8261277c565b91506127d98284612084565b9150819050949350505050565b7f4e487b7100000000000000000000000000000000000000000000000000000000600052601160045260246000fd5b6000612820826117e1565b91507fffffffffffffffffffffffffffffffffffffffffffffffffffffffffffffffff8203612852576128516127e6565b5b600182019050919050565b7f41747472696275746573206f6e206c6973740000000000000000000000000000600082015250565b6000612893601283611ad7565b915061289e8261285d565b602082019050919050565b600060208201905081810360008301526128c281612886565b9050919050565b60006128d5828561223a565b91506128e1828461223a565b91508190509392505050565b7f3c75736520687265663d22230000000000000000000000000000000000000000600082015250565b6000612923600c83612079565b915061292e826128ed565b600c82019050919050565b600061294482612916565b91506129508284612084565b915081905092915050565b7f3c3f786d6c2076657273696f6e3d22312e302220656e636f64696e673d22555460008201527f462d38223f3e3c7376672076696577426f783d22000000000000000000000000602082015250565b60006129b7603483612079565b91506129c28261295b565b603482019050919050565b7f2220786d6c6e733d22687474703a2f2f7777772e77332e6f72672f323030302f60008201527f737667223e0a0000000000000000000000000000000000000000000000000000602082015250565b6000612a29602683612079565b9150612a34826129cd565b602682019050919050565b6000612a4a826129aa565b9150612a568284612084565b9150612a6182612a1c565b915081905092915050565b7f3c646566733e0a00000000000000000000000000000000000000000000000000600082015250565b6000612aa2600783612079565b9150612aad82612a6c565b600782019050919050565b7f3c2f646566733e0a000000000000000000000000000000000000000000000000600082015250565b6000612aee600883612079565b9150612af982612ab8565b600882019050919050565b6000612b10828561223a565b9150612b1b82612a95565b9150612b27828461223a565b9150612b3282612ae1565b91508190509392505050565b7f3c2f7376673e0a00000000000000000000000000000000000000000000000000600082015250565b6000612b74600783612079565b9150612b7f82612b3e565b600782019050919050565b6000612b96828561223a565b9150612ba2828461223a565b9150612bad82612b67565b91508190509392505050565b7f4f776e61626c653a2063616c6c6572206973206e6f7420746865206f776e6572600082015250565b6000612bef602083611ad7565b9150612bfa82612bb9565b602082019050919050565b60006020820190508181036000830152612c1e81612be2565b9050919050565b6000612c30826117e1565b9150612c3b836117e1565b9250828201905080821115612c5357612c526127e6565b5b9291505056fea2646970667358221220a74beece84cd706f533fc737fe034b4f069401de3c97ad733ca91585038866bc64736f6c63430008110033",
  "linkReferences": {},
  "deployedLinkReferences": {}
}