{
  "_format": "hh-sol-artifact-1",
  "contractName": "MessageStoreV2",
  "sourceName": "contracts/imageParts/svgstore/MessageStoreV2.sol",
  "abi": [
    {
      "inputs": [
        {
          "internalType": "string",
          "name": "",
          "type": "string"
        }
      ],
      "name": "fonts",
      "outputs": [
        {
          "internalType": "contract IFontProvider",
          "name": "",
          "type": "address"
        }
      ],
      "stateMutability": "view",
      "type": "function"
    },
    {
      "inputs": [
        {
          "internalType": "uint256",
          "name": "index",
          "type": "uint256"
        }
      ],
      "name": "getAsset",
      "outputs": [
        {
          "components": [
            {
              "internalType": "string",
              "name": "message",
              "type": "string"
            },
            {
              "internalType": "string",
              "name": "color",
              "type": "string"
            },
            {
              "internalType": "string",
              "name": "fontName",
              "type": "string"
            },
            {
              "internalType": "string",
              "name": "assetName",
              "type": "string"
            }
          ],
          "internalType": "struct IMessageStoreV2.Asset",
          "name": "",
          "type": "tuple"
        }
      ],
      "stateMutability": "view",
      "type": "function"
    },
    {
      "inputs": [
        {
          "internalType": "uint256",
          "name": "index",
          "type": "uint256"
        }
      ],
      "name": "getMessage",
      "outputs": [
        {
          "internalType": "string",
          "name": "output",
          "type": "string"
        }
      ],
      "stateMutability": "view",
      "type": "function"
    },
    {
      "inputs": [],
      "name": "getNextPartIndex",
      "outputs": [
        {
          "internalType": "uint256",
          "name": "",
          "type": "uint256"
        }
      ],
      "stateMutability": "view",
      "type": "function"
    },
    {
      "inputs": [
        {
          "internalType": "uint256",
          "name": "index",
          "type": "uint256"
        }
      ],
      "name": "getSVG",
      "outputs": [
        {
          "internalType": "string",
          "name": "output",
          "type": "string"
        }
      ],
      "stateMutability": "view",
      "type": "function"
    },
    {
      "inputs": [
        {
          "internalType": "uint256",
          "name": "index",
          "type": "uint256"
        }
      ],
      "name": "getSVGBody",
      "outputs": [
        {
          "internalType": "bytes",
          "name": "output",
          "type": "bytes"
        }
      ],
      "stateMutability": "view",
      "type": "function"
    },
    {
      "inputs": [
        {
          "internalType": "string",
          "name": "message",
          "type": "string"
        },
        {
          "internalType": "string",
          "name": "color",
          "type": "string"
        },
        {
          "internalType": "string",
          "name": "fontName",
          "type": "string"
        },
        {
          "components": [
            {
              "internalType": "uint256",
              "name": "w",
              "type": "uint256"
            },
            {
              "internalType": "uint256",
              "name": "h",
              "type": "uint256"
            }
          ],
          "internalType": "struct IMessageStoreV2.Box",
          "name": "box",
          "type": "tuple"
        }
      ],
      "name": "getSVGBody_2",
      "outputs": [
        {
          "internalType": "bytes",
          "name": "output",
          "type": "bytes"
        }
      ],
      "stateMutability": "view",
      "type": "function"
    },
    {
      "inputs": [
        {
          "internalType": "string",
          "name": "message",
          "type": "string"
        },
        {
          "internalType": "string",
          "name": "color",
          "type": "string"
        },
        {
          "internalType": "string",
          "name": "fontName",
          "type": "string"
        },
        {
          "components": [
            {
              "internalType": "uint256",
              "name": "w",
              "type": "uint256"
            },
            {
              "internalType": "uint256",
              "name": "h",
              "type": "uint256"
            }
          ],
          "internalType": "struct IMessageStoreV2.Box",
          "name": "box",
          "type": "tuple"
        }
      ],
      "name": "getSVGMessage",
      "outputs": [
        {
          "internalType": "string",
          "name": "output",
          "type": "string"
        }
      ],
      "stateMutability": "view",
      "type": "function"
    },
    {
      "inputs": [
        {
          "internalType": "string",
          "name": "fontName",
          "type": "string"
        }
      ],
      "name": "isFontRegistered",
      "outputs": [
        {
          "internalType": "bool",
          "name": "",
          "type": "bool"
        }
      ],
      "stateMutability": "view",
      "type": "function"
    },
    {
      "inputs": [],
      "name": "nextPartIndex",
      "outputs": [
        {
          "internalType": "uint256",
          "name": "",
          "type": "uint256"
        }
      ],
      "stateMutability": "view",
      "type": "function"
    },
    {
      "inputs": [
        {
          "internalType": "uint256",
          "name": "",
          "type": "uint256"
        }
      ],
      "name": "partsList",
      "outputs": [
        {
          "internalType": "string",
          "name": "message",
          "type": "string"
        },
        {
          "internalType": "string",
          "name": "color",
          "type": "string"
        },
        {
          "internalType": "string",
          "name": "fontName",
          "type": "string"
        },
        {
          "internalType": "string",
          "name": "assetName",
          "type": "string"
        }
      ],
      "stateMutability": "view",
      "type": "function"
    },
    {
      "inputs": [
        {
          "components": [
            {
              "internalType": "string",
              "name": "message",
              "type": "string"
            },
            {
              "internalType": "string",
              "name": "color",
              "type": "string"
            },
            {
              "internalType": "string",
              "name": "fontName",
              "type": "string"
            },
            {
              "internalType": "string",
              "name": "assetName",
              "type": "string"
            }
          ],
          "internalType": "struct IMessageStoreV2.Asset",
          "name": "asset",
          "type": "tuple"
        }
      ],
      "name": "register",
      "outputs": [
        {
          "internalType": "uint256",
          "name": "",
          "type": "uint256"
        }
      ],
      "stateMutability": "nonpayable",
      "type": "function"
    },
    {
      "inputs": [
        {
          "internalType": "string",
          "name": "fontName",
          "type": "string"
        },
        {
          "internalType": "contract IFontProvider",
          "name": "fontProvider",
          "type": "address"
        }
      ],
      "name": "registerFont",
      "outputs": [],
      "stateMutability": "nonpayable",
      "type": "function"
    },
    {
      "inputs": [
        {
          "internalType": "string",
          "name": "message",
          "type": "string"
        }
      ],
      "name": "test",
      "outputs": [
        {
          "internalType": "string[]",
          "name": "output",
          "type": "string[]"
        }
      ],
      "stateMutability": "view",
      "type": "function"
    }
  ],
  "bytecode": "0x60806040526001805534801561001457600080fd5b5061406a806100246000396000f3fe608060405234801561001057600080fd5b50600436106100ea5760003560e01c8063945cfb9e1161008c578063e61270e511610066578063e61270e51461029a578063eac8f5b8146102ca578063f80a64f5146102fa578063f9fbd5541461032a576100ea565b8063945cfb9e1461021e578063be985ac91461023a578063dec0314e1461026a576100ea565b80633882e980116100c85780633882e980146101705780634e2849c6146101a05780637d82d82b146101d057806386f79edb146101ee576100ea565b806316e921c0146100ef57806317fcb5961461010d57806328801cb71461013d575b600080fd5b6100f761035a565b6040516101049190612833565b60405180910390f35b610127600480360381019061012291906129a8565b610364565b6040516101349190612a0c565b60405180910390f35b61015760048036038101906101529190612a53565b6103db565b6040516101679493929190612aff565b60405180910390f35b61018a600480360381019061018591906129a8565b61062b565b6040516101979190612bdf565b60405180910390f35b6101ba60048036038101906101b59190612cec565b610674565b6040516101c79190612833565b60405180910390f35b6101d86107c4565b6040516101e59190612833565b60405180910390f35b61020860048036038101906102039190612a53565b6107ca565b6040516102159190612d35565b60405180910390f35b61023860048036038101906102339190612da7565b610a43565b005b610254600480360381019061024f9190612a53565b610aa4565b6040516102619190612d35565b60405180910390f35b610284600480360381019061027f9190612a53565b610b5e565b6040516102919190612e58565b60405180910390f35b6102b460048036038101906102af9190612eca565b610b70565b6040516102c19190612e58565b60405180910390f35b6102e460048036038101906102df9190612a53565b610b88565b6040516102f19190613047565b60405180910390f35b610314600480360381019061030f9190612eca565b610dfd565b6040516103219190612d35565b60405180910390f35b610344600480360381019061033f91906129a8565b610ebe565b604051610351919061312b565b60405180910390f35b6000600154905090565b60008073ffffffffffffffffffffffffffffffffffffffff1660008360405161038d9190613189565b908152602001604051809103902060009054906101000a900473ffffffffffffffffffffffffffffffffffffffff1673ffffffffffffffffffffffffffffffffffffffff1614159050919050565b60026020528060005260406000206000915090508060000180546103fe906131cf565b80601f016020809104026020016040519081016040528092919081815260200182805461042a906131cf565b80156104775780601f1061044c57610100808354040283529160200191610477565b820191906000526020600020905b81548152906001019060200180831161045a57829003601f168201915b50505050509080600101805461048c906131cf565b80601f01602080910402602001604051908101604052809291908181526020018280546104b8906131cf565b80156105055780601f106104da57610100808354040283529160200191610505565b820191906000526020600020905b8154815290600101906020018083116104e857829003601f168201915b50505050509080600201805461051a906131cf565b80601f0160208091040260200160405190810160405280929190818152602001828054610546906131cf565b80156105935780601f1061056857610100808354040283529160200191610593565b820191906000526020600020905b81548152906001019060200180831161057657829003601f168201915b5050505050908060030180546105a8906131cf565b80601f01602080910402602001604051908101604052809291908181526020018280546105d4906131cf565b80156106215780601f106105f657610100808354040283529160200191610621565b820191906000526020600020905b81548152906001019060200180831161060457829003601f168201915b5050505050905084565b6000818051602081018201805184825260208301602085012081835280955050505050506000915054906101000a900473ffffffffffffffffffffffffffffffffffffffff1681565b60008073ffffffffffffffffffffffffffffffffffffffff16600083604001516040516106a19190613189565b908152602001604051809103902060009054906101000a900473ffffffffffffffffffffffffffffffffffffffff1673ffffffffffffffffffffffffffffffffffffffff1603610726576040517f08c379a000000000000000000000000000000000000000000000000000000000815260040161071d9061324c565b60405180910390fd5b816002600060015481526020019081526020016000206000820151816000019081610751919061340e565b506020820151816001019081610767919061340e565b50604082015181600201908161077d919061340e565b506060820151816003019081610793919061340e565b50905050600160008154809291906107aa9061350f565b9190505550600180546107bd9190613557565b9050919050565b60015481565b60606000600260008481526020019081526020016000206040518060800160405290816000820180546107fc906131cf565b80601f0160208091040260200160405190810160405280929190818152602001828054610828906131cf565b80156108755780601f1061084a57610100808354040283529160200191610875565b820191906000526020600020905b81548152906001019060200180831161085857829003601f168201915b5050505050815260200160018201805461088e906131cf565b80601f01602080910402602001604051908101604052809291908181526020018280546108ba906131cf565b80156109075780601f106108dc57610100808354040283529160200191610907565b820191906000526020600020905b8154815290600101906020018083116108ea57829003601f168201915b50505050508152602001600282018054610920906131cf565b80601f016020809104026020016040519081016040528092919081815260200182805461094c906131cf565b80156109995780601f1061096e57610100808354040283529160200191610999565b820191906000526020600020905b81548152906001019060200180831161097c57829003601f168201915b505050505081526020016003820180546109b2906131cf565b80601f01602080910402602001604051908101604052809291908181526020018280546109de906131cf565b8015610a2b5780601f10610a0057610100808354040283529160200191610a2b565b820191906000526020600020905b815481529060010190602001808311610a0e57829003601f168201915b50505050508152505090508060000151915050919050565b80600083604051610a549190613189565b908152602001604051809103902060006101000a81548173ffffffffffffffffffffffffffffffffffffffff021916908373ffffffffffffffffffffffffffffffffffffffff1602179055505050565b606060008067ffffffffffffffff811115610ac257610ac161287d565b5b604051908082528060200260200182016040528015610afb57816020015b610ae861279d565b815260200190600190039081610ae05790505b509050610b566040518060400160405280600d81526020017f3020302031303234203130323400000000000000000000000000000000000000815250610b48610b4384610ed2565b610ef0565b610b5186610ff8565b6112a5565b915050919050565b6060610b6982610ff8565b9050919050565b6060610b7e85858585611329565b9050949350505050565b610b906127be565b60026000838152602001908152602001600020604051806080016040529081600082018054610bbe906131cf565b80601f0160208091040260200160405190810160405280929190818152602001828054610bea906131cf565b8015610c375780601f10610c0c57610100808354040283529160200191610c37565b820191906000526020600020905b815481529060010190602001808311610c1a57829003601f168201915b50505050508152602001600182018054610c50906131cf565b80601f0160208091040260200160405190810160405280929190818152602001828054610c7c906131cf565b8015610cc95780601f10610c9e57610100808354040283529160200191610cc9565b820191906000526020600020905b815481529060010190602001808311610cac57829003601f168201915b50505050508152602001600282018054610ce2906131cf565b80601f0160208091040260200160405190810160405280929190818152602001828054610d0e906131cf565b8015610d5b5780601f10610d3057610100808354040283529160200191610d5b565b820191906000526020600020905b815481529060010190602001808311610d3e57829003601f168201915b50505050508152602001600382018054610d74906131cf565b80601f0160208091040260200160405190810160405280929190818152602001828054610da0906131cf565b8015610ded5780601f10610dc257610100808354040283529160200191610ded565b820191906000526020600020905b815481529060010190602001808311610dd057829003601f168201915b5050505050815250509050919050565b60606000600167ffffffffffffffff811115610e1c57610e1b61287d565b5b604051908082528060200260200182016040528015610e5557816020015b610e4261279d565b815260200190600190039081610e3a5790505b509050610eb36040518060400160405280600d81526020017f3020302031303234203130323400000000000000000000000000000000000000815250610ea2610e9d84610ed2565b610ef0565b610eae89898989611329565b6112a5565b915050949350505050565b6060610ecb82600a6116ad565b9050919050565b610eda61279d565b610ee382611792565b8160200181905250919050565b606060008260000151511115610f82578160000151905060005b826040015151811015610f7c57600083604001518281518110610f3057610f2f61358b565b5b602002602001015190508281600001518260200151604051602001610f579392919061368e565b6040516020818303038152906040529250508080610f749061350f565b915050610f0a565b50610fcb565b600082604001515114610fca576040517f08c379a0000000000000000000000000000000000000000000000000000000008152600401610fc190613721565b60405180910390fd5b5b808260200151604051602001610fe2929190613741565b6040516020818303038152906040529050919050565b606060006002600084815260200190815260200160002060405180608001604052908160008201805461102a906131cf565b80601f0160208091040260200160405190810160405280929190818152602001828054611056906131cf565b80156110a35780601f10611078576101008083540402835291602001916110a3565b820191906000526020600020905b81548152906001019060200180831161108657829003601f168201915b505050505081526020016001820180546110bc906131cf565b80601f01602080910402602001604051908101604052809291908181526020018280546110e8906131cf565b80156111355780601f1061110a57610100808354040283529160200191611135565b820191906000526020600020905b81548152906001019060200180831161111857829003601f168201915b5050505050815260200160028201805461114e906131cf565b80601f016020809104026020016040519081016040528092919081815260200182805461117a906131cf565b80156111c75780601f1061119c576101008083540402835291602001916111c7565b820191906000526020600020905b8154815290600101906020018083116111aa57829003601f168201915b505050505081526020016003820180546111e0906131cf565b80601f016020809104026020016040519081016040528092919081815260200182805461120c906131cf565b80156112595780601f1061122e57610100808354040283529160200191611259565b820191906000526020600020905b81548152906001019060200180831161123c57829003601f168201915b505050505081525050905061126c6127e6565b61040081600001818152505061040081602001818152505061129c82600001518360200151846040015184611329565b92505050919050565b60606000846040516020016112ba9190613849565b60405160208183030381529060405290506000845111156112fa5780846040516020016112e892919061390e565b60405160208183030381529060405290505b808360405160200161130d929190613994565b6040516020818303038152906040529050809150509392505050565b6060600061133886600a6116ad565b90506000815167ffffffffffffffff8111156113575761135661287d565b5b60405190808252806020026020018201604052801561139057816020015b61137d61279d565b8152602001906001900390816113755790505b509050600080866040516113a49190613189565b908152602001604051809103902060009054906101000a900473ffffffffffffffffffffffffffffffffffffffff1690506000600486600001516113e891906139c3565b905060005b845181101561151557600061141c8487848151811061140f5761140e61358b565b5b6020026020010151611859565b90508281111561142a578092505b6114e36114b16000848773ffffffffffffffffffffffffffffffffffffffff16630ef267436040518163ffffffff1660e01b8152600401602060405180830381865afa15801561147e573d6000803e3d6000fd5b505050506040513d601f19601f820116820180604052508101906114a29190613a1a565b6114ac91906139c3565b6119c1565b6114d5868986815181106114c8576114c761358b565b5b60200260200101516119fd565b611cf790919063ffffffff16565b8583815181106114f6576114f561358b565b5b602002602001018190525050808061150d9061350f565b9150506113ed565b5060006115d4826103e8896000015161152e91906139c3565b6115389190613a76565b86518573ffffffffffffffffffffffffffffffffffffffff16630ef267436040518163ffffffff1660e01b8152600401602060405180830381865afa158015611585573d6000803e3d6000fd5b505050506040513d601f19601f820116820180604052508101906115a99190613a1a565b6115b391906139c3565b6103e88a602001516115c591906139c3565b6115cf9190613a76565b611d5a565b905060006115fb6115e483611d73565b6115ed87611da4565b611cf790919063ffffffff16565b90506116108a82611dc490919063ffffffff16565b90506000600167ffffffffffffffff81111561162f5761162e61287d565b5b60405190808252806020026020018201604052801561166857816020015b61165561279d565b81526020019060019003908161164d5790505b50905081816000815181106116805761167f61358b565b5b602002602001018190525061169c61169782610ed2565b610ef0565b975050505050505050949350505050565b6060600083519050600080600090505b8281116116e9576116cf868287611e27565b9050809150506001826116e29190613aa7565b91506116bd565b508067ffffffffffffffff8111156117045761170361287d565b5b60405190808252806020026020018201604052801561173757816020015b60608152602001906001900390816117225790505b5092506000905060005b82811161178957611753868287611e27565b8584815181106117665761176561358b565b5b6020026020010181935082905250506001826117829190613aa7565b9150611741565b50505092915050565b60606000825167ffffffffffffffff8111156117b1576117b061287d565b5b6040519080825280602002602001820160405280156117e457816020015b60608152602001906001900390816117cf5790505b50905060005b8351811015611847576118168482815181106118095761180861358b565b5b6020026020010151610ef0565b8282815181106118295761182861358b565b5b6020026020010181905250808061183f9061350f565b9150506117ea565b5061185181611ee0565b915050919050565b6000808290506000600167ffffffffffffffff81111561187c5761187b61287d565b5b6040519080825280601f01601f1916602001820160405280156118ae5781602001600182028036833780820191505090505b50905060005b82518110156119b8578281815181106118d0576118cf61358b565b5b602001015160f81c60f81b826000815181106118ef576118ee61358b565b5b60200101907effffffffffffffffffffffffffffffffffffffffffffffffffffffffffffff1916908160001a9053508573ffffffffffffffffffffffffffffffffffffffff16637f2406a7836040518263ffffffff1660e01b81526004016119579190612d35565b602060405180830381865afa158015611974573d6000803e3d6000fd5b505050506040513d601f19601f820116820180604052508101906119989190613a1a565b846119a39190613aa7565b935080806119b09061350f565b9150506118b4565b50505092915050565b60606119cc83611f5a565b6119d583611f5a565b6040516020016119e6929190613bbf565b604051602081830303815290604052905092915050565b611a0561279d565b60008290506000600167ffffffffffffffff811115611a2757611a2661287d565b5b6040519080825280601f01601f191660200182016040528015611a595781602001600182028036833780820191505090505b5090506000825167ffffffffffffffff811115611a7957611a7861287d565b5b604051908082528060200260200182016040528015611ab257816020015b611a9f61279d565b815260200190600190039081611a975790505b509050600080600090505b8451811015611ce157848181518110611ad957611ad861358b565b5b602001015160f81c60f81b84600081518110611af857611af761358b565b5b60200101907effffffffffffffffffffffffffffffffffffffffffffffffffffffffffffff1916908160001a905350611bb6611bb18973ffffffffffffffffffffffffffffffffffffffff1663a4b3eff4876040518263ffffffff1660e01b8152600401611b669190612d35565b600060405180830381865afa158015611b83573d6000803e3d6000fd5b505050506040513d6000823e3d601f19601f82011682018060405250810190611bac9190613ca5565b611fae565b612147565b838281518110611bc957611bc861358b565b5b60200260200101819052506000821115611c4757611c28838281518110611bf357611bf261358b565b5b6020026020010151611c04846121ba565b604051602001611c149190613d3a565b604051602081830303815290604052611cf7565b838281518110611c3b57611c3a61358b565b5b60200260200101819052505b8773ffffffffffffffffffffffffffffffffffffffff16637f2406a7856040518263ffffffff1660e01b8152600401611c809190612d35565b602060405180830381865afa158015611c9d573d6000803e3d6000fd5b505050506040513d601f19601f82011682018060405250810190611cc19190613a1a565b82611ccc9190613aa7565b91508080611cd99061350f565b915050611abd565b50611ceb82611da4565b94505050505092915050565b611cff61279d565b611d528360405180604001604052806040518060400160405280600981526020017f7472616e73666f726d0000000000000000000000000000000000000000000000815250815260200185815250612288565b905092915050565b6000818310611d695781611d6b565b825b905092915050565b6060611d7e826123aa565b604051602001611d8e9190613db3565b6040516020818303038152906040529050919050565b611dac61279d565b611dbd611db883611792565b6125ef565b9050919050565b611dcc61279d565b611e1f8360405180604001604052806040518060400160405280600481526020017f66696c6c00000000000000000000000000000000000000000000000000000000815250815260200185815250612288565b905092915050565b606060008060018651611e3a9190613aa7565b905060405192506020830185602088010160008060008990505b85811015611e9e5760008203611e7d578351925082855260208401935060208501945061010091505b6008820391508860ff84841c1603611e93578095505b600181019050611e54565b8096508981038960ff85851c1603611eb7576001810390505b868803611ec5576001810390505b8089528060208a010160405250505050505050935093915050565b60606000825190506040519150602082016020840160005b83811015611f4557815183815160005b81811015611f2b5760208401935083518352602083019250602081019050611f08565b508086019550602085019450505050600181019050611ef8565b50602084830303845281604052505050919050565b60606000821315611f7557611f6e826121ba565b9050611fa9565b611f8782611f8290613dea565b6121ba565b604051602001611f979190613e7e565b60405160208183030381529060405290505b919050565b6060806020830160036002855102046040519250602083016000805b8381101561212d5760006010820603611fe857845191506018850194505b60008060028306600081146120145760ff8560e81c169250600f8560f41c1691508460181b9450612024565b8460f81c9250600f8560f01c1691505b5080600081146120f95760006002610100858560081b010361040081106000811461205d57602d93506003925081610400039150612065565b610400820391505b5060098111156120cf5760638111156120b4576103e78111156120995760318360081b1792508160010191506103e8810690505b606481046030018360081b1792508160010191506064810690505b600a81046030018360081b179250816001019150600a810690505b60208160300160081b8460101b171792508260088302610100031b8952818901985050505061211f565b607b83106060841116605b84106040851116171561211e578260f81b86526001860195505b5b505050600181019050611fca565b506020858303038552816040525050505080915050919050565b61214f61279d565b816040516020016121609190613eec565b60405160208183030381529060405281600001819052506040518060400160405280600481526020017f222f3e0a000000000000000000000000000000000000000000000000000000008152508160200181905250919050565b6060600060016121c98461264a565b01905060008167ffffffffffffffff8111156121e8576121e761287d565b5b6040519080825280601f01601f19166020018201604052801561221a5781602001600182028036833780820191505090505b509050600082602001820190505b60011561227d578080600190039150507f3031323334353637383961626364656600000000000000000000000000000000600a86061a8153600a858161227157612270613a47565b5b04945060008503612228575b819350505050919050565b61229061279d565b826000015181600001819052508260200151816020018190525060018360400151516122bc9190613aa7565b67ffffffffffffffff8111156122d5576122d461287d565b5b60405190808252806020026020018201604052801561230e57816020015b6122fb612800565b8152602001906001900390816122f35790505b50816040018190525060005b83604001515181101561237b578360400151818151811061233e5761233d61358b565b5b60200260200101518260400151828151811061235d5761235c61358b565b5b602002602001018190525080806123739061350f565b91505061231a565b50818160400151846040015151815181106123995761239861358b565b5b602002602001018190525092915050565b60606000600367ffffffffffffffff8111156123c9576123c861287d565b5b6040519080825280602002602001820160405280156123fc57816020015b60608152602001906001900390816123e75790505b5090506103e88311156124435761241f6103e88461241a9190613a76565b6121ba565b816000815181106124335761243261358b565b5b6020026020010181905250612499565b6040518060400160405280600181526020017f30000000000000000000000000000000000000000000000000000000000000008152508160008151811061248d5761248c61358b565b5b60200260200101819052505b600a8310156124fc576040518060400160405280600381526020017f2e30300000000000000000000000000000000000000000000000000000000000815250816001815181106124ec576124eb61358b565b5b60200260200101819052506125b6565b606483101561255f576040518060400160405280600281526020017f2e300000000000000000000000000000000000000000000000000000000000008152508160018151811061254f5761254e61358b565b5b60200260200101819052506125b5565b6040518060400160405280600181526020017f2e00000000000000000000000000000000000000000000000000000000000000815250816001815181106125a9576125a861358b565b5b60200260200101819052505b5b6125bf836121ba565b816002815181106125d3576125d261358b565b5b60200260200101819052506125e781611ee0565b915050919050565b6125f761279d565b60405160200161260690613f5a565b60405160208183030381529060405281600001819052508160405160200161262e9190614007565b6040516020818303038152906040528160200181905250919050565b600080600090507a184f03e93ff9f4daa797ed6e38ed64bf6a1f01000000000000000083106126a8577a184f03e93ff9f4daa797ed6e38ed64bf6a1f010000000000000000838161269e5761269d613a47565b5b0492506040810190505b6d04ee2d6d415b85acef810000000083106126e5576d04ee2d6d415b85acef810000000083816126db576126da613a47565b5b0492506020810190505b662386f26fc10000831061271457662386f26fc10000838161270a57612709613a47565b5b0492506010810190505b6305f5e100831061273d576305f5e100838161273357612732613a47565b5b0492506008810190505b612710831061276257612710838161275857612757613a47565b5b0492506004810190505b60648310612785576064838161277b5761277a613a47565b5b0492506002810190505b600a8310612794576001810190505b80915050919050565b60405180606001604052806060815260200160608152602001606081525090565b6040518060800160405280606081526020016060815260200160608152602001606081525090565b604051806040016040528060008152602001600081525090565b604051806040016040528060608152602001606081525090565b6000819050919050565b61282d8161281a565b82525050565b60006020820190506128486000830184612824565b92915050565b6000604051905090565b600080fd5b600080fd5b600080fd5b600080fd5b6000601f19601f8301169050919050565b7f4e487b7100000000000000000000000000000000000000000000000000000000600052604160045260246000fd5b6128b58261286c565b810181811067ffffffffffffffff821117156128d4576128d361287d565b5b80604052505050565b60006128e761284e565b90506128f382826128ac565b919050565b600067ffffffffffffffff8211156129135761291261287d565b5b61291c8261286c565b9050602081019050919050565b82818337600083830152505050565b600061294b612946846128f8565b6128dd565b90508281526020810184848401111561296757612966612867565b5b612972848285612929565b509392505050565b600082601f83011261298f5761298e612862565b5b813561299f848260208601612938565b91505092915050565b6000602082840312156129be576129bd612858565b5b600082013567ffffffffffffffff8111156129dc576129db61285d565b5b6129e88482850161297a565b91505092915050565b60008115159050919050565b612a06816129f1565b82525050565b6000602082019050612a2160008301846129fd565b92915050565b612a308161281a565b8114612a3b57600080fd5b50565b600081359050612a4d81612a27565b92915050565b600060208284031215612a6957612a68612858565b5b6000612a7784828501612a3e565b91505092915050565b600081519050919050565b600082825260208201905092915050565b60005b83811015612aba578082015181840152602081019050612a9f565b60008484015250505050565b6000612ad182612a80565b612adb8185612a8b565b9350612aeb818560208601612a9c565b612af48161286c565b840191505092915050565b60006080820190508181036000830152612b198187612ac6565b90508181036020830152612b2d8186612ac6565b90508181036040830152612b418185612ac6565b90508181036060830152612b558184612ac6565b905095945050505050565b600073ffffffffffffffffffffffffffffffffffffffff82169050919050565b6000819050919050565b6000612ba5612ba0612b9b84612b60565b612b80565b612b60565b9050919050565b6000612bb782612b8a565b9050919050565b6000612bc982612bac565b9050919050565b612bd981612bbe565b82525050565b6000602082019050612bf46000830184612bd0565b92915050565b600080fd5b600080fd5b600060808284031215612c1a57612c19612bfa565b5b612c2460806128dd565b9050600082013567ffffffffffffffff811115612c4457612c43612bff565b5b612c508482850161297a565b600083015250602082013567ffffffffffffffff811115612c7457612c73612bff565b5b612c808482850161297a565b602083015250604082013567ffffffffffffffff811115612ca457612ca3612bff565b5b612cb08482850161297a565b604083015250606082013567ffffffffffffffff811115612cd457612cd3612bff565b5b612ce08482850161297a565b60608301525092915050565b600060208284031215612d0257612d01612858565b5b600082013567ffffffffffffffff811115612d2057612d1f61285d565b5b612d2c84828501612c04565b91505092915050565b60006020820190508181036000830152612d4f8184612ac6565b905092915050565b6000612d6282612b60565b9050919050565b6000612d7482612d57565b9050919050565b612d8481612d69565b8114612d8f57600080fd5b50565b600081359050612da181612d7b565b92915050565b60008060408385031215612dbe57612dbd612858565b5b600083013567ffffffffffffffff811115612ddc57612ddb61285d565b5b612de88582860161297a565b9250506020612df985828601612d92565b9150509250929050565b600081519050919050565b600082825260208201905092915050565b6000612e2a82612e03565b612e348185612e0e565b9350612e44818560208601612a9c565b612e4d8161286c565b840191505092915050565b60006020820190508181036000830152612e728184612e1f565b905092915050565b600060408284031215612e9057612e8f612bfa565b5b612e9a60406128dd565b90506000612eaa84828501612a3e565b6000830152506020612ebe84828501612a3e565b60208301525092915050565b60008060008060a08587031215612ee457612ee3612858565b5b600085013567ffffffffffffffff811115612f0257612f0161285d565b5b612f0e8782880161297a565b945050602085013567ffffffffffffffff811115612f2f57612f2e61285d565b5b612f3b8782880161297a565b935050604085013567ffffffffffffffff811115612f5c57612f5b61285d565b5b612f688782880161297a565b9250506060612f7987828801612e7a565b91505092959194509250565b600082825260208201905092915050565b6000612fa182612a80565b612fab8185612f85565b9350612fbb818560208601612a9c565b612fc48161286c565b840191505092915050565b60006080830160008301518482036000860152612fec8282612f96565b915050602083015184820360208601526130068282612f96565b915050604083015184820360408601526130208282612f96565b9150506060830151848203606086015261303a8282612f96565b9150508091505092915050565b600060208201905081810360008301526130618184612fcf565b905092915050565b600081519050919050565b600082825260208201905092915050565b6000819050602082019050919050565b60006130a18383612f96565b905092915050565b6000602082019050919050565b60006130c182613069565b6130cb8185613074565b9350836020820285016130dd85613085565b8060005b8581101561311957848403895281516130fa8582613095565b9450613105836130a9565b925060208a019950506001810190506130e1565b50829750879550505050505092915050565b6000602082019050818103600083015261314581846130b6565b905092915050565b600081905092915050565b600061316382612a80565b61316d818561314d565b935061317d818560208601612a9c565b80840191505092915050565b60006131958284613158565b915081905092915050565b7f4e487b7100000000000000000000000000000000000000000000000000000000600052602260045260246000fd5b600060028204905060018216806131e757607f821691505b6020821081036131fa576131f96131a0565b5b50919050565b7f466f6e74206e6f74207265676973746572656400000000000000000000000000600082015250565b6000613236601383612a8b565b915061324182613200565b602082019050919050565b6000602082019050818103600083015261326581613229565b9050919050565b60008190508160005260206000209050919050565b60006020601f8301049050919050565b600082821b905092915050565b6000600883026132ce7fffffffffffffffffffffffffffffffffffffffffffffffffffffffffffffffff82613291565b6132d88683613291565b95508019841693508086168417925050509392505050565b600061330b6133066133018461281a565b612b80565b61281a565b9050919050565b6000819050919050565b613325836132f0565b61333961333182613312565b84845461329e565b825550505050565b600090565b61334e613341565b61335981848461331c565b505050565b5b8181101561337d57613372600082613346565b60018101905061335f565b5050565b601f8211156133c2576133938161326c565b61339c84613281565b810160208510156133ab578190505b6133bf6133b785613281565b83018261335e565b50505b505050565b600082821c905092915050565b60006133e5600019846008026133c7565b1980831691505092915050565b60006133fe83836133d4565b9150826002028217905092915050565b61341782612a80565b67ffffffffffffffff8111156134305761342f61287d565b5b61343a82546131cf565b613445828285613381565b600060209050601f8311600181146134785760008415613466578287015190505b61347085826133f2565b8655506134d8565b601f1984166134868661326c565b60005b828110156134ae57848901518255600182019150602085019450602081019050613489565b868310156134cb57848901516134c7601f8916826133d4565b8355505b6001600288020188555050505b505050505050565b7f4e487b7100000000000000000000000000000000000000000000000000000000600052601160045260246000fd5b600061351a8261281a565b91507fffffffffffffffffffffffffffffffffffffffffffffffffffffffffffffffff820361354c5761354b6134e0565b5b600182019050919050565b60006135628261281a565b915061356d8361281a565b9250828203905081811115613585576135846134e0565b5b92915050565b7f4e487b7100000000000000000000000000000000000000000000000000000000600052603260045260246000fd5b600081905092915050565b60006135d082612e03565b6135da81856135ba565b93506135ea818560208601612a9c565b80840191505092915050565b7f2220000000000000000000000000000000000000000000000000000000000000600082015250565b600061362c60028361314d565b9150613637826135f6565b600282019050919050565b7f3d22000000000000000000000000000000000000000000000000000000000000600082015250565b600061367860028361314d565b915061368382613642565b600282019050919050565b600061369a82866135c5565b91506136a58261361f565b91506136b18285613158565b91506136bc8261366b565b91506136c88284613158565b9150819050949350505050565b7f41747472696275746573206f6e206c6973740000000000000000000000000000600082015250565b600061370b601283612a8b565b9150613716826136d5565b602082019050919050565b6000602082019050818103600083015261373a816136fe565b9050919050565b600061374d82856135c5565b915061375982846135c5565b91508190509392505050565b7f3c3f786d6c2076657273696f6e3d22312e302220656e636f64696e673d22555460008201527f462d38223f3e3c7376672076696577426f783d22000000000000000000000000602082015250565b60006137c160348361314d565b91506137cc82613765565b603482019050919050565b7f2220786d6c6e733d22687474703a2f2f7777772e77332e6f72672f323030302f60008201527f737667223e0a0000000000000000000000000000000000000000000000000000602082015250565b600061383360268361314d565b915061383e826137d7565b602682019050919050565b6000613854826137b4565b91506138608284613158565b915061386b82613826565b915081905092915050565b7f3c646566733e0a00000000000000000000000000000000000000000000000000600082015250565b60006138ac60078361314d565b91506138b782613876565b600782019050919050565b7f3c2f646566733e0a000000000000000000000000000000000000000000000000600082015250565b60006138f860088361314d565b9150613903826138c2565b600882019050919050565b600061391a82856135c5565b91506139258261389f565b915061393182846135c5565b915061393c826138eb565b91508190509392505050565b7f3c2f7376673e0a00000000000000000000000000000000000000000000000000600082015250565b600061397e60078361314d565b915061398982613948565b600782019050919050565b60006139a082856135c5565b91506139ac82846135c5565b91506139b782613971565b91508190509392505050565b60006139ce8261281a565b91506139d98361281a565b92508282026139e78161281a565b915082820484148315176139fe576139fd6134e0565b5b5092915050565b600081519050613a1481612a27565b92915050565b600060208284031215613a3057613a2f612858565b5b6000613a3e84828501613a05565b91505092915050565b7f4e487b7100000000000000000000000000000000000000000000000000000000600052601260045260246000fd5b6000613a818261281a565b9150613a8c8361281a565b925082613a9c57613a9b613a47565b5b828204905092915050565b6000613ab28261281a565b9150613abd8361281a565b9250828201905080821115613ad557613ad46134e0565b5b92915050565b7f7472616e736c6174652800000000000000000000000000000000000000000000600082015250565b6000613b11600a8361314d565b9150613b1c82613adb565b600a82019050919050565b7f2000000000000000000000000000000000000000000000000000000000000000600082015250565b6000613b5d60018361314d565b9150613b6882613b27565b600182019050919050565b7f2900000000000000000000000000000000000000000000000000000000000000600082015250565b6000613ba960018361314d565b9150613bb482613b73565b600182019050919050565b6000613bca82613b04565b9150613bd68285613158565b9150613be182613b50565b9150613bed8284613158565b9150613bf882613b9c565b91508190509392505050565b600067ffffffffffffffff821115613c1f57613c1e61287d565b5b613c288261286c565b9050602081019050919050565b6000613c48613c4384613c04565b6128dd565b905082815260208101848484011115613c6457613c63612867565b5b613c6f848285612a9c565b509392505050565b600082601f830112613c8c57613c8b612862565b5b8151613c9c848260208601613c35565b91505092915050565b600060208284031215613cbb57613cba612858565b5b600082015167ffffffffffffffff811115613cd957613cd861285d565b5b613ce584828501613c77565b91505092915050565b7f2030290000000000000000000000000000000000000000000000000000000000600082015250565b6000613d2460038361314d565b9150613d2f82613cee565b600382019050919050565b6000613d4582613b04565b9150613d518284613158565b9150613d5c82613d17565b915081905092915050565b7f7363616c65280000000000000000000000000000000000000000000000000000600082015250565b6000613d9d60068361314d565b9150613da882613d67565b600682019050919050565b6000613dbe82613d90565b9150613dca8284613158565b9150613dd582613b9c565b915081905092915050565b6000819050919050565b6000613df582613de0565b91507f80000000000000000000000000000000000000000000000000000000000000008203613e2757613e266134e0565b5b816000039050919050565b7f2d00000000000000000000000000000000000000000000000000000000000000600082015250565b6000613e6860018361314d565b9150613e7382613e32565b600182019050919050565b6000613e8982613e5b565b9150613e958284613158565b915081905092915050565b7f3c7061746820643d220000000000000000000000000000000000000000000000600082015250565b6000613ed660098361314d565b9150613ee182613ea0565b600982019050919050565b6000613ef782613ec9565b9150613f0382846135c5565b915081905092915050565b7f3c6720785f783d22780000000000000000000000000000000000000000000000600082015250565b6000613f4460098361314d565b9150613f4f82613f0e565b600982019050919050565b6000613f6582613f37565b9150819050919050565b7f223e000000000000000000000000000000000000000000000000000000000000600082015250565b6000613fa560028361314d565b9150613fb082613f6f565b600282019050919050565b7f3c2f673e0a000000000000000000000000000000000000000000000000000000600082015250565b6000613ff160058361314d565b9150613ffc82613fbb565b600582019050919050565b600061401282613f98565b915061401e82846135c5565b915061402982613fe4565b91508190509291505056fea26469706673582212201e5c9dcd2a7a22f79e93e01f80cdcbd7cfc7d340b836b023aa4058261442c1ad64736f6c63430008110033",
  "linkReferences": {},
  "deployedLinkReferences": {}
}