{
  "_format": "hh-sol-artifact-1",
  "contractName": "MessageStoreV2",
  "sourceName": "contracts/imageParts/svgstore/MessageStoreV2.sol",
  "abi": [
    {
      "inputs": [
        {
          "internalType": "string",
          "name": "",
          "type": "string"
        }
      ],
      "name": "fonts",
      "outputs": [
        {
          "internalType": "contract IFontProvider",
          "name": "",
          "type": "address"
        }
      ],
      "stateMutability": "view",
      "type": "function"
    },
    {
      "inputs": [
        {
          "internalType": "uint256",
          "name": "index",
          "type": "uint256"
        }
      ],
      "name": "getMessage",
      "outputs": [
        {
          "internalType": "string",
          "name": "output",
          "type": "string"
        }
      ],
      "stateMutability": "view",
      "type": "function"
    },
    {
      "inputs": [
        {
          "internalType": "uint256",
          "name": "index",
          "type": "uint256"
        }
      ],
      "name": "getSVG",
      "outputs": [
        {
          "internalType": "string",
          "name": "output",
          "type": "string"
        }
      ],
      "stateMutability": "view",
      "type": "function"
    },
    {
      "inputs": [
        {
          "internalType": "uint256",
          "name": "index",
          "type": "uint256"
        }
      ],
      "name": "getSVGBody",
      "outputs": [
        {
          "internalType": "bytes",
          "name": "output",
          "type": "bytes"
        }
      ],
      "stateMutability": "view",
      "type": "function"
    },
    {
      "inputs": [
        {
          "internalType": "string",
          "name": "message",
          "type": "string"
        },
        {
          "internalType": "string",
          "name": "color",
          "type": "string"
        },
        {
          "internalType": "string",
          "name": "fontName",
          "type": "string"
        },
        {
          "components": [
            {
              "internalType": "uint256",
              "name": "w",
              "type": "uint256"
            },
            {
              "internalType": "uint256",
              "name": "h",
              "type": "uint256"
            }
          ],
          "internalType": "struct IMessageStoreV2.Box",
          "name": "box",
          "type": "tuple"
        }
      ],
      "name": "getSVGMessage",
      "outputs": [
        {
          "internalType": "string",
          "name": "output",
          "type": "string"
        }
      ],
      "stateMutability": "view",
      "type": "function"
    },
    {
      "inputs": [
        {
          "components": [
            {
              "internalType": "string",
              "name": "message",
              "type": "string"
            },
            {
              "internalType": "string",
              "name": "color",
              "type": "string"
            },
            {
              "internalType": "string",
              "name": "fontName",
              "type": "string"
            }
          ],
          "internalType": "struct IMessageStoreV2.Asset",
          "name": "asset",
          "type": "tuple"
        }
      ],
      "name": "register",
      "outputs": [
        {
          "internalType": "uint256",
          "name": "",
          "type": "uint256"
        }
      ],
      "stateMutability": "nonpayable",
      "type": "function"
    },
    {
      "inputs": [
        {
          "internalType": "string",
          "name": "fontName",
          "type": "string"
        },
        {
          "internalType": "contract IFontProvider",
          "name": "fontProvider",
          "type": "address"
        }
      ],
      "name": "registerFont",
      "outputs": [],
      "stateMutability": "nonpayable",
      "type": "function"
    },
    {
      "inputs": [
        {
          "internalType": "string",
          "name": "message",
          "type": "string"
        }
      ],
      "name": "test",
      "outputs": [
        {
          "internalType": "string[]",
          "name": "output",
          "type": "string[]"
        }
      ],
      "stateMutability": "view",
      "type": "function"
    }
  ],
  "bytecode": "0x60806040526001805534801561001457600080fd5b506136e8806100246000396000f3fe608060405234801561001057600080fd5b50600436106100885760003560e01c8063be985ac91161005b578063be985ac914610139578063dec0314e14610169578063f80a64f514610199578063f9fbd554146101c957610088565b806307ca9b181461008d5780633882e980146100bd57806386f79edb146100ed578063945cfb9e1461011d575b600080fd5b6100a760048036038101906100a29190612215565b6101f9565b6040516100b49190612277565b60405180910390f35b6100d760048036038101906100d29190612292565b610339565b6040516100e4919061235a565b60405180910390f35b610107600480360381019061010291906123a1565b610382565b604051610114919061244d565b60405180910390f35b610137600480360381019061013291906124bf565b610569565b005b610153600480360381019061014e91906123a1565b6105ca565b604051610160919061244d565b60405180910390f35b610183600480360381019061017e91906123a1565b610684565b6040516101909190612570565b60405180910390f35b6101b360048036038101906101ae91906125e2565b610696565b6040516101c0919061244d565b60405180910390f35b6101e360048036038101906101de9190612292565b610757565b6040516101f091906127a9565b60405180910390f35b60008082604001519050600073ffffffffffffffffffffffffffffffffffffffff1660008260405161022b9190612807565b908152602001604051809103902060009054906101000a900473ffffffffffffffffffffffffffffffffffffffff1673ffffffffffffffffffffffffffffffffffffffff16036102b0576040517f08c379a00000000000000000000000000000000000000000000000000000000081526004016102a79061286a565b60405180910390fd5b8260026000600154815260200190815260200160002060008201518160000190816102db9190612a8c565b5060208201518160010190816102f19190612a8c565b5060408201518160020190816103079190612a8c565b509050506001600081548092919061031e90612b8d565b9190505550600180546103319190612bd5565b915050919050565b6000818051602081018201805184825260208301602085012081835280955050505050506000915054906101000a900473ffffffffffffffffffffffffffffffffffffffff1681565b60606000600260008481526020019081526020016000206040518060600160405290816000820180546103b4906128b9565b80601f01602080910402602001604051908101604052809291908181526020018280546103e0906128b9565b801561042d5780601f106104025761010080835404028352916020019161042d565b820191906000526020600020905b81548152906001019060200180831161041057829003601f168201915b50505050508152602001600182018054610446906128b9565b80601f0160208091040260200160405190810160405280929190818152602001828054610472906128b9565b80156104bf5780601f10610494576101008083540402835291602001916104bf565b820191906000526020600020905b8154815290600101906020018083116104a257829003601f168201915b505050505081526020016002820180546104d8906128b9565b80601f0160208091040260200160405190810160405280929190818152602001828054610504906128b9565b80156105515780601f1061052657610100808354040283529160200191610551565b820191906000526020600020905b81548152906001019060200180831161053457829003601f168201915b50505050508152505090508060000151915050919050565b8060008360405161057a9190612807565b908152602001604051809103902060006101000a81548173ffffffffffffffffffffffffffffffffffffffff021916908373ffffffffffffffffffffffffffffffffffffffff1602179055505050565b606060008067ffffffffffffffff8111156105e8576105e7612023565b5b60405190808252806020026020018201604052801561062157816020015b61060e611fa4565b8152602001906001900390816106065790505b50905061067c6040518060400160405280600d81526020017f302030203130323420313032340000000000000000000000000000000000000081525061066e6106698461076b565b610789565b61067786610891565b610aac565b915050919050565b606061068f82610891565b9050919050565b60606000600167ffffffffffffffff8111156106b5576106b4612023565b5b6040519080825280602002602001820160405280156106ee57816020015b6106db611fa4565b8152602001906001900390816106d35790505b50905061074c6040518060400160405280600d81526020017f302030203130323420313032340000000000000000000000000000000000000081525061073b6107368461076b565b610789565b61074789898989610b30565b610aac565b915050949350505050565b606061076482600a610eb4565b9050919050565b610773611fa4565b61077c82610f99565b8160200181905250919050565b60606000826000015151111561081b578160000151905060005b826040015151811015610815576000836040015182815181106107c9576107c8612c09565b5b6020026020010151905082816000015182602001516040516020016107f093929190612d0c565b604051602081830303815290604052925050808061080d90612b8d565b9150506107a3565b50610864565b600082604001515114610863576040517f08c379a000000000000000000000000000000000000000000000000000000000815260040161085a90612d9f565b60405180910390fd5b5b80826020015160405160200161087b929190612dbf565b6040516020818303038152906040529050919050565b60606000600260008481526020019081526020016000206040518060600160405290816000820180546108c3906128b9565b80601f01602080910402602001604051908101604052809291908181526020018280546108ef906128b9565b801561093c5780601f106109115761010080835404028352916020019161093c565b820191906000526020600020905b81548152906001019060200180831161091f57829003601f168201915b50505050508152602001600182018054610955906128b9565b80601f0160208091040260200160405190810160405280929190818152602001828054610981906128b9565b80156109ce5780601f106109a3576101008083540402835291602001916109ce565b820191906000526020600020905b8154815290600101906020018083116109b157829003601f168201915b505050505081526020016002820180546109e7906128b9565b80601f0160208091040260200160405190810160405280929190818152602001828054610a13906128b9565b8015610a605780601f10610a3557610100808354040283529160200191610a60565b820191906000526020600020905b815481529060010190602001808311610a4357829003601f168201915b5050505050815250509050610a73611fc5565b610400816000018181525050610400816020018181525050610aa382600001518360200151846040015184610b30565b92505050919050565b6060600084604051602001610ac19190612ec7565b6040516020818303038152906040529050600084511115610b01578084604051602001610aef929190612f8c565b60405160208183030381529060405290505b8083604051602001610b14929190613012565b6040516020818303038152906040529050809150509392505050565b60606000610b3f86600a610eb4565b90506000815167ffffffffffffffff811115610b5e57610b5d612023565b5b604051908082528060200260200182016040528015610b9757816020015b610b84611fa4565b815260200190600190039081610b7c5790505b50905060008086604051610bab9190612807565b908152602001604051809103902060009054906101000a900473ffffffffffffffffffffffffffffffffffffffff169050600060048660000151610bef9190613041565b905060005b8451811015610d1c576000610c2384878481518110610c1657610c15612c09565b5b6020026020010151611060565b905082811115610c31578092505b610cea610cb86000848773ffffffffffffffffffffffffffffffffffffffff16630ef267436040518163ffffffff1660e01b8152600401602060405180830381865afa158015610c85573d6000803e3d6000fd5b505050506040513d601f19601f82011682018060405250810190610ca99190613098565b610cb39190613041565b6111c8565b610cdc86898681518110610ccf57610cce612c09565b5b6020026020010151611204565b6114fe90919063ffffffff16565b858381518110610cfd57610cfc612c09565b5b6020026020010181905250508080610d1490612b8d565b915050610bf4565b506000610ddb826103e88960000151610d359190613041565b610d3f91906130f4565b86518573ffffffffffffffffffffffffffffffffffffffff16630ef267436040518163ffffffff1660e01b8152600401602060405180830381865afa158015610d8c573d6000803e3d6000fd5b505050506040513d601f19601f82011682018060405250810190610db09190613098565b610dba9190613041565b6103e88a60200151610dcc9190613041565b610dd691906130f4565b611561565b90506000610e02610deb8361157a565b610df4876115ab565b6114fe90919063ffffffff16565b9050610e178a826115cb90919063ffffffff16565b90506000600167ffffffffffffffff811115610e3657610e35612023565b5b604051908082528060200260200182016040528015610e6f57816020015b610e5c611fa4565b815260200190600190039081610e545790505b5090508181600081518110610e8757610e86612c09565b5b6020026020010181905250610ea3610e9e8261076b565b610789565b975050505050505050949350505050565b6060600083519050600080600090505b828111610ef057610ed686828761162e565b905080915050600182610ee99190613125565b9150610ec4565b508067ffffffffffffffff811115610f0b57610f0a612023565b5b604051908082528060200260200182016040528015610f3e57816020015b6060815260200190600190039081610f295790505b5092506000905060005b828111610f9057610f5a86828761162e565b858481518110610f6d57610f6c612c09565b5b602002602001018193508290525050600182610f899190613125565b9150610f48565b50505092915050565b60606000825167ffffffffffffffff811115610fb857610fb7612023565b5b604051908082528060200260200182016040528015610feb57816020015b6060815260200190600190039081610fd65790505b50905060005b835181101561104e5761101d8482815181106110105761100f612c09565b5b6020026020010151610789565b8282815181106110305761102f612c09565b5b6020026020010181905250808061104690612b8d565b915050610ff1565b50611058816116e7565b915050919050565b6000808290506000600167ffffffffffffffff81111561108357611082612023565b5b6040519080825280601f01601f1916602001820160405280156110b55781602001600182028036833780820191505090505b50905060005b82518110156111bf578281815181106110d7576110d6612c09565b5b602001015160f81c60f81b826000815181106110f6576110f5612c09565b5b60200101907effffffffffffffffffffffffffffffffffffffffffffffffffffffffffffff1916908160001a9053508573ffffffffffffffffffffffffffffffffffffffff16637f2406a7836040518263ffffffff1660e01b815260040161115e919061244d565b602060405180830381865afa15801561117b573d6000803e3d6000fd5b505050506040513d601f19601f8201168201806040525081019061119f9190613098565b846111aa9190613125565b935080806111b790612b8d565b9150506110bb565b50505092915050565b60606111d383611761565b6111dc83611761565b6040516020016111ed92919061323d565b604051602081830303815290604052905092915050565b61120c611fa4565b60008290506000600167ffffffffffffffff81111561122e5761122d612023565b5b6040519080825280601f01601f1916602001820160405280156112605781602001600182028036833780820191505090505b5090506000825167ffffffffffffffff8111156112805761127f612023565b5b6040519080825280602002602001820160405280156112b957816020015b6112a6611fa4565b81526020019060019003908161129e5790505b509050600080600090505b84518110156114e8578481815181106112e0576112df612c09565b5b602001015160f81c60f81b846000815181106112ff576112fe612c09565b5b60200101907effffffffffffffffffffffffffffffffffffffffffffffffffffffffffffff1916908160001a9053506113bd6113b88973ffffffffffffffffffffffffffffffffffffffff1663a4b3eff4876040518263ffffffff1660e01b815260040161136d919061244d565b600060405180830381865afa15801561138a573d6000803e3d6000fd5b505050506040513d6000823e3d601f19601f820116820180604052508101906113b39190613323565b6117b5565b61194e565b8382815181106113d0576113cf612c09565b5b6020026020010181905250600082111561144e5761142f8382815181106113fa576113f9612c09565b5b602002602001015161140b846119c1565b60405160200161141b91906133b8565b6040516020818303038152906040526114fe565b83828151811061144257611441612c09565b5b60200260200101819052505b8773ffffffffffffffffffffffffffffffffffffffff16637f2406a7856040518263ffffffff1660e01b8152600401611487919061244d565b602060405180830381865afa1580156114a4573d6000803e3d6000fd5b505050506040513d601f19601f820116820180604052508101906114c89190613098565b826114d39190613125565b915080806114e090612b8d565b9150506112c4565b506114f2826115ab565b94505050505092915050565b611506611fa4565b6115598360405180604001604052806040518060400160405280600981526020017f7472616e73666f726d0000000000000000000000000000000000000000000000815250815260200185815250611a8f565b905092915050565b60008183106115705781611572565b825b905092915050565b606061158582611bb1565b6040516020016115959190613431565b6040516020818303038152906040529050919050565b6115b3611fa4565b6115c46115bf83610f99565b611df6565b9050919050565b6115d3611fa4565b6116268360405180604001604052806040518060400160405280600481526020017f66696c6c00000000000000000000000000000000000000000000000000000000815250815260200185815250611a8f565b905092915050565b6060600080600186516116419190613125565b905060405192506020830185602088010160008060008990505b858110156116a55760008203611684578351925082855260208401935060208501945061010091505b6008820391508860ff84841c160361169a578095505b60018101905061165b565b8096508981038960ff85851c16036116be576001810390505b8688036116cc576001810390505b8089528060208a010160405250505050505050935093915050565b60606000825190506040519150602082016020840160005b8381101561174c57815183815160005b81811015611732576020840193508351835260208301925060208101905061170f565b5080860195506020850194505050506001810190506116ff565b50602084830303845281604052505050919050565b6060600082131561177c57611775826119c1565b90506117b0565b61178e8261178990613468565b6119c1565b60405160200161179e91906134fc565b60405160208183030381529060405290505b919050565b6060806020830160036002855102046040519250602083016000805b8381101561193457600060108206036117ef57845191506018850194505b600080600283066000811461181b5760ff8560e81c169250600f8560f41c1691508460181b945061182b565b8460f81c9250600f8560f01c1691505b5080600081146119005760006002610100858560081b010361040081106000811461186457602d9350600392508161040003915061186c565b610400820391505b5060098111156118d65760638111156118bb576103e78111156118a05760318360081b1792508160010191506103e8810690505b606481046030018360081b1792508160010191506064810690505b600a81046030018360081b179250816001019150600a810690505b60208160300160081b8460101b171792508260088302610100031b89528189019850505050611926565b607b83106060841116605b841060408511161715611925578260f81b86526001860195505b5b5050506001810190506117d1565b506020858303038552816040525050505080915050919050565b611956611fa4565b81604051602001611967919061356a565b60405160208183030381529060405281600001819052506040518060400160405280600481526020017f222f3e0a000000000000000000000000000000000000000000000000000000008152508160200181905250919050565b6060600060016119d084611e51565b01905060008167ffffffffffffffff8111156119ef576119ee612023565b5b6040519080825280601f01601f191660200182016040528015611a215781602001600182028036833780820191505090505b509050600082602001820190505b600115611a84578080600190039150507f3031323334353637383961626364656600000000000000000000000000000000600a86061a8153600a8581611a7857611a776130c5565b5b04945060008503611a2f575b819350505050919050565b611a97611fa4565b82600001518160000181905250826020015181602001819052506001836040015151611ac39190613125565b67ffffffffffffffff811115611adc57611adb612023565b5b604051908082528060200260200182016040528015611b1557816020015b611b02611fdf565b815260200190600190039081611afa5790505b50816040018190525060005b836040015151811015611b825783604001518181518110611b4557611b44612c09565b5b602002602001015182604001518281518110611b6457611b63612c09565b5b60200260200101819052508080611b7a90612b8d565b915050611b21565b5081816040015184604001515181518110611ba057611b9f612c09565b5b602002602001018190525092915050565b60606000600367ffffffffffffffff811115611bd057611bcf612023565b5b604051908082528060200260200182016040528015611c0357816020015b6060815260200190600190039081611bee5790505b5090506103e8831115611c4a57611c266103e884611c2191906130f4565b6119c1565b81600081518110611c3a57611c39612c09565b5b6020026020010181905250611ca0565b6040518060400160405280600181526020017f300000000000000000000000000000000000000000000000000000000000000081525081600081518110611c9457611c93612c09565b5b60200260200101819052505b600a831015611d03576040518060400160405280600381526020017f2e3030000000000000000000000000000000000000000000000000000000000081525081600181518110611cf357611cf2612c09565b5b6020026020010181905250611dbd565b6064831015611d66576040518060400160405280600281526020017f2e3000000000000000000000000000000000000000000000000000000000000081525081600181518110611d5657611d55612c09565b5b6020026020010181905250611dbc565b6040518060400160405280600181526020017f2e0000000000000000000000000000000000000000000000000000000000000081525081600181518110611db057611daf612c09565b5b60200260200101819052505b5b611dc6836119c1565b81600281518110611dda57611dd9612c09565b5b6020026020010181905250611dee816116e7565b915050919050565b611dfe611fa4565b604051602001611e0d906135d8565b604051602081830303815290604052816000018190525081604051602001611e359190613685565b6040516020818303038152906040528160200181905250919050565b600080600090507a184f03e93ff9f4daa797ed6e38ed64bf6a1f0100000000000000008310611eaf577a184f03e93ff9f4daa797ed6e38ed64bf6a1f0100000000000000008381611ea557611ea46130c5565b5b0492506040810190505b6d04ee2d6d415b85acef81000000008310611eec576d04ee2d6d415b85acef81000000008381611ee257611ee16130c5565b5b0492506020810190505b662386f26fc100008310611f1b57662386f26fc100008381611f1157611f106130c5565b5b0492506010810190505b6305f5e1008310611f44576305f5e1008381611f3a57611f396130c5565b5b0492506008810190505b6127108310611f69576127108381611f5f57611f5e6130c5565b5b0492506004810190505b60648310611f8c5760648381611f8257611f816130c5565b5b0492506002810190505b600a8310611f9b576001810190505b80915050919050565b60405180606001604052806060815260200160608152602001606081525090565b604051806040016040528060008152602001600081525090565b604051806040016040528060608152602001606081525090565b6000604051905090565b600080fd5b600080fd5b600080fd5b6000601f19601f8301169050919050565b7f4e487b7100000000000000000000000000000000000000000000000000000000600052604160045260246000fd5b61205b82612012565b810181811067ffffffffffffffff8211171561207a57612079612023565b5b80604052505050565b600061208d611ff9565b90506120998282612052565b919050565b600080fd5b600080fd5b600080fd5b600067ffffffffffffffff8211156120c8576120c7612023565b5b6120d182612012565b9050602081019050919050565b82818337600083830152505050565b60006121006120fb846120ad565b612083565b90508281526020810184848401111561211c5761211b6120a8565b5b6121278482856120de565b509392505050565b600082601f830112612144576121436120a3565b5b81356121548482602086016120ed565b91505092915050565b6000606082840312156121735761217261200d565b5b61217d6060612083565b9050600082013567ffffffffffffffff81111561219d5761219c61209e565b5b6121a98482850161212f565b600083015250602082013567ffffffffffffffff8111156121cd576121cc61209e565b5b6121d98482850161212f565b602083015250604082013567ffffffffffffffff8111156121fd576121fc61209e565b5b6122098482850161212f565b60408301525092915050565b60006020828403121561222b5761222a612003565b5b600082013567ffffffffffffffff81111561224957612248612008565b5b6122558482850161215d565b91505092915050565b6000819050919050565b6122718161225e565b82525050565b600060208201905061228c6000830184612268565b92915050565b6000602082840312156122a8576122a7612003565b5b600082013567ffffffffffffffff8111156122c6576122c5612008565b5b6122d28482850161212f565b91505092915050565b600073ffffffffffffffffffffffffffffffffffffffff82169050919050565b6000819050919050565b600061232061231b612316846122db565b6122fb565b6122db565b9050919050565b600061233282612305565b9050919050565b600061234482612327565b9050919050565b61235481612339565b82525050565b600060208201905061236f600083018461234b565b92915050565b61237e8161225e565b811461238957600080fd5b50565b60008135905061239b81612375565b92915050565b6000602082840312156123b7576123b6612003565b5b60006123c58482850161238c565b91505092915050565b600081519050919050565b600082825260208201905092915050565b60005b838110156124085780820151818401526020810190506123ed565b60008484015250505050565b600061241f826123ce565b61242981856123d9565b93506124398185602086016123ea565b61244281612012565b840191505092915050565b600060208201905081810360008301526124678184612414565b905092915050565b600061247a826122db565b9050919050565b600061248c8261246f565b9050919050565b61249c81612481565b81146124a757600080fd5b50565b6000813590506124b981612493565b92915050565b600080604083850312156124d6576124d5612003565b5b600083013567ffffffffffffffff8111156124f4576124f3612008565b5b6125008582860161212f565b9250506020612511858286016124aa565b9150509250929050565b600081519050919050565b600082825260208201905092915050565b60006125428261251b565b61254c8185612526565b935061255c8185602086016123ea565b61256581612012565b840191505092915050565b6000602082019050818103600083015261258a8184612537565b905092915050565b6000604082840312156125a8576125a761200d565b5b6125b26040612083565b905060006125c28482850161238c565b60008301525060206125d68482850161238c565b60208301525092915050565b60008060008060a085870312156125fc576125fb612003565b5b600085013567ffffffffffffffff81111561261a57612619612008565b5b6126268782880161212f565b945050602085013567ffffffffffffffff81111561264757612646612008565b5b6126538782880161212f565b935050604085013567ffffffffffffffff81111561267457612673612008565b5b6126808782880161212f565b925050606061269187828801612592565b91505092959194509250565b600081519050919050565b600082825260208201905092915050565b6000819050602082019050919050565b600082825260208201905092915050565b60006126e5826123ce565b6126ef81856126c9565b93506126ff8185602086016123ea565b61270881612012565b840191505092915050565b600061271f83836126da565b905092915050565b6000602082019050919050565b600061273f8261269d565b61274981856126a8565b93508360208202850161275b856126b9565b8060005b8581101561279757848403895281516127788582612713565b945061278383612727565b925060208a0199505060018101905061275f565b50829750879550505050505092915050565b600060208201905081810360008301526127c38184612734565b905092915050565b600081905092915050565b60006127e1826123ce565b6127eb81856127cb565b93506127fb8185602086016123ea565b80840191505092915050565b600061281382846127d6565b915081905092915050565b7f466f6e74206e6f74207265676973746572656400000000000000000000000000600082015250565b60006128546013836123d9565b915061285f8261281e565b602082019050919050565b6000602082019050818103600083015261288381612847565b9050919050565b7f4e487b7100000000000000000000000000000000000000000000000000000000600052602260045260246000fd5b600060028204905060018216806128d157607f821691505b6020821081036128e4576128e361288a565b5b50919050565b60008190508160005260206000209050919050565b60006020601f8301049050919050565b600082821b905092915050565b60006008830261294c7fffffffffffffffffffffffffffffffffffffffffffffffffffffffffffffffff8261290f565b612956868361290f565b95508019841693508086168417925050509392505050565b600061298961298461297f8461225e565b6122fb565b61225e565b9050919050565b6000819050919050565b6129a38361296e565b6129b76129af82612990565b84845461291c565b825550505050565b600090565b6129cc6129bf565b6129d781848461299a565b505050565b5b818110156129fb576129f06000826129c4565b6001810190506129dd565b5050565b601f821115612a4057612a11816128ea565b612a1a846128ff565b81016020851015612a29578190505b612a3d612a35856128ff565b8301826129dc565b50505b505050565b600082821c905092915050565b6000612a6360001984600802612a45565b1980831691505092915050565b6000612a7c8383612a52565b9150826002028217905092915050565b612a95826123ce565b67ffffffffffffffff811115612aae57612aad612023565b5b612ab882546128b9565b612ac38282856129ff565b600060209050601f831160018114612af65760008415612ae4578287015190505b612aee8582612a70565b865550612b56565b601f198416612b04866128ea565b60005b82811015612b2c57848901518255600182019150602085019450602081019050612b07565b86831015612b495784890151612b45601f891682612a52565b8355505b6001600288020188555050505b505050505050565b7f4e487b7100000000000000000000000000000000000000000000000000000000600052601160045260246000fd5b6000612b988261225e565b91507fffffffffffffffffffffffffffffffffffffffffffffffffffffffffffffffff8203612bca57612bc9612b5e565b5b600182019050919050565b6000612be08261225e565b9150612beb8361225e565b9250828203905081811115612c0357612c02612b5e565b5b92915050565b7f4e487b7100000000000000000000000000000000000000000000000000000000600052603260045260246000fd5b600081905092915050565b6000612c4e8261251b565b612c588185612c38565b9350612c688185602086016123ea565b80840191505092915050565b7f2220000000000000000000000000000000000000000000000000000000000000600082015250565b6000612caa6002836127cb565b9150612cb582612c74565b600282019050919050565b7f3d22000000000000000000000000000000000000000000000000000000000000600082015250565b6000612cf66002836127cb565b9150612d0182612cc0565b600282019050919050565b6000612d188286612c43565b9150612d2382612c9d565b9150612d2f82856127d6565b9150612d3a82612ce9565b9150612d4682846127d6565b9150819050949350505050565b7f41747472696275746573206f6e206c6973740000000000000000000000000000600082015250565b6000612d896012836123d9565b9150612d9482612d53565b602082019050919050565b60006020820190508181036000830152612db881612d7c565b9050919050565b6000612dcb8285612c43565b9150612dd78284612c43565b91508190509392505050565b7f3c3f786d6c2076657273696f6e3d22312e302220656e636f64696e673d22555460008201527f462d38223f3e3c7376672076696577426f783d22000000000000000000000000602082015250565b6000612e3f6034836127cb565b9150612e4a82612de3565b603482019050919050565b7f2220786d6c6e733d22687474703a2f2f7777772e77332e6f72672f323030302f60008201527f737667223e0a0000000000000000000000000000000000000000000000000000602082015250565b6000612eb16026836127cb565b9150612ebc82612e55565b602682019050919050565b6000612ed282612e32565b9150612ede82846127d6565b9150612ee982612ea4565b915081905092915050565b7f3c646566733e0a00000000000000000000000000000000000000000000000000600082015250565b6000612f2a6007836127cb565b9150612f3582612ef4565b600782019050919050565b7f3c2f646566733e0a000000000000000000000000000000000000000000000000600082015250565b6000612f766008836127cb565b9150612f8182612f40565b600882019050919050565b6000612f988285612c43565b9150612fa382612f1d565b9150612faf8284612c43565b9150612fba82612f69565b91508190509392505050565b7f3c2f7376673e0a00000000000000000000000000000000000000000000000000600082015250565b6000612ffc6007836127cb565b915061300782612fc6565b600782019050919050565b600061301e8285612c43565b915061302a8284612c43565b915061303582612fef565b91508190509392505050565b600061304c8261225e565b91506130578361225e565b92508282026130658161225e565b9150828204841483151761307c5761307b612b5e565b5b5092915050565b60008151905061309281612375565b92915050565b6000602082840312156130ae576130ad612003565b5b60006130bc84828501613083565b91505092915050565b7f4e487b7100000000000000000000000000000000000000000000000000000000600052601260045260246000fd5b60006130ff8261225e565b915061310a8361225e565b92508261311a576131196130c5565b5b828204905092915050565b60006131308261225e565b915061313b8361225e565b925082820190508082111561315357613152612b5e565b5b92915050565b7f7472616e736c6174652800000000000000000000000000000000000000000000600082015250565b600061318f600a836127cb565b915061319a82613159565b600a82019050919050565b7f2000000000000000000000000000000000000000000000000000000000000000600082015250565b60006131db6001836127cb565b91506131e6826131a5565b600182019050919050565b7f2900000000000000000000000000000000000000000000000000000000000000600082015250565b60006132276001836127cb565b9150613232826131f1565b600182019050919050565b600061324882613182565b915061325482856127d6565b915061325f826131ce565b915061326b82846127d6565b91506132768261321a565b91508190509392505050565b600067ffffffffffffffff82111561329d5761329c612023565b5b6132a682612012565b9050602081019050919050565b60006132c66132c184613282565b612083565b9050828152602081018484840111156132e2576132e16120a8565b5b6132ed8482856123ea565b509392505050565b600082601f83011261330a576133096120a3565b5b815161331a8482602086016132b3565b91505092915050565b60006020828403121561333957613338612003565b5b600082015167ffffffffffffffff81111561335757613356612008565b5b613363848285016132f5565b91505092915050565b7f2030290000000000000000000000000000000000000000000000000000000000600082015250565b60006133a26003836127cb565b91506133ad8261336c565b600382019050919050565b60006133c382613182565b91506133cf82846127d6565b91506133da82613395565b915081905092915050565b7f7363616c65280000000000000000000000000000000000000000000000000000600082015250565b600061341b6006836127cb565b9150613426826133e5565b600682019050919050565b600061343c8261340e565b915061344882846127d6565b91506134538261321a565b915081905092915050565b6000819050919050565b60006134738261345e565b91507f800000000000000000000000000000000000000000000000000000000000000082036134a5576134a4612b5e565b5b816000039050919050565b7f2d00000000000000000000000000000000000000000000000000000000000000600082015250565b60006134e66001836127cb565b91506134f1826134b0565b600182019050919050565b6000613507826134d9565b915061351382846127d6565b915081905092915050565b7f3c7061746820643d220000000000000000000000000000000000000000000000600082015250565b60006135546009836127cb565b915061355f8261351e565b600982019050919050565b600061357582613547565b91506135818284612c43565b915081905092915050565b7f3c6720785f783d22780000000000000000000000000000000000000000000000600082015250565b60006135c26009836127cb565b91506135cd8261358c565b600982019050919050565b60006135e3826135b5565b9150819050919050565b7f223e000000000000000000000000000000000000000000000000000000000000600082015250565b60006136236002836127cb565b915061362e826135ed565b600282019050919050565b7f3c2f673e0a000000000000000000000000000000000000000000000000000000600082015250565b600061366f6005836127cb565b915061367a82613639565b600582019050919050565b600061369082613616565b915061369c8284612c43565b91506136a782613662565b91508190509291505056fea2646970667358221220f269d6739e4c0eb70da81b6cbbd74a1310a8de4a3c4decc4cba97d1d57e69eb064736f6c63430008110033",
  "linkReferences": {},
  "deployedLinkReferences": {}
}