{
  "_format": "hh-sol-artifact-1",
  "contractName": "MessageStoreV1",
  "sourceName": "contracts/imageParts/svgstore/MessageStoreV1.sol",
  "abi": [
    {
      "inputs": [
        {
          "internalType": "contract IFontProvider",
          "name": "_font",
          "type": "address"
        }
      ],
      "stateMutability": "nonpayable",
      "type": "constructor"
    },
    {
      "inputs": [],
      "name": "font",
      "outputs": [
        {
          "internalType": "contract IFontProvider",
          "name": "",
          "type": "address"
        }
      ],
      "stateMutability": "view",
      "type": "function"
    },
    {
      "inputs": [
        {
          "internalType": "uint256",
          "name": "index",
          "type": "uint256"
        }
      ],
      "name": "getSVG",
      "outputs": [
        {
          "internalType": "string",
          "name": "output",
          "type": "string"
        }
      ],
      "stateMutability": "view",
      "type": "function"
    },
    {
      "inputs": [
        {
          "internalType": "uint256",
          "name": "index",
          "type": "uint256"
        }
      ],
      "name": "getSVGBody",
      "outputs": [
        {
          "internalType": "bytes",
          "name": "output",
          "type": "bytes"
        }
      ],
      "stateMutability": "view",
      "type": "function"
    },
    {
      "inputs": [
        {
          "internalType": "string",
          "name": "message",
          "type": "string"
        },
        {
          "internalType": "string",
          "name": "color",
          "type": "string"
        }
      ],
      "name": "getSVGMessage",
      "outputs": [
        {
          "internalType": "string",
          "name": "output",
          "type": "string"
        }
      ],
      "stateMutability": "view",
      "type": "function"
    },
    {
      "inputs": [
        {
          "components": [
            {
              "internalType": "string",
              "name": "message",
              "type": "string"
            },
            {
              "internalType": "string",
              "name": "color",
              "type": "string"
            }
          ],
          "internalType": "struct IMessageStoreV1.Asset",
          "name": "asset",
          "type": "tuple"
        }
      ],
      "name": "register",
      "outputs": [
        {
          "internalType": "uint256",
          "name": "",
          "type": "uint256"
        }
      ],
      "stateMutability": "nonpayable",
      "type": "function"
    },
    {
      "inputs": [
        {
          "internalType": "string",
          "name": "message",
          "type": "string"
        }
      ],
      "name": "test",
      "outputs": [
        {
          "internalType": "string[]",
          "name": "output",
          "type": "string[]"
        }
      ],
      "stateMutability": "view",
      "type": "function"
    }
  ],
  "bytecode": "0x60a060405260016000553480156200001657600080fd5b50604051620030b8380380620030b883398181016040528101906200003c9190620000f5565b8073ffffffffffffffffffffffffffffffffffffffff1660808173ffffffffffffffffffffffffffffffffffffffff16815250505062000127565b600080fd5b600073ffffffffffffffffffffffffffffffffffffffff82169050919050565b6000620000a9826200007c565b9050919050565b6000620000bd826200009c565b9050919050565b620000cf81620000b0565b8114620000db57600080fd5b50565b600081519050620000ef81620000c4565b92915050565b6000602082840312156200010e576200010d62000077565b5b60006200011e84828501620000de565b91505092915050565b608051612f6062000158600039600081816101ea01528181610553015281816105c001526109600152612f606000f3fe608060405234801561001057600080fd5b50600436106100625760003560e01c80635be894c6146100675780639d37bc7c14610097578063b34d7503146100b5578063be985ac9146100e5578063dec0314e14610115578063f9fbd55414610145575b600080fd5b610081600480360381019061007c9190611c1e565b610175565b60405161008e9190611c80565b60405180910390f35b61009f6101e8565b6040516100ac9190611d1a565b60405180910390f35b6100cf60048036038101906100ca9190611d35565b61020c565b6040516100dc9190611e2c565b60405180910390f35b6100ff60048036038101906100fa9190611e7a565b6102c9565b60405161010c9190611e2c565b60405180910390f35b61012f600480360381019061012a9190611e7a565b610383565b60405161013c9190611efc565b60405180910390f35b61015f600480360381019061015a9190611f1e565b610395565b60405161016c9190612073565b60405180910390f35b600081600160008054815260200190815260200160002060008201518160000190816101a19190612297565b5060208201518160010190816101b79190612297565b509050506000808154809291906101cd90612398565b919050555060016000546101e191906123e0565b9050919050565b7f000000000000000000000000000000000000000000000000000000000000000081565b60606000600167ffffffffffffffff81111561022b5761022a611a5c565b5b60405190808252806020026020018201604052801561026457816020015b6102516119f7565b8152602001906001900390816102495790505b5090506102c06040518060400160405280600d81526020017f30203020313032342031303234000000000000000000000000000000000000008152506102b16102ac846103a9565b6103c7565b6102bb87876104cf565b610727565b91505092915050565b606060008067ffffffffffffffff8111156102e7576102e6611a5c565b5b60405190808252806020026020018201604052801561032057816020015b61030d6119f7565b8152602001906001900390816103055790505b50905061037b6040518060400160405280600d81526020017f302030203130323420313032340000000000000000000000000000000000000081525061036d610368846103a9565b6103c7565b610376866107ab565b610727565b915050919050565b606061038e826107ab565b9050919050565b60606103a282600a6109ed565b9050919050565b6103b16119f7565b6103ba82610af2565b8160200181905250919050565b606060008260000151511115610459578160000151905060005b8260400151518110156104535760008360400151828151811061040757610406612414565b5b60200260200101519050828160000151826020015160405160200161042e93929190612553565b604051602081830303815290604052925050808061044b90612398565b9150506103e1565b506104a2565b6000826040015151146104a1576040517f08c379a0000000000000000000000000000000000000000000000000000000008152600401610498906125e6565b60405180910390fd5b5b8082602001516040516020016104b9929190612606565b6040516020818303038152906040529050919050565b606060006104de84600a6109ed565b90506000815167ffffffffffffffff8111156104fd576104fc611a5c565b5b60405190808252806020026020018201604052801561053657816020015b6105236119f7565b81526020019060019003908161051b5790505b5090506000611000905060005b835181101561063f5760006105927f000000000000000000000000000000000000000000000000000000000000000086848151811061058557610584612414565b5b6020026020010151610bb9565b9050828111156105a0578092505b61060d6105bb6000846104006105b6919061262a565b610d21565b6105ff7f00000000000000000000000000000000000000000000000000000000000000008886815181106105f2576105f1612414565b5b6020026020010151610d5d565b61105790919063ffffffff16565b8483815181106106205761061f612414565b5b602002602001018190525050808061063790612398565b915050610543565b50600081620fa000610651919061269b565b90506000610678610661836110ba565b61066a866110eb565b61105790919063ffffffff16565b905061068d878261110b90919063ffffffff16565b90506000600167ffffffffffffffff8111156106ac576106ab611a5c565b5b6040519080825280602002602001820160405280156106e557816020015b6106d26119f7565b8152602001906001900390816106ca5790505b50905081816000815181106106fd576106fc612414565b5b6020026020010181905250610719610714826103a9565b6103c7565b965050505050505092915050565b606060008460405160200161073c91906127b0565b604051602081830303815290604052905060008451111561077c57808460405160200161076a929190612875565b60405160208183030381529060405290505b808360405160200161078f9291906128fb565b6040516020818303038152906040529050809150509392505050565b60606000600160008481526020019081526020016000206040518060400160405290816000820180546107dd906120c4565b80601f0160208091040260200160405190810160405280929190818152602001828054610809906120c4565b80156108565780601f1061082b57610100808354040283529160200191610856565b820191906000526020600020905b81548152906001019060200180831161083957829003601f168201915b5050505050815260200160018201805461086f906120c4565b80601f016020809104026020016040519081016040528092919081815260200182805461089b906120c4565b80156108e85780601f106108bd576101008083540402835291602001916108e8565b820191906000526020600020905b8154815290600101906020018083116108cb57829003601f168201915b50505050508152505090506000600167ffffffffffffffff8111156109105761090f611a5c565b5b60405190808252806020026020018201604052801561094957816020015b6109366119f7565b81526020019060019003908161092e5790505b509050600061099761095b60f06110ba565b6109897f00000000000000000000000000000000000000000000000000000000000000008660000151610d5d565b61105790919063ffffffff16565b90506109b083602001518261110b90919063ffffffff16565b905080826000815181106109c7576109c6612414565b5b60200260200101819052506109e36109de836103a9565b6103c7565b9350505050919050565b6060600083519050600080600090505b82811015610a3957610a1086828761116e565b905080915050600182610a23919061292a565b9150600181610a32919061292a565b90506109fd565b508067ffffffffffffffff811115610a5457610a53611a5c565b5b604051908082528060200260200182016040528015610a8757816020015b6060815260200190600190039081610a725790505b5092506000905060005b82811015610ae957610aa486828761116e565b858481518110610ab757610ab6612414565b5b602002602001018193508290525050600182610ad3919061292a565b9150600181610ae2919061292a565b9050610a91565b50505092915050565b60606000825167ffffffffffffffff811115610b1157610b10611a5c565b5b604051908082528060200260200182016040528015610b4457816020015b6060815260200190600190039081610b2f5790505b50905060005b8351811015610ba757610b76848281518110610b6957610b68612414565b5b60200260200101516103c7565b828281518110610b8957610b88612414565b5b60200260200101819052508080610b9f90612398565b915050610b4a565b50610bb1816111fb565b915050919050565b6000808290506000600167ffffffffffffffff811115610bdc57610bdb611a5c565b5b6040519080825280601f01601f191660200182016040528015610c0e5781602001600182028036833780820191505090505b50905060005b8251811015610d1857828181518110610c3057610c2f612414565b5b602001015160f81c60f81b82600081518110610c4f57610c4e612414565b5b60200101907effffffffffffffffffffffffffffffffffffffffffffffffffffffffffffff1916908160001a9053508573ffffffffffffffffffffffffffffffffffffffff16637f2406a7836040518263ffffffff1660e01b8152600401610cb79190611e2c565b602060405180830381865afa158015610cd4573d6000803e3d6000fd5b505050506040513d601f19601f82011682018060405250810190610cf89190612973565b84610d03919061292a565b93508080610d1090612398565b915050610c14565b50505092915050565b6060610d2c83611275565b610d3583611275565b604051602001610d46929190612a84565b604051602081830303815290604052905092915050565b610d656119f7565b60008290506000600167ffffffffffffffff811115610d8757610d86611a5c565b5b6040519080825280601f01601f191660200182016040528015610db95781602001600182028036833780820191505090505b5090506000825167ffffffffffffffff811115610dd957610dd8611a5c565b5b604051908082528060200260200182016040528015610e1257816020015b610dff6119f7565b815260200190600190039081610df75790505b509050600080600090505b845181101561104157848181518110610e3957610e38612414565b5b602001015160f81c60f81b84600081518110610e5857610e57612414565b5b60200101907effffffffffffffffffffffffffffffffffffffffffffffffffffffffffffff1916908160001a905350610f16610f118973ffffffffffffffffffffffffffffffffffffffff1663a4b3eff4876040518263ffffffff1660e01b8152600401610ec69190611e2c565b600060405180830381865afa158015610ee3573d6000803e3d6000fd5b505050506040513d6000823e3d601f19601f82011682018060405250810190610f0c9190612b6a565b6112c9565b611462565b838281518110610f2957610f28612414565b5b60200260200101819052506000821115610fa757610f88838281518110610f5357610f52612414565b5b6020026020010151610f64846114d5565b604051602001610f749190612bff565b604051602081830303815290604052611057565b838281518110610f9b57610f9a612414565b5b60200260200101819052505b8773ffffffffffffffffffffffffffffffffffffffff16637f2406a7856040518263ffffffff1660e01b8152600401610fe09190611e2c565b602060405180830381865afa158015610ffd573d6000803e3d6000fd5b505050506040513d601f19601f820116820180604052508101906110219190612973565b8261102c919061292a565b9150808061103990612398565b915050610e1d565b5061104b826110eb565b94505050505092915050565b61105f6119f7565b6110b28360405180604001604052806040518060400160405280600981526020017f7472616e73666f726d0000000000000000000000000000000000000000000000815250815260200185815250611635565b905092915050565b60606110c582611757565b6040516020016110d59190612c78565b6040516020818303038152906040529050919050565b6110f36119f7565b6111046110ff83610af2565b61199c565b9050919050565b6111136119f7565b6111668360405180604001604052806040518060400160405280600481526020017f66696c6c00000000000000000000000000000000000000000000000000000000815250815260200185815250611635565b905092915050565b60606000808551905060405192506020830185602088010160008060008990505b858110156111d957600082036111b8578351925082855260208401935060208501945061010091505b6008820391508860ff84841c16036111ce578095505b60018101905061118f565b8096508981039550858852856020890101604052505050505050935093915050565b60606000825190506040519150602082016020840160005b8381101561126057815183815160005b818110156112465760208401935083518352602083019250602081019050611223565b508086019550602085019450505050600181019050611213565b50602084830303845281604052505050919050565b6060600082131561129057611289826114d5565b90506112c4565b6112a28261129d90612caf565b6114d5565b6040516020016112b29190612d43565b60405160208183030381529060405290505b919050565b6060806020830160036002855102046040519250602083016000805b83811015611448576000601082060361130357845191506018850194505b600080600283066000811461132f5760ff8560e81c169250600f8560f41c1691508460181b945061133f565b8460f81c9250600f8560f01c1691505b5080600081146114145760006002610100858560081b010361040081106000811461137857602d93506003925081610400039150611380565b610400820391505b5060098111156113ea5760638111156113cf576103e78111156113b45760318360081b1792508160010191506103e8810690505b606481046030018360081b1792508160010191506064810690505b600a81046030018360081b179250816001019150600a810690505b60208160300160081b8460101b171792508260088302610100031b8952818901985050505061143a565b607b83106060841116605b841060408511161715611439578260f81b86526001860195505b5b5050506001810190506112e5565b506020858303038552816040525050505080915050919050565b61146a6119f7565b8160405160200161147b9190612db1565b60405160208183030381529060405281600001819052506040518060400160405280600481526020017f222f3e0a000000000000000000000000000000000000000000000000000000008152508160200181905250919050565b60606000820361151c576040518060400160405280600181526020017f30000000000000000000000000000000000000000000000000000000000000008152509050611630565b600082905060005b6000821461154e57808061153790612398565b915050600a82611547919061269b565b9150611524565b60008167ffffffffffffffff81111561156a57611569611a5c565b5b6040519080825280601f01601f19166020018201604052801561159c5781602001600182028036833780820191505090505b5090505b60008514611629576001826115b591906123e0565b9150600a856115c49190612dd3565b60306115d0919061292a565b60f81b8183815181106115e6576115e5612414565b5b60200101907effffffffffffffffffffffffffffffffffffffffffffffffffffffffffffff1916908160001a905350600a85611622919061269b565b94506115a0565b8093505050505b919050565b61163d6119f7565b82600001518160000181905250826020015181602001819052506001836040015151611669919061292a565b67ffffffffffffffff81111561168257611681611a5c565b5b6040519080825280602002602001820160405280156116bb57816020015b6116a8611a18565b8152602001906001900390816116a05790505b50816040018190525060005b83604001515181101561172857836040015181815181106116eb576116ea612414565b5b60200260200101518260400151828151811061170a57611709612414565b5b6020026020010181905250808061172090612398565b9150506116c7565b508181604001518460400151518151811061174657611745612414565b5b602002602001018190525092915050565b60606000600367ffffffffffffffff81111561177657611775611a5c565b5b6040519080825280602002602001820160405280156117a957816020015b60608152602001906001900390816117945790505b5090506103e88311156117f0576117cc6103e8846117c7919061269b565b6114d5565b816000815181106117e0576117df612414565b5b6020026020010181905250611846565b6040518060400160405280600181526020017f30000000000000000000000000000000000000000000000000000000000000008152508160008151811061183a57611839612414565b5b60200260200101819052505b600a8310156118a9576040518060400160405280600381526020017f2e303000000000000000000000000000000000000000000000000000000000008152508160018151811061189957611898612414565b5b6020026020010181905250611963565b606483101561190c576040518060400160405280600281526020017f2e30000000000000000000000000000000000000000000000000000000000000815250816001815181106118fc576118fb612414565b5b6020026020010181905250611962565b6040518060400160405280600181526020017f2e000000000000000000000000000000000000000000000000000000000000008152508160018151811061195657611955612414565b5b60200260200101819052505b5b61196c836114d5565b816002815181106119805761197f612414565b5b6020026020010181905250611994816111fb565b915050919050565b6119a46119f7565b6040516020016119b390612e50565b6040516020818303038152906040528160000181905250816040516020016119db9190612efd565b6040516020818303038152906040528160200181905250919050565b60405180606001604052806060815260200160608152602001606081525090565b604051806040016040528060608152602001606081525090565b6000604051905090565b600080fd5b600080fd5b600080fd5b6000601f19601f8301169050919050565b7f4e487b7100000000000000000000000000000000000000000000000000000000600052604160045260246000fd5b611a9482611a4b565b810181811067ffffffffffffffff82111715611ab357611ab2611a5c565b5b80604052505050565b6000611ac6611a32565b9050611ad28282611a8b565b919050565b600080fd5b600080fd5b600080fd5b600067ffffffffffffffff821115611b0157611b00611a5c565b5b611b0a82611a4b565b9050602081019050919050565b82818337600083830152505050565b6000611b39611b3484611ae6565b611abc565b905082815260208101848484011115611b5557611b54611ae1565b5b611b60848285611b17565b509392505050565b600082601f830112611b7d57611b7c611adc565b5b8135611b8d848260208601611b26565b91505092915050565b600060408284031215611bac57611bab611a46565b5b611bb66040611abc565b9050600082013567ffffffffffffffff811115611bd657611bd5611ad7565b5b611be284828501611b68565b600083015250602082013567ffffffffffffffff811115611c0657611c05611ad7565b5b611c1284828501611b68565b60208301525092915050565b600060208284031215611c3457611c33611a3c565b5b600082013567ffffffffffffffff811115611c5257611c51611a41565b5b611c5e84828501611b96565b91505092915050565b6000819050919050565b611c7a81611c67565b82525050565b6000602082019050611c956000830184611c71565b92915050565b600073ffffffffffffffffffffffffffffffffffffffff82169050919050565b6000819050919050565b6000611ce0611cdb611cd684611c9b565b611cbb565b611c9b565b9050919050565b6000611cf282611cc5565b9050919050565b6000611d0482611ce7565b9050919050565b611d1481611cf9565b82525050565b6000602082019050611d2f6000830184611d0b565b92915050565b60008060408385031215611d4c57611d4b611a3c565b5b600083013567ffffffffffffffff811115611d6a57611d69611a41565b5b611d7685828601611b68565b925050602083013567ffffffffffffffff811115611d9757611d96611a41565b5b611da385828601611b68565b9150509250929050565b600081519050919050565b600082825260208201905092915050565b60005b83811015611de7578082015181840152602081019050611dcc565b60008484015250505050565b6000611dfe82611dad565b611e088185611db8565b9350611e18818560208601611dc9565b611e2181611a4b565b840191505092915050565b60006020820190508181036000830152611e468184611df3565b905092915050565b611e5781611c67565b8114611e6257600080fd5b50565b600081359050611e7481611e4e565b92915050565b600060208284031215611e9057611e8f611a3c565b5b6000611e9e84828501611e65565b91505092915050565b600081519050919050565b600082825260208201905092915050565b6000611ece82611ea7565b611ed88185611eb2565b9350611ee8818560208601611dc9565b611ef181611a4b565b840191505092915050565b60006020820190508181036000830152611f168184611ec3565b905092915050565b600060208284031215611f3457611f33611a3c565b5b600082013567ffffffffffffffff811115611f5257611f51611a41565b5b611f5e84828501611b68565b91505092915050565b600081519050919050565b600082825260208201905092915050565b6000819050602082019050919050565b600082825260208201905092915050565b6000611faf82611dad565b611fb98185611f93565b9350611fc9818560208601611dc9565b611fd281611a4b565b840191505092915050565b6000611fe98383611fa4565b905092915050565b6000602082019050919050565b600061200982611f67565b6120138185611f72565b93508360208202850161202585611f83565b8060005b8581101561206157848403895281516120428582611fdd565b945061204d83611ff1565b925060208a01995050600181019050612029565b50829750879550505050505092915050565b6000602082019050818103600083015261208d8184611ffe565b905092915050565b7f4e487b7100000000000000000000000000000000000000000000000000000000600052602260045260246000fd5b600060028204905060018216806120dc57607f821691505b6020821081036120ef576120ee612095565b5b50919050565b60008190508160005260206000209050919050565b60006020601f8301049050919050565b600082821b905092915050565b6000600883026121577fffffffffffffffffffffffffffffffffffffffffffffffffffffffffffffffff8261211a565b612161868361211a565b95508019841693508086168417925050509392505050565b600061219461218f61218a84611c67565b611cbb565b611c67565b9050919050565b6000819050919050565b6121ae83612179565b6121c26121ba8261219b565b848454612127565b825550505050565b600090565b6121d76121ca565b6121e28184846121a5565b505050565b5b81811015612206576121fb6000826121cf565b6001810190506121e8565b5050565b601f82111561224b5761221c816120f5565b6122258461210a565b81016020851015612234578190505b6122486122408561210a565b8301826121e7565b50505b505050565b600082821c905092915050565b600061226e60001984600802612250565b1980831691505092915050565b6000612287838361225d565b9150826002028217905092915050565b6122a082611dad565b67ffffffffffffffff8111156122b9576122b8611a5c565b5b6122c382546120c4565b6122ce82828561220a565b600060209050601f83116001811461230157600084156122ef578287015190505b6122f9858261227b565b865550612361565b601f19841661230f866120f5565b60005b8281101561233757848901518255600182019150602085019450602081019050612312565b868310156123545784890151612350601f89168261225d565b8355505b6001600288020188555050505b505050505050565b7f4e487b7100000000000000000000000000000000000000000000000000000000600052601160045260246000fd5b60006123a382611c67565b91507fffffffffffffffffffffffffffffffffffffffffffffffffffffffffffffffff82036123d5576123d4612369565b5b600182019050919050565b60006123eb82611c67565b91506123f683611c67565b925082820390508181111561240e5761240d612369565b5b92915050565b7f4e487b7100000000000000000000000000000000000000000000000000000000600052603260045260246000fd5b600081905092915050565b600061245982611ea7565b6124638185612443565b9350612473818560208601611dc9565b80840191505092915050565b600081905092915050565b7f2220000000000000000000000000000000000000000000000000000000000000600082015250565b60006124c060028361247f565b91506124cb8261248a565b600282019050919050565b60006124e182611dad565b6124eb818561247f565b93506124fb818560208601611dc9565b80840191505092915050565b7f3d22000000000000000000000000000000000000000000000000000000000000600082015250565b600061253d60028361247f565b915061254882612507565b600282019050919050565b600061255f828661244e565b915061256a826124b3565b915061257682856124d6565b915061258182612530565b915061258d82846124d6565b9150819050949350505050565b7f41747472696275746573206f6e206c6973740000000000000000000000000000600082015250565b60006125d0601283611db8565b91506125db8261259a565b602082019050919050565b600060208201905081810360008301526125ff816125c3565b9050919050565b6000612612828561244e565b915061261e828461244e565b91508190509392505050565b600061263582611c67565b915061264083611c67565b925082820261264e81611c67565b9150828204841483151761266557612664612369565b5b5092915050565b7f4e487b7100000000000000000000000000000000000000000000000000000000600052601260045260246000fd5b60006126a682611c67565b91506126b183611c67565b9250826126c1576126c061266c565b5b828204905092915050565b7f3c3f786d6c2076657273696f6e3d22312e302220656e636f64696e673d22555460008201527f462d38223f3e3c7376672076696577426f783d22000000000000000000000000602082015250565b600061272860348361247f565b9150612733826126cc565b603482019050919050565b7f2220786d6c6e733d22687474703a2f2f7777772e77332e6f72672f323030302f60008201527f737667223e0a0000000000000000000000000000000000000000000000000000602082015250565b600061279a60268361247f565b91506127a58261273e565b602682019050919050565b60006127bb8261271b565b91506127c782846124d6565b91506127d28261278d565b915081905092915050565b7f3c646566733e0a00000000000000000000000000000000000000000000000000600082015250565b600061281360078361247f565b915061281e826127dd565b600782019050919050565b7f3c2f646566733e0a000000000000000000000000000000000000000000000000600082015250565b600061285f60088361247f565b915061286a82612829565b600882019050919050565b6000612881828561244e565b915061288c82612806565b9150612898828461244e565b91506128a382612852565b91508190509392505050565b7f3c2f7376673e0a00000000000000000000000000000000000000000000000000600082015250565b60006128e560078361247f565b91506128f0826128af565b600782019050919050565b6000612907828561244e565b9150612913828461244e565b915061291e826128d8565b91508190509392505050565b600061293582611c67565b915061294083611c67565b925082820190508082111561295857612957612369565b5b92915050565b60008151905061296d81611e4e565b92915050565b60006020828403121561298957612988611a3c565b5b60006129978482850161295e565b91505092915050565b7f7472616e736c6174652800000000000000000000000000000000000000000000600082015250565b60006129d6600a8361247f565b91506129e1826129a0565b600a82019050919050565b7f2000000000000000000000000000000000000000000000000000000000000000600082015250565b6000612a2260018361247f565b9150612a2d826129ec565b600182019050919050565b7f2900000000000000000000000000000000000000000000000000000000000000600082015250565b6000612a6e60018361247f565b9150612a7982612a38565b600182019050919050565b6000612a8f826129c9565b9150612a9b82856124d6565b9150612aa682612a15565b9150612ab282846124d6565b9150612abd82612a61565b91508190509392505050565b600067ffffffffffffffff821115612ae457612ae3611a5c565b5b612aed82611a4b565b9050602081019050919050565b6000612b0d612b0884612ac9565b611abc565b905082815260208101848484011115612b2957612b28611ae1565b5b612b34848285611dc9565b509392505050565b600082601f830112612b5157612b50611adc565b5b8151612b61848260208601612afa565b91505092915050565b600060208284031215612b8057612b7f611a3c565b5b600082015167ffffffffffffffff811115612b9e57612b9d611a41565b5b612baa84828501612b3c565b91505092915050565b7f2030290000000000000000000000000000000000000000000000000000000000600082015250565b6000612be960038361247f565b9150612bf482612bb3565b600382019050919050565b6000612c0a826129c9565b9150612c1682846124d6565b9150612c2182612bdc565b915081905092915050565b7f7363616c65280000000000000000000000000000000000000000000000000000600082015250565b6000612c6260068361247f565b9150612c6d82612c2c565b600682019050919050565b6000612c8382612c55565b9150612c8f82846124d6565b9150612c9a82612a61565b915081905092915050565b6000819050919050565b6000612cba82612ca5565b91507f80000000000000000000000000000000000000000000000000000000000000008203612cec57612ceb612369565b5b816000039050919050565b7f2d00000000000000000000000000000000000000000000000000000000000000600082015250565b6000612d2d60018361247f565b9150612d3882612cf7565b600182019050919050565b6000612d4e82612d20565b9150612d5a82846124d6565b915081905092915050565b7f3c7061746820643d220000000000000000000000000000000000000000000000600082015250565b6000612d9b60098361247f565b9150612da682612d65565b600982019050919050565b6000612dbc82612d8e565b9150612dc8828461244e565b915081905092915050565b6000612dde82611c67565b9150612de983611c67565b925082612df957612df861266c565b5b828206905092915050565b7f3c6720785f783d22780000000000000000000000000000000000000000000000600082015250565b6000612e3a60098361247f565b9150612e4582612e04565b600982019050919050565b6000612e5b82612e2d565b9150819050919050565b7f223e000000000000000000000000000000000000000000000000000000000000600082015250565b6000612e9b60028361247f565b9150612ea682612e65565b600282019050919050565b7f3c2f673e0a000000000000000000000000000000000000000000000000000000600082015250565b6000612ee760058361247f565b9150612ef282612eb1565b600582019050919050565b6000612f0882612e8e565b9150612f14828461244e565b9150612f1f82612eda565b91508190509291505056fea2646970667358221220592f7b478bf565cbdc06d6d6235abf597372771fcfe488c7b0029a69e0d15bbc64736f6c63430008110033",
  "linkReferences": {},
  "deployedLinkReferences": {}
}