{
  "_format": "hh-sol-artifact-1",
  "contractName": "MessageStoreV1",
  "sourceName": "contracts/imageParts/svgstore/MessageStoreV1.sol",
  "abi": [
    {
      "inputs": [
        {
          "internalType": "contract IFontProvider",
          "name": "_font",
          "type": "address"
        }
      ],
      "stateMutability": "nonpayable",
      "type": "constructor"
    },
    {
      "inputs": [],
      "name": "font",
      "outputs": [
        {
          "internalType": "contract IFontProvider",
          "name": "",
          "type": "address"
        }
      ],
      "stateMutability": "view",
      "type": "function"
    },
    {
      "inputs": [
        {
          "internalType": "uint256",
          "name": "index",
          "type": "uint256"
        }
      ],
      "name": "getSVG",
      "outputs": [
        {
          "internalType": "string",
          "name": "output",
          "type": "string"
        }
      ],
      "stateMutability": "view",
      "type": "function"
    },
    {
      "inputs": [
        {
          "internalType": "uint256",
          "name": "index",
          "type": "uint256"
        }
      ],
      "name": "getSVGBody",
      "outputs": [
        {
          "internalType": "bytes",
          "name": "output",
          "type": "bytes"
        }
      ],
      "stateMutability": "view",
      "type": "function"
    },
    {
      "inputs": [
        {
          "internalType": "string[4]",
          "name": "messages",
          "type": "string[4]"
        },
        {
          "internalType": "string",
          "name": "color",
          "type": "string"
        }
      ],
      "name": "getSVGMessage",
      "outputs": [
        {
          "internalType": "string",
          "name": "output",
          "type": "string"
        }
      ],
      "stateMutability": "view",
      "type": "function"
    },
    {
      "inputs": [
        {
          "components": [
            {
              "internalType": "string",
              "name": "message",
              "type": "string"
            },
            {
              "internalType": "string",
              "name": "color",
              "type": "string"
            }
          ],
          "internalType": "struct IMessageStoreV1.Asset",
          "name": "asset",
          "type": "tuple"
        }
      ],
      "name": "register",
      "outputs": [
        {
          "internalType": "uint256",
          "name": "",
          "type": "uint256"
        }
      ],
      "stateMutability": "nonpayable",
      "type": "function"
    }
  ],
  "bytecode": "0x60a060405260016000553480156200001657600080fd5b5060405162002cb138038062002cb183398181016040528101906200003c9190620000f5565b8073ffffffffffffffffffffffffffffffffffffffff1660808173ffffffffffffffffffffffffffffffffffffffff16815250505062000127565b600080fd5b600073ffffffffffffffffffffffffffffffffffffffff82169050919050565b6000620000a9826200007c565b9050919050565b6000620000bd826200009c565b9050919050565b620000cf81620000b0565b8114620000db57600080fd5b50565b600081519050620000ef81620000c4565b92915050565b6000602082840312156200010e576200010d62000077565b5b60006200011e84828501620000de565b91505092915050565b608051612b4b620001666000396000818161026c015281816104fd0152818161057d0152818161060b0152818161069901526109850152612b4b6000f3fe608060405234801561001057600080fd5b50600436106100575760003560e01c80631187d9021461005c5780635be894c61461008c5780639d37bc7c146100bc578063be985ac9146100da578063dec0314e1461010a575b600080fd5b61007660048036038101906100719190611a81565b61013a565b6040516100839190611b78565b60405180910390f35b6100a660048036038101906100a19190611c2c565b6101f7565b6040516100b39190611c8e565b60405180910390f35b6100c461026a565b6040516100d19190611d28565b60405180910390f35b6100f460048036038101906100ef9190611d6f565b61028e565b6040516101019190611b78565b60405180910390f35b610124600480360381019061011f9190611d6f565b610348565b6040516101319190611df1565b60405180910390f35b60606000600467ffffffffffffffff8111156101595761015861187d565b5b60405190808252806020026020018201604052801561019257816020015b61017f611818565b8152602001906001900390816101775790505b5090506101ee6040518060400160405280600d81526020017f30203020313032342031303234000000000000000000000000000000000000008152506101df6101da8461035a565b610378565b6101e98787610480565b61074c565b91505092915050565b600081600160008054815260200190815260200160002060008201518160000190816102239190612015565b5060208201518160010190816102399190612015565b5090505060008081548092919061024f90612116565b91905055506001600054610263919061215e565b9050919050565b7f000000000000000000000000000000000000000000000000000000000000000081565b606060008067ffffffffffffffff8111156102ac576102ab61187d565b5b6040519080825280602002602001820160405280156102e557816020015b6102d2611818565b8152602001906001900390816102ca5790505b5090506103406040518060400160405280600d81526020017f302030203130323420313032340000000000000000000000000000000000000081525061033261032d8461035a565b610378565b61033b866107d0565b61074c565b915050919050565b6060610353826107d0565b9050919050565b610362611818565b61036b82610a12565b8160200181905250919050565b60606000826000015151111561040a578160000151905060005b826040015151811015610404576000836040015182815181106103b8576103b7612192565b5b6020026020010151905082816000015182602001516040516020016103df939291906122d1565b60405160208183030381529060405292505080806103fc90612116565b915050610392565b50610453565b600082604001515114610452576040517f08c379a000000000000000000000000000000000000000000000000000000000815260040161044990612364565b60405180910390fd5b5b80826020015160405160200161046a929190612384565b6040516020818303038152906040529050919050565b60606000600467ffffffffffffffff81111561049f5761049e61187d565b5b6040519080825280602002602001820160405280156104d857816020015b6104c5611818565b8152602001906001900390816104bd5790505b50905060006106fa6104ea60f0610ad9565b6106ec604051806080016040528061053a7f00000000000000000000000000000000000000000000000000000000000000008b6000600481106105305761052f612192565b5b6020020151610b0a565b81526020016105c86040518060400160405280601181526020017f7472616e736c61746528302031303234290000000000000000000000000000008152506105ba7f00000000000000000000000000000000000000000000000000000000000000008d6001600481106105b0576105af612192565b5b6020020151610b0a565b610e0490919063ffffffff16565b81526020016106566040518060400160405280601181526020017f7472616e736c61746528302032303438290000000000000000000000000000008152506106487f00000000000000000000000000000000000000000000000000000000000000008d60026004811061063e5761063d612192565b5b6020020151610b0a565b610e0490919063ffffffff16565b81526020016106e46040518060400160405280601181526020017f7472616e736c61746528302033303732290000000000000000000000000000008152506106d67f00000000000000000000000000000000000000000000000000000000000000008d6003600481106106cc576106cb612192565b5b6020020151610b0a565b610e0490919063ffffffff16565b815250610e67565b610e0490919063ffffffff16565b905061070f8482610e8790919063ffffffff16565b9050808260008151811061072657610725612192565b5b602002602001018190525061074261073d8361035a565b610378565b9250505092915050565b6060600084604051602001610761919061248c565b60405160208183030381529060405290506000845111156107a157808460405160200161078f929190612551565b60405160208183030381529060405290505b80836040516020016107b49291906125d7565b6040516020818303038152906040529050809150509392505050565b606060006001600084815260200190815260200160002060405180604001604052908160008201805461080290611e42565b80601f016020809104026020016040519081016040528092919081815260200182805461082e90611e42565b801561087b5780601f106108505761010080835404028352916020019161087b565b820191906000526020600020905b81548152906001019060200180831161085e57829003601f168201915b5050505050815260200160018201805461089490611e42565b80601f01602080910402602001604051908101604052809291908181526020018280546108c090611e42565b801561090d5780601f106108e25761010080835404028352916020019161090d565b820191906000526020600020905b8154815290600101906020018083116108f057829003601f168201915b50505050508152505090506000600167ffffffffffffffff8111156109355761093461187d565b5b60405190808252806020026020018201604052801561096e57816020015b61095b611818565b8152602001906001900390816109535790505b50905060006109bc61098060f0610ad9565b6109ae7f00000000000000000000000000000000000000000000000000000000000000008660000151610b0a565b610e0490919063ffffffff16565b90506109d5836020015182610e8790919063ffffffff16565b905080826000815181106109ec576109eb612192565b5b6020026020010181905250610a08610a038361035a565b610378565b9350505050919050565b60606000825167ffffffffffffffff811115610a3157610a3061187d565b5b604051908082528060200260200182016040528015610a6457816020015b6060815260200190600190039081610a4f5790505b50905060005b8351811015610ac757610a96848281518110610a8957610a88612192565b5b6020026020010151610378565b828281518110610aa957610aa8612192565b5b60200260200101819052508080610abf90612116565b915050610a6a565b50610ad181610eea565b915050919050565b6060610ae482610f64565b604051602001610af4919061269e565b6040516020818303038152906040529050919050565b610b12611818565b60008290506000600167ffffffffffffffff811115610b3457610b3361187d565b5b6040519080825280601f01601f191660200182016040528015610b665781602001600182028036833780820191505090505b5090506000825167ffffffffffffffff811115610b8657610b8561187d565b5b604051908082528060200260200182016040528015610bbf57816020015b610bac611818565b815260200190600190039081610ba45790505b509050600080600090505b8451811015610dee57848181518110610be657610be5612192565b5b602001015160f81c60f81b84600081518110610c0557610c04612192565b5b60200101907effffffffffffffffffffffffffffffffffffffffffffffffffffffffffffff1916908160001a905350610cc3610cbe8973ffffffffffffffffffffffffffffffffffffffff1663a4b3eff4876040518263ffffffff1660e01b8152600401610c739190611b78565b600060405180830381865afa158015610c90573d6000803e3d6000fd5b505050506040513d6000823e3d601f19601f82011682018060405250810190610cb9919061276c565b6111a9565b611342565b838281518110610cd657610cd5612192565b5b60200260200101819052506000821115610d5457610d35838281518110610d0057610cff612192565b5b6020026020010151610d11846113b5565b604051602001610d21919061284d565b604051602081830303815290604052610e04565b838281518110610d4857610d47612192565b5b60200260200101819052505b8773ffffffffffffffffffffffffffffffffffffffff16637f2406a7856040518263ffffffff1660e01b8152600401610d8d9190611b78565b602060405180830381865afa158015610daa573d6000803e3d6000fd5b505050506040513d601f19601f82011682018060405250810190610dce919061288f565b82610dd991906128bc565b91508080610de690612116565b915050610bca565b50610df882611515565b94505050505092915050565b610e0c611818565b610e5f8360405180604001604052806040518060400160405280600981526020017f7472616e73666f726d0000000000000000000000000000000000000000000000815250815260200185815250611535565b905092915050565b610e6f611818565b610e80610e7b83611657565b6117bd565b9050919050565b610e8f611818565b610ee28360405180604001604052806040518060400160405280600481526020017f66696c6c00000000000000000000000000000000000000000000000000000000815250815260200185815250611535565b905092915050565b60606000825190506040519150602082016020840160005b83811015610f4f57815183815160005b81811015610f355760208401935083518352602083019250602081019050610f12565b508086019550602085019450505050600181019050610f02565b50602084830303845281604052505050919050565b60606000600367ffffffffffffffff811115610f8357610f8261187d565b5b604051908082528060200260200182016040528015610fb657816020015b6060815260200190600190039081610fa15790505b5090506103e8831115610ffd57610fd96103e884610fd4919061291f565b6113b5565b81600081518110610fed57610fec612192565b5b6020026020010181905250611053565b6040518060400160405280600181526020017f30000000000000000000000000000000000000000000000000000000000000008152508160008151811061104757611046612192565b5b60200260200101819052505b600a8310156110b6576040518060400160405280600381526020017f2e30300000000000000000000000000000000000000000000000000000000000815250816001815181106110a6576110a5612192565b5b6020026020010181905250611170565b6064831015611119576040518060400160405280600281526020017f2e300000000000000000000000000000000000000000000000000000000000008152508160018151811061110957611108612192565b5b602002602001018190525061116f565b6040518060400160405280600181526020017f2e000000000000000000000000000000000000000000000000000000000000008152508160018151811061116357611162612192565b5b60200260200101819052505b5b611179836113b5565b8160028151811061118d5761118c612192565b5b60200260200101819052506111a181610eea565b915050919050565b6060806020830160036002855102046040519250602083016000805b8381101561132857600060108206036111e357845191506018850194505b600080600283066000811461120f5760ff8560e81c169250600f8560f41c1691508460181b945061121f565b8460f81c9250600f8560f01c1691505b5080600081146112f45760006002610100858560081b010361040081106000811461125857602d93506003925081610400039150611260565b610400820391505b5060098111156112ca5760638111156112af576103e78111156112945760318360081b1792508160010191506103e8810690505b606481046030018360081b1792508160010191506064810690505b600a81046030018360081b179250816001019150600a810690505b60208160300160081b8460101b171792508260088302610100031b8952818901985050505061131a565b607b83106060841116605b841060408511161715611319578260f81b86526001860195505b5b5050506001810190506111c5565b506020858303038552816040525050505080915050919050565b61134a611818565b8160405160200161135b919061299c565b60405160208183030381529060405281600001819052506040518060400160405280600481526020017f222f3e0a000000000000000000000000000000000000000000000000000000008152508160200181905250919050565b6060600082036113fc576040518060400160405280600181526020017f30000000000000000000000000000000000000000000000000000000000000008152509050611510565b600082905060005b6000821461142e57808061141790612116565b915050600a82611427919061291f565b9150611404565b60008167ffffffffffffffff81111561144a5761144961187d565b5b6040519080825280601f01601f19166020018201604052801561147c5781602001600182028036833780820191505090505b5090505b6000851461150957600182611495919061215e565b9150600a856114a491906129be565b60306114b091906128bc565b60f81b8183815181106114c6576114c5612192565b5b60200101907effffffffffffffffffffffffffffffffffffffffffffffffffffffffffffff1916908160001a905350600a85611502919061291f565b9450611480565b8093505050505b919050565b61151d611818565b61152e61152983610a12565b6117bd565b9050919050565b61153d611818565b8260000151816000018190525082602001518160200181905250600183604001515161156991906128bc565b67ffffffffffffffff8111156115825761158161187d565b5b6040519080825280602002602001820160405280156115bb57816020015b6115a8611839565b8152602001906001900390816115a05790505b50816040018190525060005b83604001515181101561162857836040015181815181106115eb576115ea612192565b5b60200260200101518260400151828151811061160a57611609612192565b5b6020026020010181905250808061162090612116565b9150506115c7565b508181604001518460400151518151811061164657611645612192565b5b602002602001018190525092915050565b60606000600467ffffffffffffffff8111156116765761167561187d565b5b6040519080825280602002602001820160405280156116a957816020015b60608152602001906001900390816116945790505b5090506116cd836000600481106116c3576116c2612192565b5b6020020151610378565b816000815181106116e1576116e0612192565b5b602002602001018190525061170d8360016004811061170357611702612192565b5b6020020151610378565b8160018151811061172157611720612192565b5b602002602001018190525061174d8360026004811061174357611742612192565b5b6020020151610378565b8160028151811061176157611760612192565b5b602002602001018190525061178d8360036004811061178357611782612192565b5b6020020151610378565b816003815181106117a1576117a0612192565b5b60200260200101819052506117b581610eea565b915050919050565b6117c5611818565b6040516020016117d490612a3b565b6040516020818303038152906040528160000181905250816040516020016117fc9190612ae8565b6040516020818303038152906040528160200181905250919050565b60405180606001604052806060815260200160608152602001606081525090565b604051806040016040528060608152602001606081525090565b6000604051905090565b600080fd5b600080fd5b600080fd5b6000601f19601f8301169050919050565b7f4e487b7100000000000000000000000000000000000000000000000000000000600052604160045260246000fd5b6118b58261186c565b810181811067ffffffffffffffff821117156118d4576118d361187d565b5b80604052505050565b60006118e7611853565b90506118f382826118ac565b919050565b600067ffffffffffffffff8211156119135761191261187d565b5b602082029050919050565b600080fd5b600080fd5b600067ffffffffffffffff8211156119435761194261187d565b5b61194c8261186c565b9050602081019050919050565b82818337600083830152505050565b600061197b61197684611928565b6118dd565b90508281526020810184848401111561199757611996611923565b5b6119a2848285611959565b509392505050565b600082601f8301126119bf576119be611867565b5b81356119cf848260208601611968565b91505092915050565b60006119eb6119e6846118f8565b6118dd565b90508060208402830185811115611a0557611a0461191e565b5b835b81811015611a4c57803567ffffffffffffffff811115611a2a57611a29611867565b5b808601611a3789826119aa565b85526020850194505050602081019050611a07565b5050509392505050565b600082601f830112611a6b57611a6a611867565b5b6004611a788482856119d8565b91505092915050565b60008060408385031215611a9857611a9761185d565b5b600083013567ffffffffffffffff811115611ab657611ab5611862565b5b611ac285828601611a56565b925050602083013567ffffffffffffffff811115611ae357611ae2611862565b5b611aef858286016119aa565b9150509250929050565b600081519050919050565b600082825260208201905092915050565b60005b83811015611b33578082015181840152602081019050611b18565b60008484015250505050565b6000611b4a82611af9565b611b548185611b04565b9350611b64818560208601611b15565b611b6d8161186c565b840191505092915050565b60006020820190508181036000830152611b928184611b3f565b905092915050565b600080fd5b600080fd5b600060408284031215611bba57611bb9611b9a565b5b611bc460406118dd565b9050600082013567ffffffffffffffff811115611be457611be3611b9f565b5b611bf0848285016119aa565b600083015250602082013567ffffffffffffffff811115611c1457611c13611b9f565b5b611c20848285016119aa565b60208301525092915050565b600060208284031215611c4257611c4161185d565b5b600082013567ffffffffffffffff811115611c6057611c5f611862565b5b611c6c84828501611ba4565b91505092915050565b6000819050919050565b611c8881611c75565b82525050565b6000602082019050611ca36000830184611c7f565b92915050565b600073ffffffffffffffffffffffffffffffffffffffff82169050919050565b6000819050919050565b6000611cee611ce9611ce484611ca9565b611cc9565b611ca9565b9050919050565b6000611d0082611cd3565b9050919050565b6000611d1282611cf5565b9050919050565b611d2281611d07565b82525050565b6000602082019050611d3d6000830184611d19565b92915050565b611d4c81611c75565b8114611d5757600080fd5b50565b600081359050611d6981611d43565b92915050565b600060208284031215611d8557611d8461185d565b5b6000611d9384828501611d5a565b91505092915050565b600081519050919050565b600082825260208201905092915050565b6000611dc382611d9c565b611dcd8185611da7565b9350611ddd818560208601611b15565b611de68161186c565b840191505092915050565b60006020820190508181036000830152611e0b8184611db8565b905092915050565b7f4e487b7100000000000000000000000000000000000000000000000000000000600052602260045260246000fd5b60006002820490506001821680611e5a57607f821691505b602082108103611e6d57611e6c611e13565b5b50919050565b60008190508160005260206000209050919050565b60006020601f8301049050919050565b600082821b905092915050565b600060088302611ed57fffffffffffffffffffffffffffffffffffffffffffffffffffffffffffffffff82611e98565b611edf8683611e98565b95508019841693508086168417925050509392505050565b6000611f12611f0d611f0884611c75565b611cc9565b611c75565b9050919050565b6000819050919050565b611f2c83611ef7565b611f40611f3882611f19565b848454611ea5565b825550505050565b600090565b611f55611f48565b611f60818484611f23565b505050565b5b81811015611f8457611f79600082611f4d565b600181019050611f66565b5050565b601f821115611fc957611f9a81611e73565b611fa384611e88565b81016020851015611fb2578190505b611fc6611fbe85611e88565b830182611f65565b50505b505050565b600082821c905092915050565b6000611fec60001984600802611fce565b1980831691505092915050565b60006120058383611fdb565b9150826002028217905092915050565b61201e82611af9565b67ffffffffffffffff8111156120375761203661187d565b5b6120418254611e42565b61204c828285611f88565b600060209050601f83116001811461207f576000841561206d578287015190505b6120778582611ff9565b8655506120df565b601f19841661208d86611e73565b60005b828110156120b557848901518255600182019150602085019450602081019050612090565b868310156120d257848901516120ce601f891682611fdb565b8355505b6001600288020188555050505b505050505050565b7f4e487b7100000000000000000000000000000000000000000000000000000000600052601160045260246000fd5b600061212182611c75565b91507fffffffffffffffffffffffffffffffffffffffffffffffffffffffffffffffff8203612153576121526120e7565b5b600182019050919050565b600061216982611c75565b915061217483611c75565b925082820390508181111561218c5761218b6120e7565b5b92915050565b7f4e487b7100000000000000000000000000000000000000000000000000000000600052603260045260246000fd5b600081905092915050565b60006121d782611d9c565b6121e181856121c1565b93506121f1818560208601611b15565b80840191505092915050565b600081905092915050565b7f2220000000000000000000000000000000000000000000000000000000000000600082015250565b600061223e6002836121fd565b915061224982612208565b600282019050919050565b600061225f82611af9565b61226981856121fd565b9350612279818560208601611b15565b80840191505092915050565b7f3d22000000000000000000000000000000000000000000000000000000000000600082015250565b60006122bb6002836121fd565b91506122c682612285565b600282019050919050565b60006122dd82866121cc565b91506122e882612231565b91506122f48285612254565b91506122ff826122ae565b915061230b8284612254565b9150819050949350505050565b7f41747472696275746573206f6e206c6973740000000000000000000000000000600082015250565b600061234e601283611b04565b915061235982612318565b602082019050919050565b6000602082019050818103600083015261237d81612341565b9050919050565b600061239082856121cc565b915061239c82846121cc565b91508190509392505050565b7f3c3f786d6c2076657273696f6e3d22312e302220656e636f64696e673d22555460008201527f462d38223f3e3c7376672076696577426f783d22000000000000000000000000602082015250565b60006124046034836121fd565b915061240f826123a8565b603482019050919050565b7f2220786d6c6e733d22687474703a2f2f7777772e77332e6f72672f323030302f60008201527f737667223e0a0000000000000000000000000000000000000000000000000000602082015250565b60006124766026836121fd565b91506124818261241a565b602682019050919050565b6000612497826123f7565b91506124a38284612254565b91506124ae82612469565b915081905092915050565b7f3c646566733e0a00000000000000000000000000000000000000000000000000600082015250565b60006124ef6007836121fd565b91506124fa826124b9565b600782019050919050565b7f3c2f646566733e0a000000000000000000000000000000000000000000000000600082015250565b600061253b6008836121fd565b915061254682612505565b600882019050919050565b600061255d82856121cc565b9150612568826124e2565b915061257482846121cc565b915061257f8261252e565b91508190509392505050565b7f3c2f7376673e0a00000000000000000000000000000000000000000000000000600082015250565b60006125c16007836121fd565b91506125cc8261258b565b600782019050919050565b60006125e382856121cc565b91506125ef82846121cc565b91506125fa826125b4565b91508190509392505050565b7f7363616c65280000000000000000000000000000000000000000000000000000600082015250565b600061263c6006836121fd565b915061264782612606565b600682019050919050565b7f2900000000000000000000000000000000000000000000000000000000000000600082015250565b60006126886001836121fd565b915061269382612652565b600182019050919050565b60006126a98261262f565b91506126b58284612254565b91506126c08261267b565b915081905092915050565b600067ffffffffffffffff8211156126e6576126e561187d565b5b6126ef8261186c565b9050602081019050919050565b600061270f61270a846126cb565b6118dd565b90508281526020810184848401111561272b5761272a611923565b5b612736848285611b15565b509392505050565b600082601f83011261275357612752611867565b5b81516127638482602086016126fc565b91505092915050565b6000602082840312156127825761278161185d565b5b600082015167ffffffffffffffff8111156127a05761279f611862565b5b6127ac8482850161273e565b91505092915050565b7f7472616e736c6174652800000000000000000000000000000000000000000000600082015250565b60006127eb600a836121fd565b91506127f6826127b5565b600a82019050919050565b7f2030290000000000000000000000000000000000000000000000000000000000600082015250565b60006128376003836121fd565b915061284282612801565b600382019050919050565b6000612858826127de565b91506128648284612254565b915061286f8261282a565b915081905092915050565b60008151905061288981611d43565b92915050565b6000602082840312156128a5576128a461185d565b5b60006128b38482850161287a565b91505092915050565b60006128c782611c75565b91506128d283611c75565b92508282019050808211156128ea576128e96120e7565b5b92915050565b7f4e487b7100000000000000000000000000000000000000000000000000000000600052601260045260246000fd5b600061292a82611c75565b915061293583611c75565b925082612945576129446128f0565b5b828204905092915050565b7f3c7061746820643d220000000000000000000000000000000000000000000000600082015250565b60006129866009836121fd565b915061299182612950565b600982019050919050565b60006129a782612979565b91506129b382846121cc565b915081905092915050565b60006129c982611c75565b91506129d483611c75565b9250826129e4576129e36128f0565b5b828206905092915050565b7f3c6720785f783d22780000000000000000000000000000000000000000000000600082015250565b6000612a256009836121fd565b9150612a30826129ef565b600982019050919050565b6000612a4682612a18565b9150819050919050565b7f223e000000000000000000000000000000000000000000000000000000000000600082015250565b6000612a866002836121fd565b9150612a9182612a50565b600282019050919050565b7f3c2f673e0a000000000000000000000000000000000000000000000000000000600082015250565b6000612ad26005836121fd565b9150612add82612a9c565b600582019050919050565b6000612af382612a79565b9150612aff82846121cc565b9150612b0a82612ac5565b91508190509291505056fea264697066735822122087f555f12fac83ed6cc2259efa09c441dda2cae9dc947396368278f5a33276b764736f6c63430008110033",
  "linkReferences": {},
  "deployedLinkReferences": {}
}