{
  "_format": "hh-sol-artifact-1",
  "contractName": "MessageToken",
  "sourceName": "contracts/MessageToken.sol",
  "abi": [
    {
      "inputs": [
        {
          "internalType": "contract IAssetProvider",
          "name": "_assetProvider",
          "type": "address"
        },
        {
          "internalType": "contract IMessageStoreV1",
          "name": "_messageStore",
          "type": "address"
        }
      ],
      "stateMutability": "nonpayable",
      "type": "constructor"
    },
    {
      "inputs": [],
      "name": "ApprovalCallerNotOwnerNorApproved",
      "type": "error"
    },
    {
      "inputs": [],
      "name": "ApprovalQueryForNonexistentToken",
      "type": "error"
    },
    {
      "inputs": [],
      "name": "BalanceQueryForZeroAddress",
      "type": "error"
    },
    {
      "inputs": [],
      "name": "MintERC2309QuantityExceedsLimit",
      "type": "error"
    },
    {
      "inputs": [],
      "name": "MintToZeroAddress",
      "type": "error"
    },
    {
      "inputs": [],
      "name": "MintZeroQuantity",
      "type": "error"
    },
    {
      "inputs": [
        {
          "internalType": "address",
          "name": "operator",
          "type": "address"
        }
      ],
      "name": "OperatorNotAllowed",
      "type": "error"
    },
    {
      "inputs": [],
      "name": "OwnerQueryForNonexistentToken",
      "type": "error"
    },
    {
      "inputs": [],
      "name": "OwnershipNotInitializedForExtraData",
      "type": "error"
    },
    {
      "inputs": [],
      "name": "TransferCallerNotOwnerNorApproved",
      "type": "error"
    },
    {
      "inputs": [],
      "name": "TransferFromIncorrectOwner",
      "type": "error"
    },
    {
      "inputs": [],
      "name": "TransferToNonERC721ReceiverImplementer",
      "type": "error"
    },
    {
      "inputs": [],
      "name": "TransferToZeroAddress",
      "type": "error"
    },
    {
      "inputs": [],
      "name": "URIQueryForNonexistentToken",
      "type": "error"
    },
    {
      "anonymous": false,
      "inputs": [
        {
          "indexed": true,
          "internalType": "address",
          "name": "owner",
          "type": "address"
        },
        {
          "indexed": true,
          "internalType": "address",
          "name": "approved",
          "type": "address"
        },
        {
          "indexed": true,
          "internalType": "uint256",
          "name": "tokenId",
          "type": "uint256"
        }
      ],
      "name": "Approval",
      "type": "event"
    },
    {
      "anonymous": false,
      "inputs": [
        {
          "indexed": true,
          "internalType": "address",
          "name": "owner",
          "type": "address"
        },
        {
          "indexed": true,
          "internalType": "address",
          "name": "operator",
          "type": "address"
        },
        {
          "indexed": false,
          "internalType": "bool",
          "name": "approved",
          "type": "bool"
        }
      ],
      "name": "ApprovalForAll",
      "type": "event"
    },
    {
      "anonymous": false,
      "inputs": [
        {
          "indexed": true,
          "internalType": "uint256",
          "name": "fromTokenId",
          "type": "uint256"
        },
        {
          "indexed": false,
          "internalType": "uint256",
          "name": "toTokenId",
          "type": "uint256"
        },
        {
          "indexed": true,
          "internalType": "address",
          "name": "from",
          "type": "address"
        },
        {
          "indexed": true,
          "internalType": "address",
          "name": "to",
          "type": "address"
        }
      ],
      "name": "ConsecutiveTransfer",
      "type": "event"
    },
    {
      "anonymous": false,
      "inputs": [
        {
          "indexed": true,
          "internalType": "address",
          "name": "previousOwner",
          "type": "address"
        },
        {
          "indexed": true,
          "internalType": "address",
          "name": "newOwner",
          "type": "address"
        }
      ],
      "name": "OwnershipTransferred",
      "type": "event"
    },
    {
      "anonymous": false,
      "inputs": [
        {
          "indexed": true,
          "internalType": "address",
          "name": "from",
          "type": "address"
        },
        {
          "indexed": true,
          "internalType": "address",
          "name": "to",
          "type": "address"
        },
        {
          "indexed": true,
          "internalType": "uint256",
          "name": "tokenId",
          "type": "uint256"
        }
      ],
      "name": "Transfer",
      "type": "event"
    },
    {
      "inputs": [],
      "name": "OPERATOR_FILTER_REGISTRY",
      "outputs": [
        {
          "internalType": "contract IOperatorFilterRegistry",
          "name": "",
          "type": "address"
        }
      ],
      "stateMutability": "view",
      "type": "function"
    },
    {
      "inputs": [
        {
          "internalType": "uint256",
          "name": "_tokenId",
          "type": "uint256"
        },
        {
          "internalType": "contract IERC721Marketplace",
          "name": "_dealer",
          "type": "address"
        },
        {
          "internalType": "uint256",
          "name": "_price",
          "type": "uint256"
        }
      ],
      "name": "acceptOffer",
      "outputs": [],
      "stateMutability": "nonpayable",
      "type": "function"
    },
    {
      "inputs": [
        {
          "internalType": "address",
          "name": "operator",
          "type": "address"
        },
        {
          "internalType": "uint256",
          "name": "tokenId",
          "type": "uint256"
        }
      ],
      "name": "approve",
      "outputs": [],
      "stateMutability": "payable",
      "type": "function"
    },
    {
      "inputs": [],
      "name": "assetProvider",
      "outputs": [
        {
          "internalType": "contract IAssetProvider",
          "name": "",
          "type": "address"
        }
      ],
      "stateMutability": "view",
      "type": "function"
    },
    {
      "inputs": [
        {
          "internalType": "address",
          "name": "owner",
          "type": "address"
        }
      ],
      "name": "balanceOf",
      "outputs": [
        {
          "internalType": "uint256",
          "name": "",
          "type": "uint256"
        }
      ],
      "stateMutability": "view",
      "type": "function"
    },
    {
      "inputs": [
        {
          "internalType": "uint256",
          "name": "_tokenId",
          "type": "uint256"
        }
      ],
      "name": "debugTokenURI",
      "outputs": [
        {
          "internalType": "string",
          "name": "uri",
          "type": "string"
        },
        {
          "internalType": "uint256",
          "name": "gas",
          "type": "uint256"
        }
      ],
      "stateMutability": "view",
      "type": "function"
    },
    {
      "inputs": [],
      "name": "description",
      "outputs": [
        {
          "internalType": "string",
          "name": "",
          "type": "string"
        }
      ],
      "stateMutability": "view",
      "type": "function"
    },
    {
      "inputs": [
        {
          "internalType": "uint256",
          "name": "tokenId",
          "type": "uint256"
        }
      ],
      "name": "getApproved",
      "outputs": [
        {
          "internalType": "address",
          "name": "",
          "type": "address"
        }
      ],
      "stateMutability": "view",
      "type": "function"
    },
    {
      "inputs": [
        {
          "internalType": "uint256",
          "name": "_tokenId",
          "type": "uint256"
        }
      ],
      "name": "getPriceOf",
      "outputs": [
        {
          "internalType": "uint256",
          "name": "",
          "type": "uint256"
        }
      ],
      "stateMutability": "view",
      "type": "function"
    },
    {
      "inputs": [
        {
          "internalType": "address",
          "name": "owner",
          "type": "address"
        },
        {
          "internalType": "address",
          "name": "operator",
          "type": "address"
        }
      ],
      "name": "isApprovedForAll",
      "outputs": [
        {
          "internalType": "bool",
          "name": "",
          "type": "bool"
        }
      ],
      "stateMutability": "view",
      "type": "function"
    },
    {
      "inputs": [],
      "name": "mint",
      "outputs": [
        {
          "internalType": "uint256",
          "name": "tokenId",
          "type": "uint256"
        }
      ],
      "stateMutability": "payable",
      "type": "function"
    },
    {
      "inputs": [],
      "name": "mintLimit",
      "outputs": [
        {
          "internalType": "uint256",
          "name": "",
          "type": "uint256"
        }
      ],
      "stateMutability": "view",
      "type": "function"
    },
    {
      "inputs": [],
      "name": "mintPrice",
      "outputs": [
        {
          "internalType": "uint256",
          "name": "",
          "type": "uint256"
        }
      ],
      "stateMutability": "view",
      "type": "function"
    },
    {
      "inputs": [
        {
          "internalType": "address",
          "name": "",
          "type": "address"
        }
      ],
      "name": "mintPriceFor",
      "outputs": [
        {
          "internalType": "uint256",
          "name": "",
          "type": "uint256"
        }
      ],
      "stateMutability": "view",
      "type": "function"
    },
    {
      "inputs": [
        {
          "components": [
            {
              "internalType": "string",
              "name": "message",
              "type": "string"
            },
            {
              "internalType": "string",
              "name": "color",
              "type": "string"
            }
          ],
          "internalType": "struct IMessageStoreV1.Asset",
          "name": "asset",
          "type": "tuple"
        }
      ],
      "name": "mintWithAsset",
      "outputs": [
        {
          "internalType": "uint256",
          "name": "tokenId",
          "type": "uint256"
        }
      ],
      "stateMutability": "nonpayable",
      "type": "function"
    },
    {
      "inputs": [],
      "name": "name",
      "outputs": [
        {
          "internalType": "string",
          "name": "",
          "type": "string"
        }
      ],
      "stateMutability": "view",
      "type": "function"
    },
    {
      "inputs": [],
      "name": "nextTokenId",
      "outputs": [
        {
          "internalType": "uint256",
          "name": "",
          "type": "uint256"
        }
      ],
      "stateMutability": "view",
      "type": "function"
    },
    {
      "inputs": [],
      "name": "owner",
      "outputs": [
        {
          "internalType": "address",
          "name": "",
          "type": "address"
        }
      ],
      "stateMutability": "view",
      "type": "function"
    },
    {
      "inputs": [
        {
          "internalType": "uint256",
          "name": "tokenId",
          "type": "uint256"
        }
      ],
      "name": "ownerOf",
      "outputs": [
        {
          "internalType": "address",
          "name": "",
          "type": "address"
        }
      ],
      "stateMutability": "view",
      "type": "function"
    },
    {
      "inputs": [
        {
          "internalType": "uint256",
          "name": "_tokenId",
          "type": "uint256"
        },
        {
          "internalType": "address",
          "name": "_buyer",
          "type": "address"
        },
        {
          "internalType": "address",
          "name": "_facilitator",
          "type": "address"
        }
      ],
      "name": "purchase",
      "outputs": [],
      "stateMutability": "payable",
      "type": "function"
    },
    {
      "inputs": [],
      "name": "renounceOwnership",
      "outputs": [],
      "stateMutability": "nonpayable",
      "type": "function"
    },
    {
      "inputs": [
        {
          "internalType": "address",
          "name": "from",
          "type": "address"
        },
        {
          "internalType": "address",
          "name": "to",
          "type": "address"
        },
        {
          "internalType": "uint256",
          "name": "tokenId",
          "type": "uint256"
        }
      ],
      "name": "safeTransferFrom",
      "outputs": [],
      "stateMutability": "payable",
      "type": "function"
    },
    {
      "inputs": [
        {
          "internalType": "address",
          "name": "from",
          "type": "address"
        },
        {
          "internalType": "address",
          "name": "to",
          "type": "address"
        },
        {
          "internalType": "uint256",
          "name": "tokenId",
          "type": "uint256"
        },
        {
          "internalType": "bytes",
          "name": "data",
          "type": "bytes"
        }
      ],
      "name": "safeTransferFrom",
      "outputs": [],
      "stateMutability": "payable",
      "type": "function"
    },
    {
      "inputs": [
        {
          "internalType": "address",
          "name": "operator",
          "type": "address"
        },
        {
          "internalType": "bool",
          "name": "approved",
          "type": "bool"
        }
      ],
      "name": "setApprovalForAll",
      "outputs": [],
      "stateMutability": "nonpayable",
      "type": "function"
    },
    {
      "inputs": [
        {
          "internalType": "contract IAssetProvider",
          "name": "_assetProvider",
          "type": "address"
        }
      ],
      "name": "setAssetProvider",
      "outputs": [],
      "stateMutability": "nonpayable",
      "type": "function"
    },
    {
      "inputs": [
        {
          "internalType": "string",
          "name": "_description",
          "type": "string"
        }
      ],
      "name": "setDescription",
      "outputs": [],
      "stateMutability": "nonpayable",
      "type": "function"
    },
    {
      "inputs": [
        {
          "internalType": "uint256",
          "name": "_limit",
          "type": "uint256"
        }
      ],
      "name": "setMintLimit",
      "outputs": [],
      "stateMutability": "nonpayable",
      "type": "function"
    },
    {
      "inputs": [
        {
          "internalType": "uint256",
          "name": "_price",
          "type": "uint256"
        }
      ],
      "name": "setMintPrice",
      "outputs": [],
      "stateMutability": "nonpayable",
      "type": "function"
    },
    {
      "inputs": [
        {
          "internalType": "uint256",
          "name": "_tokenId",
          "type": "uint256"
        },
        {
          "internalType": "uint256",
          "name": "_price",
          "type": "uint256"
        }
      ],
      "name": "setPriceOf",
      "outputs": [],
      "stateMutability": "nonpayable",
      "type": "function"
    },
    {
      "inputs": [
        {
          "internalType": "bytes4",
          "name": "interfaceId",
          "type": "bytes4"
        }
      ],
      "name": "supportsInterface",
      "outputs": [
        {
          "internalType": "bool",
          "name": "",
          "type": "bool"
        }
      ],
      "stateMutability": "view",
      "type": "function"
    },
    {
      "inputs": [],
      "name": "symbol",
      "outputs": [
        {
          "internalType": "string",
          "name": "",
          "type": "string"
        }
      ],
      "stateMutability": "view",
      "type": "function"
    },
    {
      "inputs": [
        {
          "internalType": "uint256",
          "name": "_tokenId",
          "type": "uint256"
        }
      ],
      "name": "tokenURI",
      "outputs": [
        {
          "internalType": "string",
          "name": "",
          "type": "string"
        }
      ],
      "stateMutability": "view",
      "type": "function"
    },
    {
      "inputs": [],
      "name": "totalSupply",
      "outputs": [
        {
          "internalType": "uint256",
          "name": "",
          "type": "uint256"
        }
      ],
      "stateMutability": "view",
      "type": "function"
    },
    {
      "inputs": [
        {
          "internalType": "address",
          "name": "from",
          "type": "address"
        },
        {
          "internalType": "address",
          "name": "to",
          "type": "address"
        },
        {
          "internalType": "uint256",
          "name": "tokenId",
          "type": "uint256"
        }
      ],
      "name": "transferFrom",
      "outputs": [],
      "stateMutability": "payable",
      "type": "function"
    },
    {
      "inputs": [
        {
          "internalType": "address",
          "name": "newOwner",
          "type": "address"
        }
      ],
      "name": "transferOwnership",
      "outputs": [],
      "stateMutability": "nonpayable",
      "type": "function"
    }
  ],
  "bytecode": "0x60a06040523480156200001157600080fd5b506040516200514738038062005147833981810160405281019062000037919062000589565b816040518060400160405280600c81526020017f4d657373616765546f6b656e00000000000000000000000000000000000000008152506040518060400160405280600c81526020017f4d657373616765546f6b656e0000000000000000000000000000000000000000815250733cc6cdda760b79bafa08df41ecfa224f810dceb6600183838160029081620000ce91906200084a565b508060039081620000e091906200084a565b50620000f1620003f360201b60201c565b600081905550505060006daaeb6d7670e522a718067333cd4e73ffffffffffffffffffffffffffffffffffffffff163b1115620002ee578015620001b4576daaeb6d7670e522a718067333cd4e73ffffffffffffffffffffffffffffffffffffffff16637d3e3dbe30846040518363ffffffff1660e01b81526004016200017a92919062000942565b600060405180830381600087803b1580156200019557600080fd5b505af1158015620001aa573d6000803e3d6000fd5b50505050620002ed565b600073ffffffffffffffffffffffffffffffffffffffff168273ffffffffffffffffffffffffffffffffffffffff16146200026e576daaeb6d7670e522a718067333cd4e73ffffffffffffffffffffffffffffffffffffffff1663a0af290330846040518363ffffffff1660e01b81526004016200023492919062000942565b600060405180830381600087803b1580156200024f57600080fd5b505af115801562000264573d6000803e3d6000fd5b50505050620002ec565b6daaeb6d7670e522a718067333cd4e73ffffffffffffffffffffffffffffffffffffffff16634420e486306040518263ffffffff1660e01b8152600401620002b791906200096f565b600060405180830381600087803b158015620002d257600080fd5b505af1158015620002e7573d6000803e3d6000fd5b505050505b5b5b50506200031062000304620003f860201b60201c565b6200040060201b60201c565b82600e60006101000a81548173ffffffffffffffffffffffffffffffffffffffff021916908373ffffffffffffffffffffffffffffffffffffffff1602179055505050506040518060400160405280600c81526020017f4d657373616765546f6b656e0000000000000000000000000000000000000000815250600b90816200039a91906200084a565b508073ffffffffffffffffffffffffffffffffffffffff1660808173ffffffffffffffffffffffffffffffffffffffff168152505074446c3b15f9926687d2c40534fdb564000000000000600d8190555050506200098c565b600090565b600033905090565b6000600860009054906101000a900473ffffffffffffffffffffffffffffffffffffffff16905081600860006101000a81548173ffffffffffffffffffffffffffffffffffffffff021916908373ffffffffffffffffffffffffffffffffffffffff1602179055508173ffffffffffffffffffffffffffffffffffffffff168173ffffffffffffffffffffffffffffffffffffffff167f8be0079c531659141344cd1fd0a4f28419497f9722a3daafe3b4186f6b6457e060405160405180910390a35050565b600080fd5b600073ffffffffffffffffffffffffffffffffffffffff82169050919050565b6000620004f882620004cb565b9050919050565b60006200050c82620004eb565b9050919050565b6200051e81620004ff565b81146200052a57600080fd5b50565b6000815190506200053e8162000513565b92915050565b60006200055182620004eb565b9050919050565b620005638162000544565b81146200056f57600080fd5b50565b600081519050620005838162000558565b92915050565b60008060408385031215620005a357620005a2620004c6565b5b6000620005b3858286016200052d565b9250506020620005c68582860162000572565b9150509250929050565b600081519050919050565b7f4e487b7100000000000000000000000000000000000000000000000000000000600052604160045260246000fd5b7f4e487b7100000000000000000000000000000000000000000000000000000000600052602260045260246000fd5b600060028204905060018216806200065257607f821691505b6020821081036200066857620006676200060a565b5b50919050565b60008190508160005260206000209050919050565b60006020601f8301049050919050565b600082821b905092915050565b600060088302620006d27fffffffffffffffffffffffffffffffffffffffffffffffffffffffffffffffff8262000693565b620006de868362000693565b95508019841693508086168417925050509392505050565b6000819050919050565b6000819050919050565b60006200072b620007256200071f84620006f6565b62000700565b620006f6565b9050919050565b6000819050919050565b62000747836200070a565b6200075f620007568262000732565b848454620006a0565b825550505050565b600090565b6200077662000767565b620007838184846200073c565b505050565b5b81811015620007ab576200079f6000826200076c565b60018101905062000789565b5050565b601f821115620007fa57620007c4816200066e565b620007cf8462000683565b81016020851015620007df578190505b620007f7620007ee8562000683565b83018262000788565b50505b505050565b600082821c905092915050565b60006200081f60001984600802620007ff565b1980831691505092915050565b60006200083a83836200080c565b9150826002028217905092915050565b6200085582620005d0565b67ffffffffffffffff811115620008715762000870620005db565b5b6200087d825462000639565b6200088a828285620007af565b600060209050601f831160018114620008c25760008415620008ad578287015190505b620008b985826200082c565b86555062000929565b601f198416620008d2866200066e565b60005b82811015620008fc57848901518255600182019150602085019450602081019050620008d5565b868310156200091c578489015162000918601f8916826200080c565b8355505b6001600288020188555050505b505050505050565b6200093c81620004eb565b82525050565b600060408201905062000959600083018562000931565b62000968602083018462000931565b9392505050565b600060208201905062000986600083018462000931565b92915050565b60805161479f620009a86000396000610b18015261479f6000f3fe6080604052600436106102045760003560e01c806375794a3c11610118578063b212cfc7116100a0578063cc44ab411161006f578063cc44ab411461072d578063e985e9c51461076b578063f2fde38b146107a8578063f4a0a528146107d1578063fba49e4f146107fa57610204565b8063b212cfc71461066e578063b54b4fb914610697578063b88d4fde146106d4578063c87b56dd146106f057610204565b806395d89b41116100e757806395d89b411461059b578063996517cf146105c65780639e6a1d7d146105f1578063a22cb4651461061a578063a370f7d71461064357610204565b806375794a3c146104f35780638da5cb5b1461051e57806390c3f38f146105495780639589d7b91461057257610204565b806323b872dd1161019b5780636352211e1161016a5780636352211e1461040c5780636817c76c1461044957806370a0823114610474578063715018a6146104b15780637284e416146104c857610204565b806323b872dd1461038d5780633b7f8f15146103a957806341f43434146103c557806342842e0e146103f057610204565b80631249c58b116101d75780631249c58b146102ca5780631346d8ea146102e857806318160ddd146103255780631a9fa8151461035057610204565b806301ffc9a71461020957806306fdde0314610246578063081812fc14610271578063095ea7b3146102ae575b600080fd5b34801561021557600080fd5b50610230600480360381019061022b9190612c61565b610823565b60405161023d9190612ca9565b60405180910390f35b34801561025257600080fd5b5061025b61089d565b6040516102689190612d54565b60405180910390f35b34801561027d57600080fd5b5061029860048036038101906102939190612dac565b61092f565b6040516102a59190612e1a565b60405180910390f35b6102c860048036038101906102c39190612e61565b6109ae565b005b6102d2610ab8565b6040516102df9190612eb0565b60405180910390f35b3480156102f457600080fd5b5061030f600480360381019061030a9190612ecb565b610afd565b60405161031c9190612eb0565b60405180910390f35b34801561033157600080fd5b5061033a610b09565b6040516103479190612eb0565b60405180910390f35b34801561035c57600080fd5b50610377600480360381019061037291906130bf565b610b13565b6040516103849190612eb0565b60405180910390f35b6103a760048036038101906103a29190613108565b610bdc565b005b6103c360048036038101906103be919061315b565b610d2c565b005b3480156103d157600080fd5b506103da610e83565b6040516103e7919061320d565b60405180910390f35b61040a60048036038101906104059190613108565b610e95565b005b34801561041857600080fd5b50610433600480360381019061042e9190612dac565b610fe5565b6040516104409190612e1a565b60405180910390f35b34801561045557600080fd5b5061045e610ff7565b60405161046b9190612eb0565b60405180910390f35b34801561048057600080fd5b5061049b60048036038101906104969190612ecb565b610ffd565b6040516104a89190612eb0565b60405180910390f35b3480156104bd57600080fd5b506104c66110b5565b005b3480156104d457600080fd5b506104dd6110c9565b6040516104ea9190612d54565b60405180910390f35b3480156104ff57600080fd5b50610508611157565b6040516105159190612eb0565b60405180910390f35b34801561052a57600080fd5b5061053361115d565b6040516105409190612e1a565b60405180910390f35b34801561055557600080fd5b50610570600480360381019061056b9190613228565b611187565b005b34801561057e57600080fd5b50610599600480360381019061059491906132af565b6111a2565b005b3480156105a757600080fd5b506105b0611220565b6040516105bd9190612d54565b60405180910390f35b3480156105d257600080fd5b506105db6112b2565b6040516105e89190612eb0565b60405180910390f35b3480156105fd57600080fd5b5061061860048036038101906106139190612dac565b6112b8565b005b34801561062657600080fd5b50610641600480360381019061063c919061332e565b6112ca565b005b34801561064f57600080fd5b506106586113d4565b604051610665919061338f565b60405180910390f35b34801561067a57600080fd5b50610695600480360381019061069091906133e8565b6113fa565b005b3480156106a357600080fd5b506106be60048036038101906106b99190612dac565b611446565b6040516106cb9190612eb0565b60405180910390f35b6106ee60048036038101906106e991906134b6565b611463565b005b3480156106fc57600080fd5b5061071760048036038101906107129190612dac565b6115b6565b6040516107249190612d54565b60405180910390f35b34801561073957600080fd5b50610754600480360381019061074f9190612dac565b611694565b604051610762929190613539565b60405180910390f35b34801561077757600080fd5b50610792600480360381019061078d9190613569565b6116b9565b60405161079f9190612ca9565b60405180910390f35b3480156107b457600080fd5b506107cf60048036038101906107ca9190612ecb565b61174d565b005b3480156107dd57600080fd5b506107f860048036038101906107f39190612dac565b6117d0565b005b34801561080657600080fd5b50610821600480360381019061081c91906135a9565b6117e2565b005b60007fe019895a000000000000000000000000000000000000000000000000000000007bffffffffffffffffffffffffffffffffffffffffffffffffffffffff1916827bffffffffffffffffffffffffffffffffffffffffffffffffffffffff19161480610896575061089582611874565b5b9050919050565b6060600280546108ac90613618565b80601f01602080910402602001604051908101604052809291908181526020018280546108d890613618565b80156109255780601f106108fa57610100808354040283529160200191610925565b820191906000526020600020905b81548152906001019060200180831161090857829003601f168201915b5050505050905090565b600061093a82611906565b610970576040517fcf4700e400000000000000000000000000000000000000000000000000000000815260040160405180910390fd5b6006600083815260200190815260200160002060000160009054906101000a900473ffffffffffffffffffffffffffffffffffffffff169050919050565b8160006daaeb6d7670e522a718067333cd4e73ffffffffffffffffffffffffffffffffffffffff163b1115610aa9576daaeb6d7670e522a718067333cd4e73ffffffffffffffffffffffffffffffffffffffff1663c617113430836040518363ffffffff1660e01b8152600401610a26929190613649565b602060405180830381865afa158015610a43573d6000803e3d6000fd5b505050506040513d601f19601f82011682018060405250810190610a679190613687565b610aa857806040517fede71dcc000000000000000000000000000000000000000000000000000000008152600401610a9f9190612e1a565b60405180910390fd5b5b610ab38383611965565b505050565b600080610afa576040517f08c379a0000000000000000000000000000000000000000000000000000000008152600401610af190613700565b60405180910390fd5b90565b6000600c549050919050565b6000600a54905090565b6000807f000000000000000000000000000000000000000000000000000000000000000073ffffffffffffffffffffffffffffffffffffffff16635be894c6846040518263ffffffff1660e01b8152600401610b6f91906137ae565b6020604051808303816000875af1158015610b8e573d6000803e3d6000fd5b505050506040513d601f19601f82011682018060405250810190610bb291906137e5565b9050610bbc611aa9565b915080600f60008481526020019081526020016000208190555050919050565b8260006daaeb6d7670e522a718067333cd4e73ffffffffffffffffffffffffffffffffffffffff163b1115610d1a573373ffffffffffffffffffffffffffffffffffffffff168173ffffffffffffffffffffffffffffffffffffffff1603610c4e57610c49848484611b18565b610d26565b6daaeb6d7670e522a718067333cd4e73ffffffffffffffffffffffffffffffffffffffff1663c617113430336040518363ffffffff1660e01b8152600401610c97929190613649565b602060405180830381865afa158015610cb4573d6000803e3d6000fd5b505050506040513d601f19601f82011682018060405250810190610cd89190613687565b610d1957336040517fede71dcc000000000000000000000000000000000000000000000000000000008152600401610d109190612e1a565b60405180910390fd5b5b610d25848484611b18565b5b50505050565b60006009600085815260200190815260200160002054905060008111610d87576040517f08c379a0000000000000000000000000000000000000000000000000000000008152600401610d7e9061385e565b60405180910390fd5b80341015610dca576040517f08c379a0000000000000000000000000000000000000000000000000000000008152600401610dc1906138ca565b60405180910390fd5b6000610dd63484611e3a565b90506000610de43487611edf565b90506000610df187610fe5565b905060008190508073ffffffffffffffffffffffffffffffffffffffff166108fc848634610e1f9190613919565b610e299190613919565b9081150290604051600060405180830381858888f19350505050158015610e54573d6000803e3d6000fd5b506000600960008a815260200190815260200160002081905550610e7982888a610bdc565b5050505050505050565b6daaeb6d7670e522a718067333cd4e81565b8260006daaeb6d7670e522a718067333cd4e73ffffffffffffffffffffffffffffffffffffffff163b1115610fd3573373ffffffffffffffffffffffffffffffffffffffff168173ffffffffffffffffffffffffffffffffffffffff1603610f0757610f02848484611ee7565b610fdf565b6daaeb6d7670e522a718067333cd4e73ffffffffffffffffffffffffffffffffffffffff1663c617113430336040518363ffffffff1660e01b8152600401610f50929190613649565b602060405180830381865afa158015610f6d573d6000803e3d6000fd5b505050506040513d601f19601f82011682018060405250810190610f919190613687565b610fd257336040517fede71dcc000000000000000000000000000000000000000000000000000000008152600401610fc99190612e1a565b60405180910390fd5b5b610fde848484611ee7565b5b50505050565b6000610ff082611f07565b9050919050565b600c5481565b60008073ffffffffffffffffffffffffffffffffffffffff168273ffffffffffffffffffffffffffffffffffffffff1603611064576040517f8f4eb60400000000000000000000000000000000000000000000000000000000815260040160405180910390fd5b67ffffffffffffffff600560008473ffffffffffffffffffffffffffffffffffffffff1673ffffffffffffffffffffffffffffffffffffffff16815260200190815260200160002054169050919050565b6110bd611fd3565b6110c76000612051565b565b600b80546110d690613618565b80601f016020809104026020016040519081016040528092919081815260200182805461110290613618565b801561114f5780601f106111245761010080835404028352916020019161114f565b820191906000526020600020905b81548152906001019060200180831161113257829003601f168201915b505050505081565b600a5481565b6000600860009054906101000a900473ffffffffffffffffffffffffffffffffffffffff16905090565b61118f611fd3565b80600b908161119e9190613aef565b5050565b6111ac83826117e2565b8173ffffffffffffffffffffffffffffffffffffffff16633c6fc8173085846040518463ffffffff1660e01b81526004016111e993929190613be2565b600060405180830381600087803b15801561120357600080fd5b505af1158015611217573d6000803e3d6000fd5b50505050505050565b60606003805461122f90613618565b80601f016020809104026020016040519081016040528092919081815260200182805461125b90613618565b80156112a85780601f1061127d576101008083540402835291602001916112a8565b820191906000526020600020905b81548152906001019060200180831161128b57829003601f168201915b5050505050905090565b600d5481565b6112c0611fd3565b80600d8190555050565b8160006daaeb6d7670e522a718067333cd4e73ffffffffffffffffffffffffffffffffffffffff163b11156113c5576daaeb6d7670e522a718067333cd4e73ffffffffffffffffffffffffffffffffffffffff1663c617113430836040518363ffffffff1660e01b8152600401611342929190613649565b602060405180830381865afa15801561135f573d6000803e3d6000fd5b505050506040513d601f19601f820116820180604052508101906113839190613687565b6113c457806040517fede71dcc0000000000000000000000000000000000000000000000000000000081526004016113bb9190612e1a565b60405180910390fd5b5b6113cf8383612117565b505050565b600e60009054906101000a900473ffffffffffffffffffffffffffffffffffffffff1681565b611402611fd3565b80600e60006101000a81548173ffffffffffffffffffffffffffffffffffffffff021916908373ffffffffffffffffffffffffffffffffffffffff16021790555050565b600060096000838152602001908152602001600020549050919050565b8360006daaeb6d7670e522a718067333cd4e73ffffffffffffffffffffffffffffffffffffffff163b11156115a2573373ffffffffffffffffffffffffffffffffffffffff168173ffffffffffffffffffffffffffffffffffffffff16036114d6576114d185858585612222565b6115af565b6daaeb6d7670e522a718067333cd4e73ffffffffffffffffffffffffffffffffffffffff1663c617113430336040518363ffffffff1660e01b815260040161151f929190613649565b602060405180830381865afa15801561153c573d6000803e3d6000fd5b505050506040513d601f19601f820116820180604052508101906115609190613687565b6115a157336040517fede71dcc0000000000000000000000000000000000000000000000000000000081526004016115989190612e1a565b60405180910390fd5b5b6115ae85858585612222565b5b5050505050565b60606000600f60008481526020019081526020016000205490506115d983611906565b611618576040517f08c379a000000000000000000000000000000000000000000000000000000000815260040161160f90613c8b565b60405180910390fd5b600061162382612295565b905061166c61163185612384565b600b61163c856123b5565b6116458561245f565b6040516020016116589493929190613f53565b60405160208183030381529060405261245f565b60405160200161167c9190614014565b60405160208183030381529060405292505050919050565b606060005a90506116a4836115b6565b91505a816116b29190613919565b9050915091565b6000600760008473ffffffffffffffffffffffffffffffffffffffff1673ffffffffffffffffffffffffffffffffffffffff16815260200190815260200160002060008373ffffffffffffffffffffffffffffffffffffffff1673ffffffffffffffffffffffffffffffffffffffff16815260200190815260200160002060009054906101000a900460ff16905092915050565b611755611fd3565b600073ffffffffffffffffffffffffffffffffffffffff168173ffffffffffffffffffffffffffffffffffffffff16036117c4576040517f08c379a00000000000000000000000000000000000000000000000000000000081526004016117bb906140a8565b60405180910390fd5b6117cd81612051565b50565b6117d8611fd3565b80600c8190555050565b3373ffffffffffffffffffffffffffffffffffffffff1661180283610fe5565b73ffffffffffffffffffffffffffffffffffffffff1614611858576040517f08c379a000000000000000000000000000000000000000000000000000000000815260040161184f90614114565b60405180910390fd5b8060096000848152602001908152602001600020819055505050565b60006301ffc9a760e01b827bffffffffffffffffffffffffffffffffffffffffffffffffffffffff191614806118cf57506380ac58cd60e01b827bffffffffffffffffffffffffffffffffffffffffffffffffffffffff1916145b806118ff5750635b5e139f60e01b827bffffffffffffffffffffffffffffffffffffffffffffffffffffffff1916145b9050919050565b6000816119116125d7565b11158015611920575060005482105b801561195e575060007c0100000000000000000000000000000000000000000000000000000000600460008581526020019081526020016000205416145b9050919050565b600061197082610fe5565b90508073ffffffffffffffffffffffffffffffffffffffff166119916125dc565b73ffffffffffffffffffffffffffffffffffffffff16146119f4576119bd816119b86125dc565b6116b9565b6119f3576040517fcfb3b94200000000000000000000000000000000000000000000000000000000815260040160405180910390fd5b5b826006600084815260200190815260200160002060000160006101000a81548173ffffffffffffffffffffffffffffffffffffffff021916908373ffffffffffffffffffffffffffffffffffffffff160217905550818373ffffffffffffffffffffffffffffffffffffffff168273ffffffffffffffffffffffffffffffffffffffff167f8c5be1e5ebec7d5bd14f71427d1e84f3dd0314c0f7b2291e5b200ac8c7c3b92560405160405180910390a4505050565b6000600d54600a5410611af1576040517f08c379a0000000000000000000000000000000000000000000000000000000008152600401611ae890614180565b60405180910390fd5b611afc3360016125e4565b600a6000815480929190611b0f906141a0565b91905055905090565b6000611b2382611f07565b90508373ffffffffffffffffffffffffffffffffffffffff168173ffffffffffffffffffffffffffffffffffffffff1614611b8a576040517fa114810000000000000000000000000000000000000000000000000000000000815260040160405180910390fd5b600080611b9684612602565b91509150611bac8187611ba76125dc565b612629565b611bf857611bc186611bbc6125dc565b6116b9565b611bf7576040517f59c896be00000000000000000000000000000000000000000000000000000000815260040160405180910390fd5b5b600073ffffffffffffffffffffffffffffffffffffffff168573ffffffffffffffffffffffffffffffffffffffff1603611c5e576040517fea553b3400000000000000000000000000000000000000000000000000000000815260040160405180910390fd5b611c6b868686600161266d565b8015611c7657600082555b600560008773ffffffffffffffffffffffffffffffffffffffff1673ffffffffffffffffffffffffffffffffffffffff168152602001908152602001600020600081546001900391905081905550600560008673ffffffffffffffffffffffffffffffffffffffff1673ffffffffffffffffffffffffffffffffffffffff1681526020019081526020016000206000815460010191905081905550611d4485611d20888887612673565b7c02000000000000000000000000000000000000000000000000000000001761269b565b600460008681526020019081526020016000208190555060007c0200000000000000000000000000000000000000000000000000000000841603611dca5760006001850190506000600460008381526020019081526020016000205403611dc8576000548114611dc7578360046000838152602001908152602001600020819055505b5b505b838573ffffffffffffffffffffffffffffffffffffffff168773ffffffffffffffffffffffffffffffffffffffff167fddf252ad1be2c89b69c2b068fc378daa952ba7f163c4a11628f55a4df523b3ef60405160405180910390a4611e3286868660016126c6565b505050505050565b60008073ffffffffffffffffffffffffffffffffffffffff168273ffffffffffffffffffffffffffffffffffffffff1614611ed9576103e8601984611e7f91906141e8565b611e899190614259565b905060008290508073ffffffffffffffffffffffffffffffffffffffff166108fc839081150290604051600060405180830381858888f19350505050158015611ed6573d6000803e3d6000fd5b50505b92915050565b600092915050565b611f0283838360405180602001604052806000815250611463565b505050565b60008082905080611f166125d7565b11611f9c57600054811015611f9b5760006004600083815260200190815260200160002054905060007c0100000000000000000000000000000000000000000000000000000000821603611f99575b60008103611f8f576004600083600190039350838152602001908152602001600020549050611f65565b8092505050611fce565b505b5b6040517fdf2d9b4200000000000000000000000000000000000000000000000000000000815260040160405180910390fd5b919050565b611fdb6126cc565b73ffffffffffffffffffffffffffffffffffffffff16611ff961115d565b73ffffffffffffffffffffffffffffffffffffffff161461204f576040517f08c379a0000000000000000000000000000000000000000000000000000000008152600401612046906142d6565b60405180910390fd5b565b6000600860009054906101000a900473ffffffffffffffffffffffffffffffffffffffff16905081600860006101000a81548173ffffffffffffffffffffffffffffffffffffffff021916908373ffffffffffffffffffffffffffffffffffffffff1602179055508173ffffffffffffffffffffffffffffffffffffffff168173ffffffffffffffffffffffffffffffffffffffff167f8be0079c531659141344cd1fd0a4f28419497f9722a3daafe3b4186f6b6457e060405160405180910390a35050565b80600760006121246125dc565b73ffffffffffffffffffffffffffffffffffffffff1673ffffffffffffffffffffffffffffffffffffffff16815260200190815260200160002060008473ffffffffffffffffffffffffffffffffffffffff1673ffffffffffffffffffffffffffffffffffffffff16815260200190815260200160002060006101000a81548160ff0219169083151502179055508173ffffffffffffffffffffffffffffffffffffffff166121d16125dc565b73ffffffffffffffffffffffffffffffffffffffff167f17307eab39ab6107e8899845ad3d59bd9653f200f220920489ca2b5937696c31836040516122169190612ca9565b60405180910390a35050565b61222d848484610bdc565b60008373ffffffffffffffffffffffffffffffffffffffff163b1461228f57612258848484846126d4565b61228e576040517fd1a57ed600000000000000000000000000000000000000000000000000000000815260040160405180910390fd5b5b50505050565b6060600080600e60009054906101000a900473ffffffffffffffffffffffffffffffffffffffff1673ffffffffffffffffffffffffffffffffffffffff1663e3f24f02856040518263ffffffff1660e01b81526004016122f59190612eb0565b600060405180830381865afa158015612312573d6000803e3d6000fd5b505050506040513d6000823e3d601f19601f8201168201806040525081019061233b9190614366565b9150915060405180608001604052806049815260200161472160499139828260405160200161236c93929190614476565b60405160208183030381529060405292505050919050565b606061238f82612824565b60405160200161239f9190614509565b6040516020818303038152906040529050919050565b6060600e60009054906101000a900473ffffffffffffffffffffffffffffffffffffffff1673ffffffffffffffffffffffffffffffffffffffff166379b92f27836040518263ffffffff1660e01b81526004016124129190612eb0565b600060405180830381865afa15801561242f573d6000803e3d6000fd5b505050506040513d6000823e3d601f19601f82011682018060405250810190612458919061452b565b9050919050565b60606000825103612481576040518060200160405280600081525090506125d2565b60006040518060600160405280604081526020016146e160409139905060006003600285516124b09190614574565b6124ba9190614259565b60046124c691906141e8565b905060006020826124d79190614574565b67ffffffffffffffff8111156124f0576124ef612efd565b5b6040519080825280601f01601f1916602001820160405280156125225781602001600182028036833780820191505090505b509050818152600183018586518101602084015b81831015612591576003830192508251603f8160121c168501518253600182019150603f81600c1c168501518253600182019150603f8160061c168501518253600182019150603f8116850151825360018201915050612536565b6003895106600181146125ab57600281146125bb576125c6565b613d3d60f01b60028303526125c6565b603d60f81b60018303525b50505050508093505050505b919050565b600090565b600033905090565b6125fe828260405180602001604052806000815250612984565b5050565b60008060006006600085815260200190815260200160002090508092508254915050915091565b600073ffffffffffffffffffffffffffffffffffffffff8316925073ffffffffffffffffffffffffffffffffffffffff821691508382148383141790509392505050565b50505050565b60008060e883901c905060e861268a868684612a21565b62ffffff16901b9150509392505050565b600073ffffffffffffffffffffffffffffffffffffffff83169250814260a01b178317905092915050565b50505050565b600033905090565b60008373ffffffffffffffffffffffffffffffffffffffff1663150b7a026126fa6125dc565b8786866040518563ffffffff1660e01b815260040161271c94939291906145f2565b6020604051808303816000875af192505050801561275857506040513d601f19601f820116820180604052508101906127559190614653565b60015b6127d1573d8060008114612788576040519150601f19603f3d011682016040523d82523d6000602084013e61278d565b606091505b5060008151036127c9576040517fd1a57ed600000000000000000000000000000000000000000000000000000000815260040160405180910390fd5b805181602001fd5b63150b7a0260e01b7bffffffffffffffffffffffffffffffffffffffffffffffffffffffff1916817bffffffffffffffffffffffffffffffffffffffffffffffffffffffff191614915050949350505050565b60606000820361286b576040518060400160405280600181526020017f3000000000000000000000000000000000000000000000000000000000000000815250905061297f565b600082905060005b6000821461289d578080612886906141a0565b915050600a826128969190614259565b9150612873565b60008167ffffffffffffffff8111156128b9576128b8612efd565b5b6040519080825280601f01601f1916602001820160405280156128eb5781602001600182028036833780820191505090505b5090505b60008514612978576001826129049190613919565b9150600a856129139190614680565b603061291f9190614574565b60f81b818381518110612935576129346146b1565b5b60200101907effffffffffffffffffffffffffffffffffffffffffffffffffffffffffffff1916908160001a905350600a856129719190614259565b94506128ef565b8093505050505b919050565b61298e8383612a2a565b60008373ffffffffffffffffffffffffffffffffffffffff163b14612a1c57600080549050600083820390505b6129ce60008683806001019450866126d4565b612a04576040517fd1a57ed600000000000000000000000000000000000000000000000000000000815260040160405180910390fd5b8181106129bb578160005414612a1957600080fd5b50505b505050565b60009392505050565b60008054905060008203612a6a576040517fb562e8dd00000000000000000000000000000000000000000000000000000000815260040160405180910390fd5b612a77600084838561266d565b600160406001901b178202600560008573ffffffffffffffffffffffffffffffffffffffff1673ffffffffffffffffffffffffffffffffffffffff16815260200190815260200160002060008282540192505081905550612aee83612adf6000866000612673565b612ae885612be5565b1761269b565b6004600083815260200190815260200160002081905550600080838301905073ffffffffffffffffffffffffffffffffffffffff85169150828260007fddf252ad1be2c89b69c2b068fc378daa952ba7f163c4a11628f55a4df523b3ef600080a4600183015b818114612b8f57808360007fddf252ad1be2c89b69c2b068fc378daa952ba7f163c4a11628f55a4df523b3ef600080a4600181019050612b54565b5060008203612bca576040517f2e07630000000000000000000000000000000000000000000000000000000000815260040160405180910390fd5b806000819055505050612be060008483856126c6565b505050565b60006001821460e11b9050919050565b6000604051905090565b600080fd5b600080fd5b60007fffffffff0000000000000000000000000000000000000000000000000000000082169050919050565b612c3e81612c09565b8114612c4957600080fd5b50565b600081359050612c5b81612c35565b92915050565b600060208284031215612c7757612c76612bff565b5b6000612c8584828501612c4c565b91505092915050565b60008115159050919050565b612ca381612c8e565b82525050565b6000602082019050612cbe6000830184612c9a565b92915050565b600081519050919050565b600082825260208201905092915050565b60005b83811015612cfe578082015181840152602081019050612ce3565b60008484015250505050565b6000601f19601f8301169050919050565b6000612d2682612cc4565b612d308185612ccf565b9350612d40818560208601612ce0565b612d4981612d0a565b840191505092915050565b60006020820190508181036000830152612d6e8184612d1b565b905092915050565b6000819050919050565b612d8981612d76565b8114612d9457600080fd5b50565b600081359050612da681612d80565b92915050565b600060208284031215612dc257612dc1612bff565b5b6000612dd084828501612d97565b91505092915050565b600073ffffffffffffffffffffffffffffffffffffffff82169050919050565b6000612e0482612dd9565b9050919050565b612e1481612df9565b82525050565b6000602082019050612e2f6000830184612e0b565b92915050565b612e3e81612df9565b8114612e4957600080fd5b50565b600081359050612e5b81612e35565b92915050565b60008060408385031215612e7857612e77612bff565b5b6000612e8685828601612e4c565b9250506020612e9785828601612d97565b9150509250929050565b612eaa81612d76565b82525050565b6000602082019050612ec56000830184612ea1565b92915050565b600060208284031215612ee157612ee0612bff565b5b6000612eef84828501612e4c565b91505092915050565b600080fd5b7f4e487b7100000000000000000000000000000000000000000000000000000000600052604160045260246000fd5b612f3582612d0a565b810181811067ffffffffffffffff82111715612f5457612f53612efd565b5b80604052505050565b6000612f67612bf5565b9050612f738282612f2c565b919050565b600080fd5b600080fd5b600080fd5b600067ffffffffffffffff821115612fa257612fa1612efd565b5b612fab82612d0a565b9050602081019050919050565b82818337600083830152505050565b6000612fda612fd584612f87565b612f5d565b905082815260208101848484011115612ff657612ff5612f82565b5b613001848285612fb8565b509392505050565b600082601f83011261301e5761301d612f7d565b5b813561302e848260208601612fc7565b91505092915050565b60006040828403121561304d5761304c612ef8565b5b6130576040612f5d565b9050600082013567ffffffffffffffff81111561307757613076612f78565b5b61308384828501613009565b600083015250602082013567ffffffffffffffff8111156130a7576130a6612f78565b5b6130b384828501613009565b60208301525092915050565b6000602082840312156130d5576130d4612bff565b5b600082013567ffffffffffffffff8111156130f3576130f2612c04565b5b6130ff84828501613037565b91505092915050565b60008060006060848603121561312157613120612bff565b5b600061312f86828701612e4c565b935050602061314086828701612e4c565b925050604061315186828701612d97565b9150509250925092565b60008060006060848603121561317457613173612bff565b5b600061318286828701612d97565b935050602061319386828701612e4c565b92505060406131a486828701612e4c565b9150509250925092565b6000819050919050565b60006131d36131ce6131c984612dd9565b6131ae565b612dd9565b9050919050565b60006131e5826131b8565b9050919050565b60006131f7826131da565b9050919050565b613207816131ec565b82525050565b600060208201905061322260008301846131fe565b92915050565b60006020828403121561323e5761323d612bff565b5b600082013567ffffffffffffffff81111561325c5761325b612c04565b5b61326884828501613009565b91505092915050565b600061327c82612df9565b9050919050565b61328c81613271565b811461329757600080fd5b50565b6000813590506132a981613283565b92915050565b6000806000606084860312156132c8576132c7612bff565b5b60006132d686828701612d97565b93505060206132e78682870161329a565b92505060406132f886828701612d97565b9150509250925092565b61330b81612c8e565b811461331657600080fd5b50565b60008135905061332881613302565b92915050565b6000806040838503121561334557613344612bff565b5b600061335385828601612e4c565b925050602061336485828601613319565b9150509250929050565b6000613379826131da565b9050919050565b6133898161336e565b82525050565b60006020820190506133a46000830184613380565b92915050565b60006133b582612df9565b9050919050565b6133c5816133aa565b81146133d057600080fd5b50565b6000813590506133e2816133bc565b92915050565b6000602082840312156133fe576133fd612bff565b5b600061340c848285016133d3565b91505092915050565b600067ffffffffffffffff8211156134305761342f612efd565b5b61343982612d0a565b9050602081019050919050565b600061345961345484613415565b612f5d565b90508281526020810184848401111561347557613474612f82565b5b613480848285612fb8565b509392505050565b600082601f83011261349d5761349c612f7d565b5b81356134ad848260208601613446565b91505092915050565b600080600080608085870312156134d0576134cf612bff565b5b60006134de87828801612e4c565b94505060206134ef87828801612e4c565b935050604061350087828801612d97565b925050606085013567ffffffffffffffff81111561352157613520612c04565b5b61352d87828801613488565b91505092959194509250565b600060408201905081810360008301526135538185612d1b565b90506135626020830184612ea1565b9392505050565b600080604083850312156135805761357f612bff565b5b600061358e85828601612e4c565b925050602061359f85828601612e4c565b9150509250929050565b600080604083850312156135c0576135bf612bff565b5b60006135ce85828601612d97565b92505060206135df85828601612d97565b9150509250929050565b7f4e487b7100000000000000000000000000000000000000000000000000000000600052602260045260246000fd5b6000600282049050600182168061363057607f821691505b602082108103613643576136426135e9565b5b50919050565b600060408201905061365e6000830185612e0b565b61366b6020830184612e0b565b9392505050565b60008151905061368181613302565b92915050565b60006020828403121561369d5761369c612bff565b5b60006136ab84828501613672565b91505092915050565b7f6d757374206e6f742063616c6c00000000000000000000000000000000000000600082015250565b60006136ea600d83612ccf565b91506136f5826136b4565b602082019050919050565b60006020820190508181036000830152613719816136dd565b9050919050565b600082825260208201905092915050565b600061373c82612cc4565b6137468185613720565b9350613756818560208601612ce0565b61375f81612d0a565b840191505092915050565b600060408301600083015184820360008601526137878282613731565b915050602083015184820360208601526137a18282613731565b9150508091505092915050565b600060208201905081810360008301526137c8818461376a565b905092915050565b6000815190506137df81612d80565b92915050565b6000602082840312156137fb576137fa612bff565b5b6000613809848285016137d0565b91505092915050565b7f546f6b656e206973206e6f74206f6e2073616c65000000000000000000000000600082015250565b6000613848601483612ccf565b915061385382613812565b602082019050919050565b600060208201905081810360008301526138778161383b565b9050919050565b7f4e6f7420656e6f7567682066756e640000000000000000000000000000000000600082015250565b60006138b4600f83612ccf565b91506138bf8261387e565b602082019050919050565b600060208201905081810360008301526138e3816138a7565b9050919050565b7f4e487b7100000000000000000000000000000000000000000000000000000000600052601160045260246000fd5b600061392482612d76565b915061392f83612d76565b9250828203905081811115613947576139466138ea565b5b92915050565b60008190508160005260206000209050919050565b60006020601f8301049050919050565b600082821b905092915050565b6000600883026139af7fffffffffffffffffffffffffffffffffffffffffffffffffffffffffffffffff82613972565b6139b98683613972565b95508019841693508086168417925050509392505050565b60006139ec6139e76139e284612d76565b6131ae565b612d76565b9050919050565b6000819050919050565b613a06836139d1565b613a1a613a12826139f3565b84845461397f565b825550505050565b600090565b613a2f613a22565b613a3a8184846139fd565b505050565b5b81811015613a5e57613a53600082613a27565b600181019050613a40565b5050565b601f821115613aa357613a748161394d565b613a7d84613962565b81016020851015613a8c578190505b613aa0613a9885613962565b830182613a3f565b50505b505050565b600082821c905092915050565b6000613ac660001984600802613aa8565b1980831691505092915050565b6000613adf8383613ab5565b9150826002028217905092915050565b613af882612cc4565b67ffffffffffffffff811115613b1157613b10612efd565b5b613b1b8254613618565b613b26828285613a62565b600060209050601f831160018114613b595760008415613b47578287015190505b613b518582613ad3565b865550613bb9565b601f198416613b678661394d565b60005b82811015613b8f57848901518255600182019150602085019450602081019050613b6a565b86831015613bac5784890151613ba8601f891682613ab5565b8355505b6001600288020188555050505b505050505050565b6000613bcc826131da565b9050919050565b613bdc81613bc1565b82525050565b6000606082019050613bf76000830186613bd3565b613c046020830185612ea1565b613c116040830184612ea1565b949350505050565b7f4d657373616765546f6b656e2e746f6b656e5552493a206e6f6e65786973746560008201527f6e7420746f6b656e000000000000000000000000000000000000000000000000602082015250565b6000613c75602883612ccf565b9150613c8082613c19565b604082019050919050565b60006020820190508181036000830152613ca481613c68565b9050919050565b600081905092915050565b7f7b226e616d65223a220000000000000000000000000000000000000000000000600082015250565b6000613cec600983613cab565b9150613cf782613cb6565b600982019050919050565b6000613d0d82612cc4565b613d178185613cab565b9350613d27818560208601612ce0565b80840191505092915050565b7f222c226465736372697074696f6e223a22000000000000000000000000000000600082015250565b6000613d69601183613cab565b9150613d7482613d33565b601182019050919050565b60008154613d8c81613618565b613d968186613cab565b94506001821660008114613db15760018114613dc657613df9565b60ff1983168652811515820286019350613df9565b613dcf8561394d565b60005b83811015613df157815481890152600182019150602081019050613dd2565b838801955050505b50505092915050565b7f222c2261747472696275746573223a5b00000000000000000000000000000000600082015250565b6000613e38601083613cab565b9150613e4382613e02565b601082019050919050565b600081519050919050565b600081905092915050565b6000613e6f82613e4e565b613e798185613e59565b9350613e89818560208601612ce0565b80840191505092915050565b7f5d2c22696d616765223a22646174613a696d6167652f7376672b786d6c3b626160008201527f736536342c000000000000000000000000000000000000000000000000000000602082015250565b6000613ef1602583613cab565b9150613efc82613e95565b602582019050919050565b7f227d000000000000000000000000000000000000000000000000000000000000600082015250565b6000613f3d600283613cab565b9150613f4882613f07565b600282019050919050565b6000613f5e82613cdf565b9150613f6a8287613d02565b9150613f7582613d5c565b9150613f818286613d7f565b9150613f8c82613e2b565b9150613f988285613e64565b9150613fa382613ee4565b9150613faf8284613d02565b9150613fba82613f30565b915081905095945050505050565b7f646174613a6170706c69636174696f6e2f6a736f6e3b6261736536342c000000600082015250565b6000613ffe601d83613cab565b915061400982613fc8565b601d82019050919050565b600061401f82613ff1565b915061402b8284613d02565b915081905092915050565b7f4f776e61626c653a206e6577206f776e657220697320746865207a65726f206160008201527f6464726573730000000000000000000000000000000000000000000000000000602082015250565b6000614092602683612ccf565b915061409d82614036565b604082019050919050565b600060208201905081810360008301526140c181614085565b9050919050565b7f4f6e6c7920746865206f6e7765722063616e2073657420746865207072696365600082015250565b60006140fe602083612ccf565b9150614109826140c8565b602082019050919050565b6000602082019050818103600083015261412d816140f1565b9050919050565b7f536f6c64206f7574000000000000000000000000000000000000000000000000600082015250565b600061416a600883612ccf565b915061417582614134565b602082019050919050565b600060208201905081810360008301526141998161415d565b9050919050565b60006141ab82612d76565b91507fffffffffffffffffffffffffffffffffffffffffffffffffffffffffffffffff82036141dd576141dc6138ea565b5b600182019050919050565b60006141f382612d76565b91506141fe83612d76565b925082820261420c81612d76565b91508282048414831517614223576142226138ea565b5b5092915050565b7f4e487b7100000000000000000000000000000000000000000000000000000000600052601260045260246000fd5b600061426482612d76565b915061426f83612d76565b92508261427f5761427e61422a565b5b828204905092915050565b7f4f776e61626c653a2063616c6c6572206973206e6f7420746865206f776e6572600082015250565b60006142c0602083612ccf565b91506142cb8261428a565b602082019050919050565b600060208201905081810360008301526142ef816142b3565b9050919050565b600061430961430484612f87565b612f5d565b90508281526020810184848401111561432557614324612f82565b5b614330848285612ce0565b509392505050565b600082601f83011261434d5761434c612f7d565b5b815161435d8482602086016142f6565b91505092915050565b6000806040838503121561437d5761437c612bff565b5b600083015167ffffffffffffffff81111561439b5761439a612c04565b5b6143a785828601614338565b925050602083015167ffffffffffffffff8111156143c8576143c7612c04565b5b6143d485828601614338565b9150509250929050565b7f3c2f646566733e0a3c75736520687265663d2223000000000000000000000000600082015250565b6000614414601483613cab565b915061441f826143de565b601482019050919050565b7f22202f3e0a3c2f7376673e0a0000000000000000000000000000000000000000600082015250565b6000614460600c83613cab565b915061446b8261442a565b600c82019050919050565b60006144828286613d02565b915061448e8285613d02565b915061449982614407565b91506144a58284613d02565b91506144b082614453565b9150819050949350505050565b7f4d65737361676520546f6b656e20563120000000000000000000000000000000600082015250565b60006144f3601183613cab565b91506144fe826144bd565b601182019050919050565b6000614514826144e6565b91506145208284613d02565b915081905092915050565b60006020828403121561454157614540612bff565b5b600082015167ffffffffffffffff81111561455f5761455e612c04565b5b61456b84828501614338565b91505092915050565b600061457f82612d76565b915061458a83612d76565b92508282019050808211156145a2576145a16138ea565b5b92915050565b600082825260208201905092915050565b60006145c482613e4e565b6145ce81856145a8565b93506145de818560208601612ce0565b6145e781612d0a565b840191505092915050565b60006080820190506146076000830187612e0b565b6146146020830186612e0b565b6146216040830185612ea1565b818103606083015261463381846145b9565b905095945050505050565b60008151905061464d81612c35565b92915050565b60006020828403121561466957614668612bff565b5b60006146778482850161463e565b91505092915050565b600061468b82612d76565b915061469683612d76565b9250826146a6576146a561422a565b5b828206905092915050565b7f4e487b7100000000000000000000000000000000000000000000000000000000600052603260045260246000fdfe4142434445464748494a4b4c4d4e4f505152535455565758595a6162636465666768696a6b6c6d6e6f707172737475767778797a303132333435363738392b2f3c7376672076696577426f783d2230203020313032342031303234222020786d6c6e733d22687474703a2f2f7777772e77332e6f72672f323030302f737667223e0a3c646566733e0aa26469706673582212205ac7e4a9ddb2e77682904d4cd3a7ae2f54eb21c27da5f9d6df339f4cb620fd3764736f6c63430008110033",
  "linkReferences": {},
  "deployedLinkReferences": {}
}