{
  "_format": "hh-sol-artifact-1",
  "contractName": "SplatterToken",
  "sourceName": "contracts/SplatterToken.sol",
  "abi": [
    {
      "inputs": [
        {
          "internalType": "contract IAssetProvider",
          "name": "_assetProvider",
          "type": "address"
        },
        {
          "internalType": "contract IProxyRegistry",
          "name": "_proxyRegistry",
          "type": "address"
        }
      ],
      "stateMutability": "nonpayable",
      "type": "constructor"
    },
    {
      "anonymous": false,
      "inputs": [
        {
          "indexed": true,
          "internalType": "address",
          "name": "owner",
          "type": "address"
        },
        {
          "indexed": true,
          "internalType": "address",
          "name": "approved",
          "type": "address"
        },
        {
          "indexed": true,
          "internalType": "uint256",
          "name": "tokenId",
          "type": "uint256"
        }
      ],
      "name": "Approval",
      "type": "event"
    },
    {
      "anonymous": false,
      "inputs": [
        {
          "indexed": true,
          "internalType": "address",
          "name": "owner",
          "type": "address"
        },
        {
          "indexed": true,
          "internalType": "address",
          "name": "operator",
          "type": "address"
        },
        {
          "indexed": false,
          "internalType": "bool",
          "name": "approved",
          "type": "bool"
        }
      ],
      "name": "ApprovalForAll",
      "type": "event"
    },
    {
      "anonymous": false,
      "inputs": [
        {
          "indexed": true,
          "internalType": "address",
          "name": "previousOwner",
          "type": "address"
        },
        {
          "indexed": true,
          "internalType": "address",
          "name": "newOwner",
          "type": "address"
        }
      ],
      "name": "OwnershipTransferred",
      "type": "event"
    },
    {
      "anonymous": false,
      "inputs": [
        {
          "indexed": true,
          "internalType": "address",
          "name": "from",
          "type": "address"
        },
        {
          "indexed": true,
          "internalType": "address",
          "name": "to",
          "type": "address"
        },
        {
          "indexed": true,
          "internalType": "uint256",
          "name": "tokenId",
          "type": "uint256"
        }
      ],
      "name": "Transfer",
      "type": "event"
    },
    {
      "inputs": [
        {
          "internalType": "address",
          "name": "to",
          "type": "address"
        },
        {
          "internalType": "uint256",
          "name": "tokenId",
          "type": "uint256"
        }
      ],
      "name": "approve",
      "outputs": [],
      "stateMutability": "nonpayable",
      "type": "function"
    },
    {
      "inputs": [],
      "name": "assetProvider",
      "outputs": [
        {
          "internalType": "contract IAssetProvider",
          "name": "",
          "type": "address"
        }
      ],
      "stateMutability": "view",
      "type": "function"
    },
    {
      "inputs": [
        {
          "internalType": "address",
          "name": "owner",
          "type": "address"
        }
      ],
      "name": "balanceOf",
      "outputs": [
        {
          "internalType": "uint256",
          "name": "",
          "type": "uint256"
        }
      ],
      "stateMutability": "view",
      "type": "function"
    },
    {
      "inputs": [
        {
          "internalType": "uint256",
          "name": "_tokenId",
          "type": "uint256"
        }
      ],
      "name": "debugTokenURI",
      "outputs": [
        {
          "internalType": "string",
          "name": "uri",
          "type": "string"
        },
        {
          "internalType": "uint256",
          "name": "gas",
          "type": "uint256"
        }
      ],
      "stateMutability": "view",
      "type": "function"
    },
    {
      "inputs": [],
      "name": "description",
      "outputs": [
        {
          "internalType": "string",
          "name": "",
          "type": "string"
        }
      ],
      "stateMutability": "view",
      "type": "function"
    },
    {
      "inputs": [
        {
          "internalType": "uint256",
          "name": "tokenId",
          "type": "uint256"
        }
      ],
      "name": "getApproved",
      "outputs": [
        {
          "internalType": "address",
          "name": "",
          "type": "address"
        }
      ],
      "stateMutability": "view",
      "type": "function"
    },
    {
      "inputs": [
        {
          "internalType": "address",
          "name": "owner",
          "type": "address"
        },
        {
          "internalType": "address",
          "name": "operator",
          "type": "address"
        }
      ],
      "name": "isApprovedForAll",
      "outputs": [
        {
          "internalType": "bool",
          "name": "",
          "type": "bool"
        }
      ],
      "stateMutability": "view",
      "type": "function"
    },
    {
      "inputs": [],
      "name": "mint",
      "outputs": [],
      "stateMutability": "payable",
      "type": "function"
    },
    {
      "inputs": [],
      "name": "name",
      "outputs": [
        {
          "internalType": "string",
          "name": "",
          "type": "string"
        }
      ],
      "stateMutability": "view",
      "type": "function"
    },
    {
      "inputs": [],
      "name": "owner",
      "outputs": [
        {
          "internalType": "address",
          "name": "",
          "type": "address"
        }
      ],
      "stateMutability": "view",
      "type": "function"
    },
    {
      "inputs": [
        {
          "internalType": "uint256",
          "name": "tokenId",
          "type": "uint256"
        }
      ],
      "name": "ownerOf",
      "outputs": [
        {
          "internalType": "address",
          "name": "",
          "type": "address"
        }
      ],
      "stateMutability": "view",
      "type": "function"
    },
    {
      "inputs": [],
      "name": "proxyRegistry",
      "outputs": [
        {
          "internalType": "contract IProxyRegistry",
          "name": "",
          "type": "address"
        }
      ],
      "stateMutability": "view",
      "type": "function"
    },
    {
      "inputs": [],
      "name": "renounceOwnership",
      "outputs": [],
      "stateMutability": "nonpayable",
      "type": "function"
    },
    {
      "inputs": [
        {
          "internalType": "address",
          "name": "from",
          "type": "address"
        },
        {
          "internalType": "address",
          "name": "to",
          "type": "address"
        },
        {
          "internalType": "uint256",
          "name": "tokenId",
          "type": "uint256"
        }
      ],
      "name": "safeTransferFrom",
      "outputs": [],
      "stateMutability": "nonpayable",
      "type": "function"
    },
    {
      "inputs": [
        {
          "internalType": "address",
          "name": "from",
          "type": "address"
        },
        {
          "internalType": "address",
          "name": "to",
          "type": "address"
        },
        {
          "internalType": "uint256",
          "name": "tokenId",
          "type": "uint256"
        },
        {
          "internalType": "bytes",
          "name": "data",
          "type": "bytes"
        }
      ],
      "name": "safeTransferFrom",
      "outputs": [],
      "stateMutability": "nonpayable",
      "type": "function"
    },
    {
      "inputs": [
        {
          "internalType": "address",
          "name": "operator",
          "type": "address"
        },
        {
          "internalType": "bool",
          "name": "approved",
          "type": "bool"
        }
      ],
      "name": "setApprovalForAll",
      "outputs": [],
      "stateMutability": "nonpayable",
      "type": "function"
    },
    {
      "inputs": [
        {
          "internalType": "string",
          "name": "_description",
          "type": "string"
        }
      ],
      "name": "setDescription",
      "outputs": [],
      "stateMutability": "nonpayable",
      "type": "function"
    },
    {
      "inputs": [
        {
          "internalType": "bytes4",
          "name": "interfaceId",
          "type": "bytes4"
        }
      ],
      "name": "supportsInterface",
      "outputs": [
        {
          "internalType": "bool",
          "name": "",
          "type": "bool"
        }
      ],
      "stateMutability": "view",
      "type": "function"
    },
    {
      "inputs": [],
      "name": "symbol",
      "outputs": [
        {
          "internalType": "string",
          "name": "",
          "type": "string"
        }
      ],
      "stateMutability": "view",
      "type": "function"
    },
    {
      "inputs": [
        {
          "internalType": "uint256",
          "name": "_tokenId",
          "type": "uint256"
        }
      ],
      "name": "tokenURI",
      "outputs": [
        {
          "internalType": "string",
          "name": "",
          "type": "string"
        }
      ],
      "stateMutability": "view",
      "type": "function"
    },
    {
      "inputs": [],
      "name": "totalSupply",
      "outputs": [
        {
          "internalType": "uint256",
          "name": "",
          "type": "uint256"
        }
      ],
      "stateMutability": "view",
      "type": "function"
    },
    {
      "inputs": [
        {
          "internalType": "address",
          "name": "from",
          "type": "address"
        },
        {
          "internalType": "address",
          "name": "to",
          "type": "address"
        },
        {
          "internalType": "uint256",
          "name": "tokenId",
          "type": "uint256"
        }
      ],
      "name": "transferFrom",
      "outputs": [],
      "stateMutability": "nonpayable",
      "type": "function"
    },
    {
      "inputs": [
        {
          "internalType": "address",
          "name": "newOwner",
          "type": "address"
        }
      ],
      "name": "transferOwnership",
      "outputs": [],
      "stateMutability": "nonpayable",
      "type": "function"
    }
  ],
  "bytecode": "0x60c06040523480156200001157600080fd5b506040516200426238038062004262833981810160405281019062000037919062000323565b81816040518060400160405280600881526020017f53706c61747465720000000000000000000000000000000000000000000000008152506040518060400160405280600881526020017f53504c4154544552000000000000000000000000000000000000000000000000815250838383838181620000cb620000bf6200019460201b60201c565b6200019c60201b60201c565b8160019081620000dc9190620005e4565b508060029081620000ee9190620005e4565b5050508373ffffffffffffffffffffffffffffffffffffffff1660a08173ffffffffffffffffffffffffffffffffffffffff16815250508273ffffffffffffffffffffffffffffffffffffffff1660808173ffffffffffffffffffffffffffffffffffffffff168152505050505050505050506040518060800160405280605481526020016200420e60549139600790816200018b9190620005e4565b505050620006cb565b600033905090565b60008060009054906101000a900473ffffffffffffffffffffffffffffffffffffffff169050816000806101000a81548173ffffffffffffffffffffffffffffffffffffffff021916908373ffffffffffffffffffffffffffffffffffffffff1602179055508173ffffffffffffffffffffffffffffffffffffffff168173ffffffffffffffffffffffffffffffffffffffff167f8be0079c531659141344cd1fd0a4f28419497f9722a3daafe3b4186f6b6457e060405160405180910390a35050565b600080fd5b600073ffffffffffffffffffffffffffffffffffffffff82169050919050565b6000620002928262000265565b9050919050565b6000620002a68262000285565b9050919050565b620002b88162000299565b8114620002c457600080fd5b50565b600081519050620002d881620002ad565b92915050565b6000620002eb8262000285565b9050919050565b620002fd81620002de565b81146200030957600080fd5b50565b6000815190506200031d81620002f2565b92915050565b600080604083850312156200033d576200033c62000260565b5b60006200034d85828601620002c7565b925050602062000360858286016200030c565b9150509250929050565b600081519050919050565b7f4e487b7100000000000000000000000000000000000000000000000000000000600052604160045260246000fd5b7f4e487b7100000000000000000000000000000000000000000000000000000000600052602260045260246000fd5b60006002820490506001821680620003ec57607f821691505b602082108103620004025762000401620003a4565b5b50919050565b60008190508160005260206000209050919050565b60006020601f8301049050919050565b600082821b905092915050565b6000600883026200046c7fffffffffffffffffffffffffffffffffffffffffffffffffffffffffffffffff826200042d565b6200047886836200042d565b95508019841693508086168417925050509392505050565b6000819050919050565b6000819050919050565b6000620004c5620004bf620004b98462000490565b6200049a565b62000490565b9050919050565b6000819050919050565b620004e183620004a4565b620004f9620004f082620004cc565b8484546200043a565b825550505050565b600090565b6200051062000501565b6200051d818484620004d6565b505050565b5b8181101562000545576200053960008262000506565b60018101905062000523565b5050565b601f82111562000594576200055e8162000408565b62000569846200041d565b8101602085101562000579578190505b6200059162000588856200041d565b83018262000522565b50505b505050565b600082821c905092915050565b6000620005b96000198460080262000599565b1980831691505092915050565b6000620005d48383620005a6565b9150826002028217905092915050565b620005ef826200036a565b67ffffffffffffffff8111156200060b576200060a62000375565b5b620006178254620003d3565b6200062482828562000549565b600060209050601f8311600181146200065c576000841562000647578287015190505b620006538582620005c6565b865550620006c3565b601f1984166200066c8662000408565b60005b8281101562000696578489015182556001820191506020850194506020810190506200066f565b86831015620006b65784890151620006b2601f891682620005a6565b8355505b6001600288020188555050505b505050505050565b60805160a051613b0f620006ff60003960008181610bd901526116e4015260008181610bfd0152610d860152613b0f6000f3fe6080604052600436106101405760003560e01c80637284e416116100b6578063b50cbd9f1161006f578063b50cbd9f14610429578063b88d4fde14610454578063c87b56dd1461047d578063cc44ab41146104ba578063e985e9c5146104f8578063f2fde38b1461053557610140565b80637284e4161461032b5780638da5cb5b1461035657806390c3f38f1461038157806395d89b41146103aa578063a22cb465146103d5578063a370f7d7146103fe57610140565b806318160ddd1161010857806318160ddd1461021d57806323b872dd1461024857806342842e0e146102715780636352211e1461029a57806370a08231146102d7578063715018a61461031457610140565b806301ffc9a71461014557806306fdde0314610182578063081812fc146101ad578063095ea7b3146101ea5780631249c58b14610213575b600080fd5b34801561015157600080fd5b5061016c60048036038101906101679190611fec565b61055e565b6040516101799190612034565b60405180910390f35b34801561018e57600080fd5b50610197610640565b6040516101a491906120df565b60405180910390f35b3480156101b957600080fd5b506101d460048036038101906101cf9190612137565b6106d2565b6040516101e191906121a5565b60405180910390f35b3480156101f657600080fd5b50610211600480360381019061020c91906121ec565b610718565b005b61021b61082f565b005b34801561022957600080fd5b50610232610857565b60405161023f919061223b565b60405180910390f35b34801561025457600080fd5b5061026f600480360381019061026a9190612256565b610861565b005b34801561027d57600080fd5b5061029860048036038101906102939190612256565b6108c1565b005b3480156102a657600080fd5b506102c160048036038101906102bc9190612137565b6108e1565b6040516102ce91906121a5565b60405180910390f35b3480156102e357600080fd5b506102fe60048036038101906102f991906122a9565b610992565b60405161030b919061223b565b60405180910390f35b34801561032057600080fd5b50610329610a49565b005b34801561033757600080fd5b50610340610a5d565b60405161034d91906120df565b60405180910390f35b34801561036257600080fd5b5061036b610aeb565b60405161037891906121a5565b60405180910390f35b34801561038d57600080fd5b506103a860048036038101906103a3919061240b565b610b14565b005b3480156103b657600080fd5b506103bf610b2f565b6040516103cc91906120df565b60405180910390f35b3480156103e157600080fd5b506103fc60048036038101906103f79190612480565b610bc1565b005b34801561040a57600080fd5b50610413610bd7565b604051610420919061251f565b60405180910390f35b34801561043557600080fd5b5061043e610bfb565b60405161044b919061255b565b60405180910390f35b34801561046057600080fd5b5061047b60048036038101906104769190612617565b610c1f565b005b34801561048957600080fd5b506104a4600480360381019061049f9190612137565b610c81565b6040516104b191906120df565b60405180910390f35b3480156104c657600080fd5b506104e160048036038101906104dc9190612137565b610d46565b6040516104ef92919061269a565b60405180910390f35b34801561050457600080fd5b5061051f600480360381019061051a91906126ca565b610d6b565b60405161052c9190612034565b60405180910390f35b34801561054157600080fd5b5061055c600480360381019061055791906122a9565b610e55565b005b60007f80ac58cd000000000000000000000000000000000000000000000000000000007bffffffffffffffffffffffffffffffffffffffffffffffffffffffff1916827bffffffffffffffffffffffffffffffffffffffffffffffffffffffff1916148061062957507f5b5e139f000000000000000000000000000000000000000000000000000000007bffffffffffffffffffffffffffffffffffffffffffffffffffffffff1916827bffffffffffffffffffffffffffffffffffffffffffffffffffffffff1916145b80610639575061063882610ed8565b5b9050919050565b60606001805461064f90612739565b80601f016020809104026020016040519081016040528092919081815260200182805461067b90612739565b80156106c85780601f1061069d576101008083540402835291602001916106c8565b820191906000526020600020905b8154815290600101906020018083116106ab57829003601f168201915b5050505050905090565b60006106dd82610f42565b6005600083815260200190815260200160002060009054906101000a900473ffffffffffffffffffffffffffffffffffffffff169050919050565b6000610723826108e1565b90508073ffffffffffffffffffffffffffffffffffffffff168373ffffffffffffffffffffffffffffffffffffffff1603610793576040517f08c379a000000000000000000000000000000000000000000000000000000000815260040161078a906127dc565b60405180910390fd5b8073ffffffffffffffffffffffffffffffffffffffff166107b2610f8d565b73ffffffffffffffffffffffffffffffffffffffff1614806107e157506107e0816107db610f8d565b610d6b565b5b610820576040517f08c379a00000000000000000000000000000000000000000000000000000000081526004016108179061286e565b60405180910390fd5b61082a8383610f95565b505050565b600060086000815480929190610844906128bd565b919050559050610854338261104e565b50565b6000600854905090565b61087261086c610f8d565b8261106c565b6108b1576040517f08c379a00000000000000000000000000000000000000000000000000000000081526004016108a890612977565b60405180910390fd5b6108bc838383611101565b505050565b6108dc83838360405180602001604052806000815250610c1f565b505050565b6000806003600084815260200190815260200160002060009054906101000a900473ffffffffffffffffffffffffffffffffffffffff169050600073ffffffffffffffffffffffffffffffffffffffff168173ffffffffffffffffffffffffffffffffffffffff1603610989576040517f08c379a0000000000000000000000000000000000000000000000000000000008152600401610980906129e3565b60405180910390fd5b80915050919050565b60008073ffffffffffffffffffffffffffffffffffffffff168273ffffffffffffffffffffffffffffffffffffffff1603610a02576040517f08c379a00000000000000000000000000000000000000000000000000000000081526004016109f990612a75565b60405180910390fd5b600460008373ffffffffffffffffffffffffffffffffffffffff1673ffffffffffffffffffffffffffffffffffffffff168152602001908152602001600020549050919050565b610a51611367565b610a5b60006113e5565b565b60078054610a6a90612739565b80601f0160208091040260200160405190810160405280929190818152602001828054610a9690612739565b8015610ae35780601f10610ab857610100808354040283529160200191610ae3565b820191906000526020600020905b815481529060010190602001808311610ac657829003601f168201915b505050505081565b60008060009054906101000a900473ffffffffffffffffffffffffffffffffffffffff16905090565b610b1c611367565b8060079081610b2b9190612c37565b5050565b606060028054610b3e90612739565b80601f0160208091040260200160405190810160405280929190818152602001828054610b6a90612739565b8015610bb75780601f10610b8c57610100808354040283529160200191610bb7565b820191906000526020600020905b815481529060010190602001808311610b9a57829003601f168201915b5050505050905090565b610bd3610bcc610f8d565b83836114a9565b5050565b7f000000000000000000000000000000000000000000000000000000000000000081565b7f000000000000000000000000000000000000000000000000000000000000000081565b610c30610c2a610f8d565b8361106c565b610c6f576040517f08c379a0000000000000000000000000000000000000000000000000000000008152600401610c6690612977565b60405180910390fd5b610c7b84848484611615565b50505050565b6060610c8c82611671565b610ccb576040517f08c379a0000000000000000000000000000000000000000000000000000000008152600401610cc290612d7b565b60405180910390fd5b6000610cd6836116dd565b9050610d1f610ce4846117ca565b6007610cef866117fb565b610cf88561182c565b604051602001610d0b9493929190613043565b60405160208183030381529060405261182c565b604051602001610d2f9190613104565b604051602081830303815290604052915050919050565b606060005a9050610d5683610c81565b91505a81610d649190613126565b9050915091565b60008173ffffffffffffffffffffffffffffffffffffffff167f000000000000000000000000000000000000000000000000000000000000000073ffffffffffffffffffffffffffffffffffffffff1663c4552791856040518263ffffffff1660e01b8152600401610ddd91906121a5565b602060405180830381865afa158015610dfa573d6000803e3d6000fd5b505050506040513d601f19601f82011682018060405250810190610e1e919061316f565b73ffffffffffffffffffffffffffffffffffffffff1603610e425760019050610e4f565b610e4c83836119a4565b90505b92915050565b610e5d611367565b600073ffffffffffffffffffffffffffffffffffffffff168173ffffffffffffffffffffffffffffffffffffffff1603610ecc576040517f08c379a0000000000000000000000000000000000000000000000000000000008152600401610ec39061320e565b60405180910390fd5b610ed5816113e5565b50565b60007f01ffc9a7000000000000000000000000000000000000000000000000000000007bffffffffffffffffffffffffffffffffffffffffffffffffffffffff1916827bffffffffffffffffffffffffffffffffffffffffffffffffffffffff1916149050919050565b610f4b81611671565b610f8a576040517f08c379a0000000000000000000000000000000000000000000000000000000008152600401610f81906129e3565b60405180910390fd5b50565b600033905090565b816005600083815260200190815260200160002060006101000a81548173ffffffffffffffffffffffffffffffffffffffff021916908373ffffffffffffffffffffffffffffffffffffffff160217905550808273ffffffffffffffffffffffffffffffffffffffff16611008836108e1565b73ffffffffffffffffffffffffffffffffffffffff167f8c5be1e5ebec7d5bd14f71427d1e84f3dd0314c0f7b2291e5b200ac8c7c3b92560405160405180910390a45050565b611068828260405180602001604052806000815250611a38565b5050565b600080611078836108e1565b90508073ffffffffffffffffffffffffffffffffffffffff168473ffffffffffffffffffffffffffffffffffffffff1614806110ba57506110b98185610d6b565b5b806110f857508373ffffffffffffffffffffffffffffffffffffffff166110e0846106d2565b73ffffffffffffffffffffffffffffffffffffffff16145b91505092915050565b8273ffffffffffffffffffffffffffffffffffffffff16611121826108e1565b73ffffffffffffffffffffffffffffffffffffffff1614611177576040517f08c379a000000000000000000000000000000000000000000000000000000000815260040161116e906132a0565b60405180910390fd5b600073ffffffffffffffffffffffffffffffffffffffff168273ffffffffffffffffffffffffffffffffffffffff16036111e6576040517f08c379a00000000000000000000000000000000000000000000000000000000081526004016111dd90613332565b60405180910390fd5b6111f1838383611a93565b6111fc600082610f95565b6001600460008573ffffffffffffffffffffffffffffffffffffffff1673ffffffffffffffffffffffffffffffffffffffff168152602001908152602001600020600082825461124c9190613126565b925050819055506001600460008473ffffffffffffffffffffffffffffffffffffffff1673ffffffffffffffffffffffffffffffffffffffff16815260200190815260200160002060008282546112a39190613352565b92505081905550816003600083815260200190815260200160002060006101000a81548173ffffffffffffffffffffffffffffffffffffffff021916908373ffffffffffffffffffffffffffffffffffffffff160217905550808273ffffffffffffffffffffffffffffffffffffffff168473ffffffffffffffffffffffffffffffffffffffff167fddf252ad1be2c89b69c2b068fc378daa952ba7f163c4a11628f55a4df523b3ef60405160405180910390a4611362838383611a98565b505050565b61136f610f8d565b73ffffffffffffffffffffffffffffffffffffffff1661138d610aeb565b73ffffffffffffffffffffffffffffffffffffffff16146113e3576040517f08c379a00000000000000000000000000000000000000000000000000000000081526004016113da906133d2565b60405180910390fd5b565b60008060009054906101000a900473ffffffffffffffffffffffffffffffffffffffff169050816000806101000a81548173ffffffffffffffffffffffffffffffffffffffff021916908373ffffffffffffffffffffffffffffffffffffffff1602179055508173ffffffffffffffffffffffffffffffffffffffff168173ffffffffffffffffffffffffffffffffffffffff167f8be0079c531659141344cd1fd0a4f28419497f9722a3daafe3b4186f6b6457e060405160405180910390a35050565b8173ffffffffffffffffffffffffffffffffffffffff168373ffffffffffffffffffffffffffffffffffffffff1603611517576040517f08c379a000000000000000000000000000000000000000000000000000000000815260040161150e9061343e565b60405180910390fd5b80600660008573ffffffffffffffffffffffffffffffffffffffff1673ffffffffffffffffffffffffffffffffffffffff16815260200190815260200160002060008473ffffffffffffffffffffffffffffffffffffffff1673ffffffffffffffffffffffffffffffffffffffff16815260200190815260200160002060006101000a81548160ff0219169083151502179055508173ffffffffffffffffffffffffffffffffffffffff168373ffffffffffffffffffffffffffffffffffffffff167f17307eab39ab6107e8899845ad3d59bd9653f200f220920489ca2b5937696c31836040516116089190612034565b60405180910390a3505050565b611620848484611101565b61162c84848484611a9d565b61166b576040517f08c379a0000000000000000000000000000000000000000000000000000000008152600401611662906134d0565b60405180910390fd5b50505050565b60008073ffffffffffffffffffffffffffffffffffffffff166003600084815260200190815260200160002060009054906101000a900473ffffffffffffffffffffffffffffffffffffffff1673ffffffffffffffffffffffffffffffffffffffff1614159050919050565b60606000807f000000000000000000000000000000000000000000000000000000000000000073ffffffffffffffffffffffffffffffffffffffff1663e3f24f02856040518263ffffffff1660e01b815260040161173b919061223b565b600060405180830381865afa158015611758573d6000803e3d6000fd5b505050506040513d6000823e3d601f19601f820116820180604052508101906117819190613560565b91509150604051806080016040528060498152602001613a916049913982826040516020016117b293929190613670565b60405160208183030381529060405292505050919050565b60606117d582611c24565b6040516020016117e59190613703565b6040516020818303038152906040529050919050565b606061180682611c24565b6040516020016118169190613771565b6040516020818303038152906040529050919050565b6060600082510361184e5760405180602001604052806000815250905061199f565b6000604051806060016040528060408152602001613a51604091399050600060036002855161187d9190613352565b61188791906137cd565b600461189391906137fe565b905060006020826118a49190613352565b67ffffffffffffffff8111156118bd576118bc6122e0565b5b6040519080825280601f01601f1916602001820160405280156118ef5781602001600182028036833780820191505090505b509050818152600183018586518101602084015b8183101561195e576003830192508251603f8160121c168501518253600182019150603f81600c1c168501518253600182019150603f8160061c168501518253600182019150603f8116850151825360018201915050611903565b600389510660018114611978576002811461198857611993565b613d3d60f01b6002830352611993565b603d60f81b60018303525b50505050508093505050505b919050565b6000600660008473ffffffffffffffffffffffffffffffffffffffff1673ffffffffffffffffffffffffffffffffffffffff16815260200190815260200160002060008373ffffffffffffffffffffffffffffffffffffffff1673ffffffffffffffffffffffffffffffffffffffff16815260200190815260200160002060009054906101000a900460ff16905092915050565b611a428383611d84565b611a4f6000848484611a9d565b611a8e576040517f08c379a0000000000000000000000000000000000000000000000000000000008152600401611a85906134d0565b60405180910390fd5b505050565b505050565b505050565b6000611abe8473ffffffffffffffffffffffffffffffffffffffff16611f5d565b15611c17578373ffffffffffffffffffffffffffffffffffffffff1663150b7a02611ae7610f8d565b8786866040518563ffffffff1660e01b8152600401611b09949392919061388a565b6020604051808303816000875af1925050508015611b4557506040513d601f19601f82011682018060405250810190611b4291906138eb565b60015b611bc7573d8060008114611b75576040519150601f19603f3d011682016040523d82523d6000602084013e611b7a565b606091505b506000815103611bbf576040517f08c379a0000000000000000000000000000000000000000000000000000000008152600401611bb6906134d0565b60405180910390fd5b805181602001fd5b63150b7a0260e01b7bffffffffffffffffffffffffffffffffffffffffffffffffffffffff1916817bffffffffffffffffffffffffffffffffffffffffffffffffffffffff191614915050611c1c565b600190505b949350505050565b606060008203611c6b576040518060400160405280600181526020017f30000000000000000000000000000000000000000000000000000000000000008152509050611d7f565b600082905060005b60008214611c9d578080611c86906128bd565b915050600a82611c9691906137cd565b9150611c73565b60008167ffffffffffffffff811115611cb957611cb86122e0565b5b6040519080825280601f01601f191660200182016040528015611ceb5781602001600182028036833780820191505090505b5090505b60008514611d7857600182611d049190613126565b9150600a85611d139190613918565b6030611d1f9190613352565b60f81b818381518110611d3557611d34613949565b5b60200101907effffffffffffffffffffffffffffffffffffffffffffffffffffffffffffff1916908160001a905350600a85611d7191906137cd565b9450611cef565b8093505050505b919050565b600073ffffffffffffffffffffffffffffffffffffffff168273ffffffffffffffffffffffffffffffffffffffff1603611df3576040517f08c379a0000000000000000000000000000000000000000000000000000000008152600401611dea906139c4565b60405180910390fd5b611dfc81611671565b15611e3c576040517f08c379a0000000000000000000000000000000000000000000000000000000008152600401611e3390613a30565b60405180910390fd5b611e4860008383611a93565b6001600460008473ffffffffffffffffffffffffffffffffffffffff1673ffffffffffffffffffffffffffffffffffffffff1681526020019081526020016000206000828254611e989190613352565b92505081905550816003600083815260200190815260200160002060006101000a81548173ffffffffffffffffffffffffffffffffffffffff021916908373ffffffffffffffffffffffffffffffffffffffff160217905550808273ffffffffffffffffffffffffffffffffffffffff16600073ffffffffffffffffffffffffffffffffffffffff167fddf252ad1be2c89b69c2b068fc378daa952ba7f163c4a11628f55a4df523b3ef60405160405180910390a4611f5960008383611a98565b5050565b6000808273ffffffffffffffffffffffffffffffffffffffff163b119050919050565b6000604051905090565b600080fd5b600080fd5b60007fffffffff0000000000000000000000000000000000000000000000000000000082169050919050565b611fc981611f94565b8114611fd457600080fd5b50565b600081359050611fe681611fc0565b92915050565b60006020828403121561200257612001611f8a565b5b600061201084828501611fd7565b91505092915050565b60008115159050919050565b61202e81612019565b82525050565b60006020820190506120496000830184612025565b92915050565b600081519050919050565b600082825260208201905092915050565b60005b8381101561208957808201518184015260208101905061206e565b60008484015250505050565b6000601f19601f8301169050919050565b60006120b18261204f565b6120bb818561205a565b93506120cb81856020860161206b565b6120d481612095565b840191505092915050565b600060208201905081810360008301526120f981846120a6565b905092915050565b6000819050919050565b61211481612101565b811461211f57600080fd5b50565b6000813590506121318161210b565b92915050565b60006020828403121561214d5761214c611f8a565b5b600061215b84828501612122565b91505092915050565b600073ffffffffffffffffffffffffffffffffffffffff82169050919050565b600061218f82612164565b9050919050565b61219f81612184565b82525050565b60006020820190506121ba6000830184612196565b92915050565b6121c981612184565b81146121d457600080fd5b50565b6000813590506121e6816121c0565b92915050565b6000806040838503121561220357612202611f8a565b5b6000612211858286016121d7565b925050602061222285828601612122565b9150509250929050565b61223581612101565b82525050565b6000602082019050612250600083018461222c565b92915050565b60008060006060848603121561226f5761226e611f8a565b5b600061227d868287016121d7565b935050602061228e868287016121d7565b925050604061229f86828701612122565b9150509250925092565b6000602082840312156122bf576122be611f8a565b5b60006122cd848285016121d7565b91505092915050565b600080fd5b600080fd5b7f4e487b7100000000000000000000000000000000000000000000000000000000600052604160045260246000fd5b61231882612095565b810181811067ffffffffffffffff82111715612337576123366122e0565b5b80604052505050565b600061234a611f80565b9050612356828261230f565b919050565b600067ffffffffffffffff821115612376576123756122e0565b5b61237f82612095565b9050602081019050919050565b82818337600083830152505050565b60006123ae6123a98461235b565b612340565b9050828152602081018484840111156123ca576123c96122db565b5b6123d584828561238c565b509392505050565b600082601f8301126123f2576123f16122d6565b5b813561240284826020860161239b565b91505092915050565b60006020828403121561242157612420611f8a565b5b600082013567ffffffffffffffff81111561243f5761243e611f8f565b5b61244b848285016123dd565b91505092915050565b61245d81612019565b811461246857600080fd5b50565b60008135905061247a81612454565b92915050565b6000806040838503121561249757612496611f8a565b5b60006124a5858286016121d7565b92505060206124b68582860161246b565b9150509250929050565b6000819050919050565b60006124e56124e06124db84612164565b6124c0565b612164565b9050919050565b60006124f7826124ca565b9050919050565b6000612509826124ec565b9050919050565b612519816124fe565b82525050565b60006020820190506125346000830184612510565b92915050565b6000612545826124ec565b9050919050565b6125558161253a565b82525050565b6000602082019050612570600083018461254c565b92915050565b600067ffffffffffffffff821115612591576125906122e0565b5b61259a82612095565b9050602081019050919050565b60006125ba6125b584612576565b612340565b9050828152602081018484840111156125d6576125d56122db565b5b6125e184828561238c565b509392505050565b600082601f8301126125fe576125fd6122d6565b5b813561260e8482602086016125a7565b91505092915050565b6000806000806080858703121561263157612630611f8a565b5b600061263f878288016121d7565b9450506020612650878288016121d7565b935050604061266187828801612122565b925050606085013567ffffffffffffffff81111561268257612681611f8f565b5b61268e878288016125e9565b91505092959194509250565b600060408201905081810360008301526126b481856120a6565b90506126c3602083018461222c565b9392505050565b600080604083850312156126e1576126e0611f8a565b5b60006126ef858286016121d7565b9250506020612700858286016121d7565b9150509250929050565b7f4e487b7100000000000000000000000000000000000000000000000000000000600052602260045260246000fd5b6000600282049050600182168061275157607f821691505b6020821081036127645761276361270a565b5b50919050565b7f4552433732313a20617070726f76616c20746f2063757272656e74206f776e6560008201527f7200000000000000000000000000000000000000000000000000000000000000602082015250565b60006127c660218361205a565b91506127d18261276a565b604082019050919050565b600060208201905081810360008301526127f5816127b9565b9050919050565b7f4552433732313a20617070726f76652063616c6c6572206973206e6f7420746f60008201527f6b656e206f776e6572206e6f7220617070726f76656420666f7220616c6c0000602082015250565b6000612858603e8361205a565b9150612863826127fc565b604082019050919050565b600060208201905081810360008301526128878161284b565b9050919050565b7f4e487b7100000000000000000000000000000000000000000000000000000000600052601160045260246000fd5b60006128c882612101565b91507fffffffffffffffffffffffffffffffffffffffffffffffffffffffffffffffff82036128fa576128f961288e565b5b600182019050919050565b7f4552433732313a2063616c6c6572206973206e6f7420746f6b656e206f776e6560008201527f72206e6f7220617070726f766564000000000000000000000000000000000000602082015250565b6000612961602e8361205a565b915061296c82612905565b604082019050919050565b6000602082019050818103600083015261299081612954565b9050919050565b7f4552433732313a20696e76616c696420746f6b656e2049440000000000000000600082015250565b60006129cd60188361205a565b91506129d882612997565b602082019050919050565b600060208201905081810360008301526129fc816129c0565b9050919050565b7f4552433732313a2061646472657373207a65726f206973206e6f74206120766160008201527f6c6964206f776e65720000000000000000000000000000000000000000000000602082015250565b6000612a5f60298361205a565b9150612a6a82612a03565b604082019050919050565b60006020820190508181036000830152612a8e81612a52565b9050919050565b60008190508160005260206000209050919050565b60006020601f8301049050919050565b600082821b905092915050565b600060088302612af77fffffffffffffffffffffffffffffffffffffffffffffffffffffffffffffffff82612aba565b612b018683612aba565b95508019841693508086168417925050509392505050565b6000612b34612b2f612b2a84612101565b6124c0565b612101565b9050919050565b6000819050919050565b612b4e83612b19565b612b62612b5a82612b3b565b848454612ac7565b825550505050565b600090565b612b77612b6a565b612b82818484612b45565b505050565b5b81811015612ba657612b9b600082612b6f565b600181019050612b88565b5050565b601f821115612beb57612bbc81612a95565b612bc584612aaa565b81016020851015612bd4578190505b612be8612be085612aaa565b830182612b87565b50505b505050565b600082821c905092915050565b6000612c0e60001984600802612bf0565b1980831691505092915050565b6000612c278383612bfd565b9150826002028217905092915050565b612c408261204f565b67ffffffffffffffff811115612c5957612c586122e0565b5b612c638254612739565b612c6e828285612baa565b600060209050601f831160018114612ca15760008415612c8f578287015190505b612c998582612c1b565b865550612d01565b601f198416612caf86612a95565b60005b82811015612cd757848901518255600182019150602085019450602081019050612cb2565b86831015612cf45784890151612cf0601f891682612bfd565b8355505b6001600288020188555050505b505050505050565b7f50726f7669646572546f6b656e2e746f6b656e5552493a206e6f6e657869737460008201527f656e7420746f6b656e0000000000000000000000000000000000000000000000602082015250565b6000612d6560298361205a565b9150612d7082612d09565b604082019050919050565b60006020820190508181036000830152612d9481612d58565b9050919050565b600081905092915050565b7f7b226e616d65223a220000000000000000000000000000000000000000000000600082015250565b6000612ddc600983612d9b565b9150612de782612da6565b600982019050919050565b6000612dfd8261204f565b612e078185612d9b565b9350612e1781856020860161206b565b80840191505092915050565b7f222c226465736372697074696f6e223a22000000000000000000000000000000600082015250565b6000612e59601183612d9b565b9150612e6482612e23565b601182019050919050565b60008154612e7c81612739565b612e868186612d9b565b94506001821660008114612ea15760018114612eb657612ee9565b60ff1983168652811515820286019350612ee9565b612ebf85612a95565b60005b83811015612ee157815481890152600182019150602081019050612ec2565b838801955050505b50505092915050565b7f222c2261747472696275746573223a5b00000000000000000000000000000000600082015250565b6000612f28601083612d9b565b9150612f3382612ef2565b601082019050919050565b600081519050919050565b600081905092915050565b6000612f5f82612f3e565b612f698185612f49565b9350612f7981856020860161206b565b80840191505092915050565b7f5d2c22696d616765223a22646174613a696d6167652f7376672b786d6c3b626160008201527f736536342c000000000000000000000000000000000000000000000000000000602082015250565b6000612fe1602583612d9b565b9150612fec82612f85565b602582019050919050565b7f227d000000000000000000000000000000000000000000000000000000000000600082015250565b600061302d600283612d9b565b915061303882612ff7565b600282019050919050565b600061304e82612dcf565b915061305a8287612df2565b915061306582612e4c565b91506130718286612e6f565b915061307c82612f1b565b91506130888285612f54565b915061309382612fd4565b915061309f8284612df2565b91506130aa82613020565b915081905095945050505050565b7f646174613a6170706c69636174696f6e2f6a736f6e3b6261736536342c000000600082015250565b60006130ee601d83612d9b565b91506130f9826130b8565b601d82019050919050565b600061310f826130e1565b915061311b8284612df2565b915081905092915050565b600061313182612101565b915061313c83612101565b92508282039050818111156131545761315361288e565b5b92915050565b600081519050613169816121c0565b92915050565b60006020828403121561318557613184611f8a565b5b60006131938482850161315a565b91505092915050565b7f4f776e61626c653a206e6577206f776e657220697320746865207a65726f206160008201527f6464726573730000000000000000000000000000000000000000000000000000602082015250565b60006131f860268361205a565b91506132038261319c565b604082019050919050565b60006020820190508181036000830152613227816131eb565b9050919050565b7f4552433732313a207472616e736665722066726f6d20696e636f72726563742060008201527f6f776e6572000000000000000000000000000000000000000000000000000000602082015250565b600061328a60258361205a565b91506132958261322e565b604082019050919050565b600060208201905081810360008301526132b98161327d565b9050919050565b7f4552433732313a207472616e7366657220746f20746865207a65726f2061646460008201527f7265737300000000000000000000000000000000000000000000000000000000602082015250565b600061331c60248361205a565b9150613327826132c0565b604082019050919050565b6000602082019050818103600083015261334b8161330f565b9050919050565b600061335d82612101565b915061336883612101565b92508282019050808211156133805761337f61288e565b5b92915050565b7f4f776e61626c653a2063616c6c6572206973206e6f7420746865206f776e6572600082015250565b60006133bc60208361205a565b91506133c782613386565b602082019050919050565b600060208201905081810360008301526133eb816133af565b9050919050565b7f4552433732313a20617070726f766520746f2063616c6c657200000000000000600082015250565b600061342860198361205a565b9150613433826133f2565b602082019050919050565b600060208201905081810360008301526134578161341b565b9050919050565b7f4552433732313a207472616e7366657220746f206e6f6e20455243373231526560008201527f63656976657220696d706c656d656e7465720000000000000000000000000000602082015250565b60006134ba60328361205a565b91506134c58261345e565b604082019050919050565b600060208201905081810360008301526134e9816134ad565b9050919050565b60006135036134fe8461235b565b612340565b90508281526020810184848401111561351f5761351e6122db565b5b61352a84828561206b565b509392505050565b600082601f830112613547576135466122d6565b5b81516135578482602086016134f0565b91505092915050565b6000806040838503121561357757613576611f8a565b5b600083015167ffffffffffffffff81111561359557613594611f8f565b5b6135a185828601613532565b925050602083015167ffffffffffffffff8111156135c2576135c1611f8f565b5b6135ce85828601613532565b9150509250929050565b7f3c2f646566733e0a3c75736520687265663d2223000000000000000000000000600082015250565b600061360e601483612d9b565b9150613619826135d8565b601482019050919050565b7f22202f3e0a3c2f7376673e0a0000000000000000000000000000000000000000600082015250565b600061365a600c83612d9b565b915061366582613624565b600c82019050919050565b600061367c8286612df2565b91506136888285612df2565b915061369382613601565b915061369f8284612df2565b91506136aa8261364d565b9150819050949350505050565b7f53706c6174746572200000000000000000000000000000000000000000000000600082015250565b60006136ed600983612d9b565b91506136f8826136b7565b600982019050919050565b600061370e826136e0565b915061371a8284612df2565b915081905092915050565b7f7b2274726169745f74797065223a2253656564222c2276616c7565223a220000600082015250565b600061375b601e83612d9b565b915061376682613725565b601e82019050919050565b600061377c8261374e565b91506137888284612df2565b915061379382613020565b915081905092915050565b7f4e487b7100000000000000000000000000000000000000000000000000000000600052601260045260246000fd5b60006137d882612101565b91506137e383612101565b9250826137f3576137f261379e565b5b828204905092915050565b600061380982612101565b915061381483612101565b925082820261382281612101565b915082820484148315176138395761383861288e565b5b5092915050565b600082825260208201905092915050565b600061385c82612f3e565b6138668185613840565b935061387681856020860161206b565b61387f81612095565b840191505092915050565b600060808201905061389f6000830187612196565b6138ac6020830186612196565b6138b9604083018561222c565b81810360608301526138cb8184613851565b905095945050505050565b6000815190506138e581611fc0565b92915050565b60006020828403121561390157613900611f8a565b5b600061390f848285016138d6565b91505092915050565b600061392382612101565b915061392e83612101565b92508261393e5761393d61379e565b5b828206905092915050565b7f4e487b7100000000000000000000000000000000000000000000000000000000600052603260045260246000fd5b7f4552433732313a206d696e7420746f20746865207a65726f2061646472657373600082015250565b60006139ae60208361205a565b91506139b982613978565b602082019050919050565b600060208201905081810360008301526139dd816139a1565b9050919050565b7f4552433732313a20746f6b656e20616c7265616479206d696e74656400000000600082015250565b6000613a1a601c8361205a565b9150613a25826139e4565b602082019050919050565b60006020820190508181036000830152613a4981613a0d565b905091905056fe4142434445464748494a4b4c4d4e4f505152535455565758595a6162636465666768696a6b6c6d6e6f707172737475767778797a303132333435363738392b2f3c7376672076696577426f783d2230203020313032342031303234222020786d6c6e733d22687474703a2f2f7777772e77332e6f72672f323030302f737667223e0a3c646566733e0aa264697066735822122069e21a70c978dc8ffb1804f256ab4a85eef8038a80f2de5f7e6a9665d428d37564736f6c634300081100335468697320697320612070617274206f662046756c6c79204f6e2d636861696e2047656e65726174697665204172742070726f6a656374202868747470733a2f2f66756c6c796f6e636861696e2e78797a2f292e",
  "linkReferences": {},
  "deployedLinkReferences": {}
}