{
  "_format": "hh-sol-artifact-1",
  "contractName": "SplatterToken",
  "sourceName": "contracts/SplatterToken.sol",
  "abi": [
    {
      "inputs": [
        {
          "internalType": "contract IAssetProvider",
          "name": "_assetProvider",
          "type": "address"
        },
        {
          "internalType": "contract IProxyRegistry",
          "name": "_proxyRegistry",
          "type": "address"
        }
      ],
      "stateMutability": "nonpayable",
      "type": "constructor"
    },
    {
      "anonymous": false,
      "inputs": [
        {
          "indexed": true,
          "internalType": "address",
          "name": "owner",
          "type": "address"
        },
        {
          "indexed": true,
          "internalType": "address",
          "name": "approved",
          "type": "address"
        },
        {
          "indexed": true,
          "internalType": "uint256",
          "name": "tokenId",
          "type": "uint256"
        }
      ],
      "name": "Approval",
      "type": "event"
    },
    {
      "anonymous": false,
      "inputs": [
        {
          "indexed": true,
          "internalType": "address",
          "name": "owner",
          "type": "address"
        },
        {
          "indexed": true,
          "internalType": "address",
          "name": "operator",
          "type": "address"
        },
        {
          "indexed": false,
          "internalType": "bool",
          "name": "approved",
          "type": "bool"
        }
      ],
      "name": "ApprovalForAll",
      "type": "event"
    },
    {
      "anonymous": false,
      "inputs": [
        {
          "indexed": true,
          "internalType": "address",
          "name": "previousOwner",
          "type": "address"
        },
        {
          "indexed": true,
          "internalType": "address",
          "name": "newOwner",
          "type": "address"
        }
      ],
      "name": "OwnershipTransferred",
      "type": "event"
    },
    {
      "anonymous": false,
      "inputs": [
        {
          "indexed": true,
          "internalType": "address",
          "name": "from",
          "type": "address"
        },
        {
          "indexed": true,
          "internalType": "address",
          "name": "to",
          "type": "address"
        },
        {
          "indexed": true,
          "internalType": "uint256",
          "name": "tokenId",
          "type": "uint256"
        }
      ],
      "name": "Transfer",
      "type": "event"
    },
    {
      "inputs": [
        {
          "internalType": "address",
          "name": "to",
          "type": "address"
        },
        {
          "internalType": "uint256",
          "name": "tokenId",
          "type": "uint256"
        }
      ],
      "name": "approve",
      "outputs": [],
      "stateMutability": "nonpayable",
      "type": "function"
    },
    {
      "inputs": [],
      "name": "assetProvider",
      "outputs": [
        {
          "internalType": "contract IAssetProvider",
          "name": "",
          "type": "address"
        }
      ],
      "stateMutability": "view",
      "type": "function"
    },
    {
      "inputs": [
        {
          "internalType": "address",
          "name": "owner",
          "type": "address"
        }
      ],
      "name": "balanceOf",
      "outputs": [
        {
          "internalType": "uint256",
          "name": "",
          "type": "uint256"
        }
      ],
      "stateMutability": "view",
      "type": "function"
    },
    {
      "inputs": [
        {
          "internalType": "uint256",
          "name": "_tokenId",
          "type": "uint256"
        }
      ],
      "name": "debugTokenURI",
      "outputs": [
        {
          "internalType": "string",
          "name": "uri",
          "type": "string"
        },
        {
          "internalType": "uint256",
          "name": "gas",
          "type": "uint256"
        }
      ],
      "stateMutability": "view",
      "type": "function"
    },
    {
      "inputs": [],
      "name": "description",
      "outputs": [
        {
          "internalType": "string",
          "name": "",
          "type": "string"
        }
      ],
      "stateMutability": "view",
      "type": "function"
    },
    {
      "inputs": [
        {
          "internalType": "uint256",
          "name": "tokenId",
          "type": "uint256"
        }
      ],
      "name": "getApproved",
      "outputs": [
        {
          "internalType": "address",
          "name": "",
          "type": "address"
        }
      ],
      "stateMutability": "view",
      "type": "function"
    },
    {
      "inputs": [
        {
          "internalType": "address",
          "name": "owner",
          "type": "address"
        },
        {
          "internalType": "address",
          "name": "operator",
          "type": "address"
        }
      ],
      "name": "isApprovedForAll",
      "outputs": [
        {
          "internalType": "bool",
          "name": "",
          "type": "bool"
        }
      ],
      "stateMutability": "view",
      "type": "function"
    },
    {
      "inputs": [],
      "name": "mint",
      "outputs": [],
      "stateMutability": "payable",
      "type": "function"
    },
    {
      "inputs": [],
      "name": "name",
      "outputs": [
        {
          "internalType": "string",
          "name": "",
          "type": "string"
        }
      ],
      "stateMutability": "view",
      "type": "function"
    },
    {
      "inputs": [],
      "name": "owner",
      "outputs": [
        {
          "internalType": "address",
          "name": "",
          "type": "address"
        }
      ],
      "stateMutability": "view",
      "type": "function"
    },
    {
      "inputs": [
        {
          "internalType": "uint256",
          "name": "tokenId",
          "type": "uint256"
        }
      ],
      "name": "ownerOf",
      "outputs": [
        {
          "internalType": "address",
          "name": "",
          "type": "address"
        }
      ],
      "stateMutability": "view",
      "type": "function"
    },
    {
      "inputs": [],
      "name": "proxyRegistry",
      "outputs": [
        {
          "internalType": "contract IProxyRegistry",
          "name": "",
          "type": "address"
        }
      ],
      "stateMutability": "view",
      "type": "function"
    },
    {
      "inputs": [],
      "name": "renounceOwnership",
      "outputs": [],
      "stateMutability": "nonpayable",
      "type": "function"
    },
    {
      "inputs": [
        {
          "internalType": "address",
          "name": "from",
          "type": "address"
        },
        {
          "internalType": "address",
          "name": "to",
          "type": "address"
        },
        {
          "internalType": "uint256",
          "name": "tokenId",
          "type": "uint256"
        }
      ],
      "name": "safeTransferFrom",
      "outputs": [],
      "stateMutability": "nonpayable",
      "type": "function"
    },
    {
      "inputs": [
        {
          "internalType": "address",
          "name": "from",
          "type": "address"
        },
        {
          "internalType": "address",
          "name": "to",
          "type": "address"
        },
        {
          "internalType": "uint256",
          "name": "tokenId",
          "type": "uint256"
        },
        {
          "internalType": "bytes",
          "name": "data",
          "type": "bytes"
        }
      ],
      "name": "safeTransferFrom",
      "outputs": [],
      "stateMutability": "nonpayable",
      "type": "function"
    },
    {
      "inputs": [
        {
          "internalType": "address",
          "name": "operator",
          "type": "address"
        },
        {
          "internalType": "bool",
          "name": "approved",
          "type": "bool"
        }
      ],
      "name": "setApprovalForAll",
      "outputs": [],
      "stateMutability": "nonpayable",
      "type": "function"
    },
    {
      "inputs": [
        {
          "internalType": "string",
          "name": "_description",
          "type": "string"
        }
      ],
      "name": "setDescription",
      "outputs": [],
      "stateMutability": "nonpayable",
      "type": "function"
    },
    {
      "inputs": [
        {
          "internalType": "bytes4",
          "name": "interfaceId",
          "type": "bytes4"
        }
      ],
      "name": "supportsInterface",
      "outputs": [
        {
          "internalType": "bool",
          "name": "",
          "type": "bool"
        }
      ],
      "stateMutability": "view",
      "type": "function"
    },
    {
      "inputs": [],
      "name": "symbol",
      "outputs": [
        {
          "internalType": "string",
          "name": "",
          "type": "string"
        }
      ],
      "stateMutability": "view",
      "type": "function"
    },
    {
      "inputs": [
        {
          "internalType": "uint256",
          "name": "_tokenId",
          "type": "uint256"
        }
      ],
      "name": "tokenURI",
      "outputs": [
        {
          "internalType": "string",
          "name": "",
          "type": "string"
        }
      ],
      "stateMutability": "view",
      "type": "function"
    },
    {
      "inputs": [
        {
          "internalType": "address",
          "name": "from",
          "type": "address"
        },
        {
          "internalType": "address",
          "name": "to",
          "type": "address"
        },
        {
          "internalType": "uint256",
          "name": "tokenId",
          "type": "uint256"
        }
      ],
      "name": "transferFrom",
      "outputs": [],
      "stateMutability": "nonpayable",
      "type": "function"
    },
    {
      "inputs": [
        {
          "internalType": "address",
          "name": "newOwner",
          "type": "address"
        }
      ],
      "name": "transferOwnership",
      "outputs": [],
      "stateMutability": "nonpayable",
      "type": "function"
    }
  ],
  "bytecode": "0x60c06040523480156200001157600080fd5b506040516200422238038062004222833981810160405281019062000037919062000323565b81816040518060400160405280600881526020017f53706c61747465720000000000000000000000000000000000000000000000008152506040518060400160405280600881526020017f53504c4154544552000000000000000000000000000000000000000000000000815250838383838181620000cb620000bf6200019460201b60201c565b6200019c60201b60201c565b8160019081620000dc9190620005e4565b508060029081620000ee9190620005e4565b5050508373ffffffffffffffffffffffffffffffffffffffff1660a08173ffffffffffffffffffffffffffffffffffffffff16815250508273ffffffffffffffffffffffffffffffffffffffff1660808173ffffffffffffffffffffffffffffffffffffffff16815250505050505050505050604051806080016040528060548152602001620041ce60549139600790816200018b9190620005e4565b505050620006cb565b600033905090565b60008060009054906101000a900473ffffffffffffffffffffffffffffffffffffffff169050816000806101000a81548173ffffffffffffffffffffffffffffffffffffffff021916908373ffffffffffffffffffffffffffffffffffffffff1602179055508173ffffffffffffffffffffffffffffffffffffffff168173ffffffffffffffffffffffffffffffffffffffff167f8be0079c531659141344cd1fd0a4f28419497f9722a3daafe3b4186f6b6457e060405160405180910390a35050565b600080fd5b600073ffffffffffffffffffffffffffffffffffffffff82169050919050565b6000620002928262000265565b9050919050565b6000620002a68262000285565b9050919050565b620002b88162000299565b8114620002c457600080fd5b50565b600081519050620002d881620002ad565b92915050565b6000620002eb8262000285565b9050919050565b620002fd81620002de565b81146200030957600080fd5b50565b6000815190506200031d81620002f2565b92915050565b600080604083850312156200033d576200033c62000260565b5b60006200034d85828601620002c7565b925050602062000360858286016200030c565b9150509250929050565b600081519050919050565b7f4e487b7100000000000000000000000000000000000000000000000000000000600052604160045260246000fd5b7f4e487b7100000000000000000000000000000000000000000000000000000000600052602260045260246000fd5b60006002820490506001821680620003ec57607f821691505b602082108103620004025762000401620003a4565b5b50919050565b60008190508160005260206000209050919050565b60006020601f8301049050919050565b600082821b905092915050565b6000600883026200046c7fffffffffffffffffffffffffffffffffffffffffffffffffffffffffffffffff826200042d565b6200047886836200042d565b95508019841693508086168417925050509392505050565b6000819050919050565b6000819050919050565b6000620004c5620004bf620004b98462000490565b6200049a565b62000490565b9050919050565b6000819050919050565b620004e183620004a4565b620004f9620004f082620004cc565b8484546200043a565b825550505050565b600090565b6200051062000501565b6200051d818484620004d6565b505050565b5b8181101562000545576200053960008262000506565b60018101905062000523565b5050565b601f82111562000594576200055e8162000408565b62000569846200041d565b8101602085101562000579578190505b6200059162000588856200041d565b83018262000522565b50505b505050565b600082821c905092915050565b6000620005b96000198460080262000599565b1980831691505092915050565b6000620005d48383620005a6565b9150826002028217905092915050565b620005ef826200036a565b67ffffffffffffffff8111156200060b576200060a62000375565b5b620006178254620003d3565b6200062482828562000549565b600060209050601f8311600181146200065c576000841562000647578287015190505b620006538582620005c6565b865550620006c3565b601f1984166200066c8662000408565b60005b8281101562000696578489015182556001820191506020850194506020810190506200066f565b86831015620006b65784890151620006b2601f891682620005a6565b8355505b6001600288020188555050505b505050505050565b60805160a051613acf620006ff60003960008181610b9901526116a4015260008181610bbd0152610d460152613acf6000f3fe6080604052600436106101355760003560e01c80638da5cb5b116100ab578063b50cbd9f1161006f578063b50cbd9f146103f3578063b88d4fde1461041e578063c87b56dd14610447578063cc44ab4114610484578063e985e9c5146104c2578063f2fde38b146104ff57610135565b80638da5cb5b1461032057806390c3f38f1461034b57806395d89b4114610374578063a22cb4651461039f578063a370f7d7146103c857610135565b806323b872dd116100fd57806323b872dd1461021257806342842e0e1461023b5780636352211e1461026457806370a08231146102a1578063715018a6146102de5780637284e416146102f557610135565b806301ffc9a71461013a57806306fdde0314610177578063081812fc146101a2578063095ea7b3146101df5780631249c58b14610208575b600080fd5b34801561014657600080fd5b50610161600480360381019061015c9190611fac565b610528565b60405161016e9190611ff4565b60405180910390f35b34801561018357600080fd5b5061018c61060a565b604051610199919061209f565b60405180910390f35b3480156101ae57600080fd5b506101c960048036038101906101c491906120f7565b61069c565b6040516101d69190612165565b60405180910390f35b3480156101eb57600080fd5b50610206600480360381019061020191906121ac565b6106e2565b005b6102106107f9565b005b34801561021e57600080fd5b50610239600480360381019061023491906121ec565b610821565b005b34801561024757600080fd5b50610262600480360381019061025d91906121ec565b610881565b005b34801561027057600080fd5b5061028b600480360381019061028691906120f7565b6108a1565b6040516102989190612165565b60405180910390f35b3480156102ad57600080fd5b506102c860048036038101906102c3919061223f565b610952565b6040516102d5919061227b565b60405180910390f35b3480156102ea57600080fd5b506102f3610a09565b005b34801561030157600080fd5b5061030a610a1d565b604051610317919061209f565b60405180910390f35b34801561032c57600080fd5b50610335610aab565b6040516103429190612165565b60405180910390f35b34801561035757600080fd5b50610372600480360381019061036d91906123cb565b610ad4565b005b34801561038057600080fd5b50610389610aef565b604051610396919061209f565b60405180910390f35b3480156103ab57600080fd5b506103c660048036038101906103c19190612440565b610b81565b005b3480156103d457600080fd5b506103dd610b97565b6040516103ea91906124df565b60405180910390f35b3480156103ff57600080fd5b50610408610bbb565b604051610415919061251b565b60405180910390f35b34801561042a57600080fd5b50610445600480360381019061044091906125d7565b610bdf565b005b34801561045357600080fd5b5061046e600480360381019061046991906120f7565b610c41565b60405161047b919061209f565b60405180910390f35b34801561049057600080fd5b506104ab60048036038101906104a691906120f7565b610d06565b6040516104b992919061265a565b60405180910390f35b3480156104ce57600080fd5b506104e960048036038101906104e4919061268a565b610d2b565b6040516104f69190611ff4565b60405180910390f35b34801561050b57600080fd5b506105266004803603810190610521919061223f565b610e15565b005b60007f80ac58cd000000000000000000000000000000000000000000000000000000007bffffffffffffffffffffffffffffffffffffffffffffffffffffffff1916827bffffffffffffffffffffffffffffffffffffffffffffffffffffffff191614806105f357507f5b5e139f000000000000000000000000000000000000000000000000000000007bffffffffffffffffffffffffffffffffffffffffffffffffffffffff1916827bffffffffffffffffffffffffffffffffffffffffffffffffffffffff1916145b80610603575061060282610e98565b5b9050919050565b606060018054610619906126f9565b80601f0160208091040260200160405190810160405280929190818152602001828054610645906126f9565b80156106925780601f1061066757610100808354040283529160200191610692565b820191906000526020600020905b81548152906001019060200180831161067557829003601f168201915b5050505050905090565b60006106a782610f02565b6005600083815260200190815260200160002060009054906101000a900473ffffffffffffffffffffffffffffffffffffffff169050919050565b60006106ed826108a1565b90508073ffffffffffffffffffffffffffffffffffffffff168373ffffffffffffffffffffffffffffffffffffffff160361075d576040517f08c379a00000000000000000000000000000000000000000000000000000000081526004016107549061279c565b60405180910390fd5b8073ffffffffffffffffffffffffffffffffffffffff1661077c610f4d565b73ffffffffffffffffffffffffffffffffffffffff1614806107ab57506107aa816107a5610f4d565b610d2b565b5b6107ea576040517f08c379a00000000000000000000000000000000000000000000000000000000081526004016107e19061282e565b60405180910390fd5b6107f48383610f55565b505050565b60006008600081548092919061080e9061287d565b91905055905061081e338261100e565b50565b61083261082c610f4d565b8261102c565b610871576040517f08c379a000000000000000000000000000000000000000000000000000000000815260040161086890612937565b60405180910390fd5b61087c8383836110c1565b505050565b61089c83838360405180602001604052806000815250610bdf565b505050565b6000806003600084815260200190815260200160002060009054906101000a900473ffffffffffffffffffffffffffffffffffffffff169050600073ffffffffffffffffffffffffffffffffffffffff168173ffffffffffffffffffffffffffffffffffffffff1603610949576040517f08c379a0000000000000000000000000000000000000000000000000000000008152600401610940906129a3565b60405180910390fd5b80915050919050565b60008073ffffffffffffffffffffffffffffffffffffffff168273ffffffffffffffffffffffffffffffffffffffff16036109c2576040517f08c379a00000000000000000000000000000000000000000000000000000000081526004016109b990612a35565b60405180910390fd5b600460008373ffffffffffffffffffffffffffffffffffffffff1673ffffffffffffffffffffffffffffffffffffffff168152602001908152602001600020549050919050565b610a11611327565b610a1b60006113a5565b565b60078054610a2a906126f9565b80601f0160208091040260200160405190810160405280929190818152602001828054610a56906126f9565b8015610aa35780601f10610a7857610100808354040283529160200191610aa3565b820191906000526020600020905b815481529060010190602001808311610a8657829003601f168201915b505050505081565b60008060009054906101000a900473ffffffffffffffffffffffffffffffffffffffff16905090565b610adc611327565b8060079081610aeb9190612bf7565b5050565b606060028054610afe906126f9565b80601f0160208091040260200160405190810160405280929190818152602001828054610b2a906126f9565b8015610b775780601f10610b4c57610100808354040283529160200191610b77565b820191906000526020600020905b815481529060010190602001808311610b5a57829003601f168201915b5050505050905090565b610b93610b8c610f4d565b8383611469565b5050565b7f000000000000000000000000000000000000000000000000000000000000000081565b7f000000000000000000000000000000000000000000000000000000000000000081565b610bf0610bea610f4d565b8361102c565b610c2f576040517f08c379a0000000000000000000000000000000000000000000000000000000008152600401610c2690612937565b60405180910390fd5b610c3b848484846115d5565b50505050565b6060610c4c82611631565b610c8b576040517f08c379a0000000000000000000000000000000000000000000000000000000008152600401610c8290612d3b565b60405180910390fd5b6000610c968361169d565b9050610cdf610ca48461178a565b6007610caf866117bb565b610cb8856117ec565b604051602001610ccb9493929190613003565b6040516020818303038152906040526117ec565b604051602001610cef91906130c4565b604051602081830303815290604052915050919050565b606060005a9050610d1683610c41565b91505a81610d2491906130e6565b9050915091565b60008173ffffffffffffffffffffffffffffffffffffffff167f000000000000000000000000000000000000000000000000000000000000000073ffffffffffffffffffffffffffffffffffffffff1663c4552791856040518263ffffffff1660e01b8152600401610d9d9190612165565b602060405180830381865afa158015610dba573d6000803e3d6000fd5b505050506040513d601f19601f82011682018060405250810190610dde919061312f565b73ffffffffffffffffffffffffffffffffffffffff1603610e025760019050610e0f565b610e0c8383611964565b90505b92915050565b610e1d611327565b600073ffffffffffffffffffffffffffffffffffffffff168173ffffffffffffffffffffffffffffffffffffffff1603610e8c576040517f08c379a0000000000000000000000000000000000000000000000000000000008152600401610e83906131ce565b60405180910390fd5b610e95816113a5565b50565b60007f01ffc9a7000000000000000000000000000000000000000000000000000000007bffffffffffffffffffffffffffffffffffffffffffffffffffffffff1916827bffffffffffffffffffffffffffffffffffffffffffffffffffffffff1916149050919050565b610f0b81611631565b610f4a576040517f08c379a0000000000000000000000000000000000000000000000000000000008152600401610f41906129a3565b60405180910390fd5b50565b600033905090565b816005600083815260200190815260200160002060006101000a81548173ffffffffffffffffffffffffffffffffffffffff021916908373ffffffffffffffffffffffffffffffffffffffff160217905550808273ffffffffffffffffffffffffffffffffffffffff16610fc8836108a1565b73ffffffffffffffffffffffffffffffffffffffff167f8c5be1e5ebec7d5bd14f71427d1e84f3dd0314c0f7b2291e5b200ac8c7c3b92560405160405180910390a45050565b6110288282604051806020016040528060008152506119f8565b5050565b600080611038836108a1565b90508073ffffffffffffffffffffffffffffffffffffffff168473ffffffffffffffffffffffffffffffffffffffff16148061107a57506110798185610d2b565b5b806110b857508373ffffffffffffffffffffffffffffffffffffffff166110a08461069c565b73ffffffffffffffffffffffffffffffffffffffff16145b91505092915050565b8273ffffffffffffffffffffffffffffffffffffffff166110e1826108a1565b73ffffffffffffffffffffffffffffffffffffffff1614611137576040517f08c379a000000000000000000000000000000000000000000000000000000000815260040161112e90613260565b60405180910390fd5b600073ffffffffffffffffffffffffffffffffffffffff168273ffffffffffffffffffffffffffffffffffffffff16036111a6576040517f08c379a000000000000000000000000000000000000000000000000000000000815260040161119d906132f2565b60405180910390fd5b6111b1838383611a53565b6111bc600082610f55565b6001600460008573ffffffffffffffffffffffffffffffffffffffff1673ffffffffffffffffffffffffffffffffffffffff168152602001908152602001600020600082825461120c91906130e6565b925050819055506001600460008473ffffffffffffffffffffffffffffffffffffffff1673ffffffffffffffffffffffffffffffffffffffff16815260200190815260200160002060008282546112639190613312565b92505081905550816003600083815260200190815260200160002060006101000a81548173ffffffffffffffffffffffffffffffffffffffff021916908373ffffffffffffffffffffffffffffffffffffffff160217905550808273ffffffffffffffffffffffffffffffffffffffff168473ffffffffffffffffffffffffffffffffffffffff167fddf252ad1be2c89b69c2b068fc378daa952ba7f163c4a11628f55a4df523b3ef60405160405180910390a4611322838383611a58565b505050565b61132f610f4d565b73ffffffffffffffffffffffffffffffffffffffff1661134d610aab565b73ffffffffffffffffffffffffffffffffffffffff16146113a3576040517f08c379a000000000000000000000000000000000000000000000000000000000815260040161139a90613392565b60405180910390fd5b565b60008060009054906101000a900473ffffffffffffffffffffffffffffffffffffffff169050816000806101000a81548173ffffffffffffffffffffffffffffffffffffffff021916908373ffffffffffffffffffffffffffffffffffffffff1602179055508173ffffffffffffffffffffffffffffffffffffffff168173ffffffffffffffffffffffffffffffffffffffff167f8be0079c531659141344cd1fd0a4f28419497f9722a3daafe3b4186f6b6457e060405160405180910390a35050565b8173ffffffffffffffffffffffffffffffffffffffff168373ffffffffffffffffffffffffffffffffffffffff16036114d7576040517f08c379a00000000000000000000000000000000000000000000000000000000081526004016114ce906133fe565b60405180910390fd5b80600660008573ffffffffffffffffffffffffffffffffffffffff1673ffffffffffffffffffffffffffffffffffffffff16815260200190815260200160002060008473ffffffffffffffffffffffffffffffffffffffff1673ffffffffffffffffffffffffffffffffffffffff16815260200190815260200160002060006101000a81548160ff0219169083151502179055508173ffffffffffffffffffffffffffffffffffffffff168373ffffffffffffffffffffffffffffffffffffffff167f17307eab39ab6107e8899845ad3d59bd9653f200f220920489ca2b5937696c31836040516115c89190611ff4565b60405180910390a3505050565b6115e08484846110c1565b6115ec84848484611a5d565b61162b576040517f08c379a000000000000000000000000000000000000000000000000000000000815260040161162290613490565b60405180910390fd5b50505050565b60008073ffffffffffffffffffffffffffffffffffffffff166003600084815260200190815260200160002060009054906101000a900473ffffffffffffffffffffffffffffffffffffffff1673ffffffffffffffffffffffffffffffffffffffff1614159050919050565b60606000807f000000000000000000000000000000000000000000000000000000000000000073ffffffffffffffffffffffffffffffffffffffff1663e3f24f02856040518263ffffffff1660e01b81526004016116fb919061227b565b600060405180830381865afa158015611718573d6000803e3d6000fd5b505050506040513d6000823e3d601f19601f820116820180604052508101906117419190613520565b91509150604051806080016040528060498152602001613a5160499139828260405160200161177293929190613630565b60405160208183030381529060405292505050919050565b606061179582611be4565b6040516020016117a591906136c3565b6040516020818303038152906040529050919050565b60606117c682611be4565b6040516020016117d69190613731565b6040516020818303038152906040529050919050565b6060600082510361180e5760405180602001604052806000815250905061195f565b6000604051806060016040528060408152602001613a11604091399050600060036002855161183d9190613312565b611847919061378d565b600461185391906137be565b905060006020826118649190613312565b67ffffffffffffffff81111561187d5761187c6122a0565b5b6040519080825280601f01601f1916602001820160405280156118af5781602001600182028036833780820191505090505b509050818152600183018586518101602084015b8183101561191e576003830192508251603f8160121c168501518253600182019150603f81600c1c168501518253600182019150603f8160061c168501518253600182019150603f81168501518253600182019150506118c3565b600389510660018114611938576002811461194857611953565b613d3d60f01b6002830352611953565b603d60f81b60018303525b50505050508093505050505b919050565b6000600660008473ffffffffffffffffffffffffffffffffffffffff1673ffffffffffffffffffffffffffffffffffffffff16815260200190815260200160002060008373ffffffffffffffffffffffffffffffffffffffff1673ffffffffffffffffffffffffffffffffffffffff16815260200190815260200160002060009054906101000a900460ff16905092915050565b611a028383611d44565b611a0f6000848484611a5d565b611a4e576040517f08c379a0000000000000000000000000000000000000000000000000000000008152600401611a4590613490565b60405180910390fd5b505050565b505050565b505050565b6000611a7e8473ffffffffffffffffffffffffffffffffffffffff16611f1d565b15611bd7578373ffffffffffffffffffffffffffffffffffffffff1663150b7a02611aa7610f4d565b8786866040518563ffffffff1660e01b8152600401611ac9949392919061384a565b6020604051808303816000875af1925050508015611b0557506040513d601f19601f82011682018060405250810190611b0291906138ab565b60015b611b87573d8060008114611b35576040519150601f19603f3d011682016040523d82523d6000602084013e611b3a565b606091505b506000815103611b7f576040517f08c379a0000000000000000000000000000000000000000000000000000000008152600401611b7690613490565b60405180910390fd5b805181602001fd5b63150b7a0260e01b7bffffffffffffffffffffffffffffffffffffffffffffffffffffffff1916817bffffffffffffffffffffffffffffffffffffffffffffffffffffffff191614915050611bdc565b600190505b949350505050565b606060008203611c2b576040518060400160405280600181526020017f30000000000000000000000000000000000000000000000000000000000000008152509050611d3f565b600082905060005b60008214611c5d578080611c469061287d565b915050600a82611c56919061378d565b9150611c33565b60008167ffffffffffffffff811115611c7957611c786122a0565b5b6040519080825280601f01601f191660200182016040528015611cab5781602001600182028036833780820191505090505b5090505b60008514611d3857600182611cc491906130e6565b9150600a85611cd391906138d8565b6030611cdf9190613312565b60f81b818381518110611cf557611cf4613909565b5b60200101907effffffffffffffffffffffffffffffffffffffffffffffffffffffffffffff1916908160001a905350600a85611d31919061378d565b9450611caf565b8093505050505b919050565b600073ffffffffffffffffffffffffffffffffffffffff168273ffffffffffffffffffffffffffffffffffffffff1603611db3576040517f08c379a0000000000000000000000000000000000000000000000000000000008152600401611daa90613984565b60405180910390fd5b611dbc81611631565b15611dfc576040517f08c379a0000000000000000000000000000000000000000000000000000000008152600401611df3906139f0565b60405180910390fd5b611e0860008383611a53565b6001600460008473ffffffffffffffffffffffffffffffffffffffff1673ffffffffffffffffffffffffffffffffffffffff1681526020019081526020016000206000828254611e589190613312565b92505081905550816003600083815260200190815260200160002060006101000a81548173ffffffffffffffffffffffffffffffffffffffff021916908373ffffffffffffffffffffffffffffffffffffffff160217905550808273ffffffffffffffffffffffffffffffffffffffff16600073ffffffffffffffffffffffffffffffffffffffff167fddf252ad1be2c89b69c2b068fc378daa952ba7f163c4a11628f55a4df523b3ef60405160405180910390a4611f1960008383611a58565b5050565b6000808273ffffffffffffffffffffffffffffffffffffffff163b119050919050565b6000604051905090565b600080fd5b600080fd5b60007fffffffff0000000000000000000000000000000000000000000000000000000082169050919050565b611f8981611f54565b8114611f9457600080fd5b50565b600081359050611fa681611f80565b92915050565b600060208284031215611fc257611fc1611f4a565b5b6000611fd084828501611f97565b91505092915050565b60008115159050919050565b611fee81611fd9565b82525050565b60006020820190506120096000830184611fe5565b92915050565b600081519050919050565b600082825260208201905092915050565b60005b8381101561204957808201518184015260208101905061202e565b60008484015250505050565b6000601f19601f8301169050919050565b60006120718261200f565b61207b818561201a565b935061208b81856020860161202b565b61209481612055565b840191505092915050565b600060208201905081810360008301526120b98184612066565b905092915050565b6000819050919050565b6120d4816120c1565b81146120df57600080fd5b50565b6000813590506120f1816120cb565b92915050565b60006020828403121561210d5761210c611f4a565b5b600061211b848285016120e2565b91505092915050565b600073ffffffffffffffffffffffffffffffffffffffff82169050919050565b600061214f82612124565b9050919050565b61215f81612144565b82525050565b600060208201905061217a6000830184612156565b92915050565b61218981612144565b811461219457600080fd5b50565b6000813590506121a681612180565b92915050565b600080604083850312156121c3576121c2611f4a565b5b60006121d185828601612197565b92505060206121e2858286016120e2565b9150509250929050565b60008060006060848603121561220557612204611f4a565b5b600061221386828701612197565b935050602061222486828701612197565b9250506040612235868287016120e2565b9150509250925092565b60006020828403121561225557612254611f4a565b5b600061226384828501612197565b91505092915050565b612275816120c1565b82525050565b6000602082019050612290600083018461226c565b92915050565b600080fd5b600080fd5b7f4e487b7100000000000000000000000000000000000000000000000000000000600052604160045260246000fd5b6122d882612055565b810181811067ffffffffffffffff821117156122f7576122f66122a0565b5b80604052505050565b600061230a611f40565b905061231682826122cf565b919050565b600067ffffffffffffffff821115612336576123356122a0565b5b61233f82612055565b9050602081019050919050565b82818337600083830152505050565b600061236e6123698461231b565b612300565b90508281526020810184848401111561238a5761238961229b565b5b61239584828561234c565b509392505050565b600082601f8301126123b2576123b1612296565b5b81356123c284826020860161235b565b91505092915050565b6000602082840312156123e1576123e0611f4a565b5b600082013567ffffffffffffffff8111156123ff576123fe611f4f565b5b61240b8482850161239d565b91505092915050565b61241d81611fd9565b811461242857600080fd5b50565b60008135905061243a81612414565b92915050565b6000806040838503121561245757612456611f4a565b5b600061246585828601612197565b92505060206124768582860161242b565b9150509250929050565b6000819050919050565b60006124a56124a061249b84612124565b612480565b612124565b9050919050565b60006124b78261248a565b9050919050565b60006124c9826124ac565b9050919050565b6124d9816124be565b82525050565b60006020820190506124f460008301846124d0565b92915050565b6000612505826124ac565b9050919050565b612515816124fa565b82525050565b6000602082019050612530600083018461250c565b92915050565b600067ffffffffffffffff821115612551576125506122a0565b5b61255a82612055565b9050602081019050919050565b600061257a61257584612536565b612300565b9050828152602081018484840111156125965761259561229b565b5b6125a184828561234c565b509392505050565b600082601f8301126125be576125bd612296565b5b81356125ce848260208601612567565b91505092915050565b600080600080608085870312156125f1576125f0611f4a565b5b60006125ff87828801612197565b945050602061261087828801612197565b9350506040612621878288016120e2565b925050606085013567ffffffffffffffff81111561264257612641611f4f565b5b61264e878288016125a9565b91505092959194509250565b600060408201905081810360008301526126748185612066565b9050612683602083018461226c565b9392505050565b600080604083850312156126a1576126a0611f4a565b5b60006126af85828601612197565b92505060206126c085828601612197565b9150509250929050565b7f4e487b7100000000000000000000000000000000000000000000000000000000600052602260045260246000fd5b6000600282049050600182168061271157607f821691505b602082108103612724576127236126ca565b5b50919050565b7f4552433732313a20617070726f76616c20746f2063757272656e74206f776e6560008201527f7200000000000000000000000000000000000000000000000000000000000000602082015250565b600061278660218361201a565b91506127918261272a565b604082019050919050565b600060208201905081810360008301526127b581612779565b9050919050565b7f4552433732313a20617070726f76652063616c6c6572206973206e6f7420746f60008201527f6b656e206f776e6572206e6f7220617070726f76656420666f7220616c6c0000602082015250565b6000612818603e8361201a565b9150612823826127bc565b604082019050919050565b600060208201905081810360008301526128478161280b565b9050919050565b7f4e487b7100000000000000000000000000000000000000000000000000000000600052601160045260246000fd5b6000612888826120c1565b91507fffffffffffffffffffffffffffffffffffffffffffffffffffffffffffffffff82036128ba576128b961284e565b5b600182019050919050565b7f4552433732313a2063616c6c6572206973206e6f7420746f6b656e206f776e6560008201527f72206e6f7220617070726f766564000000000000000000000000000000000000602082015250565b6000612921602e8361201a565b915061292c826128c5565b604082019050919050565b6000602082019050818103600083015261295081612914565b9050919050565b7f4552433732313a20696e76616c696420746f6b656e2049440000000000000000600082015250565b600061298d60188361201a565b915061299882612957565b602082019050919050565b600060208201905081810360008301526129bc81612980565b9050919050565b7f4552433732313a2061646472657373207a65726f206973206e6f74206120766160008201527f6c6964206f776e65720000000000000000000000000000000000000000000000602082015250565b6000612a1f60298361201a565b9150612a2a826129c3565b604082019050919050565b60006020820190508181036000830152612a4e81612a12565b9050919050565b60008190508160005260206000209050919050565b60006020601f8301049050919050565b600082821b905092915050565b600060088302612ab77fffffffffffffffffffffffffffffffffffffffffffffffffffffffffffffffff82612a7a565b612ac18683612a7a565b95508019841693508086168417925050509392505050565b6000612af4612aef612aea846120c1565b612480565b6120c1565b9050919050565b6000819050919050565b612b0e83612ad9565b612b22612b1a82612afb565b848454612a87565b825550505050565b600090565b612b37612b2a565b612b42818484612b05565b505050565b5b81811015612b6657612b5b600082612b2f565b600181019050612b48565b5050565b601f821115612bab57612b7c81612a55565b612b8584612a6a565b81016020851015612b94578190505b612ba8612ba085612a6a565b830182612b47565b50505b505050565b600082821c905092915050565b6000612bce60001984600802612bb0565b1980831691505092915050565b6000612be78383612bbd565b9150826002028217905092915050565b612c008261200f565b67ffffffffffffffff811115612c1957612c186122a0565b5b612c2382546126f9565b612c2e828285612b6a565b600060209050601f831160018114612c615760008415612c4f578287015190505b612c598582612bdb565b865550612cc1565b601f198416612c6f86612a55565b60005b82811015612c9757848901518255600182019150602085019450602081019050612c72565b86831015612cb45784890151612cb0601f891682612bbd565b8355505b6001600288020188555050505b505050505050565b7f50726f7669646572546f6b656e2e746f6b656e5552493a206e6f6e657869737460008201527f656e7420746f6b656e0000000000000000000000000000000000000000000000602082015250565b6000612d2560298361201a565b9150612d3082612cc9565b604082019050919050565b60006020820190508181036000830152612d5481612d18565b9050919050565b600081905092915050565b7f7b226e616d65223a220000000000000000000000000000000000000000000000600082015250565b6000612d9c600983612d5b565b9150612da782612d66565b600982019050919050565b6000612dbd8261200f565b612dc78185612d5b565b9350612dd781856020860161202b565b80840191505092915050565b7f222c226465736372697074696f6e223a22000000000000000000000000000000600082015250565b6000612e19601183612d5b565b9150612e2482612de3565b601182019050919050565b60008154612e3c816126f9565b612e468186612d5b565b94506001821660008114612e615760018114612e7657612ea9565b60ff1983168652811515820286019350612ea9565b612e7f85612a55565b60005b83811015612ea157815481890152600182019150602081019050612e82565b838801955050505b50505092915050565b7f222c2261747472696275746573223a5b00000000000000000000000000000000600082015250565b6000612ee8601083612d5b565b9150612ef382612eb2565b601082019050919050565b600081519050919050565b600081905092915050565b6000612f1f82612efe565b612f298185612f09565b9350612f3981856020860161202b565b80840191505092915050565b7f5d2c22696d616765223a22646174613a696d6167652f7376672b786d6c3b626160008201527f736536342c000000000000000000000000000000000000000000000000000000602082015250565b6000612fa1602583612d5b565b9150612fac82612f45565b602582019050919050565b7f227d000000000000000000000000000000000000000000000000000000000000600082015250565b6000612fed600283612d5b565b9150612ff882612fb7565b600282019050919050565b600061300e82612d8f565b915061301a8287612db2565b915061302582612e0c565b91506130318286612e2f565b915061303c82612edb565b91506130488285612f14565b915061305382612f94565b915061305f8284612db2565b915061306a82612fe0565b915081905095945050505050565b7f646174613a6170706c69636174696f6e2f6a736f6e3b6261736536342c000000600082015250565b60006130ae601d83612d5b565b91506130b982613078565b601d82019050919050565b60006130cf826130a1565b91506130db8284612db2565b915081905092915050565b60006130f1826120c1565b91506130fc836120c1565b92508282039050818111156131145761311361284e565b5b92915050565b60008151905061312981612180565b92915050565b60006020828403121561314557613144611f4a565b5b60006131538482850161311a565b91505092915050565b7f4f776e61626c653a206e6577206f776e657220697320746865207a65726f206160008201527f6464726573730000000000000000000000000000000000000000000000000000602082015250565b60006131b860268361201a565b91506131c38261315c565b604082019050919050565b600060208201905081810360008301526131e7816131ab565b9050919050565b7f4552433732313a207472616e736665722066726f6d20696e636f72726563742060008201527f6f776e6572000000000000000000000000000000000000000000000000000000602082015250565b600061324a60258361201a565b9150613255826131ee565b604082019050919050565b600060208201905081810360008301526132798161323d565b9050919050565b7f4552433732313a207472616e7366657220746f20746865207a65726f2061646460008201527f7265737300000000000000000000000000000000000000000000000000000000602082015250565b60006132dc60248361201a565b91506132e782613280565b604082019050919050565b6000602082019050818103600083015261330b816132cf565b9050919050565b600061331d826120c1565b9150613328836120c1565b92508282019050808211156133405761333f61284e565b5b92915050565b7f4f776e61626c653a2063616c6c6572206973206e6f7420746865206f776e6572600082015250565b600061337c60208361201a565b915061338782613346565b602082019050919050565b600060208201905081810360008301526133ab8161336f565b9050919050565b7f4552433732313a20617070726f766520746f2063616c6c657200000000000000600082015250565b60006133e860198361201a565b91506133f3826133b2565b602082019050919050565b60006020820190508181036000830152613417816133db565b9050919050565b7f4552433732313a207472616e7366657220746f206e6f6e20455243373231526560008201527f63656976657220696d706c656d656e7465720000000000000000000000000000602082015250565b600061347a60328361201a565b91506134858261341e565b604082019050919050565b600060208201905081810360008301526134a98161346d565b9050919050565b60006134c36134be8461231b565b612300565b9050828152602081018484840111156134df576134de61229b565b5b6134ea84828561202b565b509392505050565b600082601f83011261350757613506612296565b5b81516135178482602086016134b0565b91505092915050565b6000806040838503121561353757613536611f4a565b5b600083015167ffffffffffffffff81111561355557613554611f4f565b5b613561858286016134f2565b925050602083015167ffffffffffffffff81111561358257613581611f4f565b5b61358e858286016134f2565b9150509250929050565b7f3c2f646566733e0a3c75736520687265663d2223000000000000000000000000600082015250565b60006135ce601483612d5b565b91506135d982613598565b601482019050919050565b7f22202f3e0a3c2f7376673e0a0000000000000000000000000000000000000000600082015250565b600061361a600c83612d5b565b9150613625826135e4565b600c82019050919050565b600061363c8286612db2565b91506136488285612db2565b9150613653826135c1565b915061365f8284612db2565b915061366a8261360d565b9150819050949350505050565b7f53706c6174746572200000000000000000000000000000000000000000000000600082015250565b60006136ad600983612d5b565b91506136b882613677565b600982019050919050565b60006136ce826136a0565b91506136da8284612db2565b915081905092915050565b7f7b2274726169745f74797065223a2253656564222c2276616c7565223a220000600082015250565b600061371b601e83612d5b565b9150613726826136e5565b601e82019050919050565b600061373c8261370e565b91506137488284612db2565b915061375382612fe0565b915081905092915050565b7f4e487b7100000000000000000000000000000000000000000000000000000000600052601260045260246000fd5b6000613798826120c1565b91506137a3836120c1565b9250826137b3576137b261375e565b5b828204905092915050565b60006137c9826120c1565b91506137d4836120c1565b92508282026137e2816120c1565b915082820484148315176137f9576137f861284e565b5b5092915050565b600082825260208201905092915050565b600061381c82612efe565b6138268185613800565b935061383681856020860161202b565b61383f81612055565b840191505092915050565b600060808201905061385f6000830187612156565b61386c6020830186612156565b613879604083018561226c565b818103606083015261388b8184613811565b905095945050505050565b6000815190506138a581611f80565b92915050565b6000602082840312156138c1576138c0611f4a565b5b60006138cf84828501613896565b91505092915050565b60006138e3826120c1565b91506138ee836120c1565b9250826138fe576138fd61375e565b5b828206905092915050565b7f4e487b7100000000000000000000000000000000000000000000000000000000600052603260045260246000fd5b7f4552433732313a206d696e7420746f20746865207a65726f2061646472657373600082015250565b600061396e60208361201a565b915061397982613938565b602082019050919050565b6000602082019050818103600083015261399d81613961565b9050919050565b7f4552433732313a20746f6b656e20616c7265616479206d696e74656400000000600082015250565b60006139da601c8361201a565b91506139e5826139a4565b602082019050919050565b60006020820190508181036000830152613a09816139cd565b905091905056fe4142434445464748494a4b4c4d4e4f505152535455565758595a6162636465666768696a6b6c6d6e6f707172737475767778797a303132333435363738392b2f3c7376672076696577426f783d2230203020313032342031303234222020786d6c6e733d22687474703a2f2f7777772e77332e6f72672f323030302f737667223e0a3c646566733e0aa2646970667358221220516b52c2840db24391ca57536ec6952b4345c4ca96cc041ad6cedbd0661439bb64736f6c634300081100335468697320697320612070617274206f662046756c6c79204f6e2d636861696e2047656e65726174697665204172742070726f6a656374202868747470733a2f2f66756c6c796f6e636861696e2e78797a2f292e",
  "linkReferences": {},
  "deployedLinkReferences": {}
}