{
  "_format": "hh-sol-artifact-1",
  "contractName": "SplatterToken",
  "sourceName": "contracts/SplatterToken.sol",
  "abi": [
    {
      "inputs": [
        {
          "internalType": "contract IAssetProvider",
          "name": "_assetProvider",
          "type": "address"
        },
        {
          "internalType": "address",
          "name": "_developer",
          "type": "address"
        },
        {
          "internalType": "contract IProxyRegistry",
          "name": "_proxyRegistry",
          "type": "address"
        }
      ],
      "stateMutability": "nonpayable",
      "type": "constructor"
    },
    {
      "inputs": [],
      "name": "ApprovalCallerNotOwnerNorApproved",
      "type": "error"
    },
    {
      "inputs": [],
      "name": "ApprovalQueryForNonexistentToken",
      "type": "error"
    },
    {
      "inputs": [],
      "name": "BalanceQueryForZeroAddress",
      "type": "error"
    },
    {
      "inputs": [],
      "name": "MintERC2309QuantityExceedsLimit",
      "type": "error"
    },
    {
      "inputs": [],
      "name": "MintToZeroAddress",
      "type": "error"
    },
    {
      "inputs": [],
      "name": "MintZeroQuantity",
      "type": "error"
    },
    {
      "inputs": [],
      "name": "OwnerQueryForNonexistentToken",
      "type": "error"
    },
    {
      "inputs": [],
      "name": "OwnershipNotInitializedForExtraData",
      "type": "error"
    },
    {
      "inputs": [],
      "name": "TransferCallerNotOwnerNorApproved",
      "type": "error"
    },
    {
      "inputs": [],
      "name": "TransferFromIncorrectOwner",
      "type": "error"
    },
    {
      "inputs": [],
      "name": "TransferToNonERC721ReceiverImplementer",
      "type": "error"
    },
    {
      "inputs": [],
      "name": "TransferToZeroAddress",
      "type": "error"
    },
    {
      "inputs": [],
      "name": "URIQueryForNonexistentToken",
      "type": "error"
    },
    {
      "anonymous": false,
      "inputs": [
        {
          "indexed": true,
          "internalType": "address",
          "name": "owner",
          "type": "address"
        },
        {
          "indexed": true,
          "internalType": "address",
          "name": "approved",
          "type": "address"
        },
        {
          "indexed": true,
          "internalType": "uint256",
          "name": "tokenId",
          "type": "uint256"
        }
      ],
      "name": "Approval",
      "type": "event"
    },
    {
      "anonymous": false,
      "inputs": [
        {
          "indexed": true,
          "internalType": "address",
          "name": "owner",
          "type": "address"
        },
        {
          "indexed": true,
          "internalType": "address",
          "name": "operator",
          "type": "address"
        },
        {
          "indexed": false,
          "internalType": "bool",
          "name": "approved",
          "type": "bool"
        }
      ],
      "name": "ApprovalForAll",
      "type": "event"
    },
    {
      "anonymous": false,
      "inputs": [
        {
          "indexed": true,
          "internalType": "uint256",
          "name": "fromTokenId",
          "type": "uint256"
        },
        {
          "indexed": false,
          "internalType": "uint256",
          "name": "toTokenId",
          "type": "uint256"
        },
        {
          "indexed": true,
          "internalType": "address",
          "name": "from",
          "type": "address"
        },
        {
          "indexed": true,
          "internalType": "address",
          "name": "to",
          "type": "address"
        }
      ],
      "name": "ConsecutiveTransfer",
      "type": "event"
    },
    {
      "anonymous": false,
      "inputs": [
        {
          "indexed": true,
          "internalType": "address",
          "name": "previousOwner",
          "type": "address"
        },
        {
          "indexed": true,
          "internalType": "address",
          "name": "newOwner",
          "type": "address"
        }
      ],
      "name": "OwnershipTransferred",
      "type": "event"
    },
    {
      "anonymous": false,
      "inputs": [
        {
          "indexed": true,
          "internalType": "address",
          "name": "from",
          "type": "address"
        },
        {
          "indexed": true,
          "internalType": "address",
          "name": "to",
          "type": "address"
        },
        {
          "indexed": true,
          "internalType": "uint256",
          "name": "tokenId",
          "type": "uint256"
        }
      ],
      "name": "Transfer",
      "type": "event"
    },
    {
      "inputs": [
        {
          "internalType": "address",
          "name": "to",
          "type": "address"
        },
        {
          "internalType": "uint256",
          "name": "tokenId",
          "type": "uint256"
        }
      ],
      "name": "approve",
      "outputs": [],
      "stateMutability": "payable",
      "type": "function"
    },
    {
      "inputs": [],
      "name": "assetProvider",
      "outputs": [
        {
          "internalType": "contract IAssetProvider",
          "name": "",
          "type": "address"
        }
      ],
      "stateMutability": "view",
      "type": "function"
    },
    {
      "inputs": [
        {
          "internalType": "address",
          "name": "owner",
          "type": "address"
        }
      ],
      "name": "balanceOf",
      "outputs": [
        {
          "internalType": "uint256",
          "name": "",
          "type": "uint256"
        }
      ],
      "stateMutability": "view",
      "type": "function"
    },
    {
      "inputs": [],
      "name": "description",
      "outputs": [
        {
          "internalType": "string",
          "name": "",
          "type": "string"
        }
      ],
      "stateMutability": "view",
      "type": "function"
    },
    {
      "inputs": [],
      "name": "developer",
      "outputs": [
        {
          "internalType": "address",
          "name": "",
          "type": "address"
        }
      ],
      "stateMutability": "view",
      "type": "function"
    },
    {
      "inputs": [
        {
          "internalType": "uint256",
          "name": "tokenId",
          "type": "uint256"
        }
      ],
      "name": "getApproved",
      "outputs": [
        {
          "internalType": "address",
          "name": "",
          "type": "address"
        }
      ],
      "stateMutability": "view",
      "type": "function"
    },
    {
      "inputs": [],
      "name": "getCurrentToken",
      "outputs": [
        {
          "internalType": "uint256",
          "name": "",
          "type": "uint256"
        }
      ],
      "stateMutability": "view",
      "type": "function"
    },
    {
      "inputs": [
        {
          "internalType": "address",
          "name": "owner",
          "type": "address"
        },
        {
          "internalType": "address",
          "name": "operator",
          "type": "address"
        }
      ],
      "name": "isApprovedForAll",
      "outputs": [
        {
          "internalType": "bool",
          "name": "",
          "type": "bool"
        }
      ],
      "stateMutability": "view",
      "type": "function"
    },
    {
      "inputs": [
        {
          "internalType": "uint256",
          "name": "_affiliate",
          "type": "uint256"
        }
      ],
      "name": "mint",
      "outputs": [],
      "stateMutability": "payable",
      "type": "function"
    },
    {
      "inputs": [],
      "name": "name",
      "outputs": [
        {
          "internalType": "string",
          "name": "",
          "type": "string"
        }
      ],
      "stateMutability": "view",
      "type": "function"
    },
    {
      "inputs": [],
      "name": "owner",
      "outputs": [
        {
          "internalType": "address",
          "name": "",
          "type": "address"
        }
      ],
      "stateMutability": "view",
      "type": "function"
    },
    {
      "inputs": [
        {
          "internalType": "uint256",
          "name": "tokenId",
          "type": "uint256"
        }
      ],
      "name": "ownerOf",
      "outputs": [
        {
          "internalType": "address",
          "name": "",
          "type": "address"
        }
      ],
      "stateMutability": "view",
      "type": "function"
    },
    {
      "inputs": [],
      "name": "proxyRegistry",
      "outputs": [
        {
          "internalType": "contract IProxyRegistry",
          "name": "",
          "type": "address"
        }
      ],
      "stateMutability": "view",
      "type": "function"
    },
    {
      "inputs": [],
      "name": "renounceOwnership",
      "outputs": [],
      "stateMutability": "nonpayable",
      "type": "function"
    },
    {
      "inputs": [
        {
          "internalType": "address",
          "name": "from",
          "type": "address"
        },
        {
          "internalType": "address",
          "name": "to",
          "type": "address"
        },
        {
          "internalType": "uint256",
          "name": "tokenId",
          "type": "uint256"
        }
      ],
      "name": "safeTransferFrom",
      "outputs": [],
      "stateMutability": "payable",
      "type": "function"
    },
    {
      "inputs": [
        {
          "internalType": "address",
          "name": "from",
          "type": "address"
        },
        {
          "internalType": "address",
          "name": "to",
          "type": "address"
        },
        {
          "internalType": "uint256",
          "name": "tokenId",
          "type": "uint256"
        },
        {
          "internalType": "bytes",
          "name": "_data",
          "type": "bytes"
        }
      ],
      "name": "safeTransferFrom",
      "outputs": [],
      "stateMutability": "payable",
      "type": "function"
    },
    {
      "inputs": [
        {
          "internalType": "address",
          "name": "operator",
          "type": "address"
        },
        {
          "internalType": "bool",
          "name": "approved",
          "type": "bool"
        }
      ],
      "name": "setApprovalForAll",
      "outputs": [],
      "stateMutability": "nonpayable",
      "type": "function"
    },
    {
      "inputs": [
        {
          "internalType": "string",
          "name": "_description",
          "type": "string"
        }
      ],
      "name": "setDescription",
      "outputs": [],
      "stateMutability": "nonpayable",
      "type": "function"
    },
    {
      "inputs": [
        {
          "internalType": "bytes4",
          "name": "interfaceId",
          "type": "bytes4"
        }
      ],
      "name": "supportsInterface",
      "outputs": [
        {
          "internalType": "bool",
          "name": "",
          "type": "bool"
        }
      ],
      "stateMutability": "view",
      "type": "function"
    },
    {
      "inputs": [],
      "name": "symbol",
      "outputs": [
        {
          "internalType": "string",
          "name": "",
          "type": "string"
        }
      ],
      "stateMutability": "view",
      "type": "function"
    },
    {
      "inputs": [
        {
          "internalType": "uint256",
          "name": "_tokenId",
          "type": "uint256"
        }
      ],
      "name": "tokenURI",
      "outputs": [
        {
          "internalType": "string",
          "name": "",
          "type": "string"
        }
      ],
      "stateMutability": "view",
      "type": "function"
    },
    {
      "inputs": [],
      "name": "tokensPerAsset",
      "outputs": [
        {
          "internalType": "uint256",
          "name": "",
          "type": "uint256"
        }
      ],
      "stateMutability": "view",
      "type": "function"
    },
    {
      "inputs": [],
      "name": "totalSupply",
      "outputs": [
        {
          "internalType": "uint256",
          "name": "",
          "type": "uint256"
        }
      ],
      "stateMutability": "view",
      "type": "function"
    },
    {
      "inputs": [
        {
          "internalType": "address",
          "name": "from",
          "type": "address"
        },
        {
          "internalType": "address",
          "name": "to",
          "type": "address"
        },
        {
          "internalType": "uint256",
          "name": "tokenId",
          "type": "uint256"
        }
      ],
      "name": "transferFrom",
      "outputs": [],
      "stateMutability": "payable",
      "type": "function"
    },
    {
      "inputs": [
        {
          "internalType": "address",
          "name": "newOwner",
          "type": "address"
        }
      ],
      "name": "transferOwnership",
      "outputs": [],
      "stateMutability": "nonpayable",
      "type": "function"
    }
  ],
  "bytecode": "0x60e06040523480156200001157600080fd5b5060405162003d9138038062003d918339818101604052810190620000379190620003be565b82828260046040518060400160405280600881526020017f53706c61747465720000000000000000000000000000000000000000000000008152506040518060400160405280600881526020017f53504c4154544552000000000000000000000000000000000000000000000000815250858483838181620000ce620000c2620001f960201b60201c565b6200020160201b60201c565b8160039081620000df919062000694565b508060049081620000f1919062000694565b5062000102620002c560201b60201c565b60018190555050508373ffffffffffffffffffffffffffffffffffffffff1660a08173ffffffffffffffffffffffffffffffffffffffff16815250508273ffffffffffffffffffffffffffffffffffffffff1660808173ffffffffffffffffffffffffffffffffffffffff1681525050505050508260c0818152505084600a60006101000a81548173ffffffffffffffffffffffffffffffffffffffff021916908373ffffffffffffffffffffffffffffffffffffffff16021790555050505050505060405180608001604052806054815260200162003d3d6054913960099081620001ef919062000694565b505050506200077b565b600033905090565b60008060009054906101000a900473ffffffffffffffffffffffffffffffffffffffff169050816000806101000a81548173ffffffffffffffffffffffffffffffffffffffff021916908373ffffffffffffffffffffffffffffffffffffffff1602179055508173ffffffffffffffffffffffffffffffffffffffff168173ffffffffffffffffffffffffffffffffffffffff167f8be0079c531659141344cd1fd0a4f28419497f9722a3daafe3b4186f6b6457e060405160405180910390a35050565b600090565b600080fd5b600073ffffffffffffffffffffffffffffffffffffffff82169050919050565b6000620002fc82620002cf565b9050919050565b60006200031082620002ef565b9050919050565b620003228162000303565b81146200032e57600080fd5b50565b600081519050620003428162000317565b92915050565b6200035381620002ef565b81146200035f57600080fd5b50565b600081519050620003738162000348565b92915050565b60006200038682620002ef565b9050919050565b620003988162000379565b8114620003a457600080fd5b50565b600081519050620003b8816200038d565b92915050565b600080600060608486031215620003da57620003d9620002ca565b5b6000620003ea8682870162000331565b9350506020620003fd8682870162000362565b92505060406200041086828701620003a7565b9150509250925092565b600081519050919050565b7f4e487b7100000000000000000000000000000000000000000000000000000000600052604160045260246000fd5b7f4e487b7100000000000000000000000000000000000000000000000000000000600052602260045260246000fd5b600060028204905060018216806200049c57607f821691505b602082108103620004b257620004b162000454565b5b50919050565b60008190508160005260206000209050919050565b60006020601f8301049050919050565b600082821b905092915050565b6000600883026200051c7fffffffffffffffffffffffffffffffffffffffffffffffffffffffffffffffff82620004dd565b620005288683620004dd565b95508019841693508086168417925050509392505050565b6000819050919050565b6000819050919050565b6000620005756200056f620005698462000540565b6200054a565b62000540565b9050919050565b6000819050919050565b620005918362000554565b620005a9620005a0826200057c565b848454620004ea565b825550505050565b600090565b620005c0620005b1565b620005cd81848462000586565b505050565b5b81811015620005f557620005e9600082620005b6565b600181019050620005d3565b5050565b601f82111562000644576200060e81620004b8565b6200061984620004cd565b8101602085101562000629578190505b620006416200063885620004cd565b830182620005d2565b50505b505050565b600082821c905092915050565b6000620006696000198460080262000649565b1980831691505092915050565b600062000684838362000656565b9150826002028217905092915050565b6200069f826200041a565b67ffffffffffffffff811115620006bb57620006ba62000425565b5b620006c7825462000483565b620006d4828285620005f9565b600060209050601f8311600181146200070c5760008415620006f7578287015190505b62000703858262000676565b86555062000773565b601f1984166200071c86620004b8565b60005b8281101562000746578489015182556001820191506020850194506020810190506200071f565b8683101562000766578489015162000762601f89168262000656565b8355505b6001600288020188555050505b505050505050565b60805160a05160c05161356f620007ce60003960008181610be701528181610e5f01528181610f0501526118c40152600081816110950152611a4d0152600081816110b90152611254015261356f6000f3fe6080604052600436106101665760003560e01c80638da5cb5b116100d1578063b50cbd9f1161008a578063ca4b208b11610064578063ca4b208b146104e9578063e985e9c514610514578063ef2d174614610551578063f2fde38b1461057c57610166565b8063b50cbd9f14610465578063b88d4fde14610490578063c87b56dd146104ac57610166565b80638da5cb5b1461037657806390c3f38f146103a157806395d89b41146103ca578063a0712d68146103f5578063a22cb46514610411578063a370f7d71461043a57610166565b806342842e0e1161012357806342842e0e146102735780634b00371f1461028f5780636352211e146102ba57806370a08231146102f7578063715018a6146103345780637284e4161461034b57610166565b806301ffc9a71461016b57806306fdde03146101a8578063081812fc146101d3578063095ea7b31461021057806318160ddd1461022c57806323b872dd14610257575b600080fd5b34801561017757600080fd5b50610192600480360381019061018d9190612004565b6105a5565b60405161019f919061204c565b60405180910390f35b3480156101b457600080fd5b506101bd610637565b6040516101ca91906120f7565b60405180910390f35b3480156101df57600080fd5b506101fa60048036038101906101f5919061214f565b6106c9565b60405161020791906121bd565b60405180910390f35b61022a60048036038101906102259190612204565b610748565b005b34801561023857600080fd5b5061024161088c565b60405161024e9190612253565b60405180910390f35b610271600480360381019061026c919061226e565b6108a3565b005b61028d6004803603810190610288919061226e565b610bc5565b005b34801561029b57600080fd5b506102a4610be5565b6040516102b19190612253565b60405180910390f35b3480156102c657600080fd5b506102e160048036038101906102dc919061214f565b610c09565b6040516102ee91906121bd565b60405180910390f35b34801561030357600080fd5b5061031e600480360381019061031991906122c1565b610c1b565b60405161032b9190612253565b60405180910390f35b34801561034057600080fd5b50610349610cd3565b005b34801561035757600080fd5b50610360610ce7565b60405161036d91906120f7565b60405180910390f35b34801561038257600080fd5b5061038b610d75565b60405161039891906121bd565b60405180910390f35b3480156103ad57600080fd5b506103c860048036038101906103c39190612423565b610d9e565b005b3480156103d657600080fd5b506103df610db9565b6040516103ec91906120f7565b60405180910390f35b61040f600480360381019061040a919061214f565b610e4b565b005b34801561041d57600080fd5b5061043860048036038101906104339190612498565b610f88565b005b34801561044657600080fd5b5061044f611093565b60405161045c9190612537565b60405180910390f35b34801561047157600080fd5b5061047a6110b7565b6040516104879190612573565b60405180910390f35b6104aa60048036038101906104a5919061262f565b6110db565b005b3480156104b857600080fd5b506104d360048036038101906104ce919061214f565b61114e565b6040516104e091906120f7565b60405180910390f35b3480156104f557600080fd5b506104fe611213565b60405161050b91906121bd565b60405180910390f35b34801561052057600080fd5b5061053b600480360381019061053691906126b2565b611239565b604051610548919061204c565b60405180910390f35b34801561055d57600080fd5b50610566611323565b6040516105739190612253565b60405180910390f35b34801561058857600080fd5b506105a3600480360381019061059e91906122c1565b611332565b005b60006301ffc9a760e01b827bffffffffffffffffffffffffffffffffffffffffffffffffffffffff1916148061060057506380ac58cd60e01b827bffffffffffffffffffffffffffffffffffffffffffffffffffffffff1916145b806106305750635b5e139f60e01b827bffffffffffffffffffffffffffffffffffffffffffffffffffffffff1916145b9050919050565b60606003805461064690612721565b80601f016020809104026020016040519081016040528092919081815260200182805461067290612721565b80156106bf5780601f10610694576101008083540402835291602001916106bf565b820191906000526020600020905b8154815290600101906020018083116106a257829003601f168201915b5050505050905090565b60006106d4826113b5565b61070a576040517fcf4700e400000000000000000000000000000000000000000000000000000000815260040160405180910390fd5b6007600083815260200190815260200160002060000160009054906101000a900473ffffffffffffffffffffffffffffffffffffffff169050919050565b600061075382610c09565b90508073ffffffffffffffffffffffffffffffffffffffff16610774611414565b73ffffffffffffffffffffffffffffffffffffffff16146107d7576107a08161079b611414565b611239565b6107d6576040517fcfb3b94200000000000000000000000000000000000000000000000000000000815260040160405180910390fd5b5b826007600084815260200190815260200160002060000160006101000a81548173ffffffffffffffffffffffffffffffffffffffff021916908373ffffffffffffffffffffffffffffffffffffffff160217905550818373ffffffffffffffffffffffffffffffffffffffff168273ffffffffffffffffffffffffffffffffffffffff167f8c5be1e5ebec7d5bd14f71427d1e84f3dd0314c0f7b2291e5b200ac8c7c3b92560405160405180910390a4505050565b600061089661141c565b6002546001540303905090565b60006108ae82611421565b90508373ffffffffffffffffffffffffffffffffffffffff168173ffffffffffffffffffffffffffffffffffffffff1614610915576040517fa114810000000000000000000000000000000000000000000000000000000000815260040160405180910390fd5b600080610921846114ed565b915091506109378187610932611414565b611514565b6109835761094c86610947611414565b611239565b610982576040517f59c896be00000000000000000000000000000000000000000000000000000000815260040160405180910390fd5b5b600073ffffffffffffffffffffffffffffffffffffffff168573ffffffffffffffffffffffffffffffffffffffff16036109e9576040517fea553b3400000000000000000000000000000000000000000000000000000000815260040160405180910390fd5b6109f68686866001611558565b8015610a0157600082555b600660008773ffffffffffffffffffffffffffffffffffffffff1673ffffffffffffffffffffffffffffffffffffffff168152602001908152602001600020600081546001900391905081905550600660008673ffffffffffffffffffffffffffffffffffffffff1673ffffffffffffffffffffffffffffffffffffffff1681526020019081526020016000206000815460010191905081905550610acf85610aab88888761155e565b7c020000000000000000000000000000000000000000000000000000000017611586565b600560008681526020019081526020016000208190555060007c0200000000000000000000000000000000000000000000000000000000841603610b555760006001850190506000600560008381526020019081526020016000205403610b53576001548114610b52578360056000838152602001908152602001600020819055505b5b505b838573ffffffffffffffffffffffffffffffffffffffff168773ffffffffffffffffffffffffffffffffffffffff167fddf252ad1be2c89b69c2b068fc378daa952ba7f163c4a11628f55a4df523b3ef60405160405180910390a4610bbd86868660016115b1565b505050505050565b610be0838383604051806020016040528060008152506110db565b505050565b7f000000000000000000000000000000000000000000000000000000000000000081565b6000610c1482611421565b9050919050565b60008073ffffffffffffffffffffffffffffffffffffffff168273ffffffffffffffffffffffffffffffffffffffff1603610c82576040517f8f4eb60400000000000000000000000000000000000000000000000000000000815260040160405180910390fd5b67ffffffffffffffff600660008473ffffffffffffffffffffffffffffffffffffffff1673ffffffffffffffffffffffffffffffffffffffff16815260200190815260200160002054169050919050565b610cdb6115b7565b610ce56000611635565b565b60098054610cf490612721565b80601f0160208091040260200160405190810160405280929190818152602001828054610d2090612721565b8015610d6d5780601f10610d4257610100808354040283529160200191610d6d565b820191906000526020600020905b815481529060010190602001808311610d5057829003601f168201915b505050505081565b60008060009054906101000a900473ffffffffffffffffffffffffffffffffffffffff16905090565b610da66115b7565b8060099081610db591906128f4565b5050565b606060048054610dc890612721565b80601f0160208091040260200160405190810160405280929190818152602001828054610df490612721565b8015610e415780601f10610e1657610100808354040283529160200191610e41565b820191906000526020600020905b815481529060010190602001808311610e2457829003601f168201915b5050505050905090565b6000610e556116f9565b9050610e8d3360017f0000000000000000000000000000000000000000000000000000000000000000610e8891906129f5565b611703565b600082118015610ea25750610ea1826118bf565b5b8015610ee257503373ffffffffffffffffffffffffffffffffffffffff16610ec983610c09565b73ffffffffffffffffffffffffffffffffffffffff1614155b15610eff57610efa610ef383610c09565b6001611703565b610f84565b600060027f000000000000000000000000000000000000000000000000000000000000000083610f2f9190612a58565b610f399190612a89565b03610f7057610f6b600a60009054906101000a900473ffffffffffffffffffffffffffffffffffffffff166001611703565b610f83565b610f82610f7b610d75565b6001611703565b5b5b5050565b8060086000610f95611414565b73ffffffffffffffffffffffffffffffffffffffff1673ffffffffffffffffffffffffffffffffffffffff16815260200190815260200160002060008473ffffffffffffffffffffffffffffffffffffffff1673ffffffffffffffffffffffffffffffffffffffff16815260200190815260200160002060006101000a81548160ff0219169083151502179055508173ffffffffffffffffffffffffffffffffffffffff16611042611414565b73ffffffffffffffffffffffffffffffffffffffff167f17307eab39ab6107e8899845ad3d59bd9653f200f220920489ca2b5937696c3183604051611087919061204c565b60405180910390a35050565b7f000000000000000000000000000000000000000000000000000000000000000081565b7f000000000000000000000000000000000000000000000000000000000000000081565b6110e68484846108a3565b60008373ffffffffffffffffffffffffffffffffffffffff163b1461114857611111848484846118f6565b611147576040517fd1a57ed600000000000000000000000000000000000000000000000000000000815260040160405180910390fd5b5b50505050565b6060611159826113b5565b611198576040517f08c379a000000000000000000000000000000000000000000000000000000000815260040161118f90612b2c565b60405180910390fd5b60006111a383611a46565b90506111ec6111b184611b33565b60096111bc86611b64565b6111c585611c0b565b6040516020016111d89493929190612df4565b604051602081830303815290604052611c0b565b6040516020016111fc9190612eb5565b604051602081830303815290604052915050919050565b600a60009054906101000a900473ffffffffffffffffffffffffffffffffffffffff1681565b60008173ffffffffffffffffffffffffffffffffffffffff167f000000000000000000000000000000000000000000000000000000000000000073ffffffffffffffffffffffffffffffffffffffff1663c4552791856040518263ffffffff1660e01b81526004016112ab91906121bd565b602060405180830381865afa1580156112c8573d6000803e3d6000fd5b505050506040513d601f19601f820116820180604052508101906112ec9190612eec565b73ffffffffffffffffffffffffffffffffffffffff1603611310576001905061131d565b61131a8383611d83565b90505b92915050565b600061132d6116f9565b905090565b61133a6115b7565b600073ffffffffffffffffffffffffffffffffffffffff168173ffffffffffffffffffffffffffffffffffffffff16036113a9576040517f08c379a00000000000000000000000000000000000000000000000000000000081526004016113a090612f8b565b60405180910390fd5b6113b281611635565b50565b6000816113c061141c565b111580156113cf575060015482105b801561140d575060007c0100000000000000000000000000000000000000000000000000000000600560008581526020019081526020016000205416145b9050919050565b600033905090565b600090565b6000808290508061143061141c565b116114b6576001548110156114b55760006005600083815260200190815260200160002054905060007c01000000000000000000000000000000000000000000000000000000008216036114b3575b600081036114a957600560008360019003935083815260200190815260200160002054905061147f565b80925050506114e8565b505b5b6040517fdf2d9b4200000000000000000000000000000000000000000000000000000000815260040160405180910390fd5b919050565b60008060006007600085815260200190815260200160002090508092508254915050915091565b600073ffffffffffffffffffffffffffffffffffffffff8316925073ffffffffffffffffffffffffffffffffffffffff821691508382148383141790509392505050565b50505050565b60008060e883901c905060e8611575868684611e17565b62ffffff16901b9150509392505050565b600073ffffffffffffffffffffffffffffffffffffffff83169250814260a01b178317905092915050565b50505050565b6115bf611e20565b73ffffffffffffffffffffffffffffffffffffffff166115dd610d75565b73ffffffffffffffffffffffffffffffffffffffff1614611633576040517f08c379a000000000000000000000000000000000000000000000000000000000815260040161162a90612ff7565b60405180910390fd5b565b60008060009054906101000a900473ffffffffffffffffffffffffffffffffffffffff169050816000806101000a81548173ffffffffffffffffffffffffffffffffffffffff021916908373ffffffffffffffffffffffffffffffffffffffff1602179055508173ffffffffffffffffffffffffffffffffffffffff168173ffffffffffffffffffffffffffffffffffffffff167f8be0079c531659141344cd1fd0a4f28419497f9722a3daafe3b4186f6b6457e060405160405180910390a35050565b6000600154905090565b6000600154905060008203611744576040517fb562e8dd00000000000000000000000000000000000000000000000000000000815260040160405180910390fd5b6117516000848385611558565b600160406001901b178202600660008573ffffffffffffffffffffffffffffffffffffffff1673ffffffffffffffffffffffffffffffffffffffff168152602001908152602001600020600082825401925050819055506117c8836117b9600086600061155e565b6117c285611e28565b17611586565b6005600083815260200190815260200160002081905550600080838301905073ffffffffffffffffffffffffffffffffffffffff85169150828260007fddf252ad1be2c89b69c2b068fc378daa952ba7f163c4a11628f55a4df523b3ef600080a4600183015b81811461186957808360007fddf252ad1be2c89b69c2b068fc378daa952ba7f163c4a11628f55a4df523b3ef600080a460018101905061182e565b50600082036118a4576040517f2e07630000000000000000000000000000000000000000000000000000000000815260040160405180910390fd5b8060018190555050506118ba60008483856115b1565b505050565b6000807f0000000000000000000000000000000000000000000000000000000000000000836118ee9190612a89565b149050919050565b60008373ffffffffffffffffffffffffffffffffffffffff1663150b7a0261191c611414565b8786866040518563ffffffff1660e01b815260040161193e9493929190613061565b6020604051808303816000875af192505050801561197a57506040513d601f19601f8201168201806040525081019061197791906130c2565b60015b6119f3573d80600081146119aa576040519150601f19603f3d011682016040523d82523d6000602084013e6119af565b606091505b5060008151036119eb576040517fd1a57ed600000000000000000000000000000000000000000000000000000000815260040160405180910390fd5b805181602001fd5b63150b7a0260e01b7bffffffffffffffffffffffffffffffffffffffffffffffffffffffff1916817bffffffffffffffffffffffffffffffffffffffffffffffffffffffff191614915050949350505050565b60606000807f000000000000000000000000000000000000000000000000000000000000000073ffffffffffffffffffffffffffffffffffffffff1663e3f24f02856040518263ffffffff1660e01b8152600401611aa49190612253565b600060405180830381865afa158015611ac1573d6000803e3d6000fd5b505050506040513d6000823e3d601f19601f82011682018060405250810190611aea919061315f565b915091506040518060800160405280604981526020016134f1604991398282604051602001611b1b9392919061326f565b60405160208183030381529060405292505050919050565b6060611b3e82611e38565b604051602001611b4e9190613302565b6040516020818303038152906040529050919050565b6060611b6f826118bf565b611bae576040518060400160405280600281526020017f4e6f000000000000000000000000000000000000000000000000000000000000815250611be5565b6040518060400160405280600381526020017f59657300000000000000000000000000000000000000000000000000000000008152505b604051602001611bf59190613396565b6040516020818303038152906040529050919050565b60606000825103611c2d57604051806020016040528060008152509050611d7e565b60006040518060600160405280604081526020016134b16040913990506000600360028551611c5c91906133c3565b611c669190612a58565b6004611c7291906133f7565b90506000602082611c8391906133c3565b67ffffffffffffffff811115611c9c57611c9b6122f8565b5b6040519080825280601f01601f191660200182016040528015611cce5781602001600182028036833780820191505090505b509050818152600183018586518101602084015b81831015611d3d576003830192508251603f8160121c168501518253600182019150603f81600c1c168501518253600182019150603f8160061c168501518253600182019150603f8116850151825360018201915050611ce2565b600389510660018114611d575760028114611d6757611d72565b613d3d60f01b6002830352611d72565b603d60f81b60018303525b50505050508093505050505b919050565b6000600860008473ffffffffffffffffffffffffffffffffffffffff1673ffffffffffffffffffffffffffffffffffffffff16815260200190815260200160002060008373ffffffffffffffffffffffffffffffffffffffff1673ffffffffffffffffffffffffffffffffffffffff16815260200190815260200160002060009054906101000a900460ff16905092915050565b60009392505050565b600033905090565b60006001821460e11b9050919050565b606060008203611e7f576040518060400160405280600181526020017f30000000000000000000000000000000000000000000000000000000000000008152509050611f93565b600082905060005b60008214611eb1578080611e9a90613439565b915050600a82611eaa9190612a58565b9150611e87565b60008167ffffffffffffffff811115611ecd57611ecc6122f8565b5b6040519080825280601f01601f191660200182016040528015611eff5781602001600182028036833780820191505090505b5090505b60008514611f8c57600182611f1891906129f5565b9150600a85611f279190612a89565b6030611f3391906133c3565b60f81b818381518110611f4957611f48613481565b5b60200101907effffffffffffffffffffffffffffffffffffffffffffffffffffffffffffff1916908160001a905350600a85611f859190612a58565b9450611f03565b8093505050505b919050565b6000604051905090565b600080fd5b600080fd5b60007fffffffff0000000000000000000000000000000000000000000000000000000082169050919050565b611fe181611fac565b8114611fec57600080fd5b50565b600081359050611ffe81611fd8565b92915050565b60006020828403121561201a57612019611fa2565b5b600061202884828501611fef565b91505092915050565b60008115159050919050565b61204681612031565b82525050565b6000602082019050612061600083018461203d565b92915050565b600081519050919050565b600082825260208201905092915050565b60005b838110156120a1578082015181840152602081019050612086565b60008484015250505050565b6000601f19601f8301169050919050565b60006120c982612067565b6120d38185612072565b93506120e3818560208601612083565b6120ec816120ad565b840191505092915050565b6000602082019050818103600083015261211181846120be565b905092915050565b6000819050919050565b61212c81612119565b811461213757600080fd5b50565b60008135905061214981612123565b92915050565b60006020828403121561216557612164611fa2565b5b60006121738482850161213a565b91505092915050565b600073ffffffffffffffffffffffffffffffffffffffff82169050919050565b60006121a78261217c565b9050919050565b6121b78161219c565b82525050565b60006020820190506121d260008301846121ae565b92915050565b6121e18161219c565b81146121ec57600080fd5b50565b6000813590506121fe816121d8565b92915050565b6000806040838503121561221b5761221a611fa2565b5b6000612229858286016121ef565b925050602061223a8582860161213a565b9150509250929050565b61224d81612119565b82525050565b60006020820190506122686000830184612244565b92915050565b60008060006060848603121561228757612286611fa2565b5b6000612295868287016121ef565b93505060206122a6868287016121ef565b92505060406122b78682870161213a565b9150509250925092565b6000602082840312156122d7576122d6611fa2565b5b60006122e5848285016121ef565b91505092915050565b600080fd5b600080fd5b7f4e487b7100000000000000000000000000000000000000000000000000000000600052604160045260246000fd5b612330826120ad565b810181811067ffffffffffffffff8211171561234f5761234e6122f8565b5b80604052505050565b6000612362611f98565b905061236e8282612327565b919050565b600067ffffffffffffffff82111561238e5761238d6122f8565b5b612397826120ad565b9050602081019050919050565b82818337600083830152505050565b60006123c66123c184612373565b612358565b9050828152602081018484840111156123e2576123e16122f3565b5b6123ed8482856123a4565b509392505050565b600082601f83011261240a576124096122ee565b5b813561241a8482602086016123b3565b91505092915050565b60006020828403121561243957612438611fa2565b5b600082013567ffffffffffffffff81111561245757612456611fa7565b5b612463848285016123f5565b91505092915050565b61247581612031565b811461248057600080fd5b50565b6000813590506124928161246c565b92915050565b600080604083850312156124af576124ae611fa2565b5b60006124bd858286016121ef565b92505060206124ce85828601612483565b9150509250929050565b6000819050919050565b60006124fd6124f86124f38461217c565b6124d8565b61217c565b9050919050565b600061250f826124e2565b9050919050565b600061252182612504565b9050919050565b61253181612516565b82525050565b600060208201905061254c6000830184612528565b92915050565b600061255d82612504565b9050919050565b61256d81612552565b82525050565b60006020820190506125886000830184612564565b92915050565b600067ffffffffffffffff8211156125a9576125a86122f8565b5b6125b2826120ad565b9050602081019050919050565b60006125d26125cd8461258e565b612358565b9050828152602081018484840111156125ee576125ed6122f3565b5b6125f98482856123a4565b509392505050565b600082601f830112612616576126156122ee565b5b81356126268482602086016125bf565b91505092915050565b6000806000806080858703121561264957612648611fa2565b5b6000612657878288016121ef565b9450506020612668878288016121ef565b93505060406126798782880161213a565b925050606085013567ffffffffffffffff81111561269a57612699611fa7565b5b6126a687828801612601565b91505092959194509250565b600080604083850312156126c9576126c8611fa2565b5b60006126d7858286016121ef565b92505060206126e8858286016121ef565b9150509250929050565b7f4e487b7100000000000000000000000000000000000000000000000000000000600052602260045260246000fd5b6000600282049050600182168061273957607f821691505b60208210810361274c5761274b6126f2565b5b50919050565b60008190508160005260206000209050919050565b60006020601f8301049050919050565b600082821b905092915050565b6000600883026127b47fffffffffffffffffffffffffffffffffffffffffffffffffffffffffffffffff82612777565b6127be8683612777565b95508019841693508086168417925050509392505050565b60006127f16127ec6127e784612119565b6124d8565b612119565b9050919050565b6000819050919050565b61280b836127d6565b61281f612817826127f8565b848454612784565b825550505050565b600090565b612834612827565b61283f818484612802565b505050565b5b818110156128635761285860008261282c565b600181019050612845565b5050565b601f8211156128a85761287981612752565b61288284612767565b81016020851015612891578190505b6128a561289d85612767565b830182612844565b50505b505050565b600082821c905092915050565b60006128cb600019846008026128ad565b1980831691505092915050565b60006128e483836128ba565b9150826002028217905092915050565b6128fd82612067565b67ffffffffffffffff811115612916576129156122f8565b5b6129208254612721565b61292b828285612867565b600060209050601f83116001811461295e576000841561294c578287015190505b61295685826128d8565b8655506129be565b601f19841661296c86612752565b60005b828110156129945784890151825560018201915060208501945060208101905061296f565b868310156129b157848901516129ad601f8916826128ba565b8355505b6001600288020188555050505b505050505050565b7f4e487b7100000000000000000000000000000000000000000000000000000000600052601160045260246000fd5b6000612a0082612119565b9150612a0b83612119565b9250828203905081811115612a2357612a226129c6565b5b92915050565b7f4e487b7100000000000000000000000000000000000000000000000000000000600052601260045260246000fd5b6000612a6382612119565b9150612a6e83612119565b925082612a7e57612a7d612a29565b5b828204905092915050565b6000612a9482612119565b9150612a9f83612119565b925082612aaf57612aae612a29565b5b828206905092915050565b7f4b616d6f6e546f6b656e2e746f6b656e5552493a206e6f6e6578697374656e7460008201527f20746f6b656e0000000000000000000000000000000000000000000000000000602082015250565b6000612b16602683612072565b9150612b2182612aba565b604082019050919050565b60006020820190508181036000830152612b4581612b09565b9050919050565b600081905092915050565b7f7b226e616d65223a220000000000000000000000000000000000000000000000600082015250565b6000612b8d600983612b4c565b9150612b9882612b57565b600982019050919050565b6000612bae82612067565b612bb88185612b4c565b9350612bc8818560208601612083565b80840191505092915050565b7f222c226465736372697074696f6e223a22000000000000000000000000000000600082015250565b6000612c0a601183612b4c565b9150612c1582612bd4565b601182019050919050565b60008154612c2d81612721565b612c378186612b4c565b94506001821660008114612c525760018114612c6757612c9a565b60ff1983168652811515820286019350612c9a565b612c7085612752565b60005b83811015612c9257815481890152600182019150602081019050612c73565b838801955050505b50505092915050565b7f222c2261747472696275746573223a5b00000000000000000000000000000000600082015250565b6000612cd9601083612b4c565b9150612ce482612ca3565b601082019050919050565b600081519050919050565b600081905092915050565b6000612d1082612cef565b612d1a8185612cfa565b9350612d2a818560208601612083565b80840191505092915050565b7f5d2c22696d616765223a22646174613a696d6167652f7376672b786d6c3b626160008201527f736536342c000000000000000000000000000000000000000000000000000000602082015250565b6000612d92602583612b4c565b9150612d9d82612d36565b602582019050919050565b7f227d000000000000000000000000000000000000000000000000000000000000600082015250565b6000612dde600283612b4c565b9150612de982612da8565b600282019050919050565b6000612dff82612b80565b9150612e0b8287612ba3565b9150612e1682612bfd565b9150612e228286612c20565b9150612e2d82612ccc565b9150612e398285612d05565b9150612e4482612d85565b9150612e508284612ba3565b9150612e5b82612dd1565b915081905095945050505050565b7f646174613a6170706c69636174696f6e2f6a736f6e3b6261736536342c000000600082015250565b6000612e9f601d83612b4c565b9150612eaa82612e69565b601d82019050919050565b6000612ec082612e92565b9150612ecc8284612ba3565b915081905092915050565b600081519050612ee6816121d8565b92915050565b600060208284031215612f0257612f01611fa2565b5b6000612f1084828501612ed7565b91505092915050565b7f4f776e61626c653a206e6577206f776e657220697320746865207a65726f206160008201527f6464726573730000000000000000000000000000000000000000000000000000602082015250565b6000612f75602683612072565b9150612f8082612f19565b604082019050919050565b60006020820190508181036000830152612fa481612f68565b9050919050565b7f4f776e61626c653a2063616c6c6572206973206e6f7420746865206f776e6572600082015250565b6000612fe1602083612072565b9150612fec82612fab565b602082019050919050565b6000602082019050818103600083015261301081612fd4565b9050919050565b600082825260208201905092915050565b600061303382612cef565b61303d8185613017565b935061304d818560208601612083565b613056816120ad565b840191505092915050565b600060808201905061307660008301876121ae565b61308360208301866121ae565b6130906040830185612244565b81810360608301526130a28184613028565b905095945050505050565b6000815190506130bc81611fd8565b92915050565b6000602082840312156130d8576130d7611fa2565b5b60006130e6848285016130ad565b91505092915050565b60006131026130fd84612373565b612358565b90508281526020810184848401111561311e5761311d6122f3565b5b613129848285612083565b509392505050565b600082601f830112613146576131456122ee565b5b81516131568482602086016130ef565b91505092915050565b6000806040838503121561317657613175611fa2565b5b600083015167ffffffffffffffff81111561319457613193611fa7565b5b6131a085828601613131565b925050602083015167ffffffffffffffff8111156131c1576131c0611fa7565b5b6131cd85828601613131565b9150509250929050565b7f3c2f646566733e0a203c75736520687265663d22000000000000000000000000600082015250565b600061320d601483612b4c565b9150613218826131d7565b601482019050919050565b7f22202f3e0a3c2f7376673e0a0000000000000000000000000000000000000000600082015250565b6000613259600c83612b4c565b915061326482613223565b600c82019050919050565b600061327b8286612ba3565b91506132878285612ba3565b915061329282613200565b915061329e8284612ba3565b91506132a98261324c565b9150819050949350505050565b7f53706c6174746572200000000000000000000000000000000000000000000000600082015250565b60006132ec600983612b4c565b91506132f7826132b6565b600982019050919050565b600061330d826132df565b91506133198284612ba3565b915081905092915050565b7f7b2274726169745f74797065223a225072696d617279222c2276616c7565223a60008201527f2200000000000000000000000000000000000000000000000000000000000000602082015250565b6000613380602183612b4c565b915061338b82613324565b602182019050919050565b60006133a182613373565b91506133ad8284612ba3565b91506133b882612dd1565b915081905092915050565b60006133ce82612119565b91506133d983612119565b92508282019050808211156133f1576133f06129c6565b5b92915050565b600061340282612119565b915061340d83612119565b925082820261341b81612119565b91508282048414831517613432576134316129c6565b5b5092915050565b600061344482612119565b91507fffffffffffffffffffffffffffffffffffffffffffffffffffffffffffffffff8203613476576134756129c6565b5b600182019050919050565b7f4e487b7100000000000000000000000000000000000000000000000000000000600052603260045260246000fdfe4142434445464748494a4b4c4d4e4f505152535455565758595a6162636465666768696a6b6c6d6e6f707172737475767778797a303132333435363738392b2f3c7376672076696577426f783d2230203020313032342031303234222020786d6c6e733d22687474703a2f2f7777772e77332e6f72672f323030302f737667223e0a3c646566733e0aa26469706673582212201e9a08e7c09f539731e7547d48785cefae0be687bb8d4a1fd560c863aa87d51364736f6c634300081100335468697320697320612070617274206f662046756c6c79204f6e2d636861696e2047656e65726174697665204172742070726f6a656374202868747470733a2f2f66756c6c796f6e636861696e2e78797a2f292e",
  "linkReferences": {},
  "deployedLinkReferences": {}
}