{
  "_format": "hh-sol-artifact-1",
  "contractName": "SVGTokenV1",
  "sourceName": "contracts/SVGTokenV1.sol",
  "abi": [
    {
      "inputs": [
        {
          "internalType": "contract IAssetProvider",
          "name": "_assetProvider",
          "type": "address"
        },
        {
          "internalType": "contract ISVGStoreV1",
          "name": "_svgStore",
          "type": "address"
        }
      ],
      "stateMutability": "nonpayable",
      "type": "constructor"
    },
    {
      "inputs": [
        {
          "internalType": "address",
          "name": "operator",
          "type": "address"
        }
      ],
      "name": "OperatorNotAllowed",
      "type": "error"
    },
    {
      "anonymous": false,
      "inputs": [
        {
          "indexed": true,
          "internalType": "address",
          "name": "owner",
          "type": "address"
        },
        {
          "indexed": true,
          "internalType": "address",
          "name": "approved",
          "type": "address"
        },
        {
          "indexed": true,
          "internalType": "uint256",
          "name": "tokenId",
          "type": "uint256"
        }
      ],
      "name": "Approval",
      "type": "event"
    },
    {
      "anonymous": false,
      "inputs": [
        {
          "indexed": true,
          "internalType": "address",
          "name": "owner",
          "type": "address"
        },
        {
          "indexed": true,
          "internalType": "address",
          "name": "operator",
          "type": "address"
        },
        {
          "indexed": false,
          "internalType": "bool",
          "name": "approved",
          "type": "bool"
        }
      ],
      "name": "ApprovalForAll",
      "type": "event"
    },
    {
      "anonymous": false,
      "inputs": [
        {
          "indexed": true,
          "internalType": "address",
          "name": "previousOwner",
          "type": "address"
        },
        {
          "indexed": true,
          "internalType": "address",
          "name": "newOwner",
          "type": "address"
        }
      ],
      "name": "OwnershipTransferred",
      "type": "event"
    },
    {
      "anonymous": false,
      "inputs": [
        {
          "indexed": true,
          "internalType": "uint256",
          "name": "tokenId",
          "type": "uint256"
        },
        {
          "indexed": false,
          "internalType": "uint256",
          "name": "price",
          "type": "uint256"
        }
      ],
      "name": "SetPrice",
      "type": "event"
    },
    {
      "anonymous": false,
      "inputs": [
        {
          "indexed": true,
          "internalType": "address",
          "name": "from",
          "type": "address"
        },
        {
          "indexed": true,
          "internalType": "address",
          "name": "to",
          "type": "address"
        },
        {
          "indexed": true,
          "internalType": "uint256",
          "name": "tokenId",
          "type": "uint256"
        }
      ],
      "name": "Transfer",
      "type": "event"
    },
    {
      "inputs": [],
      "name": "OPERATOR_FILTER_REGISTRY",
      "outputs": [
        {
          "internalType": "contract IOperatorFilterRegistry",
          "name": "",
          "type": "address"
        }
      ],
      "stateMutability": "view",
      "type": "function"
    },
    {
      "inputs": [
        {
          "internalType": "uint256",
          "name": "_tokenId",
          "type": "uint256"
        },
        {
          "internalType": "contract IERC721Marketplace",
          "name": "_dealer",
          "type": "address"
        },
        {
          "internalType": "uint256",
          "name": "_price",
          "type": "uint256"
        }
      ],
      "name": "acceptOffer",
      "outputs": [],
      "stateMutability": "nonpayable",
      "type": "function"
    },
    {
      "inputs": [
        {
          "internalType": "address",
          "name": "operator",
          "type": "address"
        },
        {
          "internalType": "uint256",
          "name": "tokenId",
          "type": "uint256"
        }
      ],
      "name": "approve",
      "outputs": [],
      "stateMutability": "nonpayable",
      "type": "function"
    },
    {
      "inputs": [],
      "name": "assetProvider",
      "outputs": [
        {
          "internalType": "contract IAssetProvider",
          "name": "",
          "type": "address"
        }
      ],
      "stateMutability": "view",
      "type": "function"
    },
    {
      "inputs": [
        {
          "internalType": "address",
          "name": "owner",
          "type": "address"
        }
      ],
      "name": "balanceOf",
      "outputs": [
        {
          "internalType": "uint256",
          "name": "",
          "type": "uint256"
        }
      ],
      "stateMutability": "view",
      "type": "function"
    },
    {
      "inputs": [
        {
          "internalType": "uint256",
          "name": "_tokenId",
          "type": "uint256"
        }
      ],
      "name": "debugTokenURI",
      "outputs": [
        {
          "internalType": "string",
          "name": "uri",
          "type": "string"
        },
        {
          "internalType": "uint256",
          "name": "gas",
          "type": "uint256"
        }
      ],
      "stateMutability": "view",
      "type": "function"
    },
    {
      "inputs": [],
      "name": "description",
      "outputs": [
        {
          "internalType": "string",
          "name": "",
          "type": "string"
        }
      ],
      "stateMutability": "view",
      "type": "function"
    },
    {
      "inputs": [
        {
          "internalType": "address",
          "name": "_wallet",
          "type": "address"
        }
      ],
      "name": "etherBalanceOf",
      "outputs": [
        {
          "internalType": "uint256",
          "name": "",
          "type": "uint256"
        }
      ],
      "stateMutability": "view",
      "type": "function"
    },
    {
      "inputs": [
        {
          "internalType": "uint256",
          "name": "tokenId",
          "type": "uint256"
        }
      ],
      "name": "getApproved",
      "outputs": [
        {
          "internalType": "address",
          "name": "",
          "type": "address"
        }
      ],
      "stateMutability": "view",
      "type": "function"
    },
    {
      "inputs": [
        {
          "internalType": "uint256",
          "name": "_tokenId",
          "type": "uint256"
        }
      ],
      "name": "getPriceOf",
      "outputs": [
        {
          "internalType": "uint256",
          "name": "",
          "type": "uint256"
        }
      ],
      "stateMutability": "view",
      "type": "function"
    },
    {
      "inputs": [
        {
          "internalType": "address",
          "name": "owner",
          "type": "address"
        },
        {
          "internalType": "address",
          "name": "operator",
          "type": "address"
        }
      ],
      "name": "isApprovedForAll",
      "outputs": [
        {
          "internalType": "bool",
          "name": "",
          "type": "bool"
        }
      ],
      "stateMutability": "view",
      "type": "function"
    },
    {
      "inputs": [],
      "name": "mint",
      "outputs": [
        {
          "internalType": "uint256",
          "name": "tokenId",
          "type": "uint256"
        }
      ],
      "stateMutability": "payable",
      "type": "function"
    },
    {
      "inputs": [],
      "name": "mintLimit",
      "outputs": [
        {
          "internalType": "uint256",
          "name": "",
          "type": "uint256"
        }
      ],
      "stateMutability": "view",
      "type": "function"
    },
    {
      "inputs": [],
      "name": "mintPrice",
      "outputs": [
        {
          "internalType": "uint256",
          "name": "",
          "type": "uint256"
        }
      ],
      "stateMutability": "view",
      "type": "function"
    },
    {
      "inputs": [
        {
          "internalType": "address",
          "name": "",
          "type": "address"
        }
      ],
      "name": "mintPriceFor",
      "outputs": [
        {
          "internalType": "uint256",
          "name": "",
          "type": "uint256"
        }
      ],
      "stateMutability": "view",
      "type": "function"
    },
    {
      "inputs": [
        {
          "components": [
            {
              "internalType": "bytes[]",
              "name": "paths",
              "type": "bytes[]"
            },
            {
              "internalType": "string[]",
              "name": "fills",
              "type": "string[]"
            },
            {
              "internalType": "uint8[]",
              "name": "strokes",
              "type": "uint8[]"
            },
            {
              "internalType": "string[]",
              "name": "matrixes",
              "type": "string[]"
            }
          ],
          "internalType": "struct ISVGStoreV1.Asset",
          "name": "asset",
          "type": "tuple"
        },
        {
          "internalType": "uint256",
          "name": "price",
          "type": "uint256"
        }
      ],
      "name": "mintToSell",
      "outputs": [
        {
          "internalType": "uint256",
          "name": "tokenId",
          "type": "uint256"
        }
      ],
      "stateMutability": "nonpayable",
      "type": "function"
    },
    {
      "inputs": [
        {
          "components": [
            {
              "internalType": "bytes[]",
              "name": "paths",
              "type": "bytes[]"
            },
            {
              "internalType": "string[]",
              "name": "fills",
              "type": "string[]"
            },
            {
              "internalType": "uint8[]",
              "name": "strokes",
              "type": "uint8[]"
            },
            {
              "internalType": "string[]",
              "name": "matrixes",
              "type": "string[]"
            }
          ],
          "internalType": "struct ISVGStoreV1.Asset",
          "name": "asset",
          "type": "tuple"
        }
      ],
      "name": "mintWithAsset",
      "outputs": [
        {
          "internalType": "uint256",
          "name": "tokenId",
          "type": "uint256"
        }
      ],
      "stateMutability": "nonpayable",
      "type": "function"
    },
    {
      "inputs": [],
      "name": "name",
      "outputs": [
        {
          "internalType": "string",
          "name": "",
          "type": "string"
        }
      ],
      "stateMutability": "view",
      "type": "function"
    },
    {
      "inputs": [],
      "name": "nextTokenId",
      "outputs": [
        {
          "internalType": "uint256",
          "name": "",
          "type": "uint256"
        }
      ],
      "stateMutability": "view",
      "type": "function"
    },
    {
      "inputs": [],
      "name": "owner",
      "outputs": [
        {
          "internalType": "address",
          "name": "",
          "type": "address"
        }
      ],
      "stateMutability": "view",
      "type": "function"
    },
    {
      "inputs": [
        {
          "internalType": "uint256",
          "name": "tokenId",
          "type": "uint256"
        }
      ],
      "name": "ownerOf",
      "outputs": [
        {
          "internalType": "address",
          "name": "",
          "type": "address"
        }
      ],
      "stateMutability": "view",
      "type": "function"
    },
    {
      "inputs": [
        {
          "internalType": "uint256",
          "name": "_tokenId",
          "type": "uint256"
        },
        {
          "internalType": "address",
          "name": "_buyer",
          "type": "address"
        },
        {
          "internalType": "address",
          "name": "_facilitator",
          "type": "address"
        }
      ],
      "name": "purchase",
      "outputs": [],
      "stateMutability": "payable",
      "type": "function"
    },
    {
      "inputs": [],
      "name": "renounceOwnership",
      "outputs": [],
      "stateMutability": "nonpayable",
      "type": "function"
    },
    {
      "inputs": [
        {
          "internalType": "address",
          "name": "from",
          "type": "address"
        },
        {
          "internalType": "address",
          "name": "to",
          "type": "address"
        },
        {
          "internalType": "uint256",
          "name": "tokenId",
          "type": "uint256"
        }
      ],
      "name": "safeTransferFrom",
      "outputs": [],
      "stateMutability": "nonpayable",
      "type": "function"
    },
    {
      "inputs": [
        {
          "internalType": "address",
          "name": "from",
          "type": "address"
        },
        {
          "internalType": "address",
          "name": "to",
          "type": "address"
        },
        {
          "internalType": "uint256",
          "name": "tokenId",
          "type": "uint256"
        },
        {
          "internalType": "bytes",
          "name": "data",
          "type": "bytes"
        }
      ],
      "name": "safeTransferFrom",
      "outputs": [],
      "stateMutability": "nonpayable",
      "type": "function"
    },
    {
      "inputs": [
        {
          "internalType": "address",
          "name": "operator",
          "type": "address"
        },
        {
          "internalType": "bool",
          "name": "approved",
          "type": "bool"
        }
      ],
      "name": "setApprovalForAll",
      "outputs": [],
      "stateMutability": "nonpayable",
      "type": "function"
    },
    {
      "inputs": [
        {
          "internalType": "contract IAssetProvider",
          "name": "_assetProvider",
          "type": "address"
        }
      ],
      "name": "setAssetProvider",
      "outputs": [],
      "stateMutability": "nonpayable",
      "type": "function"
    },
    {
      "inputs": [
        {
          "internalType": "string",
          "name": "_description",
          "type": "string"
        }
      ],
      "name": "setDescription",
      "outputs": [],
      "stateMutability": "nonpayable",
      "type": "function"
    },
    {
      "inputs": [
        {
          "internalType": "uint256",
          "name": "_limit",
          "type": "uint256"
        }
      ],
      "name": "setMintLimit",
      "outputs": [],
      "stateMutability": "nonpayable",
      "type": "function"
    },
    {
      "inputs": [
        {
          "internalType": "uint256",
          "name": "_price",
          "type": "uint256"
        }
      ],
      "name": "setMintPrice",
      "outputs": [],
      "stateMutability": "nonpayable",
      "type": "function"
    },
    {
      "inputs": [
        {
          "internalType": "uint256",
          "name": "_tokenId",
          "type": "uint256"
        },
        {
          "internalType": "uint256",
          "name": "_price",
          "type": "uint256"
        }
      ],
      "name": "setPriceOf",
      "outputs": [],
      "stateMutability": "nonpayable",
      "type": "function"
    },
    {
      "inputs": [
        {
          "internalType": "bytes4",
          "name": "interfaceId",
          "type": "bytes4"
        }
      ],
      "name": "supportsInterface",
      "outputs": [
        {
          "internalType": "bool",
          "name": "",
          "type": "bool"
        }
      ],
      "stateMutability": "view",
      "type": "function"
    },
    {
      "inputs": [],
      "name": "svgStoreV1",
      "outputs": [
        {
          "internalType": "contract ISVGStoreV1",
          "name": "",
          "type": "address"
        }
      ],
      "stateMutability": "view",
      "type": "function"
    },
    {
      "inputs": [],
      "name": "symbol",
      "outputs": [
        {
          "internalType": "string",
          "name": "",
          "type": "string"
        }
      ],
      "stateMutability": "view",
      "type": "function"
    },
    {
      "inputs": [
        {
          "internalType": "uint256",
          "name": "_tokenId",
          "type": "uint256"
        }
      ],
      "name": "tokenURI",
      "outputs": [
        {
          "internalType": "string",
          "name": "",
          "type": "string"
        }
      ],
      "stateMutability": "view",
      "type": "function"
    },
    {
      "inputs": [],
      "name": "totalSupply",
      "outputs": [
        {
          "internalType": "uint256",
          "name": "",
          "type": "uint256"
        }
      ],
      "stateMutability": "view",
      "type": "function"
    },
    {
      "inputs": [
        {
          "internalType": "address",
          "name": "from",
          "type": "address"
        },
        {
          "internalType": "address",
          "name": "to",
          "type": "address"
        },
        {
          "internalType": "uint256",
          "name": "tokenId",
          "type": "uint256"
        }
      ],
      "name": "transferFrom",
      "outputs": [],
      "stateMutability": "nonpayable",
      "type": "function"
    },
    {
      "inputs": [
        {
          "internalType": "address",
          "name": "newOwner",
          "type": "address"
        }
      ],
      "name": "transferOwnership",
      "outputs": [],
      "stateMutability": "nonpayable",
      "type": "function"
    }
  ],
  "bytecode": "0x60a06040523480156200001157600080fd5b50604051620062c4380380620062c483398181016040528101906200003791906200064d565b816040518060400160405280600a81526020017f535647546f6b656e5631000000000000000000000000000000000000000000008152506040518060400160405280600a81526020017f535647546f6b656e563100000000000000000000000000000000000000000000815250733cc6cdda760b79bafa08df41ecfa224f810dceb6600183838160009081620000ce91906200090e565b508060019081620000e091906200090e565b50505060006daaeb6d7670e522a718067333cd4e73ffffffffffffffffffffffffffffffffffffffff163b1115620002d85780156200019e576daaeb6d7670e522a718067333cd4e73ffffffffffffffffffffffffffffffffffffffff16637d3e3dbe30846040518363ffffffff1660e01b81526004016200016492919062000a06565b600060405180830381600087803b1580156200017f57600080fd5b505af115801562000194573d6000803e3d6000fd5b50505050620002d7565b600073ffffffffffffffffffffffffffffffffffffffff168273ffffffffffffffffffffffffffffffffffffffff161462000258576daaeb6d7670e522a718067333cd4e73ffffffffffffffffffffffffffffffffffffffff1663a0af290330846040518363ffffffff1660e01b81526004016200021e92919062000a06565b600060405180830381600087803b1580156200023957600080fd5b505af11580156200024e573d6000803e3d6000fd5b50505050620002d6565b6daaeb6d7670e522a718067333cd4e73ffffffffffffffffffffffffffffffffffffffff16634420e486306040518263ffffffff1660e01b8152600401620002a1919062000a33565b600060405180830381600087803b158015620002bc57600080fd5b505af1158015620002d1573d6000803e3d6000fd5b505050505b5b5b5050620002fa620002ee620003e760201b60201c565b620003ef60201b60201c565b82600c60006101000a81548173ffffffffffffffffffffffffffffffffffffffff021916908373ffffffffffffffffffffffffffffffffffffffff1602179055505050506040518060400160405280600a81526020017f535647546f6b656e563100000000000000000000000000000000000000000000815250600990816200038491906200090e565b508073ffffffffffffffffffffffffffffffffffffffff1660808173ffffffffffffffffffffffffffffffffffffffff1681525050620003df74446c3b15f9926687d2c40534fdb564000000000000620004b560201b60201c565b505062000ad3565b600033905090565b6000600660009054906101000a900473ffffffffffffffffffffffffffffffffffffffff16905081600660006101000a81548173ffffffffffffffffffffffffffffffffffffffff021916908373ffffffffffffffffffffffffffffffffffffffff1602179055508173ffffffffffffffffffffffffffffffffffffffff168173ffffffffffffffffffffffffffffffffffffffff167f8be0079c531659141344cd1fd0a4f28419497f9722a3daafe3b4186f6b6457e060405160405180910390a35050565b620004c5620004cf60201b60201c565b80600b8190555050565b620004df620003e760201b60201c565b73ffffffffffffffffffffffffffffffffffffffff16620005056200056060201b60201c565b73ffffffffffffffffffffffffffffffffffffffff16146200055e576040517f08c379a0000000000000000000000000000000000000000000000000000000008152600401620005559062000ab1565b60405180910390fd5b565b6000600660009054906101000a900473ffffffffffffffffffffffffffffffffffffffff16905090565b600080fd5b600073ffffffffffffffffffffffffffffffffffffffff82169050919050565b6000620005bc826200058f565b9050919050565b6000620005d082620005af565b9050919050565b620005e281620005c3565b8114620005ee57600080fd5b50565b6000815190506200060281620005d7565b92915050565b60006200061582620005af565b9050919050565b620006278162000608565b81146200063357600080fd5b50565b60008151905062000647816200061c565b92915050565b600080604083850312156200066757620006666200058a565b5b60006200067785828601620005f1565b92505060206200068a8582860162000636565b9150509250929050565b600081519050919050565b7f4e487b7100000000000000000000000000000000000000000000000000000000600052604160045260246000fd5b7f4e487b7100000000000000000000000000000000000000000000000000000000600052602260045260246000fd5b600060028204905060018216806200071657607f821691505b6020821081036200072c576200072b620006ce565b5b50919050565b60008190508160005260206000209050919050565b60006020601f8301049050919050565b600082821b905092915050565b600060088302620007967fffffffffffffffffffffffffffffffffffffffffffffffffffffffffffffffff8262000757565b620007a2868362000757565b95508019841693508086168417925050509392505050565b6000819050919050565b6000819050919050565b6000620007ef620007e9620007e384620007ba565b620007c4565b620007ba565b9050919050565b6000819050919050565b6200080b83620007ce565b620008236200081a82620007f6565b84845462000764565b825550505050565b600090565b6200083a6200082b565b6200084781848462000800565b505050565b5b818110156200086f576200086360008262000830565b6001810190506200084d565b5050565b601f821115620008be57620008888162000732565b620008938462000747565b81016020851015620008a3578190505b620008bb620008b28562000747565b8301826200084c565b50505b505050565b600082821c905092915050565b6000620008e360001984600802620008c3565b1980831691505092915050565b6000620008fe8383620008d0565b9150826002028217905092915050565b620009198262000694565b67ffffffffffffffff8111156200093557620009346200069f565b5b620009418254620006fd565b6200094e82828562000873565b600060209050601f83116001811462000986576000841562000971578287015190505b6200097d8582620008f0565b865550620009ed565b601f198416620009968662000732565b60005b82811015620009c05784890151825560018201915060208501945060208101905062000999565b86831015620009e05784890151620009dc601f891682620008d0565b8355505b6001600288020188555050505b505050505050565b62000a0081620005af565b82525050565b600060408201905062000a1d6000830185620009f5565b62000a2c6020830184620009f5565b9392505050565b600060208201905062000a4a6000830184620009f5565b92915050565b600082825260208201905092915050565b7f4f776e61626c653a2063616c6c6572206973206e6f7420746865206f776e6572600082015250565b600062000a9960208362000a50565b915062000aa68262000a61565b602082019050919050565b6000602082019050818103600083015262000acc8162000a8a565b9050919050565b6080516157ce62000af660003960008181610d4a01526114a301526157ce6000f3fe6080604052600436106102255760003560e01c80637dd268e111610123578063a370f7d7116100ab578063cc44ab411161006f578063cc44ab4114610827578063e985e9c514610865578063f2fde38b146108a2578063f4a0a528146108cb578063fba49e4f146108f457610225565b8063a370f7d714610730578063b212cfc71461075b578063b54b4fb914610784578063b88d4fde146107c1578063c87b56dd146107ea57610225565b806395d89b41116100f257806395d89b411461065d5780639623144d14610688578063996517cf146106b35780639e6a1d7d146106de578063a22cb4651461070757610225565b80637dd268e1146105a35780638da5cb5b146105e057806390c3f38f1461060b5780639589d7b91461063457610225565b8063295702cd116101b15780636817c76c116101755780636817c76c146104ce57806370a08231146104f9578063715018a6146105365780637284e4161461054d57806375794a3c1461057857610225565b8063295702cd146103e45780633b7f8f151461042157806341f434341461043d57806342842e0e146104685780636352211e1461049157610225565b80631249c58b116101f85780631249c58b146102f85780631346d8ea14610316578063179fc99f1461035357806318160ddd1461039057806323b872dd146103bb57610225565b806301ffc9a71461022a57806306fdde0314610267578063081812fc14610292578063095ea7b3146102cf575b600080fd5b34801561023657600080fd5b50610251600480360381019061024c9190613067565b61091d565b60405161025e91906130af565b60405180910390f35b34801561027357600080fd5b5061027c610997565b604051610289919061315a565b60405180910390f35b34801561029e57600080fd5b506102b960048036038101906102b491906131b2565b610a29565b6040516102c69190613220565b60405180910390f35b3480156102db57600080fd5b506102f660048036038101906102f19190613267565b610a6f565b005b610300610b79565b60405161030d91906132b6565b60405180910390f35b34801561032257600080fd5b5061033d600480360381019061033891906132d1565b610bbe565b60405161034a91906132b6565b60405180910390f35b34801561035f57600080fd5b5061037a600480360381019061037591906132d1565b610bca565b60405161038791906132b6565b60405180910390f35b34801561039c57600080fd5b506103a5610beb565b6040516103b291906132b6565b60405180910390f35b3480156103c757600080fd5b506103e260048036038101906103dd91906132fe565b610bf5565b005b3480156103f057600080fd5b5061040b600480360381019061040691906138dc565b610d45565b60405161041891906132b6565b60405180910390f35b61043b60048036038101906104369190613925565b610e60565b005b34801561044957600080fd5b50610452610fb7565b60405161045f91906139d7565b60405180910390f35b34801561047457600080fd5b5061048f600480360381019061048a91906132fe565b610fc9565b005b34801561049d57600080fd5b506104b860048036038101906104b391906131b2565b611119565b6040516104c59190613220565b60405180910390f35b3480156104da57600080fd5b506104e36111ca565b6040516104f091906132b6565b60405180910390f35b34801561050557600080fd5b50610520600480360381019061051b91906132d1565b6111d0565b60405161052d91906132b6565b60405180910390f35b34801561054257600080fd5b5061054b611287565b005b34801561055957600080fd5b5061056261129b565b60405161056f919061315a565b60405180910390f35b34801561058457600080fd5b5061058d611329565b60405161059a91906132b6565b60405180910390f35b3480156105af57600080fd5b506105ca60048036038101906105c591906139f2565b61132f565b6040516105d791906132b6565b60405180910390f35b3480156105ec57600080fd5b506105f561134c565b6040516106029190613220565b60405180910390f35b34801561061757600080fd5b50610632600480360381019061062d9190613a4e565b611376565b005b34801561064057600080fd5b5061065b60048036038101906106569190613ad5565b611391565b005b34801561066957600080fd5b5061067261140f565b60405161067f919061315a565b60405180910390f35b34801561069457600080fd5b5061069d6114a1565b6040516106aa9190613b49565b60405180910390f35b3480156106bf57600080fd5b506106c86114c5565b6040516106d591906132b6565b60405180910390f35b3480156106ea57600080fd5b50610705600480360381019061070091906131b2565b6114cf565b005b34801561071357600080fd5b5061072e60048036038101906107299190613b90565b6114e1565b005b34801561073c57600080fd5b506107456115eb565b6040516107529190613bf1565b60405180910390f35b34801561076757600080fd5b50610782600480360381019061077d9190613c4a565b611611565b005b34801561079057600080fd5b506107ab60048036038101906107a691906131b2565b61165d565b6040516107b891906132b6565b60405180910390f35b3480156107cd57600080fd5b506107e860048036038101906107e39190613c77565b61167a565b005b3480156107f657600080fd5b50610811600480360381019061080c91906131b2565b6117cd565b60405161081e919061315a565b60405180910390f35b34801561083357600080fd5b5061084e600480360381019061084991906131b2565b6118ab565b60405161085c929190613cfa565b60405180910390f35b34801561087157600080fd5b5061088c60048036038101906108879190613d2a565b6118d0565b60405161089991906130af565b60405180910390f35b3480156108ae57600080fd5b506108c960048036038101906108c491906132d1565b611964565b005b3480156108d757600080fd5b506108f260048036038101906108ed91906131b2565b6119e7565b005b34801561090057600080fd5b5061091b60048036038101906109169190613d6a565b6119f9565b005b60007fe019895a000000000000000000000000000000000000000000000000000000007bffffffffffffffffffffffffffffffffffffffffffffffffffffffff1916827bffffffffffffffffffffffffffffffffffffffffffffffffffffffff19161480610990575061098f82611ac3565b5b9050919050565b6060600080546109a690613dd9565b80601f01602080910402602001604051908101604052809291908181526020018280546109d290613dd9565b8015610a1f5780601f106109f457610100808354040283529160200191610a1f565b820191906000526020600020905b815481529060010190602001808311610a0257829003601f168201915b5050505050905090565b6000610a3482611ba5565b6004600083815260200190815260200160002060009054906101000a900473ffffffffffffffffffffffffffffffffffffffff169050919050565b8160006daaeb6d7670e522a718067333cd4e73ffffffffffffffffffffffffffffffffffffffff163b1115610b6a576daaeb6d7670e522a718067333cd4e73ffffffffffffffffffffffffffffffffffffffff1663c617113430836040518363ffffffff1660e01b8152600401610ae7929190613e0a565b602060405180830381865afa158015610b04573d6000803e3d6000fd5b505050506040513d601f19601f82011682018060405250810190610b289190613e48565b610b6957806040517fede71dcc000000000000000000000000000000000000000000000000000000008152600401610b609190613220565b60405180910390fd5b5b610b748383611bf0565b505050565b600080610bbb576040517f08c379a0000000000000000000000000000000000000000000000000000000008152600401610bb290613ec1565b60405180910390fd5b90565b6000600a549050919050565b60008173ffffffffffffffffffffffffffffffffffffffff16319050919050565b6000600854905090565b8260006daaeb6d7670e522a718067333cd4e73ffffffffffffffffffffffffffffffffffffffff163b1115610d33573373ffffffffffffffffffffffffffffffffffffffff168173ffffffffffffffffffffffffffffffffffffffff1603610c6757610c62848484611d07565b610d3f565b6daaeb6d7670e522a718067333cd4e73ffffffffffffffffffffffffffffffffffffffff1663c617113430336040518363ffffffff1660e01b8152600401610cb0929190613e0a565b602060405180830381865afa158015610ccd573d6000803e3d6000fd5b505050506040513d601f19601f82011682018060405250810190610cf19190613e48565b610d3257336040517fede71dcc000000000000000000000000000000000000000000000000000000008152600401610d299190613220565b60405180910390fd5b5b610d3e848484611d07565b5b50505050565b6000807f000000000000000000000000000000000000000000000000000000000000000073ffffffffffffffffffffffffffffffffffffffff1663faedc8b5846040518263ffffffff1660e01b8152600401610da1919061423a565b6020604051808303816000875af1158015610dc0573d6000803e3d6000fd5b505050506040513d601f19601f82011682018060405250810190610de49190614271565b9050610dee611d67565b915080600d60008481526020019081526020016000208190555033600e600084815260200190815260200160002060006101000a81548173ffffffffffffffffffffffffffffffffffffffff021916908373ffffffffffffffffffffffffffffffffffffffff16021790555050919050565b60006007600085815260200190815260200160002054905060008111610ebb576040517f08c379a0000000000000000000000000000000000000000000000000000000008152600401610eb2906142ea565b60405180910390fd5b80341015610efe576040517f08c379a0000000000000000000000000000000000000000000000000000000008152600401610ef590614356565b60405180910390fd5b6000610f0a3484611dda565b90506000610f183487611e7f565b90506000610f2587611119565b905060008190508073ffffffffffffffffffffffffffffffffffffffff166108fc848634610f5391906143a5565b610f5d91906143a5565b9081150290604051600060405180830381858888f19350505050158015610f88573d6000803e3d6000fd5b506000600760008a815260200190815260200160002081905550610fad82888a611f1d565b5050505050505050565b6daaeb6d7670e522a718067333cd4e81565b8260006daaeb6d7670e522a718067333cd4e73ffffffffffffffffffffffffffffffffffffffff163b1115611107573373ffffffffffffffffffffffffffffffffffffffff168173ffffffffffffffffffffffffffffffffffffffff160361103b57611036848484612183565b611113565b6daaeb6d7670e522a718067333cd4e73ffffffffffffffffffffffffffffffffffffffff1663c617113430336040518363ffffffff1660e01b8152600401611084929190613e0a565b602060405180830381865afa1580156110a1573d6000803e3d6000fd5b505050506040513d601f19601f820116820180604052508101906110c59190613e48565b61110657336040517fede71dcc0000000000000000000000000000000000000000000000000000000081526004016110fd9190613220565b60405180910390fd5b5b611112848484612183565b5b50505050565b6000806002600084815260200190815260200160002060009054906101000a900473ffffffffffffffffffffffffffffffffffffffff169050600073ffffffffffffffffffffffffffffffffffffffff168173ffffffffffffffffffffffffffffffffffffffff16036111c1576040517f08c379a00000000000000000000000000000000000000000000000000000000081526004016111b890614425565b60405180910390fd5b80915050919050565b600a5481565b60008073ffffffffffffffffffffffffffffffffffffffff168273ffffffffffffffffffffffffffffffffffffffff1603611240576040517f08c379a0000000000000000000000000000000000000000000000000000000008152600401611237906144b7565b60405180910390fd5b600360008373ffffffffffffffffffffffffffffffffffffffff1673ffffffffffffffffffffffffffffffffffffffff168152602001908152602001600020549050919050565b61128f6121a3565b6112996000612221565b565b600980546112a890613dd9565b80601f01602080910402602001604051908101604052809291908181526020018280546112d490613dd9565b80156113215780601f106112f657610100808354040283529160200191611321565b820191906000526020600020905b81548152906001019060200180831161130457829003601f168201915b505050505081565b60085481565b600061133a83610d45565b905061134681836119f9565b92915050565b6000600660009054906101000a900473ffffffffffffffffffffffffffffffffffffffff16905090565b61137e6121a3565b806009908161138d9190614679565b5050565b61139b83826119f9565b8173ffffffffffffffffffffffffffffffffffffffff16633c6fc8173085846040518463ffffffff1660e01b81526004016113d89392919061476c565b600060405180830381600087803b1580156113f257600080fd5b505af1158015611406573d6000803e3d6000fd5b50505050505050565b60606001805461141e90613dd9565b80601f016020809104026020016040519081016040528092919081815260200182805461144a90613dd9565b80156114975780601f1061146c57610100808354040283529160200191611497565b820191906000526020600020905b81548152906001019060200180831161147a57829003601f168201915b5050505050905090565b7f000000000000000000000000000000000000000000000000000000000000000081565b6000600b54905090565b6114d76121a3565b80600b8190555050565b8160006daaeb6d7670e522a718067333cd4e73ffffffffffffffffffffffffffffffffffffffff163b11156115dc576daaeb6d7670e522a718067333cd4e73ffffffffffffffffffffffffffffffffffffffff1663c617113430836040518363ffffffff1660e01b8152600401611559929190613e0a565b602060405180830381865afa158015611576573d6000803e3d6000fd5b505050506040513d601f19601f8201168201806040525081019061159a9190613e48565b6115db57806040517fede71dcc0000000000000000000000000000000000000000000000000000000081526004016115d29190613220565b60405180910390fd5b5b6115e683836122e7565b505050565b600c60009054906101000a900473ffffffffffffffffffffffffffffffffffffffff1681565b6116196121a3565b80600c60006101000a81548173ffffffffffffffffffffffffffffffffffffffff021916908373ffffffffffffffffffffffffffffffffffffffff16021790555050565b600060076000838152602001908152602001600020549050919050565b8360006daaeb6d7670e522a718067333cd4e73ffffffffffffffffffffffffffffffffffffffff163b11156117b9573373ffffffffffffffffffffffffffffffffffffffff168173ffffffffffffffffffffffffffffffffffffffff16036116ed576116e8858585856122fd565b6117c6565b6daaeb6d7670e522a718067333cd4e73ffffffffffffffffffffffffffffffffffffffff1663c617113430336040518363ffffffff1660e01b8152600401611736929190613e0a565b602060405180830381865afa158015611753573d6000803e3d6000fd5b505050506040513d601f19601f820116820180604052508101906117779190613e48565b6117b857336040517fede71dcc0000000000000000000000000000000000000000000000000000000081526004016117af9190613220565b60405180910390fd5b5b6117c5858585856122fd565b5b5050505050565b60606000600d60008481526020019081526020016000205490506117f08361235f565b61182f576040517f08c379a000000000000000000000000000000000000000000000000000000000815260040161182690614815565b60405180910390fd5b600061183a826123cb565b9050611883611848856124ba565b6009611853856124eb565b61185c85612595565b60405160200161186f9493929190614ad2565b604051602081830303815290604052612595565b6040516020016118939190614b93565b60405160208183030381529060405292505050919050565b606060005a90506118bb836117cd565b91505a816118c991906143a5565b9050915091565b6000600560008473ffffffffffffffffffffffffffffffffffffffff1673ffffffffffffffffffffffffffffffffffffffff16815260200190815260200160002060008373ffffffffffffffffffffffffffffffffffffffff1673ffffffffffffffffffffffffffffffffffffffff16815260200190815260200160002060009054906101000a900460ff16905092915050565b61196c6121a3565b600073ffffffffffffffffffffffffffffffffffffffff168173ffffffffffffffffffffffffffffffffffffffff16036119db576040517f08c379a00000000000000000000000000000000000000000000000000000000081526004016119d290614c27565b60405180910390fd5b6119e481612221565b50565b6119ef6121a3565b80600a8190555050565b3373ffffffffffffffffffffffffffffffffffffffff16611a1983611119565b73ffffffffffffffffffffffffffffffffffffffff1614611a6f576040517f08c379a0000000000000000000000000000000000000000000000000000000008152600401611a6690614c93565b60405180910390fd5b806007600084815260200190815260200160002081905550817ff9317dc3bc6dda0e00e43855c2c30847aeafb8dcea9d2ce86e9ce7a83d549f0182604051611ab791906132b6565b60405180910390a25050565b60007f80ac58cd000000000000000000000000000000000000000000000000000000007bffffffffffffffffffffffffffffffffffffffffffffffffffffffff1916827bffffffffffffffffffffffffffffffffffffffffffffffffffffffff19161480611b8e57507f5b5e139f000000000000000000000000000000000000000000000000000000007bffffffffffffffffffffffffffffffffffffffffffffffffffffffff1916827bffffffffffffffffffffffffffffffffffffffffffffffffffffffff1916145b80611b9e5750611b9d8261270d565b5b9050919050565b611bae8161235f565b611bed576040517f08c379a0000000000000000000000000000000000000000000000000000000008152600401611be490614425565b60405180910390fd5b50565b6000611bfb82611119565b90508073ffffffffffffffffffffffffffffffffffffffff168373ffffffffffffffffffffffffffffffffffffffff1603611c6b576040517f08c379a0000000000000000000000000000000000000000000000000000000008152600401611c6290614d25565b60405180910390fd5b8073ffffffffffffffffffffffffffffffffffffffff16611c8a612777565b73ffffffffffffffffffffffffffffffffffffffff161480611cb95750611cb881611cb3612777565b6118d0565b5b611cf8576040517f08c379a0000000000000000000000000000000000000000000000000000000008152600401611cef90614db7565b60405180910390fd5b611d02838361277f565b505050565b611d18611d12612777565b82612838565b611d57576040517f08c379a0000000000000000000000000000000000000000000000000000000008152600401611d4e90614e49565b60405180910390fd5b611d62838383611f1d565b505050565b6000611d716114c5565b60085410611db4576040517f08c379a0000000000000000000000000000000000000000000000000000000008152600401611dab90614eb5565b60405180910390fd5b60086000815480929190611dc790614ed5565b919050559050611dd733826128cd565b90565b60008073ffffffffffffffffffffffffffffffffffffffff168273ffffffffffffffffffffffffffffffffffffffff1614611e79576103e8601984611e1f9190614f1d565b611e299190614f8e565b905060008290508073ffffffffffffffffffffffffffffffffffffffff166108fc839081150290604051600060405180830381858888f19350505050158015611e76573d6000803e3d6000fd5b50505b92915050565b60006103e8603284611e919190614f1d565b611e9b9190614f8e565b9050600e600083815260200190815260200160002060009054906101000a900473ffffffffffffffffffffffffffffffffffffffff1673ffffffffffffffffffffffffffffffffffffffff166108fc829081150290604051600060405180830381858888f19350505050158015611f16573d6000803e3d6000fd5b5092915050565b8273ffffffffffffffffffffffffffffffffffffffff16611f3d82611119565b73ffffffffffffffffffffffffffffffffffffffff1614611f93576040517f08c379a0000000000000000000000000000000000000000000000000000000008152600401611f8a90615031565b60405180910390fd5b600073ffffffffffffffffffffffffffffffffffffffff168273ffffffffffffffffffffffffffffffffffffffff1603612002576040517f08c379a0000000000000000000000000000000000000000000000000000000008152600401611ff9906150c3565b60405180910390fd5b61200d8383836128eb565b61201860008261277f565b6001600360008573ffffffffffffffffffffffffffffffffffffffff1673ffffffffffffffffffffffffffffffffffffffff168152602001908152602001600020600082825461206891906143a5565b925050819055506001600360008473ffffffffffffffffffffffffffffffffffffffff1673ffffffffffffffffffffffffffffffffffffffff16815260200190815260200160002060008282546120bf91906150e3565b92505081905550816002600083815260200190815260200160002060006101000a81548173ffffffffffffffffffffffffffffffffffffffff021916908373ffffffffffffffffffffffffffffffffffffffff160217905550808273ffffffffffffffffffffffffffffffffffffffff168473ffffffffffffffffffffffffffffffffffffffff167fddf252ad1be2c89b69c2b068fc378daa952ba7f163c4a11628f55a4df523b3ef60405160405180910390a461217e8383836128f0565b505050565b61219e8383836040518060200160405280600081525061167a565b505050565b6121ab612777565b73ffffffffffffffffffffffffffffffffffffffff166121c961134c565b73ffffffffffffffffffffffffffffffffffffffff161461221f576040517f08c379a000000000000000000000000000000000000000000000000000000000815260040161221690615163565b60405180910390fd5b565b6000600660009054906101000a900473ffffffffffffffffffffffffffffffffffffffff16905081600660006101000a81548173ffffffffffffffffffffffffffffffffffffffff021916908373ffffffffffffffffffffffffffffffffffffffff1602179055508173ffffffffffffffffffffffffffffffffffffffff168173ffffffffffffffffffffffffffffffffffffffff167f8be0079c531659141344cd1fd0a4f28419497f9722a3daafe3b4186f6b6457e060405160405180910390a35050565b6122f96122f2612777565b83836128f5565b5050565b61230e612308612777565b83612838565b61234d576040517f08c379a000000000000000000000000000000000000000000000000000000000815260040161234490614e49565b60405180910390fd5b61235984848484612a61565b50505050565b60008073ffffffffffffffffffffffffffffffffffffffff166002600084815260200190815260200160002060009054906101000a900473ffffffffffffffffffffffffffffffffffffffff1673ffffffffffffffffffffffffffffffffffffffff1614159050919050565b6060600080600c60009054906101000a900473ffffffffffffffffffffffffffffffffffffffff1673ffffffffffffffffffffffffffffffffffffffff1663e3f24f02856040518263ffffffff1660e01b815260040161242b91906132b6565b600060405180830381865afa158015612448573d6000803e3d6000fd5b505050506040513d6000823e3d601f19601f8201168201806040525081019061247191906151f3565b915091506040518060800160405280604981526020016157506049913982826040516020016124a293929190615303565b60405160208183030381529060405292505050919050565b60606124c582612abd565b6040516020016124d59190615396565b6040516020818303038152906040529050919050565b6060600c60009054906101000a900473ffffffffffffffffffffffffffffffffffffffff1673ffffffffffffffffffffffffffffffffffffffff166379b92f27836040518263ffffffff1660e01b815260040161254891906132b6565b600060405180830381865afa158015612565573d6000803e3d6000fd5b505050506040513d6000823e3d601f19601f8201168201806040525081019061258e91906153b8565b9050919050565b606060008251036125b757604051806020016040528060008152509050612708565b600060405180606001604052806040815260200161571060409139905060006003600285516125e691906150e3565b6125f09190614f8e565b60046125fc9190614f1d565b9050600060208261260d91906150e3565b67ffffffffffffffff81111561262657612625613356565b5b6040519080825280601f01601f1916602001820160405280156126585781602001600182028036833780820191505090505b509050818152600183018586518101602084015b818310156126c7576003830192508251603f8160121c168501518253600182019150603f81600c1c168501518253600182019150603f8160061c168501518253600182019150603f811685015182536001820191505061266c565b6003895106600181146126e157600281146126f1576126fc565b613d3d60f01b60028303526126fc565b603d60f81b60018303525b50505050508093505050505b919050565b60007f01ffc9a7000000000000000000000000000000000000000000000000000000007bffffffffffffffffffffffffffffffffffffffffffffffffffffffff1916827bffffffffffffffffffffffffffffffffffffffffffffffffffffffff1916149050919050565b600033905090565b816004600083815260200190815260200160002060006101000a81548173ffffffffffffffffffffffffffffffffffffffff021916908373ffffffffffffffffffffffffffffffffffffffff160217905550808273ffffffffffffffffffffffffffffffffffffffff166127f283611119565b73ffffffffffffffffffffffffffffffffffffffff167f8c5be1e5ebec7d5bd14f71427d1e84f3dd0314c0f7b2291e5b200ac8c7c3b92560405160405180910390a45050565b60008061284483611119565b90508073ffffffffffffffffffffffffffffffffffffffff168473ffffffffffffffffffffffffffffffffffffffff161480612886575061288581856118d0565b5b806128c457508373ffffffffffffffffffffffffffffffffffffffff166128ac84610a29565b73ffffffffffffffffffffffffffffffffffffffff16145b91505092915050565b6128e7828260405180602001604052806000815250612c1d565b5050565b505050565b505050565b8173ffffffffffffffffffffffffffffffffffffffff168373ffffffffffffffffffffffffffffffffffffffff1603612963576040517f08c379a000000000000000000000000000000000000000000000000000000000815260040161295a9061544d565b60405180910390fd5b80600560008573ffffffffffffffffffffffffffffffffffffffff1673ffffffffffffffffffffffffffffffffffffffff16815260200190815260200160002060008473ffffffffffffffffffffffffffffffffffffffff1673ffffffffffffffffffffffffffffffffffffffff16815260200190815260200160002060006101000a81548160ff0219169083151502179055508173ffffffffffffffffffffffffffffffffffffffff168373ffffffffffffffffffffffffffffffffffffffff167f17307eab39ab6107e8899845ad3d59bd9653f200f220920489ca2b5937696c3183604051612a5491906130af565b60405180910390a3505050565b612a6c848484611f1d565b612a7884848484612c78565b612ab7576040517f08c379a0000000000000000000000000000000000000000000000000000000008152600401612aae906154df565b60405180910390fd5b50505050565b606060008203612b04576040518060400160405280600181526020017f30000000000000000000000000000000000000000000000000000000000000008152509050612c18565b600082905060005b60008214612b36578080612b1f90614ed5565b915050600a82612b2f9190614f8e565b9150612b0c565b60008167ffffffffffffffff811115612b5257612b51613356565b5b6040519080825280601f01601f191660200182016040528015612b845781602001600182028036833780820191505090505b5090505b60008514612c1157600182612b9d91906143a5565b9150600a85612bac91906154ff565b6030612bb891906150e3565b60f81b818381518110612bce57612bcd615530565b5b60200101907effffffffffffffffffffffffffffffffffffffffffffffffffffffffffffff1916908160001a905350600a85612c0a9190614f8e565b9450612b88565b8093505050505b919050565b612c278383612dff565b612c346000848484612c78565b612c73576040517f08c379a0000000000000000000000000000000000000000000000000000000008152600401612c6a906154df565b60405180910390fd5b505050565b6000612c998473ffffffffffffffffffffffffffffffffffffffff16612fd8565b15612df2578373ffffffffffffffffffffffffffffffffffffffff1663150b7a02612cc2612777565b8786866040518563ffffffff1660e01b8152600401612ce494939291906155a9565b6020604051808303816000875af1925050508015612d2057506040513d601f19601f82011682018060405250810190612d1d919061560a565b60015b612da2573d8060008114612d50576040519150601f19603f3d011682016040523d82523d6000602084013e612d55565b606091505b506000815103612d9a576040517f08c379a0000000000000000000000000000000000000000000000000000000008152600401612d91906154df565b60405180910390fd5b805181602001fd5b63150b7a0260e01b7bffffffffffffffffffffffffffffffffffffffffffffffffffffffff1916817bffffffffffffffffffffffffffffffffffffffffffffffffffffffff191614915050612df7565b600190505b949350505050565b600073ffffffffffffffffffffffffffffffffffffffff168273ffffffffffffffffffffffffffffffffffffffff1603612e6e576040517f08c379a0000000000000000000000000000000000000000000000000000000008152600401612e6590615683565b60405180910390fd5b612e778161235f565b15612eb7576040517f08c379a0000000000000000000000000000000000000000000000000000000008152600401612eae906156ef565b60405180910390fd5b612ec3600083836128eb565b6001600360008473ffffffffffffffffffffffffffffffffffffffff1673ffffffffffffffffffffffffffffffffffffffff1681526020019081526020016000206000828254612f1391906150e3565b92505081905550816002600083815260200190815260200160002060006101000a81548173ffffffffffffffffffffffffffffffffffffffff021916908373ffffffffffffffffffffffffffffffffffffffff160217905550808273ffffffffffffffffffffffffffffffffffffffff16600073ffffffffffffffffffffffffffffffffffffffff167fddf252ad1be2c89b69c2b068fc378daa952ba7f163c4a11628f55a4df523b3ef60405160405180910390a4612fd4600083836128f0565b5050565b6000808273ffffffffffffffffffffffffffffffffffffffff163b119050919050565b6000604051905090565b600080fd5b600080fd5b60007fffffffff0000000000000000000000000000000000000000000000000000000082169050919050565b6130448161300f565b811461304f57600080fd5b50565b6000813590506130618161303b565b92915050565b60006020828403121561307d5761307c613005565b5b600061308b84828501613052565b91505092915050565b60008115159050919050565b6130a981613094565b82525050565b60006020820190506130c460008301846130a0565b92915050565b600081519050919050565b600082825260208201905092915050565b60005b838110156131045780820151818401526020810190506130e9565b60008484015250505050565b6000601f19601f8301169050919050565b600061312c826130ca565b61313681856130d5565b93506131468185602086016130e6565b61314f81613110565b840191505092915050565b600060208201905081810360008301526131748184613121565b905092915050565b6000819050919050565b61318f8161317c565b811461319a57600080fd5b50565b6000813590506131ac81613186565b92915050565b6000602082840312156131c8576131c7613005565b5b60006131d68482850161319d565b91505092915050565b600073ffffffffffffffffffffffffffffffffffffffff82169050919050565b600061320a826131df565b9050919050565b61321a816131ff565b82525050565b60006020820190506132356000830184613211565b92915050565b613244816131ff565b811461324f57600080fd5b50565b6000813590506132618161323b565b92915050565b6000806040838503121561327e5761327d613005565b5b600061328c85828601613252565b925050602061329d8582860161319d565b9150509250929050565b6132b08161317c565b82525050565b60006020820190506132cb60008301846132a7565b92915050565b6000602082840312156132e7576132e6613005565b5b60006132f584828501613252565b91505092915050565b60008060006060848603121561331757613316613005565b5b600061332586828701613252565b935050602061333686828701613252565b92505060406133478682870161319d565b9150509250925092565b600080fd5b7f4e487b7100000000000000000000000000000000000000000000000000000000600052604160045260246000fd5b61338e82613110565b810181811067ffffffffffffffff821117156133ad576133ac613356565b5b80604052505050565b60006133c0612ffb565b90506133cc8282613385565b919050565b600080fd5b600080fd5b600067ffffffffffffffff8211156133f6576133f5613356565b5b602082029050602081019050919050565b600080fd5b600080fd5b600067ffffffffffffffff82111561342c5761342b613356565b5b61343582613110565b9050602081019050919050565b82818337600083830152505050565b600061346461345f84613411565b6133b6565b9050828152602081018484840111156134805761347f61340c565b5b61348b848285613442565b509392505050565b600082601f8301126134a8576134a76133d6565b5b81356134b8848260208601613451565b91505092915050565b60006134d46134cf846133db565b6133b6565b905080838252602082019050602084028301858111156134f7576134f6613407565b5b835b8181101561353e57803567ffffffffffffffff81111561351c5761351b6133d6565b5b8086016135298982613493565b855260208501945050506020810190506134f9565b5050509392505050565b600082601f83011261355d5761355c6133d6565b5b813561356d8482602086016134c1565b91505092915050565b600067ffffffffffffffff82111561359157613590613356565b5b602082029050602081019050919050565b600067ffffffffffffffff8211156135bd576135bc613356565b5b6135c682613110565b9050602081019050919050565b60006135e66135e1846135a2565b6133b6565b9050828152602081018484840111156136025761360161340c565b5b61360d848285613442565b509392505050565b600082601f83011261362a576136296133d6565b5b813561363a8482602086016135d3565b91505092915050565b600061365661365184613576565b6133b6565b9050808382526020820190506020840283018581111561367957613678613407565b5b835b818110156136c057803567ffffffffffffffff81111561369e5761369d6133d6565b5b8086016136ab8982613615565b8552602085019450505060208101905061367b565b5050509392505050565b600082601f8301126136df576136de6133d6565b5b81356136ef848260208601613643565b91505092915050565b600067ffffffffffffffff82111561371357613712613356565b5b602082029050602081019050919050565b600060ff82169050919050565b61373a81613724565b811461374557600080fd5b50565b60008135905061375781613731565b92915050565b600061377061376b846136f8565b6133b6565b9050808382526020820190506020840283018581111561379357613792613407565b5b835b818110156137bc57806137a88882613748565b845260208401935050602081019050613795565b5050509392505050565b600082601f8301126137db576137da6133d6565b5b81356137eb84826020860161375d565b91505092915050565b60006080828403121561380a57613809613351565b5b61381460806133b6565b9050600082013567ffffffffffffffff811115613834576138336133d1565b5b61384084828501613548565b600083015250602082013567ffffffffffffffff811115613864576138636133d1565b5b613870848285016136ca565b602083015250604082013567ffffffffffffffff811115613894576138936133d1565b5b6138a0848285016137c6565b604083015250606082013567ffffffffffffffff8111156138c4576138c36133d1565b5b6138d0848285016136ca565b60608301525092915050565b6000602082840312156138f2576138f1613005565b5b600082013567ffffffffffffffff8111156139105761390f61300a565b5b61391c848285016137f4565b91505092915050565b60008060006060848603121561393e5761393d613005565b5b600061394c8682870161319d565b935050602061395d86828701613252565b925050604061396e86828701613252565b9150509250925092565b6000819050919050565b600061399d613998613993846131df565b613978565b6131df565b9050919050565b60006139af82613982565b9050919050565b60006139c1826139a4565b9050919050565b6139d1816139b6565b82525050565b60006020820190506139ec60008301846139c8565b92915050565b60008060408385031215613a0957613a08613005565b5b600083013567ffffffffffffffff811115613a2757613a2661300a565b5b613a33858286016137f4565b9250506020613a448582860161319d565b9150509250929050565b600060208284031215613a6457613a63613005565b5b600082013567ffffffffffffffff811115613a8257613a8161300a565b5b613a8e84828501613615565b91505092915050565b6000613aa2826131ff565b9050919050565b613ab281613a97565b8114613abd57600080fd5b50565b600081359050613acf81613aa9565b92915050565b600080600060608486031215613aee57613aed613005565b5b6000613afc8682870161319d565b9350506020613b0d86828701613ac0565b9250506040613b1e8682870161319d565b9150509250925092565b6000613b33826139a4565b9050919050565b613b4381613b28565b82525050565b6000602082019050613b5e6000830184613b3a565b92915050565b613b6d81613094565b8114613b7857600080fd5b50565b600081359050613b8a81613b64565b92915050565b60008060408385031215613ba757613ba6613005565b5b6000613bb585828601613252565b9250506020613bc685828601613b7b565b9150509250929050565b6000613bdb826139a4565b9050919050565b613beb81613bd0565b82525050565b6000602082019050613c066000830184613be2565b92915050565b6000613c17826131ff565b9050919050565b613c2781613c0c565b8114613c3257600080fd5b50565b600081359050613c4481613c1e565b92915050565b600060208284031215613c6057613c5f613005565b5b6000613c6e84828501613c35565b91505092915050565b60008060008060808587031215613c9157613c90613005565b5b6000613c9f87828801613252565b9450506020613cb087828801613252565b9350506040613cc18782880161319d565b925050606085013567ffffffffffffffff811115613ce257613ce161300a565b5b613cee87828801613493565b91505092959194509250565b60006040820190508181036000830152613d148185613121565b9050613d2360208301846132a7565b9392505050565b60008060408385031215613d4157613d40613005565b5b6000613d4f85828601613252565b9250506020613d6085828601613252565b9150509250929050565b60008060408385031215613d8157613d80613005565b5b6000613d8f8582860161319d565b9250506020613da08582860161319d565b9150509250929050565b7f4e487b7100000000000000000000000000000000000000000000000000000000600052602260045260246000fd5b60006002820490506001821680613df157607f821691505b602082108103613e0457613e03613daa565b5b50919050565b6000604082019050613e1f6000830185613211565b613e2c6020830184613211565b9392505050565b600081519050613e4281613b64565b92915050565b600060208284031215613e5e57613e5d613005565b5b6000613e6c84828501613e33565b91505092915050565b7f6d757374206e6f742063616c6c00000000000000000000000000000000000000600082015250565b6000613eab600d836130d5565b9150613eb682613e75565b602082019050919050565b60006020820190508181036000830152613eda81613e9e565b9050919050565b600081519050919050565b600082825260208201905092915050565b6000819050602082019050919050565b600081519050919050565b600082825260208201905092915050565b6000613f3482613f0d565b613f3e8185613f18565b9350613f4e8185602086016130e6565b613f5781613110565b840191505092915050565b6000613f6e8383613f29565b905092915050565b6000602082019050919050565b6000613f8e82613ee1565b613f988185613eec565b935083602082028501613faa85613efd565b8060005b85811015613fe65784840389528151613fc78582613f62565b9450613fd283613f76565b925060208a01995050600181019050613fae565b50829750879550505050505092915050565b600081519050919050565b600082825260208201905092915050565b6000819050602082019050919050565b600082825260208201905092915050565b6000614040826130ca565b61404a8185614024565b935061405a8185602086016130e6565b61406381613110565b840191505092915050565b600061407a8383614035565b905092915050565b6000602082019050919050565b600061409a82613ff8565b6140a48185614003565b9350836020820285016140b685614014565b8060005b858110156140f257848403895281516140d3858261406e565b94506140de83614082565b925060208a019950506001810190506140ba565b50829750879550505050505092915050565b600081519050919050565b600082825260208201905092915050565b6000819050602082019050919050565b61413981613724565b82525050565b600061414b8383614130565b60208301905092915050565b6000602082019050919050565b600061416f82614104565b614179818561410f565b935061418483614120565b8060005b838110156141b557815161419c888261413f565b97506141a783614157565b925050600181019050614188565b5085935050505092915050565b600060808301600083015184820360008601526141df8282613f83565b915050602083015184820360208601526141f9828261408f565b915050604083015184820360408601526142138282614164565b9150506060830151848203606086015261422d828261408f565b9150508091505092915050565b6000602082019050818103600083015261425481846141c2565b905092915050565b60008151905061426b81613186565b92915050565b60006020828403121561428757614286613005565b5b60006142958482850161425c565b91505092915050565b7f546f6b656e206973206e6f74206f6e2073616c65000000000000000000000000600082015250565b60006142d46014836130d5565b91506142df8261429e565b602082019050919050565b60006020820190508181036000830152614303816142c7565b9050919050565b7f4e6f7420656e6f7567682066756e640000000000000000000000000000000000600082015250565b6000614340600f836130d5565b915061434b8261430a565b602082019050919050565b6000602082019050818103600083015261436f81614333565b9050919050565b7f4e487b7100000000000000000000000000000000000000000000000000000000600052601160045260246000fd5b60006143b08261317c565b91506143bb8361317c565b92508282039050818111156143d3576143d2614376565b5b92915050565b7f4552433732313a20696e76616c696420746f6b656e2049440000000000000000600082015250565b600061440f6018836130d5565b915061441a826143d9565b602082019050919050565b6000602082019050818103600083015261443e81614402565b9050919050565b7f4552433732313a2061646472657373207a65726f206973206e6f74206120766160008201527f6c6964206f776e65720000000000000000000000000000000000000000000000602082015250565b60006144a16029836130d5565b91506144ac82614445565b604082019050919050565b600060208201905081810360008301526144d081614494565b9050919050565b60008190508160005260206000209050919050565b60006020601f8301049050919050565b600082821b905092915050565b6000600883026145397fffffffffffffffffffffffffffffffffffffffffffffffffffffffffffffffff826144fc565b61454386836144fc565b95508019841693508086168417925050509392505050565b600061457661457161456c8461317c565b613978565b61317c565b9050919050565b6000819050919050565b6145908361455b565b6145a461459c8261457d565b848454614509565b825550505050565b600090565b6145b96145ac565b6145c4818484614587565b505050565b5b818110156145e8576145dd6000826145b1565b6001810190506145ca565b5050565b601f82111561462d576145fe816144d7565b614607846144ec565b81016020851015614616578190505b61462a614622856144ec565b8301826145c9565b50505b505050565b600082821c905092915050565b600061465060001984600802614632565b1980831691505092915050565b6000614669838361463f565b9150826002028217905092915050565b614682826130ca565b67ffffffffffffffff81111561469b5761469a613356565b5b6146a58254613dd9565b6146b08282856145ec565b600060209050601f8311600181146146e357600084156146d1578287015190505b6146db858261465d565b865550614743565b601f1984166146f1866144d7565b60005b82811015614719578489015182556001820191506020850194506020810190506146f4565b868310156147365784890151614732601f89168261463f565b8355505b6001600288020188555050505b505050505050565b6000614756826139a4565b9050919050565b6147668161474b565b82525050565b6000606082019050614781600083018661475d565b61478e60208301856132a7565b61479b60408301846132a7565b949350505050565b7f535647546f6b656e2e746f6b656e5552493a206e6f6e6578697374656e74207460008201527f6f6b656e00000000000000000000000000000000000000000000000000000000602082015250565b60006147ff6024836130d5565b915061480a826147a3565b604082019050919050565b6000602082019050818103600083015261482e816147f2565b9050919050565b600081905092915050565b7f7b226e616d65223a220000000000000000000000000000000000000000000000600082015250565b6000614876600983614835565b915061488182614840565b600982019050919050565b6000614897826130ca565b6148a18185614835565b93506148b18185602086016130e6565b80840191505092915050565b7f222c226465736372697074696f6e223a22000000000000000000000000000000600082015250565b60006148f3601183614835565b91506148fe826148bd565b601182019050919050565b6000815461491681613dd9565b6149208186614835565b9450600182166000811461493b576001811461495057614983565b60ff1983168652811515820286019350614983565b614959856144d7565b60005b8381101561497b5781548189015260018201915060208101905061495c565b838801955050505b50505092915050565b7f222c2261747472696275746573223a5b00000000000000000000000000000000600082015250565b60006149c2601083614835565b91506149cd8261498c565b601082019050919050565b600081905092915050565b60006149ee82613f0d565b6149f881856149d8565b9350614a088185602086016130e6565b80840191505092915050565b7f5d2c22696d616765223a22646174613a696d6167652f7376672b786d6c3b626160008201527f736536342c000000000000000000000000000000000000000000000000000000602082015250565b6000614a70602583614835565b9150614a7b82614a14565b602582019050919050565b7f227d000000000000000000000000000000000000000000000000000000000000600082015250565b6000614abc600283614835565b9150614ac782614a86565b600282019050919050565b6000614add82614869565b9150614ae9828761488c565b9150614af4826148e6565b9150614b008286614909565b9150614b0b826149b5565b9150614b1782856149e3565b9150614b2282614a63565b9150614b2e828461488c565b9150614b3982614aaf565b915081905095945050505050565b7f646174613a6170706c69636174696f6e2f6a736f6e3b6261736536342c000000600082015250565b6000614b7d601d83614835565b9150614b8882614b47565b601d82019050919050565b6000614b9e82614b70565b9150614baa828461488c565b915081905092915050565b7f4f776e61626c653a206e6577206f776e657220697320746865207a65726f206160008201527f6464726573730000000000000000000000000000000000000000000000000000602082015250565b6000614c116026836130d5565b9150614c1c82614bb5565b604082019050919050565b60006020820190508181036000830152614c4081614c04565b9050919050565b7f4f6e6c7920746865206f6e7765722063616e2073657420746865207072696365600082015250565b6000614c7d6020836130d5565b9150614c8882614c47565b602082019050919050565b60006020820190508181036000830152614cac81614c70565b9050919050565b7f4552433732313a20617070726f76616c20746f2063757272656e74206f776e6560008201527f7200000000000000000000000000000000000000000000000000000000000000602082015250565b6000614d0f6021836130d5565b9150614d1a82614cb3565b604082019050919050565b60006020820190508181036000830152614d3e81614d02565b9050919050565b7f4552433732313a20617070726f76652063616c6c6572206973206e6f7420746f60008201527f6b656e206f776e6572206e6f7220617070726f76656420666f7220616c6c0000602082015250565b6000614da1603e836130d5565b9150614dac82614d45565b604082019050919050565b60006020820190508181036000830152614dd081614d94565b9050919050565b7f4552433732313a2063616c6c6572206973206e6f7420746f6b656e206f776e6560008201527f72206e6f7220617070726f766564000000000000000000000000000000000000602082015250565b6000614e33602e836130d5565b9150614e3e82614dd7565b604082019050919050565b60006020820190508181036000830152614e6281614e26565b9050919050565b7f536f6c64206f7574000000000000000000000000000000000000000000000000600082015250565b6000614e9f6008836130d5565b9150614eaa82614e69565b602082019050919050565b60006020820190508181036000830152614ece81614e92565b9050919050565b6000614ee08261317c565b91507fffffffffffffffffffffffffffffffffffffffffffffffffffffffffffffffff8203614f1257614f11614376565b5b600182019050919050565b6000614f288261317c565b9150614f338361317c565b9250828202614f418161317c565b91508282048414831517614f5857614f57614376565b5b5092915050565b7f4e487b7100000000000000000000000000000000000000000000000000000000600052601260045260246000fd5b6000614f998261317c565b9150614fa48361317c565b925082614fb457614fb3614f5f565b5b828204905092915050565b7f4552433732313a207472616e736665722066726f6d20696e636f72726563742060008201527f6f776e6572000000000000000000000000000000000000000000000000000000602082015250565b600061501b6025836130d5565b915061502682614fbf565b604082019050919050565b6000602082019050818103600083015261504a8161500e565b9050919050565b7f4552433732313a207472616e7366657220746f20746865207a65726f2061646460008201527f7265737300000000000000000000000000000000000000000000000000000000602082015250565b60006150ad6024836130d5565b91506150b882615051565b604082019050919050565b600060208201905081810360008301526150dc816150a0565b9050919050565b60006150ee8261317c565b91506150f98361317c565b925082820190508082111561511157615110614376565b5b92915050565b7f4f776e61626c653a2063616c6c6572206973206e6f7420746865206f776e6572600082015250565b600061514d6020836130d5565b915061515882615117565b602082019050919050565b6000602082019050818103600083015261517c81615140565b9050919050565b6000615196615191846135a2565b6133b6565b9050828152602081018484840111156151b2576151b161340c565b5b6151bd8482856130e6565b509392505050565b600082601f8301126151da576151d96133d6565b5b81516151ea848260208601615183565b91505092915050565b6000806040838503121561520a57615209613005565b5b600083015167ffffffffffffffff8111156152285761522761300a565b5b615234858286016151c5565b925050602083015167ffffffffffffffff8111156152555761525461300a565b5b615261858286016151c5565b9150509250929050565b7f3c2f646566733e0a3c75736520687265663d2223000000000000000000000000600082015250565b60006152a1601483614835565b91506152ac8261526b565b601482019050919050565b7f22202f3e0a3c2f7376673e0a0000000000000000000000000000000000000000600082015250565b60006152ed600c83614835565b91506152f8826152b7565b600c82019050919050565b600061530f828661488c565b915061531b828561488c565b915061532682615294565b9150615332828461488c565b915061533d826152e0565b9150819050949350505050565b7f53564720546f6b656e2056312000000000000000000000000000000000000000600082015250565b6000615380600d83614835565b915061538b8261534a565b600d82019050919050565b60006153a182615373565b91506153ad828461488c565b915081905092915050565b6000602082840312156153ce576153cd613005565b5b600082015167ffffffffffffffff8111156153ec576153eb61300a565b5b6153f8848285016151c5565b91505092915050565b7f4552433732313a20617070726f766520746f2063616c6c657200000000000000600082015250565b60006154376019836130d5565b915061544282615401565b602082019050919050565b600060208201905081810360008301526154668161542a565b9050919050565b7f4552433732313a207472616e7366657220746f206e6f6e20455243373231526560008201527f63656976657220696d706c656d656e7465720000000000000000000000000000602082015250565b60006154c96032836130d5565b91506154d48261546d565b604082019050919050565b600060208201905081810360008301526154f8816154bc565b9050919050565b600061550a8261317c565b91506155158361317c565b92508261552557615524614f5f565b5b828206905092915050565b7f4e487b7100000000000000000000000000000000000000000000000000000000600052603260045260246000fd5b600082825260208201905092915050565b600061557b82613f0d565b615585818561555f565b93506155958185602086016130e6565b61559e81613110565b840191505092915050565b60006080820190506155be6000830187613211565b6155cb6020830186613211565b6155d860408301856132a7565b81810360608301526155ea8184615570565b905095945050505050565b6000815190506156048161303b565b92915050565b6000602082840312156156205761561f613005565b5b600061562e848285016155f5565b91505092915050565b7f4552433732313a206d696e7420746f20746865207a65726f2061646472657373600082015250565b600061566d6020836130d5565b915061567882615637565b602082019050919050565b6000602082019050818103600083015261569c81615660565b9050919050565b7f4552433732313a20746f6b656e20616c7265616479206d696e74656400000000600082015250565b60006156d9601c836130d5565b91506156e4826156a3565b602082019050919050565b60006020820190508181036000830152615708816156cc565b905091905056fe4142434445464748494a4b4c4d4e4f505152535455565758595a6162636465666768696a6b6c6d6e6f707172737475767778797a303132333435363738392b2f3c7376672076696577426f783d2230203020313032342031303234222020786d6c6e733d22687474703a2f2f7777772e77332e6f72672f323030302f737667223e0a3c646566733e0aa2646970667358221220c2163c42a597d9c4e056ae76daf80b71c5225b234d514733e142030ce0768f4564736f6c63430008110033",
  "linkReferences": {},
  "deployedLinkReferences": {}
}