{
  "_format": "hh-sol-artifact-1",
  "contractName": "SVGTokenV1",
  "sourceName": "contracts/SVGTokenV1.sol",
  "abi": [
    {
      "inputs": [
        {
          "internalType": "contract IAssetProvider",
          "name": "_assetProvider",
          "type": "address"
        },
        {
          "internalType": "contract ISVGStoreV1",
          "name": "_svgStore",
          "type": "address"
        }
      ],
      "stateMutability": "nonpayable",
      "type": "constructor"
    },
    {
      "inputs": [
        {
          "internalType": "address",
          "name": "operator",
          "type": "address"
        }
      ],
      "name": "OperatorNotAllowed",
      "type": "error"
    },
    {
      "anonymous": false,
      "inputs": [
        {
          "indexed": true,
          "internalType": "address",
          "name": "owner",
          "type": "address"
        },
        {
          "indexed": true,
          "internalType": "address",
          "name": "approved",
          "type": "address"
        },
        {
          "indexed": true,
          "internalType": "uint256",
          "name": "tokenId",
          "type": "uint256"
        }
      ],
      "name": "Approval",
      "type": "event"
    },
    {
      "anonymous": false,
      "inputs": [
        {
          "indexed": true,
          "internalType": "address",
          "name": "owner",
          "type": "address"
        },
        {
          "indexed": true,
          "internalType": "address",
          "name": "operator",
          "type": "address"
        },
        {
          "indexed": false,
          "internalType": "bool",
          "name": "approved",
          "type": "bool"
        }
      ],
      "name": "ApprovalForAll",
      "type": "event"
    },
    {
      "anonymous": false,
      "inputs": [
        {
          "indexed": true,
          "internalType": "address",
          "name": "previousOwner",
          "type": "address"
        },
        {
          "indexed": true,
          "internalType": "address",
          "name": "newOwner",
          "type": "address"
        }
      ],
      "name": "OwnershipTransferred",
      "type": "event"
    },
    {
      "anonymous": false,
      "inputs": [
        {
          "indexed": true,
          "internalType": "address",
          "name": "from",
          "type": "address"
        },
        {
          "indexed": true,
          "internalType": "address",
          "name": "to",
          "type": "address"
        },
        {
          "indexed": true,
          "internalType": "uint256",
          "name": "tokenId",
          "type": "uint256"
        }
      ],
      "name": "Transfer",
      "type": "event"
    },
    {
      "inputs": [],
      "name": "OPERATOR_FILTER_REGISTRY",
      "outputs": [
        {
          "internalType": "contract IOperatorFilterRegistry",
          "name": "",
          "type": "address"
        }
      ],
      "stateMutability": "view",
      "type": "function"
    },
    {
      "inputs": [
        {
          "internalType": "uint256",
          "name": "_tokenId",
          "type": "uint256"
        },
        {
          "internalType": "contract IERC721Marketplace",
          "name": "_dealer",
          "type": "address"
        },
        {
          "internalType": "uint256",
          "name": "_price",
          "type": "uint256"
        }
      ],
      "name": "acceptOffer",
      "outputs": [],
      "stateMutability": "nonpayable",
      "type": "function"
    },
    {
      "inputs": [
        {
          "internalType": "address",
          "name": "operator",
          "type": "address"
        },
        {
          "internalType": "uint256",
          "name": "tokenId",
          "type": "uint256"
        }
      ],
      "name": "approve",
      "outputs": [],
      "stateMutability": "nonpayable",
      "type": "function"
    },
    {
      "inputs": [],
      "name": "assetProvider",
      "outputs": [
        {
          "internalType": "contract IAssetProvider",
          "name": "",
          "type": "address"
        }
      ],
      "stateMutability": "view",
      "type": "function"
    },
    {
      "inputs": [
        {
          "internalType": "address",
          "name": "owner",
          "type": "address"
        }
      ],
      "name": "balanceOf",
      "outputs": [
        {
          "internalType": "uint256",
          "name": "",
          "type": "uint256"
        }
      ],
      "stateMutability": "view",
      "type": "function"
    },
    {
      "inputs": [
        {
          "internalType": "uint256",
          "name": "_tokenId",
          "type": "uint256"
        }
      ],
      "name": "debugTokenURI",
      "outputs": [
        {
          "internalType": "string",
          "name": "uri",
          "type": "string"
        },
        {
          "internalType": "uint256",
          "name": "gas",
          "type": "uint256"
        }
      ],
      "stateMutability": "view",
      "type": "function"
    },
    {
      "inputs": [],
      "name": "description",
      "outputs": [
        {
          "internalType": "string",
          "name": "",
          "type": "string"
        }
      ],
      "stateMutability": "view",
      "type": "function"
    },
    {
      "inputs": [
        {
          "internalType": "address",
          "name": "_wallet",
          "type": "address"
        }
      ],
      "name": "etherBalanceOf",
      "outputs": [
        {
          "internalType": "uint256",
          "name": "",
          "type": "uint256"
        }
      ],
      "stateMutability": "view",
      "type": "function"
    },
    {
      "inputs": [
        {
          "internalType": "uint256",
          "name": "tokenId",
          "type": "uint256"
        }
      ],
      "name": "getApproved",
      "outputs": [
        {
          "internalType": "address",
          "name": "",
          "type": "address"
        }
      ],
      "stateMutability": "view",
      "type": "function"
    },
    {
      "inputs": [
        {
          "internalType": "uint256",
          "name": "_tokenId",
          "type": "uint256"
        }
      ],
      "name": "getPriceOf",
      "outputs": [
        {
          "internalType": "uint256",
          "name": "",
          "type": "uint256"
        }
      ],
      "stateMutability": "view",
      "type": "function"
    },
    {
      "inputs": [
        {
          "internalType": "address",
          "name": "owner",
          "type": "address"
        },
        {
          "internalType": "address",
          "name": "operator",
          "type": "address"
        }
      ],
      "name": "isApprovedForAll",
      "outputs": [
        {
          "internalType": "bool",
          "name": "",
          "type": "bool"
        }
      ],
      "stateMutability": "view",
      "type": "function"
    },
    {
      "inputs": [],
      "name": "mint",
      "outputs": [
        {
          "internalType": "uint256",
          "name": "tokenId",
          "type": "uint256"
        }
      ],
      "stateMutability": "payable",
      "type": "function"
    },
    {
      "inputs": [],
      "name": "mintLimit",
      "outputs": [
        {
          "internalType": "uint256",
          "name": "",
          "type": "uint256"
        }
      ],
      "stateMutability": "view",
      "type": "function"
    },
    {
      "inputs": [],
      "name": "mintPrice",
      "outputs": [
        {
          "internalType": "uint256",
          "name": "",
          "type": "uint256"
        }
      ],
      "stateMutability": "view",
      "type": "function"
    },
    {
      "inputs": [
        {
          "internalType": "address",
          "name": "",
          "type": "address"
        }
      ],
      "name": "mintPriceFor",
      "outputs": [
        {
          "internalType": "uint256",
          "name": "",
          "type": "uint256"
        }
      ],
      "stateMutability": "view",
      "type": "function"
    },
    {
      "inputs": [
        {
          "components": [
            {
              "internalType": "bytes[]",
              "name": "paths",
              "type": "bytes[]"
            },
            {
              "internalType": "string[]",
              "name": "fills",
              "type": "string[]"
            },
            {
              "internalType": "uint8[]",
              "name": "strokes",
              "type": "uint8[]"
            },
            {
              "internalType": "string[]",
              "name": "matrixes",
              "type": "string[]"
            }
          ],
          "internalType": "struct ISVGStoreV1.Asset",
          "name": "asset",
          "type": "tuple"
        },
        {
          "internalType": "uint256",
          "name": "price",
          "type": "uint256"
        }
      ],
      "name": "mintToSell",
      "outputs": [
        {
          "internalType": "uint256",
          "name": "tokenId",
          "type": "uint256"
        }
      ],
      "stateMutability": "nonpayable",
      "type": "function"
    },
    {
      "inputs": [
        {
          "components": [
            {
              "internalType": "bytes[]",
              "name": "paths",
              "type": "bytes[]"
            },
            {
              "internalType": "string[]",
              "name": "fills",
              "type": "string[]"
            },
            {
              "internalType": "uint8[]",
              "name": "strokes",
              "type": "uint8[]"
            },
            {
              "internalType": "string[]",
              "name": "matrixes",
              "type": "string[]"
            }
          ],
          "internalType": "struct ISVGStoreV1.Asset",
          "name": "asset",
          "type": "tuple"
        }
      ],
      "name": "mintWithAsset",
      "outputs": [
        {
          "internalType": "uint256",
          "name": "tokenId",
          "type": "uint256"
        }
      ],
      "stateMutability": "nonpayable",
      "type": "function"
    },
    {
      "inputs": [],
      "name": "name",
      "outputs": [
        {
          "internalType": "string",
          "name": "",
          "type": "string"
        }
      ],
      "stateMutability": "view",
      "type": "function"
    },
    {
      "inputs": [],
      "name": "nextTokenId",
      "outputs": [
        {
          "internalType": "uint256",
          "name": "",
          "type": "uint256"
        }
      ],
      "stateMutability": "view",
      "type": "function"
    },
    {
      "inputs": [],
      "name": "owner",
      "outputs": [
        {
          "internalType": "address",
          "name": "",
          "type": "address"
        }
      ],
      "stateMutability": "view",
      "type": "function"
    },
    {
      "inputs": [
        {
          "internalType": "uint256",
          "name": "tokenId",
          "type": "uint256"
        }
      ],
      "name": "ownerOf",
      "outputs": [
        {
          "internalType": "address",
          "name": "",
          "type": "address"
        }
      ],
      "stateMutability": "view",
      "type": "function"
    },
    {
      "inputs": [
        {
          "internalType": "uint256",
          "name": "_tokenId",
          "type": "uint256"
        },
        {
          "internalType": "address",
          "name": "_buyer",
          "type": "address"
        },
        {
          "internalType": "address",
          "name": "_facilitator",
          "type": "address"
        }
      ],
      "name": "purchase",
      "outputs": [],
      "stateMutability": "payable",
      "type": "function"
    },
    {
      "inputs": [],
      "name": "renounceOwnership",
      "outputs": [],
      "stateMutability": "nonpayable",
      "type": "function"
    },
    {
      "inputs": [
        {
          "internalType": "address",
          "name": "from",
          "type": "address"
        },
        {
          "internalType": "address",
          "name": "to",
          "type": "address"
        },
        {
          "internalType": "uint256",
          "name": "tokenId",
          "type": "uint256"
        }
      ],
      "name": "safeTransferFrom",
      "outputs": [],
      "stateMutability": "nonpayable",
      "type": "function"
    },
    {
      "inputs": [
        {
          "internalType": "address",
          "name": "from",
          "type": "address"
        },
        {
          "internalType": "address",
          "name": "to",
          "type": "address"
        },
        {
          "internalType": "uint256",
          "name": "tokenId",
          "type": "uint256"
        },
        {
          "internalType": "bytes",
          "name": "data",
          "type": "bytes"
        }
      ],
      "name": "safeTransferFrom",
      "outputs": [],
      "stateMutability": "nonpayable",
      "type": "function"
    },
    {
      "inputs": [
        {
          "internalType": "address",
          "name": "operator",
          "type": "address"
        },
        {
          "internalType": "bool",
          "name": "approved",
          "type": "bool"
        }
      ],
      "name": "setApprovalForAll",
      "outputs": [],
      "stateMutability": "nonpayable",
      "type": "function"
    },
    {
      "inputs": [
        {
          "internalType": "contract IAssetProvider",
          "name": "_assetProvider",
          "type": "address"
        }
      ],
      "name": "setAssetProvider",
      "outputs": [],
      "stateMutability": "nonpayable",
      "type": "function"
    },
    {
      "inputs": [
        {
          "internalType": "string",
          "name": "_description",
          "type": "string"
        }
      ],
      "name": "setDescription",
      "outputs": [],
      "stateMutability": "nonpayable",
      "type": "function"
    },
    {
      "inputs": [
        {
          "internalType": "uint256",
          "name": "_limit",
          "type": "uint256"
        }
      ],
      "name": "setMintLimit",
      "outputs": [],
      "stateMutability": "nonpayable",
      "type": "function"
    },
    {
      "inputs": [
        {
          "internalType": "uint256",
          "name": "_price",
          "type": "uint256"
        }
      ],
      "name": "setMintPrice",
      "outputs": [],
      "stateMutability": "nonpayable",
      "type": "function"
    },
    {
      "inputs": [
        {
          "internalType": "uint256",
          "name": "_tokenId",
          "type": "uint256"
        },
        {
          "internalType": "uint256",
          "name": "_price",
          "type": "uint256"
        }
      ],
      "name": "setPriceOf",
      "outputs": [],
      "stateMutability": "nonpayable",
      "type": "function"
    },
    {
      "inputs": [
        {
          "internalType": "bytes4",
          "name": "interfaceId",
          "type": "bytes4"
        }
      ],
      "name": "supportsInterface",
      "outputs": [
        {
          "internalType": "bool",
          "name": "",
          "type": "bool"
        }
      ],
      "stateMutability": "view",
      "type": "function"
    },
    {
      "inputs": [],
      "name": "svgStoreV1",
      "outputs": [
        {
          "internalType": "contract ISVGStoreV1",
          "name": "",
          "type": "address"
        }
      ],
      "stateMutability": "view",
      "type": "function"
    },
    {
      "inputs": [],
      "name": "symbol",
      "outputs": [
        {
          "internalType": "string",
          "name": "",
          "type": "string"
        }
      ],
      "stateMutability": "view",
      "type": "function"
    },
    {
      "inputs": [
        {
          "internalType": "uint256",
          "name": "_tokenId",
          "type": "uint256"
        }
      ],
      "name": "tokenURI",
      "outputs": [
        {
          "internalType": "string",
          "name": "",
          "type": "string"
        }
      ],
      "stateMutability": "view",
      "type": "function"
    },
    {
      "inputs": [],
      "name": "totalSupply",
      "outputs": [
        {
          "internalType": "uint256",
          "name": "",
          "type": "uint256"
        }
      ],
      "stateMutability": "view",
      "type": "function"
    },
    {
      "inputs": [
        {
          "internalType": "address",
          "name": "from",
          "type": "address"
        },
        {
          "internalType": "address",
          "name": "to",
          "type": "address"
        },
        {
          "internalType": "uint256",
          "name": "tokenId",
          "type": "uint256"
        }
      ],
      "name": "transferFrom",
      "outputs": [],
      "stateMutability": "nonpayable",
      "type": "function"
    },
    {
      "inputs": [
        {
          "internalType": "address",
          "name": "newOwner",
          "type": "address"
        }
      ],
      "name": "transferOwnership",
      "outputs": [],
      "stateMutability": "nonpayable",
      "type": "function"
    }
  ],
  "bytecode": "0x60a06040523480156200001157600080fd5b506040516200628c3803806200628c83398181016040528101906200003791906200064d565b816040518060400160405280600a81526020017f535647546f6b656e5631000000000000000000000000000000000000000000008152506040518060400160405280600a81526020017f535647546f6b656e563100000000000000000000000000000000000000000000815250733cc6cdda760b79bafa08df41ecfa224f810dceb6600183838160009081620000ce91906200090e565b508060019081620000e091906200090e565b50505060006daaeb6d7670e522a718067333cd4e73ffffffffffffffffffffffffffffffffffffffff163b1115620002d85780156200019e576daaeb6d7670e522a718067333cd4e73ffffffffffffffffffffffffffffffffffffffff16637d3e3dbe30846040518363ffffffff1660e01b81526004016200016492919062000a06565b600060405180830381600087803b1580156200017f57600080fd5b505af115801562000194573d6000803e3d6000fd5b50505050620002d7565b600073ffffffffffffffffffffffffffffffffffffffff168273ffffffffffffffffffffffffffffffffffffffff161462000258576daaeb6d7670e522a718067333cd4e73ffffffffffffffffffffffffffffffffffffffff1663a0af290330846040518363ffffffff1660e01b81526004016200021e92919062000a06565b600060405180830381600087803b1580156200023957600080fd5b505af11580156200024e573d6000803e3d6000fd5b50505050620002d6565b6daaeb6d7670e522a718067333cd4e73ffffffffffffffffffffffffffffffffffffffff16634420e486306040518263ffffffff1660e01b8152600401620002a1919062000a33565b600060405180830381600087803b158015620002bc57600080fd5b505af1158015620002d1573d6000803e3d6000fd5b505050505b5b5b5050620002fa620002ee620003e760201b60201c565b620003ef60201b60201c565b82600c60006101000a81548173ffffffffffffffffffffffffffffffffffffffff021916908373ffffffffffffffffffffffffffffffffffffffff1602179055505050506040518060400160405280600a81526020017f535647546f6b656e563100000000000000000000000000000000000000000000815250600990816200038491906200090e565b508073ffffffffffffffffffffffffffffffffffffffff1660808173ffffffffffffffffffffffffffffffffffffffff1681525050620003df74446c3b15f9926687d2c40534fdb564000000000000620004b560201b60201c565b505062000ad3565b600033905090565b6000600660009054906101000a900473ffffffffffffffffffffffffffffffffffffffff16905081600660006101000a81548173ffffffffffffffffffffffffffffffffffffffff021916908373ffffffffffffffffffffffffffffffffffffffff1602179055508173ffffffffffffffffffffffffffffffffffffffff168173ffffffffffffffffffffffffffffffffffffffff167f8be0079c531659141344cd1fd0a4f28419497f9722a3daafe3b4186f6b6457e060405160405180910390a35050565b620004c5620004cf60201b60201c565b80600b8190555050565b620004df620003e760201b60201c565b73ffffffffffffffffffffffffffffffffffffffff16620005056200056060201b60201c565b73ffffffffffffffffffffffffffffffffffffffff16146200055e576040517f08c379a0000000000000000000000000000000000000000000000000000000008152600401620005559062000ab1565b60405180910390fd5b565b6000600660009054906101000a900473ffffffffffffffffffffffffffffffffffffffff16905090565b600080fd5b600073ffffffffffffffffffffffffffffffffffffffff82169050919050565b6000620005bc826200058f565b9050919050565b6000620005d082620005af565b9050919050565b620005e281620005c3565b8114620005ee57600080fd5b50565b6000815190506200060281620005d7565b92915050565b60006200061582620005af565b9050919050565b620006278162000608565b81146200063357600080fd5b50565b60008151905062000647816200061c565b92915050565b600080604083850312156200066757620006666200058a565b5b60006200067785828601620005f1565b92505060206200068a8582860162000636565b9150509250929050565b600081519050919050565b7f4e487b7100000000000000000000000000000000000000000000000000000000600052604160045260246000fd5b7f4e487b7100000000000000000000000000000000000000000000000000000000600052602260045260246000fd5b600060028204905060018216806200071657607f821691505b6020821081036200072c576200072b620006ce565b5b50919050565b60008190508160005260206000209050919050565b60006020601f8301049050919050565b600082821b905092915050565b600060088302620007967fffffffffffffffffffffffffffffffffffffffffffffffffffffffffffffffff8262000757565b620007a2868362000757565b95508019841693508086168417925050509392505050565b6000819050919050565b6000819050919050565b6000620007ef620007e9620007e384620007ba565b620007c4565b620007ba565b9050919050565b6000819050919050565b6200080b83620007ce565b620008236200081a82620007f6565b84845462000764565b825550505050565b600090565b6200083a6200082b565b6200084781848462000800565b505050565b5b818110156200086f576200086360008262000830565b6001810190506200084d565b5050565b601f821115620008be57620008888162000732565b620008938462000747565b81016020851015620008a3578190505b620008bb620008b28562000747565b8301826200084c565b50505b505050565b600082821c905092915050565b6000620008e360001984600802620008c3565b1980831691505092915050565b6000620008fe8383620008d0565b9150826002028217905092915050565b620009198262000694565b67ffffffffffffffff8111156200093557620009346200069f565b5b620009418254620006fd565b6200094e82828562000873565b600060209050601f83116001811462000986576000841562000971578287015190505b6200097d8582620008f0565b865550620009ed565b601f198416620009968662000732565b60005b82811015620009c05784890151825560018201915060208501945060208101905062000999565b86831015620009e05784890151620009dc601f891682620008d0565b8355505b6001600288020188555050505b505050505050565b62000a0081620005af565b82525050565b600060408201905062000a1d6000830185620009f5565b62000a2c6020830184620009f5565b9392505050565b600060208201905062000a4a6000830184620009f5565b92915050565b600082825260208201905092915050565b7f4f776e61626c653a2063616c6c6572206973206e6f7420746865206f776e6572600082015250565b600062000a9960208362000a50565b915062000aa68262000a61565b602082019050919050565b6000602082019050818103600083015262000acc8162000a8a565b9050919050565b60805161579662000af660003960008181610d4a01526114a301526157966000f3fe6080604052600436106102255760003560e01c80637dd268e111610123578063a370f7d7116100ab578063cc44ab411161006f578063cc44ab4114610827578063e985e9c514610865578063f2fde38b146108a2578063f4a0a528146108cb578063fba49e4f146108f457610225565b8063a370f7d714610730578063b212cfc71461075b578063b54b4fb914610784578063b88d4fde146107c1578063c87b56dd146107ea57610225565b806395d89b41116100f257806395d89b411461065d5780639623144d14610688578063996517cf146106b35780639e6a1d7d146106de578063a22cb4651461070757610225565b80637dd268e1146105a35780638da5cb5b146105e057806390c3f38f1461060b5780639589d7b91461063457610225565b8063295702cd116101b15780636817c76c116101755780636817c76c146104ce57806370a08231146104f9578063715018a6146105365780637284e4161461054d57806375794a3c1461057857610225565b8063295702cd146103e45780633b7f8f151461042157806341f434341461043d57806342842e0e146104685780636352211e1461049157610225565b80631249c58b116101f85780631249c58b146102f85780631346d8ea14610316578063179fc99f1461035357806318160ddd1461039057806323b872dd146103bb57610225565b806301ffc9a71461022a57806306fdde0314610267578063081812fc14610292578063095ea7b3146102cf575b600080fd5b34801561023657600080fd5b50610251600480360381019061024c919061302f565b61091d565b60405161025e9190613077565b60405180910390f35b34801561027357600080fd5b5061027c610997565b6040516102899190613122565b60405180910390f35b34801561029e57600080fd5b506102b960048036038101906102b4919061317a565b610a29565b6040516102c691906131e8565b60405180910390f35b3480156102db57600080fd5b506102f660048036038101906102f1919061322f565b610a6f565b005b610300610b79565b60405161030d919061327e565b60405180910390f35b34801561032257600080fd5b5061033d60048036038101906103389190613299565b610bbe565b60405161034a919061327e565b60405180910390f35b34801561035f57600080fd5b5061037a60048036038101906103759190613299565b610bca565b604051610387919061327e565b60405180910390f35b34801561039c57600080fd5b506103a5610beb565b6040516103b2919061327e565b60405180910390f35b3480156103c757600080fd5b506103e260048036038101906103dd91906132c6565b610bf5565b005b3480156103f057600080fd5b5061040b600480360381019061040691906138a4565b610d45565b604051610418919061327e565b60405180910390f35b61043b600480360381019061043691906138ed565b610e60565b005b34801561044957600080fd5b50610452610fb7565b60405161045f919061399f565b60405180910390f35b34801561047457600080fd5b5061048f600480360381019061048a91906132c6565b610fc9565b005b34801561049d57600080fd5b506104b860048036038101906104b3919061317a565b611119565b6040516104c591906131e8565b60405180910390f35b3480156104da57600080fd5b506104e36111ca565b6040516104f0919061327e565b60405180910390f35b34801561050557600080fd5b50610520600480360381019061051b9190613299565b6111d0565b60405161052d919061327e565b60405180910390f35b34801561054257600080fd5b5061054b611287565b005b34801561055957600080fd5b5061056261129b565b60405161056f9190613122565b60405180910390f35b34801561058457600080fd5b5061058d611329565b60405161059a919061327e565b60405180910390f35b3480156105af57600080fd5b506105ca60048036038101906105c591906139ba565b61132f565b6040516105d7919061327e565b60405180910390f35b3480156105ec57600080fd5b506105f561134c565b60405161060291906131e8565b60405180910390f35b34801561061757600080fd5b50610632600480360381019061062d9190613a16565b611376565b005b34801561064057600080fd5b5061065b60048036038101906106569190613a9d565b611391565b005b34801561066957600080fd5b5061067261140f565b60405161067f9190613122565b60405180910390f35b34801561069457600080fd5b5061069d6114a1565b6040516106aa9190613b11565b60405180910390f35b3480156106bf57600080fd5b506106c86114c5565b6040516106d5919061327e565b60405180910390f35b3480156106ea57600080fd5b506107056004803603810190610700919061317a565b6114cf565b005b34801561071357600080fd5b5061072e60048036038101906107299190613b58565b6114e1565b005b34801561073c57600080fd5b506107456115eb565b6040516107529190613bb9565b60405180910390f35b34801561076757600080fd5b50610782600480360381019061077d9190613c12565b611611565b005b34801561079057600080fd5b506107ab60048036038101906107a6919061317a565b61165d565b6040516107b8919061327e565b60405180910390f35b3480156107cd57600080fd5b506107e860048036038101906107e39190613c3f565b61167a565b005b3480156107f657600080fd5b50610811600480360381019061080c919061317a565b6117cd565b60405161081e9190613122565b60405180910390f35b34801561083357600080fd5b5061084e6004803603810190610849919061317a565b6118ab565b60405161085c929190613cc2565b60405180910390f35b34801561087157600080fd5b5061088c60048036038101906108879190613cf2565b6118d0565b6040516108999190613077565b60405180910390f35b3480156108ae57600080fd5b506108c960048036038101906108c49190613299565b611964565b005b3480156108d757600080fd5b506108f260048036038101906108ed919061317a565b6119e7565b005b34801561090057600080fd5b5061091b60048036038101906109169190613d32565b6119f9565b005b60007fe019895a000000000000000000000000000000000000000000000000000000007bffffffffffffffffffffffffffffffffffffffffffffffffffffffff1916827bffffffffffffffffffffffffffffffffffffffffffffffffffffffff19161480610990575061098f82611a8b565b5b9050919050565b6060600080546109a690613da1565b80601f01602080910402602001604051908101604052809291908181526020018280546109d290613da1565b8015610a1f5780601f106109f457610100808354040283529160200191610a1f565b820191906000526020600020905b815481529060010190602001808311610a0257829003601f168201915b5050505050905090565b6000610a3482611b6d565b6004600083815260200190815260200160002060009054906101000a900473ffffffffffffffffffffffffffffffffffffffff169050919050565b8160006daaeb6d7670e522a718067333cd4e73ffffffffffffffffffffffffffffffffffffffff163b1115610b6a576daaeb6d7670e522a718067333cd4e73ffffffffffffffffffffffffffffffffffffffff1663c617113430836040518363ffffffff1660e01b8152600401610ae7929190613dd2565b602060405180830381865afa158015610b04573d6000803e3d6000fd5b505050506040513d601f19601f82011682018060405250810190610b289190613e10565b610b6957806040517fede71dcc000000000000000000000000000000000000000000000000000000008152600401610b6091906131e8565b60405180910390fd5b5b610b748383611bb8565b505050565b600080610bbb576040517f08c379a0000000000000000000000000000000000000000000000000000000008152600401610bb290613e89565b60405180910390fd5b90565b6000600a549050919050565b60008173ffffffffffffffffffffffffffffffffffffffff16319050919050565b6000600854905090565b8260006daaeb6d7670e522a718067333cd4e73ffffffffffffffffffffffffffffffffffffffff163b1115610d33573373ffffffffffffffffffffffffffffffffffffffff168173ffffffffffffffffffffffffffffffffffffffff1603610c6757610c62848484611ccf565b610d3f565b6daaeb6d7670e522a718067333cd4e73ffffffffffffffffffffffffffffffffffffffff1663c617113430336040518363ffffffff1660e01b8152600401610cb0929190613dd2565b602060405180830381865afa158015610ccd573d6000803e3d6000fd5b505050506040513d601f19601f82011682018060405250810190610cf19190613e10565b610d3257336040517fede71dcc000000000000000000000000000000000000000000000000000000008152600401610d2991906131e8565b60405180910390fd5b5b610d3e848484611ccf565b5b50505050565b6000807f000000000000000000000000000000000000000000000000000000000000000073ffffffffffffffffffffffffffffffffffffffff1663faedc8b5846040518263ffffffff1660e01b8152600401610da19190614202565b6020604051808303816000875af1158015610dc0573d6000803e3d6000fd5b505050506040513d601f19601f82011682018060405250810190610de49190614239565b9050610dee611d2f565b915080600d60008481526020019081526020016000208190555033600e600084815260200190815260200160002060006101000a81548173ffffffffffffffffffffffffffffffffffffffff021916908373ffffffffffffffffffffffffffffffffffffffff16021790555050919050565b60006007600085815260200190815260200160002054905060008111610ebb576040517f08c379a0000000000000000000000000000000000000000000000000000000008152600401610eb2906142b2565b60405180910390fd5b80341015610efe576040517f08c379a0000000000000000000000000000000000000000000000000000000008152600401610ef59061431e565b60405180910390fd5b6000610f0a3484611da2565b90506000610f183487611e47565b90506000610f2587611119565b905060008190508073ffffffffffffffffffffffffffffffffffffffff166108fc848634610f53919061436d565b610f5d919061436d565b9081150290604051600060405180830381858888f19350505050158015610f88573d6000803e3d6000fd5b506000600760008a815260200190815260200160002081905550610fad82888a611ee5565b5050505050505050565b6daaeb6d7670e522a718067333cd4e81565b8260006daaeb6d7670e522a718067333cd4e73ffffffffffffffffffffffffffffffffffffffff163b1115611107573373ffffffffffffffffffffffffffffffffffffffff168173ffffffffffffffffffffffffffffffffffffffff160361103b5761103684848461214b565b611113565b6daaeb6d7670e522a718067333cd4e73ffffffffffffffffffffffffffffffffffffffff1663c617113430336040518363ffffffff1660e01b8152600401611084929190613dd2565b602060405180830381865afa1580156110a1573d6000803e3d6000fd5b505050506040513d601f19601f820116820180604052508101906110c59190613e10565b61110657336040517fede71dcc0000000000000000000000000000000000000000000000000000000081526004016110fd91906131e8565b60405180910390fd5b5b61111284848461214b565b5b50505050565b6000806002600084815260200190815260200160002060009054906101000a900473ffffffffffffffffffffffffffffffffffffffff169050600073ffffffffffffffffffffffffffffffffffffffff168173ffffffffffffffffffffffffffffffffffffffff16036111c1576040517f08c379a00000000000000000000000000000000000000000000000000000000081526004016111b8906143ed565b60405180910390fd5b80915050919050565b600a5481565b60008073ffffffffffffffffffffffffffffffffffffffff168273ffffffffffffffffffffffffffffffffffffffff1603611240576040517f08c379a00000000000000000000000000000000000000000000000000000000081526004016112379061447f565b60405180910390fd5b600360008373ffffffffffffffffffffffffffffffffffffffff1673ffffffffffffffffffffffffffffffffffffffff168152602001908152602001600020549050919050565b61128f61216b565b61129960006121e9565b565b600980546112a890613da1565b80601f01602080910402602001604051908101604052809291908181526020018280546112d490613da1565b80156113215780601f106112f657610100808354040283529160200191611321565b820191906000526020600020905b81548152906001019060200180831161130457829003601f168201915b505050505081565b60085481565b600061133a83610d45565b905061134681836119f9565b92915050565b6000600660009054906101000a900473ffffffffffffffffffffffffffffffffffffffff16905090565b61137e61216b565b806009908161138d9190614641565b5050565b61139b83826119f9565b8173ffffffffffffffffffffffffffffffffffffffff16633c6fc8173085846040518463ffffffff1660e01b81526004016113d893929190614734565b600060405180830381600087803b1580156113f257600080fd5b505af1158015611406573d6000803e3d6000fd5b50505050505050565b60606001805461141e90613da1565b80601f016020809104026020016040519081016040528092919081815260200182805461144a90613da1565b80156114975780601f1061146c57610100808354040283529160200191611497565b820191906000526020600020905b81548152906001019060200180831161147a57829003601f168201915b5050505050905090565b7f000000000000000000000000000000000000000000000000000000000000000081565b6000600b54905090565b6114d761216b565b80600b8190555050565b8160006daaeb6d7670e522a718067333cd4e73ffffffffffffffffffffffffffffffffffffffff163b11156115dc576daaeb6d7670e522a718067333cd4e73ffffffffffffffffffffffffffffffffffffffff1663c617113430836040518363ffffffff1660e01b8152600401611559929190613dd2565b602060405180830381865afa158015611576573d6000803e3d6000fd5b505050506040513d601f19601f8201168201806040525081019061159a9190613e10565b6115db57806040517fede71dcc0000000000000000000000000000000000000000000000000000000081526004016115d291906131e8565b60405180910390fd5b5b6115e683836122af565b505050565b600c60009054906101000a900473ffffffffffffffffffffffffffffffffffffffff1681565b61161961216b565b80600c60006101000a81548173ffffffffffffffffffffffffffffffffffffffff021916908373ffffffffffffffffffffffffffffffffffffffff16021790555050565b600060076000838152602001908152602001600020549050919050565b8360006daaeb6d7670e522a718067333cd4e73ffffffffffffffffffffffffffffffffffffffff163b11156117b9573373ffffffffffffffffffffffffffffffffffffffff168173ffffffffffffffffffffffffffffffffffffffff16036116ed576116e8858585856122c5565b6117c6565b6daaeb6d7670e522a718067333cd4e73ffffffffffffffffffffffffffffffffffffffff1663c617113430336040518363ffffffff1660e01b8152600401611736929190613dd2565b602060405180830381865afa158015611753573d6000803e3d6000fd5b505050506040513d601f19601f820116820180604052508101906117779190613e10565b6117b857336040517fede71dcc0000000000000000000000000000000000000000000000000000000081526004016117af91906131e8565b60405180910390fd5b5b6117c5858585856122c5565b5b5050505050565b60606000600d60008481526020019081526020016000205490506117f083612327565b61182f576040517f08c379a0000000000000000000000000000000000000000000000000000000008152600401611826906147dd565b60405180910390fd5b600061183a82612393565b905061188361184885612482565b6009611853856124b3565b61185c8561255d565b60405160200161186f9493929190614a9a565b60405160208183030381529060405261255d565b6040516020016118939190614b5b565b60405160208183030381529060405292505050919050565b606060005a90506118bb836117cd565b91505a816118c9919061436d565b9050915091565b6000600560008473ffffffffffffffffffffffffffffffffffffffff1673ffffffffffffffffffffffffffffffffffffffff16815260200190815260200160002060008373ffffffffffffffffffffffffffffffffffffffff1673ffffffffffffffffffffffffffffffffffffffff16815260200190815260200160002060009054906101000a900460ff16905092915050565b61196c61216b565b600073ffffffffffffffffffffffffffffffffffffffff168173ffffffffffffffffffffffffffffffffffffffff16036119db576040517f08c379a00000000000000000000000000000000000000000000000000000000081526004016119d290614bef565b60405180910390fd5b6119e4816121e9565b50565b6119ef61216b565b80600a8190555050565b3373ffffffffffffffffffffffffffffffffffffffff16611a1983611119565b73ffffffffffffffffffffffffffffffffffffffff1614611a6f576040517f08c379a0000000000000000000000000000000000000000000000000000000008152600401611a6690614c5b565b60405180910390fd5b8060076000848152602001908152602001600020819055505050565b60007f80ac58cd000000000000000000000000000000000000000000000000000000007bffffffffffffffffffffffffffffffffffffffffffffffffffffffff1916827bffffffffffffffffffffffffffffffffffffffffffffffffffffffff19161480611b5657507f5b5e139f000000000000000000000000000000000000000000000000000000007bffffffffffffffffffffffffffffffffffffffffffffffffffffffff1916827bffffffffffffffffffffffffffffffffffffffffffffffffffffffff1916145b80611b665750611b65826126d5565b5b9050919050565b611b7681612327565b611bb5576040517f08c379a0000000000000000000000000000000000000000000000000000000008152600401611bac906143ed565b60405180910390fd5b50565b6000611bc382611119565b90508073ffffffffffffffffffffffffffffffffffffffff168373ffffffffffffffffffffffffffffffffffffffff1603611c33576040517f08c379a0000000000000000000000000000000000000000000000000000000008152600401611c2a90614ced565b60405180910390fd5b8073ffffffffffffffffffffffffffffffffffffffff16611c5261273f565b73ffffffffffffffffffffffffffffffffffffffff161480611c815750611c8081611c7b61273f565b6118d0565b5b611cc0576040517f08c379a0000000000000000000000000000000000000000000000000000000008152600401611cb790614d7f565b60405180910390fd5b611cca8383612747565b505050565b611ce0611cda61273f565b82612800565b611d1f576040517f08c379a0000000000000000000000000000000000000000000000000000000008152600401611d1690614e11565b60405180910390fd5b611d2a838383611ee5565b505050565b6000611d396114c5565b60085410611d7c576040517f08c379a0000000000000000000000000000000000000000000000000000000008152600401611d7390614e7d565b60405180910390fd5b60086000815480929190611d8f90614e9d565b919050559050611d9f3382612895565b90565b60008073ffffffffffffffffffffffffffffffffffffffff168273ffffffffffffffffffffffffffffffffffffffff1614611e41576103e8601984611de79190614ee5565b611df19190614f56565b905060008290508073ffffffffffffffffffffffffffffffffffffffff166108fc839081150290604051600060405180830381858888f19350505050158015611e3e573d6000803e3d6000fd5b50505b92915050565b60006103e8603284611e599190614ee5565b611e639190614f56565b9050600e600083815260200190815260200160002060009054906101000a900473ffffffffffffffffffffffffffffffffffffffff1673ffffffffffffffffffffffffffffffffffffffff166108fc829081150290604051600060405180830381858888f19350505050158015611ede573d6000803e3d6000fd5b5092915050565b8273ffffffffffffffffffffffffffffffffffffffff16611f0582611119565b73ffffffffffffffffffffffffffffffffffffffff1614611f5b576040517f08c379a0000000000000000000000000000000000000000000000000000000008152600401611f5290614ff9565b60405180910390fd5b600073ffffffffffffffffffffffffffffffffffffffff168273ffffffffffffffffffffffffffffffffffffffff1603611fca576040517f08c379a0000000000000000000000000000000000000000000000000000000008152600401611fc19061508b565b60405180910390fd5b611fd58383836128b3565b611fe0600082612747565b6001600360008573ffffffffffffffffffffffffffffffffffffffff1673ffffffffffffffffffffffffffffffffffffffff1681526020019081526020016000206000828254612030919061436d565b925050819055506001600360008473ffffffffffffffffffffffffffffffffffffffff1673ffffffffffffffffffffffffffffffffffffffff168152602001908152602001600020600082825461208791906150ab565b92505081905550816002600083815260200190815260200160002060006101000a81548173ffffffffffffffffffffffffffffffffffffffff021916908373ffffffffffffffffffffffffffffffffffffffff160217905550808273ffffffffffffffffffffffffffffffffffffffff168473ffffffffffffffffffffffffffffffffffffffff167fddf252ad1be2c89b69c2b068fc378daa952ba7f163c4a11628f55a4df523b3ef60405160405180910390a46121468383836128b8565b505050565b6121668383836040518060200160405280600081525061167a565b505050565b61217361273f565b73ffffffffffffffffffffffffffffffffffffffff1661219161134c565b73ffffffffffffffffffffffffffffffffffffffff16146121e7576040517f08c379a00000000000000000000000000000000000000000000000000000000081526004016121de9061512b565b60405180910390fd5b565b6000600660009054906101000a900473ffffffffffffffffffffffffffffffffffffffff16905081600660006101000a81548173ffffffffffffffffffffffffffffffffffffffff021916908373ffffffffffffffffffffffffffffffffffffffff1602179055508173ffffffffffffffffffffffffffffffffffffffff168173ffffffffffffffffffffffffffffffffffffffff167f8be0079c531659141344cd1fd0a4f28419497f9722a3daafe3b4186f6b6457e060405160405180910390a35050565b6122c16122ba61273f565b83836128bd565b5050565b6122d66122d061273f565b83612800565b612315576040517f08c379a000000000000000000000000000000000000000000000000000000000815260040161230c90614e11565b60405180910390fd5b61232184848484612a29565b50505050565b60008073ffffffffffffffffffffffffffffffffffffffff166002600084815260200190815260200160002060009054906101000a900473ffffffffffffffffffffffffffffffffffffffff1673ffffffffffffffffffffffffffffffffffffffff1614159050919050565b6060600080600c60009054906101000a900473ffffffffffffffffffffffffffffffffffffffff1673ffffffffffffffffffffffffffffffffffffffff1663e3f24f02856040518263ffffffff1660e01b81526004016123f3919061327e565b600060405180830381865afa158015612410573d6000803e3d6000fd5b505050506040513d6000823e3d601f19601f8201168201806040525081019061243991906151bb565b9150915060405180608001604052806049815260200161571860499139828260405160200161246a939291906152cb565b60405160208183030381529060405292505050919050565b606061248d82612a85565b60405160200161249d919061535e565b6040516020818303038152906040529050919050565b6060600c60009054906101000a900473ffffffffffffffffffffffffffffffffffffffff1673ffffffffffffffffffffffffffffffffffffffff166379b92f27836040518263ffffffff1660e01b8152600401612510919061327e565b600060405180830381865afa15801561252d573d6000803e3d6000fd5b505050506040513d6000823e3d601f19601f820116820180604052508101906125569190615380565b9050919050565b6060600082510361257f576040518060200160405280600081525090506126d0565b60006040518060600160405280604081526020016156d860409139905060006003600285516125ae91906150ab565b6125b89190614f56565b60046125c49190614ee5565b905060006020826125d591906150ab565b67ffffffffffffffff8111156125ee576125ed61331e565b5b6040519080825280601f01601f1916602001820160405280156126205781602001600182028036833780820191505090505b509050818152600183018586518101602084015b8183101561268f576003830192508251603f8160121c168501518253600182019150603f81600c1c168501518253600182019150603f8160061c168501518253600182019150603f8116850151825360018201915050612634565b6003895106600181146126a957600281146126b9576126c4565b613d3d60f01b60028303526126c4565b603d60f81b60018303525b50505050508093505050505b919050565b60007f01ffc9a7000000000000000000000000000000000000000000000000000000007bffffffffffffffffffffffffffffffffffffffffffffffffffffffff1916827bffffffffffffffffffffffffffffffffffffffffffffffffffffffff1916149050919050565b600033905090565b816004600083815260200190815260200160002060006101000a81548173ffffffffffffffffffffffffffffffffffffffff021916908373ffffffffffffffffffffffffffffffffffffffff160217905550808273ffffffffffffffffffffffffffffffffffffffff166127ba83611119565b73ffffffffffffffffffffffffffffffffffffffff167f8c5be1e5ebec7d5bd14f71427d1e84f3dd0314c0f7b2291e5b200ac8c7c3b92560405160405180910390a45050565b60008061280c83611119565b90508073ffffffffffffffffffffffffffffffffffffffff168473ffffffffffffffffffffffffffffffffffffffff16148061284e575061284d81856118d0565b5b8061288c57508373ffffffffffffffffffffffffffffffffffffffff1661287484610a29565b73ffffffffffffffffffffffffffffffffffffffff16145b91505092915050565b6128af828260405180602001604052806000815250612be5565b5050565b505050565b505050565b8173ffffffffffffffffffffffffffffffffffffffff168373ffffffffffffffffffffffffffffffffffffffff160361292b576040517f08c379a000000000000000000000000000000000000000000000000000000000815260040161292290615415565b60405180910390fd5b80600560008573ffffffffffffffffffffffffffffffffffffffff1673ffffffffffffffffffffffffffffffffffffffff16815260200190815260200160002060008473ffffffffffffffffffffffffffffffffffffffff1673ffffffffffffffffffffffffffffffffffffffff16815260200190815260200160002060006101000a81548160ff0219169083151502179055508173ffffffffffffffffffffffffffffffffffffffff168373ffffffffffffffffffffffffffffffffffffffff167f17307eab39ab6107e8899845ad3d59bd9653f200f220920489ca2b5937696c3183604051612a1c9190613077565b60405180910390a3505050565b612a34848484611ee5565b612a4084848484612c40565b612a7f576040517f08c379a0000000000000000000000000000000000000000000000000000000008152600401612a76906154a7565b60405180910390fd5b50505050565b606060008203612acc576040518060400160405280600181526020017f30000000000000000000000000000000000000000000000000000000000000008152509050612be0565b600082905060005b60008214612afe578080612ae790614e9d565b915050600a82612af79190614f56565b9150612ad4565b60008167ffffffffffffffff811115612b1a57612b1961331e565b5b6040519080825280601f01601f191660200182016040528015612b4c5781602001600182028036833780820191505090505b5090505b60008514612bd957600182612b65919061436d565b9150600a85612b7491906154c7565b6030612b8091906150ab565b60f81b818381518110612b9657612b956154f8565b5b60200101907effffffffffffffffffffffffffffffffffffffffffffffffffffffffffffff1916908160001a905350600a85612bd29190614f56565b9450612b50565b8093505050505b919050565b612bef8383612dc7565b612bfc6000848484612c40565b612c3b576040517f08c379a0000000000000000000000000000000000000000000000000000000008152600401612c32906154a7565b60405180910390fd5b505050565b6000612c618473ffffffffffffffffffffffffffffffffffffffff16612fa0565b15612dba578373ffffffffffffffffffffffffffffffffffffffff1663150b7a02612c8a61273f565b8786866040518563ffffffff1660e01b8152600401612cac9493929190615571565b6020604051808303816000875af1925050508015612ce857506040513d601f19601f82011682018060405250810190612ce591906155d2565b60015b612d6a573d8060008114612d18576040519150601f19603f3d011682016040523d82523d6000602084013e612d1d565b606091505b506000815103612d62576040517f08c379a0000000000000000000000000000000000000000000000000000000008152600401612d59906154a7565b60405180910390fd5b805181602001fd5b63150b7a0260e01b7bffffffffffffffffffffffffffffffffffffffffffffffffffffffff1916817bffffffffffffffffffffffffffffffffffffffffffffffffffffffff191614915050612dbf565b600190505b949350505050565b600073ffffffffffffffffffffffffffffffffffffffff168273ffffffffffffffffffffffffffffffffffffffff1603612e36576040517f08c379a0000000000000000000000000000000000000000000000000000000008152600401612e2d9061564b565b60405180910390fd5b612e3f81612327565b15612e7f576040517f08c379a0000000000000000000000000000000000000000000000000000000008152600401612e76906156b7565b60405180910390fd5b612e8b600083836128b3565b6001600360008473ffffffffffffffffffffffffffffffffffffffff1673ffffffffffffffffffffffffffffffffffffffff1681526020019081526020016000206000828254612edb91906150ab565b92505081905550816002600083815260200190815260200160002060006101000a81548173ffffffffffffffffffffffffffffffffffffffff021916908373ffffffffffffffffffffffffffffffffffffffff160217905550808273ffffffffffffffffffffffffffffffffffffffff16600073ffffffffffffffffffffffffffffffffffffffff167fddf252ad1be2c89b69c2b068fc378daa952ba7f163c4a11628f55a4df523b3ef60405160405180910390a4612f9c600083836128b8565b5050565b6000808273ffffffffffffffffffffffffffffffffffffffff163b119050919050565b6000604051905090565b600080fd5b600080fd5b60007fffffffff0000000000000000000000000000000000000000000000000000000082169050919050565b61300c81612fd7565b811461301757600080fd5b50565b60008135905061302981613003565b92915050565b60006020828403121561304557613044612fcd565b5b60006130538482850161301a565b91505092915050565b60008115159050919050565b6130718161305c565b82525050565b600060208201905061308c6000830184613068565b92915050565b600081519050919050565b600082825260208201905092915050565b60005b838110156130cc5780820151818401526020810190506130b1565b60008484015250505050565b6000601f19601f8301169050919050565b60006130f482613092565b6130fe818561309d565b935061310e8185602086016130ae565b613117816130d8565b840191505092915050565b6000602082019050818103600083015261313c81846130e9565b905092915050565b6000819050919050565b61315781613144565b811461316257600080fd5b50565b6000813590506131748161314e565b92915050565b6000602082840312156131905761318f612fcd565b5b600061319e84828501613165565b91505092915050565b600073ffffffffffffffffffffffffffffffffffffffff82169050919050565b60006131d2826131a7565b9050919050565b6131e2816131c7565b82525050565b60006020820190506131fd60008301846131d9565b92915050565b61320c816131c7565b811461321757600080fd5b50565b60008135905061322981613203565b92915050565b6000806040838503121561324657613245612fcd565b5b60006132548582860161321a565b925050602061326585828601613165565b9150509250929050565b61327881613144565b82525050565b6000602082019050613293600083018461326f565b92915050565b6000602082840312156132af576132ae612fcd565b5b60006132bd8482850161321a565b91505092915050565b6000806000606084860312156132df576132de612fcd565b5b60006132ed8682870161321a565b93505060206132fe8682870161321a565b925050604061330f86828701613165565b9150509250925092565b600080fd5b7f4e487b7100000000000000000000000000000000000000000000000000000000600052604160045260246000fd5b613356826130d8565b810181811067ffffffffffffffff821117156133755761337461331e565b5b80604052505050565b6000613388612fc3565b9050613394828261334d565b919050565b600080fd5b600080fd5b600067ffffffffffffffff8211156133be576133bd61331e565b5b602082029050602081019050919050565b600080fd5b600080fd5b600067ffffffffffffffff8211156133f4576133f361331e565b5b6133fd826130d8565b9050602081019050919050565b82818337600083830152505050565b600061342c613427846133d9565b61337e565b905082815260208101848484011115613448576134476133d4565b5b61345384828561340a565b509392505050565b600082601f8301126134705761346f61339e565b5b8135613480848260208601613419565b91505092915050565b600061349c613497846133a3565b61337e565b905080838252602082019050602084028301858111156134bf576134be6133cf565b5b835b8181101561350657803567ffffffffffffffff8111156134e4576134e361339e565b5b8086016134f1898261345b565b855260208501945050506020810190506134c1565b5050509392505050565b600082601f8301126135255761352461339e565b5b8135613535848260208601613489565b91505092915050565b600067ffffffffffffffff8211156135595761355861331e565b5b602082029050602081019050919050565b600067ffffffffffffffff8211156135855761358461331e565b5b61358e826130d8565b9050602081019050919050565b60006135ae6135a98461356a565b61337e565b9050828152602081018484840111156135ca576135c96133d4565b5b6135d584828561340a565b509392505050565b600082601f8301126135f2576135f161339e565b5b813561360284826020860161359b565b91505092915050565b600061361e6136198461353e565b61337e565b90508083825260208201905060208402830185811115613641576136406133cf565b5b835b8181101561368857803567ffffffffffffffff8111156136665761366561339e565b5b80860161367389826135dd565b85526020850194505050602081019050613643565b5050509392505050565b600082601f8301126136a7576136a661339e565b5b81356136b784826020860161360b565b91505092915050565b600067ffffffffffffffff8211156136db576136da61331e565b5b602082029050602081019050919050565b600060ff82169050919050565b613702816136ec565b811461370d57600080fd5b50565b60008135905061371f816136f9565b92915050565b6000613738613733846136c0565b61337e565b9050808382526020820190506020840283018581111561375b5761375a6133cf565b5b835b8181101561378457806137708882613710565b84526020840193505060208101905061375d565b5050509392505050565b600082601f8301126137a3576137a261339e565b5b81356137b3848260208601613725565b91505092915050565b6000608082840312156137d2576137d1613319565b5b6137dc608061337e565b9050600082013567ffffffffffffffff8111156137fc576137fb613399565b5b61380884828501613510565b600083015250602082013567ffffffffffffffff81111561382c5761382b613399565b5b61383884828501613692565b602083015250604082013567ffffffffffffffff81111561385c5761385b613399565b5b6138688482850161378e565b604083015250606082013567ffffffffffffffff81111561388c5761388b613399565b5b61389884828501613692565b60608301525092915050565b6000602082840312156138ba576138b9612fcd565b5b600082013567ffffffffffffffff8111156138d8576138d7612fd2565b5b6138e4848285016137bc565b91505092915050565b60008060006060848603121561390657613905612fcd565b5b600061391486828701613165565b93505060206139258682870161321a565b92505060406139368682870161321a565b9150509250925092565b6000819050919050565b600061396561396061395b846131a7565b613940565b6131a7565b9050919050565b60006139778261394a565b9050919050565b60006139898261396c565b9050919050565b6139998161397e565b82525050565b60006020820190506139b46000830184613990565b92915050565b600080604083850312156139d1576139d0612fcd565b5b600083013567ffffffffffffffff8111156139ef576139ee612fd2565b5b6139fb858286016137bc565b9250506020613a0c85828601613165565b9150509250929050565b600060208284031215613a2c57613a2b612fcd565b5b600082013567ffffffffffffffff811115613a4a57613a49612fd2565b5b613a56848285016135dd565b91505092915050565b6000613a6a826131c7565b9050919050565b613a7a81613a5f565b8114613a8557600080fd5b50565b600081359050613a9781613a71565b92915050565b600080600060608486031215613ab657613ab5612fcd565b5b6000613ac486828701613165565b9350506020613ad586828701613a88565b9250506040613ae686828701613165565b9150509250925092565b6000613afb8261396c565b9050919050565b613b0b81613af0565b82525050565b6000602082019050613b266000830184613b02565b92915050565b613b358161305c565b8114613b4057600080fd5b50565b600081359050613b5281613b2c565b92915050565b60008060408385031215613b6f57613b6e612fcd565b5b6000613b7d8582860161321a565b9250506020613b8e85828601613b43565b9150509250929050565b6000613ba38261396c565b9050919050565b613bb381613b98565b82525050565b6000602082019050613bce6000830184613baa565b92915050565b6000613bdf826131c7565b9050919050565b613bef81613bd4565b8114613bfa57600080fd5b50565b600081359050613c0c81613be6565b92915050565b600060208284031215613c2857613c27612fcd565b5b6000613c3684828501613bfd565b91505092915050565b60008060008060808587031215613c5957613c58612fcd565b5b6000613c678782880161321a565b9450506020613c788782880161321a565b9350506040613c8987828801613165565b925050606085013567ffffffffffffffff811115613caa57613ca9612fd2565b5b613cb68782880161345b565b91505092959194509250565b60006040820190508181036000830152613cdc81856130e9565b9050613ceb602083018461326f565b9392505050565b60008060408385031215613d0957613d08612fcd565b5b6000613d178582860161321a565b9250506020613d288582860161321a565b9150509250929050565b60008060408385031215613d4957613d48612fcd565b5b6000613d5785828601613165565b9250506020613d6885828601613165565b9150509250929050565b7f4e487b7100000000000000000000000000000000000000000000000000000000600052602260045260246000fd5b60006002820490506001821680613db957607f821691505b602082108103613dcc57613dcb613d72565b5b50919050565b6000604082019050613de760008301856131d9565b613df460208301846131d9565b9392505050565b600081519050613e0a81613b2c565b92915050565b600060208284031215613e2657613e25612fcd565b5b6000613e3484828501613dfb565b91505092915050565b7f6d757374206e6f742063616c6c00000000000000000000000000000000000000600082015250565b6000613e73600d8361309d565b9150613e7e82613e3d565b602082019050919050565b60006020820190508181036000830152613ea281613e66565b9050919050565b600081519050919050565b600082825260208201905092915050565b6000819050602082019050919050565b600081519050919050565b600082825260208201905092915050565b6000613efc82613ed5565b613f068185613ee0565b9350613f168185602086016130ae565b613f1f816130d8565b840191505092915050565b6000613f368383613ef1565b905092915050565b6000602082019050919050565b6000613f5682613ea9565b613f608185613eb4565b935083602082028501613f7285613ec5565b8060005b85811015613fae5784840389528151613f8f8582613f2a565b9450613f9a83613f3e565b925060208a01995050600181019050613f76565b50829750879550505050505092915050565b600081519050919050565b600082825260208201905092915050565b6000819050602082019050919050565b600082825260208201905092915050565b600061400882613092565b6140128185613fec565b93506140228185602086016130ae565b61402b816130d8565b840191505092915050565b60006140428383613ffd565b905092915050565b6000602082019050919050565b600061406282613fc0565b61406c8185613fcb565b93508360208202850161407e85613fdc565b8060005b858110156140ba578484038952815161409b8582614036565b94506140a68361404a565b925060208a01995050600181019050614082565b50829750879550505050505092915050565b600081519050919050565b600082825260208201905092915050565b6000819050602082019050919050565b614101816136ec565b82525050565b600061411383836140f8565b60208301905092915050565b6000602082019050919050565b6000614137826140cc565b61414181856140d7565b935061414c836140e8565b8060005b8381101561417d5781516141648882614107565b975061416f8361411f565b925050600181019050614150565b5085935050505092915050565b600060808301600083015184820360008601526141a78282613f4b565b915050602083015184820360208601526141c18282614057565b915050604083015184820360408601526141db828261412c565b915050606083015184820360608601526141f58282614057565b9150508091505092915050565b6000602082019050818103600083015261421c818461418a565b905092915050565b6000815190506142338161314e565b92915050565b60006020828403121561424f5761424e612fcd565b5b600061425d84828501614224565b91505092915050565b7f546f6b656e206973206e6f74206f6e2073616c65000000000000000000000000600082015250565b600061429c60148361309d565b91506142a782614266565b602082019050919050565b600060208201905081810360008301526142cb8161428f565b9050919050565b7f4e6f7420656e6f7567682066756e640000000000000000000000000000000000600082015250565b6000614308600f8361309d565b9150614313826142d2565b602082019050919050565b60006020820190508181036000830152614337816142fb565b9050919050565b7f4e487b7100000000000000000000000000000000000000000000000000000000600052601160045260246000fd5b600061437882613144565b915061438383613144565b925082820390508181111561439b5761439a61433e565b5b92915050565b7f4552433732313a20696e76616c696420746f6b656e2049440000000000000000600082015250565b60006143d760188361309d565b91506143e2826143a1565b602082019050919050565b60006020820190508181036000830152614406816143ca565b9050919050565b7f4552433732313a2061646472657373207a65726f206973206e6f74206120766160008201527f6c6964206f776e65720000000000000000000000000000000000000000000000602082015250565b600061446960298361309d565b91506144748261440d565b604082019050919050565b600060208201905081810360008301526144988161445c565b9050919050565b60008190508160005260206000209050919050565b60006020601f8301049050919050565b600082821b905092915050565b6000600883026145017fffffffffffffffffffffffffffffffffffffffffffffffffffffffffffffffff826144c4565b61450b86836144c4565b95508019841693508086168417925050509392505050565b600061453e61453961453484613144565b613940565b613144565b9050919050565b6000819050919050565b61455883614523565b61456c61456482614545565b8484546144d1565b825550505050565b600090565b614581614574565b61458c81848461454f565b505050565b5b818110156145b0576145a5600082614579565b600181019050614592565b5050565b601f8211156145f5576145c68161449f565b6145cf846144b4565b810160208510156145de578190505b6145f26145ea856144b4565b830182614591565b50505b505050565b600082821c905092915050565b6000614618600019846008026145fa565b1980831691505092915050565b60006146318383614607565b9150826002028217905092915050565b61464a82613092565b67ffffffffffffffff8111156146635761466261331e565b5b61466d8254613da1565b6146788282856145b4565b600060209050601f8311600181146146ab5760008415614699578287015190505b6146a38582614625565b86555061470b565b601f1984166146b98661449f565b60005b828110156146e1578489015182556001820191506020850194506020810190506146bc565b868310156146fe57848901516146fa601f891682614607565b8355505b6001600288020188555050505b505050505050565b600061471e8261396c565b9050919050565b61472e81614713565b82525050565b60006060820190506147496000830186614725565b614756602083018561326f565b614763604083018461326f565b949350505050565b7f535647546f6b656e2e746f6b656e5552493a206e6f6e6578697374656e74207460008201527f6f6b656e00000000000000000000000000000000000000000000000000000000602082015250565b60006147c760248361309d565b91506147d28261476b565b604082019050919050565b600060208201905081810360008301526147f6816147ba565b9050919050565b600081905092915050565b7f7b226e616d65223a220000000000000000000000000000000000000000000000600082015250565b600061483e6009836147fd565b915061484982614808565b600982019050919050565b600061485f82613092565b61486981856147fd565b93506148798185602086016130ae565b80840191505092915050565b7f222c226465736372697074696f6e223a22000000000000000000000000000000600082015250565b60006148bb6011836147fd565b91506148c682614885565b601182019050919050565b600081546148de81613da1565b6148e881866147fd565b9450600182166000811461490357600181146149185761494b565b60ff198316865281151582028601935061494b565b6149218561449f565b60005b8381101561494357815481890152600182019150602081019050614924565b838801955050505b50505092915050565b7f222c2261747472696275746573223a5b00000000000000000000000000000000600082015250565b600061498a6010836147fd565b915061499582614954565b601082019050919050565b600081905092915050565b60006149b682613ed5565b6149c081856149a0565b93506149d08185602086016130ae565b80840191505092915050565b7f5d2c22696d616765223a22646174613a696d6167652f7376672b786d6c3b626160008201527f736536342c000000000000000000000000000000000000000000000000000000602082015250565b6000614a386025836147fd565b9150614a43826149dc565b602582019050919050565b7f227d000000000000000000000000000000000000000000000000000000000000600082015250565b6000614a846002836147fd565b9150614a8f82614a4e565b600282019050919050565b6000614aa582614831565b9150614ab18287614854565b9150614abc826148ae565b9150614ac882866148d1565b9150614ad38261497d565b9150614adf82856149ab565b9150614aea82614a2b565b9150614af68284614854565b9150614b0182614a77565b915081905095945050505050565b7f646174613a6170706c69636174696f6e2f6a736f6e3b6261736536342c000000600082015250565b6000614b45601d836147fd565b9150614b5082614b0f565b601d82019050919050565b6000614b6682614b38565b9150614b728284614854565b915081905092915050565b7f4f776e61626c653a206e6577206f776e657220697320746865207a65726f206160008201527f6464726573730000000000000000000000000000000000000000000000000000602082015250565b6000614bd960268361309d565b9150614be482614b7d565b604082019050919050565b60006020820190508181036000830152614c0881614bcc565b9050919050565b7f4f6e6c7920746865206f6e7765722063616e2073657420746865207072696365600082015250565b6000614c4560208361309d565b9150614c5082614c0f565b602082019050919050565b60006020820190508181036000830152614c7481614c38565b9050919050565b7f4552433732313a20617070726f76616c20746f2063757272656e74206f776e6560008201527f7200000000000000000000000000000000000000000000000000000000000000602082015250565b6000614cd760218361309d565b9150614ce282614c7b565b604082019050919050565b60006020820190508181036000830152614d0681614cca565b9050919050565b7f4552433732313a20617070726f76652063616c6c6572206973206e6f7420746f60008201527f6b656e206f776e6572206e6f7220617070726f76656420666f7220616c6c0000602082015250565b6000614d69603e8361309d565b9150614d7482614d0d565b604082019050919050565b60006020820190508181036000830152614d9881614d5c565b9050919050565b7f4552433732313a2063616c6c6572206973206e6f7420746f6b656e206f776e6560008201527f72206e6f7220617070726f766564000000000000000000000000000000000000602082015250565b6000614dfb602e8361309d565b9150614e0682614d9f565b604082019050919050565b60006020820190508181036000830152614e2a81614dee565b9050919050565b7f536f6c64206f7574000000000000000000000000000000000000000000000000600082015250565b6000614e6760088361309d565b9150614e7282614e31565b602082019050919050565b60006020820190508181036000830152614e9681614e5a565b9050919050565b6000614ea882613144565b91507fffffffffffffffffffffffffffffffffffffffffffffffffffffffffffffffff8203614eda57614ed961433e565b5b600182019050919050565b6000614ef082613144565b9150614efb83613144565b9250828202614f0981613144565b91508282048414831517614f2057614f1f61433e565b5b5092915050565b7f4e487b7100000000000000000000000000000000000000000000000000000000600052601260045260246000fd5b6000614f6182613144565b9150614f6c83613144565b925082614f7c57614f7b614f27565b5b828204905092915050565b7f4552433732313a207472616e736665722066726f6d20696e636f72726563742060008201527f6f776e6572000000000000000000000000000000000000000000000000000000602082015250565b6000614fe360258361309d565b9150614fee82614f87565b604082019050919050565b6000602082019050818103600083015261501281614fd6565b9050919050565b7f4552433732313a207472616e7366657220746f20746865207a65726f2061646460008201527f7265737300000000000000000000000000000000000000000000000000000000602082015250565b600061507560248361309d565b915061508082615019565b604082019050919050565b600060208201905081810360008301526150a481615068565b9050919050565b60006150b682613144565b91506150c183613144565b92508282019050808211156150d9576150d861433e565b5b92915050565b7f4f776e61626c653a2063616c6c6572206973206e6f7420746865206f776e6572600082015250565b600061511560208361309d565b9150615120826150df565b602082019050919050565b6000602082019050818103600083015261514481615108565b9050919050565b600061515e6151598461356a565b61337e565b90508281526020810184848401111561517a576151796133d4565b5b6151858482856130ae565b509392505050565b600082601f8301126151a2576151a161339e565b5b81516151b284826020860161514b565b91505092915050565b600080604083850312156151d2576151d1612fcd565b5b600083015167ffffffffffffffff8111156151f0576151ef612fd2565b5b6151fc8582860161518d565b925050602083015167ffffffffffffffff81111561521d5761521c612fd2565b5b6152298582860161518d565b9150509250929050565b7f3c2f646566733e0a3c75736520687265663d2223000000000000000000000000600082015250565b60006152696014836147fd565b915061527482615233565b601482019050919050565b7f22202f3e0a3c2f7376673e0a0000000000000000000000000000000000000000600082015250565b60006152b5600c836147fd565b91506152c08261527f565b600c82019050919050565b60006152d78286614854565b91506152e38285614854565b91506152ee8261525c565b91506152fa8284614854565b9150615305826152a8565b9150819050949350505050565b7f53564720546f6b656e2056312000000000000000000000000000000000000000600082015250565b6000615348600d836147fd565b915061535382615312565b600d82019050919050565b60006153698261533b565b91506153758284614854565b915081905092915050565b60006020828403121561539657615395612fcd565b5b600082015167ffffffffffffffff8111156153b4576153b3612fd2565b5b6153c08482850161518d565b91505092915050565b7f4552433732313a20617070726f766520746f2063616c6c657200000000000000600082015250565b60006153ff60198361309d565b915061540a826153c9565b602082019050919050565b6000602082019050818103600083015261542e816153f2565b9050919050565b7f4552433732313a207472616e7366657220746f206e6f6e20455243373231526560008201527f63656976657220696d706c656d656e7465720000000000000000000000000000602082015250565b600061549160328361309d565b915061549c82615435565b604082019050919050565b600060208201905081810360008301526154c081615484565b9050919050565b60006154d282613144565b91506154dd83613144565b9250826154ed576154ec614f27565b5b828206905092915050565b7f4e487b7100000000000000000000000000000000000000000000000000000000600052603260045260246000fd5b600082825260208201905092915050565b600061554382613ed5565b61554d8185615527565b935061555d8185602086016130ae565b615566816130d8565b840191505092915050565b600060808201905061558660008301876131d9565b61559360208301866131d9565b6155a0604083018561326f565b81810360608301526155b28184615538565b905095945050505050565b6000815190506155cc81613003565b92915050565b6000602082840312156155e8576155e7612fcd565b5b60006155f6848285016155bd565b91505092915050565b7f4552433732313a206d696e7420746f20746865207a65726f2061646472657373600082015250565b600061563560208361309d565b9150615640826155ff565b602082019050919050565b6000602082019050818103600083015261566481615628565b9050919050565b7f4552433732313a20746f6b656e20616c7265616479206d696e74656400000000600082015250565b60006156a1601c8361309d565b91506156ac8261566b565b602082019050919050565b600060208201905081810360008301526156d081615694565b905091905056fe4142434445464748494a4b4c4d4e4f505152535455565758595a6162636465666768696a6b6c6d6e6f707172737475767778797a303132333435363738392b2f3c7376672076696577426f783d2230203020313032342031303234222020786d6c6e733d22687474703a2f2f7777772e77332e6f72672f323030302f737667223e0a3c646566733e0aa264697066735822122092c7145cf78e3a0e6695e891adaf960de1386ac72877e107128acecef2a8a48f64736f6c63430008110033",
  "linkReferences": {},
  "deployedLinkReferences": {}
}