{
  "_format": "hh-sol-artifact-1",
  "contractName": "SVGTokenV1",
  "sourceName": "contracts/SVGTokenV1.sol",
  "abi": [
    {
      "inputs": [
        {
          "internalType": "contract IAssetProvider",
          "name": "_assetProvider",
          "type": "address"
        },
        {
          "internalType": "contract ISVGStoreV1",
          "name": "_svgStore",
          "type": "address"
        }
      ],
      "stateMutability": "nonpayable",
      "type": "constructor"
    },
    {
      "inputs": [],
      "name": "ApprovalCallerNotOwnerNorApproved",
      "type": "error"
    },
    {
      "inputs": [],
      "name": "ApprovalQueryForNonexistentToken",
      "type": "error"
    },
    {
      "inputs": [],
      "name": "BalanceQueryForZeroAddress",
      "type": "error"
    },
    {
      "inputs": [],
      "name": "MintERC2309QuantityExceedsLimit",
      "type": "error"
    },
    {
      "inputs": [],
      "name": "MintToZeroAddress",
      "type": "error"
    },
    {
      "inputs": [],
      "name": "MintZeroQuantity",
      "type": "error"
    },
    {
      "inputs": [
        {
          "internalType": "address",
          "name": "operator",
          "type": "address"
        }
      ],
      "name": "OperatorNotAllowed",
      "type": "error"
    },
    {
      "inputs": [],
      "name": "OwnerQueryForNonexistentToken",
      "type": "error"
    },
    {
      "inputs": [],
      "name": "OwnershipNotInitializedForExtraData",
      "type": "error"
    },
    {
      "inputs": [],
      "name": "TransferCallerNotOwnerNorApproved",
      "type": "error"
    },
    {
      "inputs": [],
      "name": "TransferFromIncorrectOwner",
      "type": "error"
    },
    {
      "inputs": [],
      "name": "TransferToNonERC721ReceiverImplementer",
      "type": "error"
    },
    {
      "inputs": [],
      "name": "TransferToZeroAddress",
      "type": "error"
    },
    {
      "inputs": [],
      "name": "URIQueryForNonexistentToken",
      "type": "error"
    },
    {
      "anonymous": false,
      "inputs": [
        {
          "indexed": true,
          "internalType": "address",
          "name": "owner",
          "type": "address"
        },
        {
          "indexed": true,
          "internalType": "address",
          "name": "approved",
          "type": "address"
        },
        {
          "indexed": true,
          "internalType": "uint256",
          "name": "tokenId",
          "type": "uint256"
        }
      ],
      "name": "Approval",
      "type": "event"
    },
    {
      "anonymous": false,
      "inputs": [
        {
          "indexed": true,
          "internalType": "address",
          "name": "owner",
          "type": "address"
        },
        {
          "indexed": true,
          "internalType": "address",
          "name": "operator",
          "type": "address"
        },
        {
          "indexed": false,
          "internalType": "bool",
          "name": "approved",
          "type": "bool"
        }
      ],
      "name": "ApprovalForAll",
      "type": "event"
    },
    {
      "anonymous": false,
      "inputs": [
        {
          "indexed": true,
          "internalType": "uint256",
          "name": "fromTokenId",
          "type": "uint256"
        },
        {
          "indexed": false,
          "internalType": "uint256",
          "name": "toTokenId",
          "type": "uint256"
        },
        {
          "indexed": true,
          "internalType": "address",
          "name": "from",
          "type": "address"
        },
        {
          "indexed": true,
          "internalType": "address",
          "name": "to",
          "type": "address"
        }
      ],
      "name": "ConsecutiveTransfer",
      "type": "event"
    },
    {
      "anonymous": false,
      "inputs": [
        {
          "indexed": true,
          "internalType": "address",
          "name": "previousOwner",
          "type": "address"
        },
        {
          "indexed": true,
          "internalType": "address",
          "name": "newOwner",
          "type": "address"
        }
      ],
      "name": "OwnershipTransferred",
      "type": "event"
    },
    {
      "anonymous": false,
      "inputs": [
        {
          "indexed": true,
          "internalType": "address",
          "name": "from",
          "type": "address"
        },
        {
          "indexed": true,
          "internalType": "address",
          "name": "to",
          "type": "address"
        },
        {
          "indexed": true,
          "internalType": "uint256",
          "name": "tokenId",
          "type": "uint256"
        }
      ],
      "name": "Transfer",
      "type": "event"
    },
    {
      "inputs": [],
      "name": "OPERATOR_FILTER_REGISTRY",
      "outputs": [
        {
          "internalType": "contract IOperatorFilterRegistry",
          "name": "",
          "type": "address"
        }
      ],
      "stateMutability": "view",
      "type": "function"
    },
    {
      "inputs": [
        {
          "internalType": "uint256",
          "name": "_tokenId",
          "type": "uint256"
        },
        {
          "internalType": "contract IERC721Marketplace",
          "name": "_dealer",
          "type": "address"
        },
        {
          "internalType": "uint256",
          "name": "_price",
          "type": "uint256"
        }
      ],
      "name": "acceptOffer",
      "outputs": [],
      "stateMutability": "nonpayable",
      "type": "function"
    },
    {
      "inputs": [
        {
          "internalType": "address",
          "name": "operator",
          "type": "address"
        },
        {
          "internalType": "uint256",
          "name": "tokenId",
          "type": "uint256"
        }
      ],
      "name": "approve",
      "outputs": [],
      "stateMutability": "payable",
      "type": "function"
    },
    {
      "inputs": [],
      "name": "assetProvider",
      "outputs": [
        {
          "internalType": "contract IAssetProvider",
          "name": "",
          "type": "address"
        }
      ],
      "stateMutability": "view",
      "type": "function"
    },
    {
      "inputs": [
        {
          "internalType": "address",
          "name": "owner",
          "type": "address"
        }
      ],
      "name": "balanceOf",
      "outputs": [
        {
          "internalType": "uint256",
          "name": "",
          "type": "uint256"
        }
      ],
      "stateMutability": "view",
      "type": "function"
    },
    {
      "inputs": [
        {
          "internalType": "uint256",
          "name": "_tokenId",
          "type": "uint256"
        }
      ],
      "name": "debugTokenURI",
      "outputs": [
        {
          "internalType": "string",
          "name": "uri",
          "type": "string"
        },
        {
          "internalType": "uint256",
          "name": "gas",
          "type": "uint256"
        }
      ],
      "stateMutability": "view",
      "type": "function"
    },
    {
      "inputs": [],
      "name": "description",
      "outputs": [
        {
          "internalType": "string",
          "name": "",
          "type": "string"
        }
      ],
      "stateMutability": "view",
      "type": "function"
    },
    {
      "inputs": [
        {
          "internalType": "uint256",
          "name": "tokenId",
          "type": "uint256"
        }
      ],
      "name": "getApproved",
      "outputs": [
        {
          "internalType": "address",
          "name": "",
          "type": "address"
        }
      ],
      "stateMutability": "view",
      "type": "function"
    },
    {
      "inputs": [
        {
          "internalType": "uint256",
          "name": "_tokenId",
          "type": "uint256"
        }
      ],
      "name": "getPriceOf",
      "outputs": [
        {
          "internalType": "uint256",
          "name": "",
          "type": "uint256"
        }
      ],
      "stateMutability": "view",
      "type": "function"
    },
    {
      "inputs": [
        {
          "internalType": "address",
          "name": "owner",
          "type": "address"
        },
        {
          "internalType": "address",
          "name": "operator",
          "type": "address"
        }
      ],
      "name": "isApprovedForAll",
      "outputs": [
        {
          "internalType": "bool",
          "name": "",
          "type": "bool"
        }
      ],
      "stateMutability": "view",
      "type": "function"
    },
    {
      "inputs": [],
      "name": "mint",
      "outputs": [
        {
          "internalType": "uint256",
          "name": "tokenId",
          "type": "uint256"
        }
      ],
      "stateMutability": "payable",
      "type": "function"
    },
    {
      "inputs": [],
      "name": "mintLimit",
      "outputs": [
        {
          "internalType": "uint256",
          "name": "",
          "type": "uint256"
        }
      ],
      "stateMutability": "view",
      "type": "function"
    },
    {
      "inputs": [],
      "name": "mintPrice",
      "outputs": [
        {
          "internalType": "uint256",
          "name": "",
          "type": "uint256"
        }
      ],
      "stateMutability": "view",
      "type": "function"
    },
    {
      "inputs": [
        {
          "internalType": "address",
          "name": "",
          "type": "address"
        }
      ],
      "name": "mintPriceFor",
      "outputs": [
        {
          "internalType": "uint256",
          "name": "",
          "type": "uint256"
        }
      ],
      "stateMutability": "view",
      "type": "function"
    },
    {
      "inputs": [
        {
          "components": [
            {
              "internalType": "bytes[]",
              "name": "paths",
              "type": "bytes[]"
            },
            {
              "internalType": "string[]",
              "name": "fills",
              "type": "string[]"
            },
            {
              "internalType": "uint8[]",
              "name": "strokes",
              "type": "uint8[]"
            },
            {
              "internalType": "string[]",
              "name": "matrixes",
              "type": "string[]"
            }
          ],
          "internalType": "struct ISVGStoreV1.Asset",
          "name": "asset",
          "type": "tuple"
        }
      ],
      "name": "mintWithAsset",
      "outputs": [
        {
          "internalType": "uint256",
          "name": "tokenId",
          "type": "uint256"
        }
      ],
      "stateMutability": "nonpayable",
      "type": "function"
    },
    {
      "inputs": [],
      "name": "name",
      "outputs": [
        {
          "internalType": "string",
          "name": "",
          "type": "string"
        }
      ],
      "stateMutability": "view",
      "type": "function"
    },
    {
      "inputs": [],
      "name": "nextTokenId",
      "outputs": [
        {
          "internalType": "uint256",
          "name": "",
          "type": "uint256"
        }
      ],
      "stateMutability": "view",
      "type": "function"
    },
    {
      "inputs": [],
      "name": "owner",
      "outputs": [
        {
          "internalType": "address",
          "name": "",
          "type": "address"
        }
      ],
      "stateMutability": "view",
      "type": "function"
    },
    {
      "inputs": [
        {
          "internalType": "uint256",
          "name": "tokenId",
          "type": "uint256"
        }
      ],
      "name": "ownerOf",
      "outputs": [
        {
          "internalType": "address",
          "name": "",
          "type": "address"
        }
      ],
      "stateMutability": "view",
      "type": "function"
    },
    {
      "inputs": [
        {
          "internalType": "uint256",
          "name": "_tokenId",
          "type": "uint256"
        },
        {
          "internalType": "address",
          "name": "_buyer",
          "type": "address"
        },
        {
          "internalType": "address",
          "name": "_facilitator",
          "type": "address"
        }
      ],
      "name": "purchase",
      "outputs": [],
      "stateMutability": "payable",
      "type": "function"
    },
    {
      "inputs": [],
      "name": "renounceOwnership",
      "outputs": [],
      "stateMutability": "nonpayable",
      "type": "function"
    },
    {
      "inputs": [
        {
          "internalType": "address",
          "name": "from",
          "type": "address"
        },
        {
          "internalType": "address",
          "name": "to",
          "type": "address"
        },
        {
          "internalType": "uint256",
          "name": "tokenId",
          "type": "uint256"
        }
      ],
      "name": "safeTransferFrom",
      "outputs": [],
      "stateMutability": "payable",
      "type": "function"
    },
    {
      "inputs": [
        {
          "internalType": "address",
          "name": "from",
          "type": "address"
        },
        {
          "internalType": "address",
          "name": "to",
          "type": "address"
        },
        {
          "internalType": "uint256",
          "name": "tokenId",
          "type": "uint256"
        },
        {
          "internalType": "bytes",
          "name": "data",
          "type": "bytes"
        }
      ],
      "name": "safeTransferFrom",
      "outputs": [],
      "stateMutability": "payable",
      "type": "function"
    },
    {
      "inputs": [
        {
          "internalType": "address",
          "name": "operator",
          "type": "address"
        },
        {
          "internalType": "bool",
          "name": "approved",
          "type": "bool"
        }
      ],
      "name": "setApprovalForAll",
      "outputs": [],
      "stateMutability": "nonpayable",
      "type": "function"
    },
    {
      "inputs": [
        {
          "internalType": "contract IAssetProvider",
          "name": "_assetProvider",
          "type": "address"
        }
      ],
      "name": "setAssetProvider",
      "outputs": [],
      "stateMutability": "nonpayable",
      "type": "function"
    },
    {
      "inputs": [
        {
          "internalType": "string",
          "name": "_description",
          "type": "string"
        }
      ],
      "name": "setDescription",
      "outputs": [],
      "stateMutability": "nonpayable",
      "type": "function"
    },
    {
      "inputs": [
        {
          "internalType": "uint256",
          "name": "_limit",
          "type": "uint256"
        }
      ],
      "name": "setMintLimit",
      "outputs": [],
      "stateMutability": "nonpayable",
      "type": "function"
    },
    {
      "inputs": [
        {
          "internalType": "uint256",
          "name": "_price",
          "type": "uint256"
        }
      ],
      "name": "setMintPrice",
      "outputs": [],
      "stateMutability": "nonpayable",
      "type": "function"
    },
    {
      "inputs": [
        {
          "internalType": "uint256",
          "name": "_tokenId",
          "type": "uint256"
        },
        {
          "internalType": "uint256",
          "name": "_price",
          "type": "uint256"
        }
      ],
      "name": "setPriceOf",
      "outputs": [],
      "stateMutability": "nonpayable",
      "type": "function"
    },
    {
      "inputs": [
        {
          "internalType": "bytes4",
          "name": "interfaceId",
          "type": "bytes4"
        }
      ],
      "name": "supportsInterface",
      "outputs": [
        {
          "internalType": "bool",
          "name": "",
          "type": "bool"
        }
      ],
      "stateMutability": "view",
      "type": "function"
    },
    {
      "inputs": [],
      "name": "svgStoreV1",
      "outputs": [
        {
          "internalType": "contract ISVGStoreV1",
          "name": "",
          "type": "address"
        }
      ],
      "stateMutability": "view",
      "type": "function"
    },
    {
      "inputs": [],
      "name": "symbol",
      "outputs": [
        {
          "internalType": "string",
          "name": "",
          "type": "string"
        }
      ],
      "stateMutability": "view",
      "type": "function"
    },
    {
      "inputs": [
        {
          "internalType": "uint256",
          "name": "_tokenId",
          "type": "uint256"
        }
      ],
      "name": "tokenURI",
      "outputs": [
        {
          "internalType": "string",
          "name": "",
          "type": "string"
        }
      ],
      "stateMutability": "view",
      "type": "function"
    },
    {
      "inputs": [],
      "name": "totalSupply",
      "outputs": [
        {
          "internalType": "uint256",
          "name": "",
          "type": "uint256"
        }
      ],
      "stateMutability": "view",
      "type": "function"
    },
    {
      "inputs": [
        {
          "internalType": "address",
          "name": "from",
          "type": "address"
        },
        {
          "internalType": "address",
          "name": "to",
          "type": "address"
        },
        {
          "internalType": "uint256",
          "name": "tokenId",
          "type": "uint256"
        }
      ],
      "name": "transferFrom",
      "outputs": [],
      "stateMutability": "payable",
      "type": "function"
    },
    {
      "inputs": [
        {
          "internalType": "address",
          "name": "newOwner",
          "type": "address"
        }
      ],
      "name": "transferOwnership",
      "outputs": [],
      "stateMutability": "nonpayable",
      "type": "function"
    }
  ],
  "bytecode": "0x60a06040523480156200001157600080fd5b50604051620057c7380380620057c7833981810160405281019062000037919062000589565b816040518060400160405280600a81526020017f535647546f6b656e5631000000000000000000000000000000000000000000008152506040518060400160405280600a81526020017f535647546f6b656e563100000000000000000000000000000000000000000000815250733cc6cdda760b79bafa08df41ecfa224f810dceb6600183838160029081620000ce91906200084a565b508060039081620000e091906200084a565b50620000f1620003f360201b60201c565b600081905550505060006daaeb6d7670e522a718067333cd4e73ffffffffffffffffffffffffffffffffffffffff163b1115620002ee578015620001b4576daaeb6d7670e522a718067333cd4e73ffffffffffffffffffffffffffffffffffffffff16637d3e3dbe30846040518363ffffffff1660e01b81526004016200017a92919062000942565b600060405180830381600087803b1580156200019557600080fd5b505af1158015620001aa573d6000803e3d6000fd5b50505050620002ed565b600073ffffffffffffffffffffffffffffffffffffffff168273ffffffffffffffffffffffffffffffffffffffff16146200026e576daaeb6d7670e522a718067333cd4e73ffffffffffffffffffffffffffffffffffffffff1663a0af290330846040518363ffffffff1660e01b81526004016200023492919062000942565b600060405180830381600087803b1580156200024f57600080fd5b505af115801562000264573d6000803e3d6000fd5b50505050620002ec565b6daaeb6d7670e522a718067333cd4e73ffffffffffffffffffffffffffffffffffffffff16634420e486306040518263ffffffff1660e01b8152600401620002b791906200096f565b600060405180830381600087803b158015620002d257600080fd5b505af1158015620002e7573d6000803e3d6000fd5b505050505b5b5b50506200031062000304620003f860201b60201c565b6200040060201b60201c565b82600e60006101000a81548173ffffffffffffffffffffffffffffffffffffffff021916908373ffffffffffffffffffffffffffffffffffffffff1602179055505050506040518060400160405280600a81526020017f535647546f6b656e563100000000000000000000000000000000000000000000815250600b90816200039a91906200084a565b508073ffffffffffffffffffffffffffffffffffffffff1660808173ffffffffffffffffffffffffffffffffffffffff168152505074446c3b15f9926687d2c40534fdb564000000000000600d8190555050506200098c565b600090565b600033905090565b6000600860009054906101000a900473ffffffffffffffffffffffffffffffffffffffff16905081600860006101000a81548173ffffffffffffffffffffffffffffffffffffffff021916908373ffffffffffffffffffffffffffffffffffffffff1602179055508173ffffffffffffffffffffffffffffffffffffffff168173ffffffffffffffffffffffffffffffffffffffff167f8be0079c531659141344cd1fd0a4f28419497f9722a3daafe3b4186f6b6457e060405160405180910390a35050565b600080fd5b600073ffffffffffffffffffffffffffffffffffffffff82169050919050565b6000620004f882620004cb565b9050919050565b60006200050c82620004eb565b9050919050565b6200051e81620004ff565b81146200052a57600080fd5b50565b6000815190506200053e8162000513565b92915050565b60006200055182620004eb565b9050919050565b620005638162000544565b81146200056f57600080fd5b50565b600081519050620005838162000558565b92915050565b60008060408385031215620005a357620005a2620004c6565b5b6000620005b3858286016200052d565b9250506020620005c68582860162000572565b9150509250929050565b600081519050919050565b7f4e487b7100000000000000000000000000000000000000000000000000000000600052604160045260246000fd5b7f4e487b7100000000000000000000000000000000000000000000000000000000600052602260045260246000fd5b600060028204905060018216806200065257607f821691505b6020821081036200066857620006676200060a565b5b50919050565b60008190508160005260206000209050919050565b60006020601f8301049050919050565b600082821b905092915050565b600060088302620006d27fffffffffffffffffffffffffffffffffffffffffffffffffffffffffffffffff8262000693565b620006de868362000693565b95508019841693508086168417925050509392505050565b6000819050919050565b6000819050919050565b60006200072b620007256200071f84620006f6565b62000700565b620006f6565b9050919050565b6000819050919050565b62000747836200070a565b6200075f620007568262000732565b848454620006a0565b825550505050565b600090565b6200077662000767565b620007838184846200073c565b505050565b5b81811015620007ab576200079f6000826200076c565b60018101905062000789565b5050565b601f821115620007fa57620007c4816200066e565b620007cf8462000683565b81016020851015620007df578190505b620007f7620007ee8562000683565b83018262000788565b50505b505050565b600082821c905092915050565b60006200081f60001984600802620007ff565b1980831691505092915050565b60006200083a83836200080c565b9150826002028217905092915050565b6200085582620005d0565b67ffffffffffffffff811115620008715762000870620005db565b5b6200087d825462000639565b6200088a828285620007af565b600060209050601f831160018114620008c25760008415620008ad578287015190505b620008b985826200082c565b86555062000929565b601f198416620008d2866200066e565b60005b82811015620008fc57848901518255600182019150602085019450602081019050620008d5565b868310156200091c578489015162000918601f8916826200080c565b8355505b6001600288020188555050505b505050505050565b6200093c81620004eb565b82525050565b600060408201905062000959600083018562000931565b62000968602083018462000931565b9392505050565b600060208201905062000986600083018462000931565b92915050565b608051614e18620009af60003960008181610c9e01526112ea0152614e186000f3fe60806040526004361061020f5760003560e01c80638da5cb5b11610118578063b212cfc7116100a0578063cc44ab411161006f578063cc44ab4114610763578063e985e9c5146107a1578063f2fde38b146107de578063f4a0a52814610807578063fba49e4f146108305761020f565b8063b212cfc7146106a4578063b54b4fb9146106cd578063b88d4fde1461070a578063c87b56dd146107265761020f565b80639623144d116100e75780639623144d146105d1578063996517cf146105fc5780639e6a1d7d14610627578063a22cb46514610650578063a370f7d7146106795761020f565b80638da5cb5b1461052957806390c3f38f146105545780639589d7b91461057d57806395d89b41146105a65761020f565b80633b7f8f151161019b5780636817c76c1161016a5780636817c76c1461045457806370a082311461047f578063715018a6146104bc5780637284e416146104d357806375794a3c146104fe5761020f565b80633b7f8f15146103b457806341f43434146103d057806342842e0e146103fb5780636352211e146104175761020f565b80631249c58b116101e25780631249c58b146102d55780631346d8ea146102f357806318160ddd1461033057806323b872dd1461035b578063295702cd146103775761020f565b806301ffc9a71461021457806306fdde0314610251578063081812fc1461027c578063095ea7b3146102b9575b600080fd5b34801561022057600080fd5b5061023b60048036038101906102369190612cbb565b610859565b6040516102489190612d03565b60405180910390f35b34801561025d57600080fd5b506102666108d3565b6040516102739190612dae565b60405180910390f35b34801561028857600080fd5b506102a3600480360381019061029e9190612e06565b610965565b6040516102b09190612e74565b60405180910390f35b6102d360048036038101906102ce9190612ebb565b6109e4565b005b6102dd610aee565b6040516102ea9190612f0a565b60405180910390f35b3480156102ff57600080fd5b5061031a60048036038101906103159190612f25565b610b33565b6040516103279190612f0a565b60405180910390f35b34801561033c57600080fd5b50610345610b3f565b6040516103529190612f0a565b60405180910390f35b61037560048036038101906103709190612f52565b610b49565b005b34801561038357600080fd5b5061039e60048036038101906103999190613530565b610c99565b6040516103ab9190612f0a565b60405180910390f35b6103ce60048036038101906103c99190613579565b610d62565b005b3480156103dc57600080fd5b506103e5610eb9565b6040516103f2919061362b565b60405180910390f35b61041560048036038101906104109190612f52565b610ecb565b005b34801561042357600080fd5b5061043e60048036038101906104399190612e06565b61101b565b60405161044b9190612e74565b60405180910390f35b34801561046057600080fd5b5061046961102d565b6040516104769190612f0a565b60405180910390f35b34801561048b57600080fd5b506104a660048036038101906104a19190612f25565b611033565b6040516104b39190612f0a565b60405180910390f35b3480156104c857600080fd5b506104d16110eb565b005b3480156104df57600080fd5b506104e86110ff565b6040516104f59190612dae565b60405180910390f35b34801561050a57600080fd5b5061051361118d565b6040516105209190612f0a565b60405180910390f35b34801561053557600080fd5b5061053e611193565b60405161054b9190612e74565b60405180910390f35b34801561056057600080fd5b5061057b60048036038101906105769190613646565b6111bd565b005b34801561058957600080fd5b506105a4600480360381019061059f91906136cd565b6111d8565b005b3480156105b257600080fd5b506105bb611256565b6040516105c89190612dae565b60405180910390f35b3480156105dd57600080fd5b506105e66112e8565b6040516105f39190613741565b60405180910390f35b34801561060857600080fd5b5061061161130c565b60405161061e9190612f0a565b60405180910390f35b34801561063357600080fd5b5061064e60048036038101906106499190612e06565b611312565b005b34801561065c57600080fd5b5061067760048036038101906106729190613788565b611324565b005b34801561068557600080fd5b5061068e61142e565b60405161069b91906137e9565b60405180910390f35b3480156106b057600080fd5b506106cb60048036038101906106c69190613842565b611454565b005b3480156106d957600080fd5b506106f460048036038101906106ef9190612e06565b6114a0565b6040516107019190612f0a565b60405180910390f35b610724600480360381019061071f919061386f565b6114bd565b005b34801561073257600080fd5b5061074d60048036038101906107489190612e06565b611610565b60405161075a9190612dae565b60405180910390f35b34801561076f57600080fd5b5061078a60048036038101906107859190612e06565b6116ee565b6040516107989291906138f2565b60405180910390f35b3480156107ad57600080fd5b506107c860048036038101906107c39190613922565b611713565b6040516107d59190612d03565b60405180910390f35b3480156107ea57600080fd5b5061080560048036038101906108009190612f25565b6117a7565b005b34801561081357600080fd5b5061082e60048036038101906108299190612e06565b61182a565b005b34801561083c57600080fd5b5061085760048036038101906108529190613962565b61183c565b005b60007fe019895a000000000000000000000000000000000000000000000000000000007bffffffffffffffffffffffffffffffffffffffffffffffffffffffff1916827bffffffffffffffffffffffffffffffffffffffffffffffffffffffff191614806108cc57506108cb826118ce565b5b9050919050565b6060600280546108e2906139d1565b80601f016020809104026020016040519081016040528092919081815260200182805461090e906139d1565b801561095b5780601f106109305761010080835404028352916020019161095b565b820191906000526020600020905b81548152906001019060200180831161093e57829003601f168201915b5050505050905090565b600061097082611960565b6109a6576040517fcf4700e400000000000000000000000000000000000000000000000000000000815260040160405180910390fd5b6006600083815260200190815260200160002060000160009054906101000a900473ffffffffffffffffffffffffffffffffffffffff169050919050565b8160006daaeb6d7670e522a718067333cd4e73ffffffffffffffffffffffffffffffffffffffff163b1115610adf576daaeb6d7670e522a718067333cd4e73ffffffffffffffffffffffffffffffffffffffff1663c617113430836040518363ffffffff1660e01b8152600401610a5c929190613a02565b602060405180830381865afa158015610a79573d6000803e3d6000fd5b505050506040513d601f19601f82011682018060405250810190610a9d9190613a40565b610ade57806040517fede71dcc000000000000000000000000000000000000000000000000000000008152600401610ad59190612e74565b60405180910390fd5b5b610ae983836119bf565b505050565b600080610b30576040517f08c379a0000000000000000000000000000000000000000000000000000000008152600401610b2790613ab9565b60405180910390fd5b90565b6000600c549050919050565b6000600a54905090565b8260006daaeb6d7670e522a718067333cd4e73ffffffffffffffffffffffffffffffffffffffff163b1115610c87573373ffffffffffffffffffffffffffffffffffffffff168173ffffffffffffffffffffffffffffffffffffffff1603610bbb57610bb6848484611b03565b610c93565b6daaeb6d7670e522a718067333cd4e73ffffffffffffffffffffffffffffffffffffffff1663c617113430336040518363ffffffff1660e01b8152600401610c04929190613a02565b602060405180830381865afa158015610c21573d6000803e3d6000fd5b505050506040513d601f19601f82011682018060405250810190610c459190613a40565b610c8657336040517fede71dcc000000000000000000000000000000000000000000000000000000008152600401610c7d9190612e74565b60405180910390fd5b5b610c92848484611b03565b5b50505050565b6000807f000000000000000000000000000000000000000000000000000000000000000073ffffffffffffffffffffffffffffffffffffffff1663faedc8b5846040518263ffffffff1660e01b8152600401610cf59190613e32565b6020604051808303816000875af1158015610d14573d6000803e3d6000fd5b505050506040513d601f19601f82011682018060405250810190610d389190613e69565b9050610d42611e25565b915080600f60008481526020019081526020016000208190555050919050565b60006009600085815260200190815260200160002054905060008111610dbd576040517f08c379a0000000000000000000000000000000000000000000000000000000008152600401610db490613ee2565b60405180910390fd5b80341015610e00576040517f08c379a0000000000000000000000000000000000000000000000000000000008152600401610df790613f4e565b60405180910390fd5b6000610e0c3484611e94565b90506000610e1a3487611f39565b90506000610e278761101b565b905060008190508073ffffffffffffffffffffffffffffffffffffffff166108fc848634610e559190613f9d565b610e5f9190613f9d565b9081150290604051600060405180830381858888f19350505050158015610e8a573d6000803e3d6000fd5b506000600960008a815260200190815260200160002081905550610eaf82888a610b49565b5050505050505050565b6daaeb6d7670e522a718067333cd4e81565b8260006daaeb6d7670e522a718067333cd4e73ffffffffffffffffffffffffffffffffffffffff163b1115611009573373ffffffffffffffffffffffffffffffffffffffff168173ffffffffffffffffffffffffffffffffffffffff1603610f3d57610f38848484611f41565b611015565b6daaeb6d7670e522a718067333cd4e73ffffffffffffffffffffffffffffffffffffffff1663c617113430336040518363ffffffff1660e01b8152600401610f86929190613a02565b602060405180830381865afa158015610fa3573d6000803e3d6000fd5b505050506040513d601f19601f82011682018060405250810190610fc79190613a40565b61100857336040517fede71dcc000000000000000000000000000000000000000000000000000000008152600401610fff9190612e74565b60405180910390fd5b5b611014848484611f41565b5b50505050565b600061102682611f61565b9050919050565b600c5481565b60008073ffffffffffffffffffffffffffffffffffffffff168273ffffffffffffffffffffffffffffffffffffffff160361109a576040517f8f4eb60400000000000000000000000000000000000000000000000000000000815260040160405180910390fd5b67ffffffffffffffff600560008473ffffffffffffffffffffffffffffffffffffffff1673ffffffffffffffffffffffffffffffffffffffff16815260200190815260200160002054169050919050565b6110f361202d565b6110fd60006120ab565b565b600b805461110c906139d1565b80601f0160208091040260200160405190810160405280929190818152602001828054611138906139d1565b80156111855780601f1061115a57610100808354040283529160200191611185565b820191906000526020600020905b81548152906001019060200180831161116857829003601f168201915b505050505081565b600a5481565b6000600860009054906101000a900473ffffffffffffffffffffffffffffffffffffffff16905090565b6111c561202d565b80600b90816111d49190614173565b5050565b6111e2838261183c565b8173ffffffffffffffffffffffffffffffffffffffff16633c6fc8173085846040518463ffffffff1660e01b815260040161121f93929190614266565b600060405180830381600087803b15801561123957600080fd5b505af115801561124d573d6000803e3d6000fd5b50505050505050565b606060038054611265906139d1565b80601f0160208091040260200160405190810160405280929190818152602001828054611291906139d1565b80156112de5780601f106112b3576101008083540402835291602001916112de565b820191906000526020600020905b8154815290600101906020018083116112c157829003601f168201915b5050505050905090565b7f000000000000000000000000000000000000000000000000000000000000000081565b600d5481565b61131a61202d565b80600d8190555050565b8160006daaeb6d7670e522a718067333cd4e73ffffffffffffffffffffffffffffffffffffffff163b111561141f576daaeb6d7670e522a718067333cd4e73ffffffffffffffffffffffffffffffffffffffff1663c617113430836040518363ffffffff1660e01b815260040161139c929190613a02565b602060405180830381865afa1580156113b9573d6000803e3d6000fd5b505050506040513d601f19601f820116820180604052508101906113dd9190613a40565b61141e57806040517fede71dcc0000000000000000000000000000000000000000000000000000000081526004016114159190612e74565b60405180910390fd5b5b6114298383612171565b505050565b600e60009054906101000a900473ffffffffffffffffffffffffffffffffffffffff1681565b61145c61202d565b80600e60006101000a81548173ffffffffffffffffffffffffffffffffffffffff021916908373ffffffffffffffffffffffffffffffffffffffff16021790555050565b600060096000838152602001908152602001600020549050919050565b8360006daaeb6d7670e522a718067333cd4e73ffffffffffffffffffffffffffffffffffffffff163b11156115fc573373ffffffffffffffffffffffffffffffffffffffff168173ffffffffffffffffffffffffffffffffffffffff16036115305761152b8585858561227c565b611609565b6daaeb6d7670e522a718067333cd4e73ffffffffffffffffffffffffffffffffffffffff1663c617113430336040518363ffffffff1660e01b8152600401611579929190613a02565b602060405180830381865afa158015611596573d6000803e3d6000fd5b505050506040513d601f19601f820116820180604052508101906115ba9190613a40565b6115fb57336040517fede71dcc0000000000000000000000000000000000000000000000000000000081526004016115f29190612e74565b60405180910390fd5b5b6116088585858561227c565b5b5050505050565b60606000600f600084815260200190815260200160002054905061163383611960565b611672576040517f08c379a00000000000000000000000000000000000000000000000000000000081526004016116699061430f565b60405180910390fd5b600061167d826122ef565b90506116c661168b856123de565b600b6116968561240f565b61169f856124b9565b6040516020016116b294939291906145cc565b6040516020818303038152906040526124b9565b6040516020016116d6919061468d565b60405160208183030381529060405292505050919050565b606060005a90506116fe83611610565b91505a8161170c9190613f9d565b9050915091565b6000600760008473ffffffffffffffffffffffffffffffffffffffff1673ffffffffffffffffffffffffffffffffffffffff16815260200190815260200160002060008373ffffffffffffffffffffffffffffffffffffffff1673ffffffffffffffffffffffffffffffffffffffff16815260200190815260200160002060009054906101000a900460ff16905092915050565b6117af61202d565b600073ffffffffffffffffffffffffffffffffffffffff168173ffffffffffffffffffffffffffffffffffffffff160361181e576040517f08c379a000000000000000000000000000000000000000000000000000000000815260040161181590614721565b60405180910390fd5b611827816120ab565b50565b61183261202d565b80600c8190555050565b3373ffffffffffffffffffffffffffffffffffffffff1661185c8361101b565b73ffffffffffffffffffffffffffffffffffffffff16146118b2576040517f08c379a00000000000000000000000000000000000000000000000000000000081526004016118a99061478d565b60405180910390fd5b8060096000848152602001908152602001600020819055505050565b60006301ffc9a760e01b827bffffffffffffffffffffffffffffffffffffffffffffffffffffffff1916148061192957506380ac58cd60e01b827bffffffffffffffffffffffffffffffffffffffffffffffffffffffff1916145b806119595750635b5e139f60e01b827bffffffffffffffffffffffffffffffffffffffffffffffffffffffff1916145b9050919050565b60008161196b612631565b1115801561197a575060005482105b80156119b8575060007c0100000000000000000000000000000000000000000000000000000000600460008581526020019081526020016000205416145b9050919050565b60006119ca8261101b565b90508073ffffffffffffffffffffffffffffffffffffffff166119eb612636565b73ffffffffffffffffffffffffffffffffffffffff1614611a4e57611a1781611a12612636565b611713565b611a4d576040517fcfb3b94200000000000000000000000000000000000000000000000000000000815260040160405180910390fd5b5b826006600084815260200190815260200160002060000160006101000a81548173ffffffffffffffffffffffffffffffffffffffff021916908373ffffffffffffffffffffffffffffffffffffffff160217905550818373ffffffffffffffffffffffffffffffffffffffff168273ffffffffffffffffffffffffffffffffffffffff167f8c5be1e5ebec7d5bd14f71427d1e84f3dd0314c0f7b2291e5b200ac8c7c3b92560405160405180910390a4505050565b6000611b0e82611f61565b90508373ffffffffffffffffffffffffffffffffffffffff168173ffffffffffffffffffffffffffffffffffffffff1614611b75576040517fa114810000000000000000000000000000000000000000000000000000000000815260040160405180910390fd5b600080611b818461263e565b91509150611b978187611b92612636565b612665565b611be357611bac86611ba7612636565b611713565b611be2576040517f59c896be00000000000000000000000000000000000000000000000000000000815260040160405180910390fd5b5b600073ffffffffffffffffffffffffffffffffffffffff168573ffffffffffffffffffffffffffffffffffffffff1603611c49576040517fea553b3400000000000000000000000000000000000000000000000000000000815260040160405180910390fd5b611c5686868660016126a9565b8015611c6157600082555b600560008773ffffffffffffffffffffffffffffffffffffffff1673ffffffffffffffffffffffffffffffffffffffff168152602001908152602001600020600081546001900391905081905550600560008673ffffffffffffffffffffffffffffffffffffffff1673ffffffffffffffffffffffffffffffffffffffff1681526020019081526020016000206000815460010191905081905550611d2f85611d0b8888876126af565b7c0200000000000000000000000000000000000000000000000000000000176126d7565b600460008681526020019081526020016000208190555060007c0200000000000000000000000000000000000000000000000000000000841603611db55760006001850190506000600460008381526020019081526020016000205403611db3576000548114611db2578360046000838152602001908152602001600020819055505b5b505b838573ffffffffffffffffffffffffffffffffffffffff168773ffffffffffffffffffffffffffffffffffffffff167fddf252ad1be2c89b69c2b068fc378daa952ba7f163c4a11628f55a4df523b3ef60405160405180910390a4611e1d8686866001612702565b505050505050565b6000600d54600a5410611e6d576040517f08c379a0000000000000000000000000000000000000000000000000000000008152600401611e64906147f9565b60405180910390fd5b611e78336001612708565b600a6000815480929190611e8b90614819565b91905055905090565b60008073ffffffffffffffffffffffffffffffffffffffff168273ffffffffffffffffffffffffffffffffffffffff1614611f33576103e8601984611ed99190614861565b611ee391906148d2565b905060008290508073ffffffffffffffffffffffffffffffffffffffff166108fc839081150290604051600060405180830381858888f19350505050158015611f30573d6000803e3d6000fd5b50505b92915050565b600092915050565b611f5c838383604051806020016040528060008152506114bd565b505050565b60008082905080611f70612631565b11611ff657600054811015611ff55760006004600083815260200190815260200160002054905060007c0100000000000000000000000000000000000000000000000000000000821603611ff3575b60008103611fe9576004600083600190039350838152602001908152602001600020549050611fbf565b8092505050612028565b505b5b6040517fdf2d9b4200000000000000000000000000000000000000000000000000000000815260040160405180910390fd5b919050565b612035612726565b73ffffffffffffffffffffffffffffffffffffffff16612053611193565b73ffffffffffffffffffffffffffffffffffffffff16146120a9576040517f08c379a00000000000000000000000000000000000000000000000000000000081526004016120a09061494f565b60405180910390fd5b565b6000600860009054906101000a900473ffffffffffffffffffffffffffffffffffffffff16905081600860006101000a81548173ffffffffffffffffffffffffffffffffffffffff021916908373ffffffffffffffffffffffffffffffffffffffff1602179055508173ffffffffffffffffffffffffffffffffffffffff168173ffffffffffffffffffffffffffffffffffffffff167f8be0079c531659141344cd1fd0a4f28419497f9722a3daafe3b4186f6b6457e060405160405180910390a35050565b806007600061217e612636565b73ffffffffffffffffffffffffffffffffffffffff1673ffffffffffffffffffffffffffffffffffffffff16815260200190815260200160002060008473ffffffffffffffffffffffffffffffffffffffff1673ffffffffffffffffffffffffffffffffffffffff16815260200190815260200160002060006101000a81548160ff0219169083151502179055508173ffffffffffffffffffffffffffffffffffffffff1661222b612636565b73ffffffffffffffffffffffffffffffffffffffff167f17307eab39ab6107e8899845ad3d59bd9653f200f220920489ca2b5937696c31836040516122709190612d03565b60405180910390a35050565b612287848484610b49565b60008373ffffffffffffffffffffffffffffffffffffffff163b146122e9576122b28484848461272e565b6122e8576040517fd1a57ed600000000000000000000000000000000000000000000000000000000815260040160405180910390fd5b5b50505050565b6060600080600e60009054906101000a900473ffffffffffffffffffffffffffffffffffffffff1673ffffffffffffffffffffffffffffffffffffffff1663e3f24f02856040518263ffffffff1660e01b815260040161234f9190612f0a565b600060405180830381865afa15801561236c573d6000803e3d6000fd5b505050506040513d6000823e3d601f19601f8201168201806040525081019061239591906149df565b91509150604051806080016040528060498152602001614d9a6049913982826040516020016123c693929190614aef565b60405160208183030381529060405292505050919050565b60606123e98261287e565b6040516020016123f99190614b82565b6040516020818303038152906040529050919050565b6060600e60009054906101000a900473ffffffffffffffffffffffffffffffffffffffff1673ffffffffffffffffffffffffffffffffffffffff166379b92f27836040518263ffffffff1660e01b815260040161246c9190612f0a565b600060405180830381865afa158015612489573d6000803e3d6000fd5b505050506040513d6000823e3d601f19601f820116820180604052508101906124b29190614ba4565b9050919050565b606060008251036124db5760405180602001604052806000815250905061262c565b6000604051806060016040528060408152602001614d5a604091399050600060036002855161250a9190614bed565b61251491906148d2565b60046125209190614861565b905060006020826125319190614bed565b67ffffffffffffffff81111561254a57612549612faa565b5b6040519080825280601f01601f19166020018201604052801561257c5781602001600182028036833780820191505090505b509050818152600183018586518101602084015b818310156125eb576003830192508251603f8160121c168501518253600182019150603f81600c1c168501518253600182019150603f8160061c168501518253600182019150603f8116850151825360018201915050612590565b600389510660018114612605576002811461261557612620565b613d3d60f01b6002830352612620565b603d60f81b60018303525b50505050508093505050505b919050565b600090565b600033905090565b60008060006006600085815260200190815260200160002090508092508254915050915091565b600073ffffffffffffffffffffffffffffffffffffffff8316925073ffffffffffffffffffffffffffffffffffffffff821691508382148383141790509392505050565b50505050565b60008060e883901c905060e86126c68686846129de565b62ffffff16901b9150509392505050565b600073ffffffffffffffffffffffffffffffffffffffff83169250814260a01b178317905092915050565b50505050565b6127228282604051806020016040528060008152506129e7565b5050565b600033905090565b60008373ffffffffffffffffffffffffffffffffffffffff1663150b7a02612754612636565b8786866040518563ffffffff1660e01b81526004016127769493929190614c6b565b6020604051808303816000875af19250505080156127b257506040513d601f19601f820116820180604052508101906127af9190614ccc565b60015b61282b573d80600081146127e2576040519150601f19603f3d011682016040523d82523d6000602084013e6127e7565b606091505b506000815103612823576040517fd1a57ed600000000000000000000000000000000000000000000000000000000815260040160405180910390fd5b805181602001fd5b63150b7a0260e01b7bffffffffffffffffffffffffffffffffffffffffffffffffffffffff1916817bffffffffffffffffffffffffffffffffffffffffffffffffffffffff191614915050949350505050565b6060600082036128c5576040518060400160405280600181526020017f300000000000000000000000000000000000000000000000000000000000000081525090506129d9565b600082905060005b600082146128f75780806128e090614819565b915050600a826128f091906148d2565b91506128cd565b60008167ffffffffffffffff81111561291357612912612faa565b5b6040519080825280601f01601f1916602001820160405280156129455781602001600182028036833780820191505090505b5090505b600085146129d25760018261295e9190613f9d565b9150600a8561296d9190614cf9565b60306129799190614bed565b60f81b81838151811061298f5761298e614d2a565b5b60200101907effffffffffffffffffffffffffffffffffffffffffffffffffffffffffffff1916908160001a905350600a856129cb91906148d2565b9450612949565b8093505050505b919050565b60009392505050565b6129f18383612a84565b60008373ffffffffffffffffffffffffffffffffffffffff163b14612a7f57600080549050600083820390505b612a31600086838060010194508661272e565b612a67576040517fd1a57ed600000000000000000000000000000000000000000000000000000000815260040160405180910390fd5b818110612a1e578160005414612a7c57600080fd5b50505b505050565b60008054905060008203612ac4576040517fb562e8dd00000000000000000000000000000000000000000000000000000000815260040160405180910390fd5b612ad160008483856126a9565b600160406001901b178202600560008573ffffffffffffffffffffffffffffffffffffffff1673ffffffffffffffffffffffffffffffffffffffff16815260200190815260200160002060008282540192505081905550612b4883612b3960008660006126af565b612b4285612c3f565b176126d7565b6004600083815260200190815260200160002081905550600080838301905073ffffffffffffffffffffffffffffffffffffffff85169150828260007fddf252ad1be2c89b69c2b068fc378daa952ba7f163c4a11628f55a4df523b3ef600080a4600183015b818114612be957808360007fddf252ad1be2c89b69c2b068fc378daa952ba7f163c4a11628f55a4df523b3ef600080a4600181019050612bae565b5060008203612c24576040517f2e07630000000000000000000000000000000000000000000000000000000000815260040160405180910390fd5b806000819055505050612c3a6000848385612702565b505050565b60006001821460e11b9050919050565b6000604051905090565b600080fd5b600080fd5b60007fffffffff0000000000000000000000000000000000000000000000000000000082169050919050565b612c9881612c63565b8114612ca357600080fd5b50565b600081359050612cb581612c8f565b92915050565b600060208284031215612cd157612cd0612c59565b5b6000612cdf84828501612ca6565b91505092915050565b60008115159050919050565b612cfd81612ce8565b82525050565b6000602082019050612d186000830184612cf4565b92915050565b600081519050919050565b600082825260208201905092915050565b60005b83811015612d58578082015181840152602081019050612d3d565b60008484015250505050565b6000601f19601f8301169050919050565b6000612d8082612d1e565b612d8a8185612d29565b9350612d9a818560208601612d3a565b612da381612d64565b840191505092915050565b60006020820190508181036000830152612dc88184612d75565b905092915050565b6000819050919050565b612de381612dd0565b8114612dee57600080fd5b50565b600081359050612e0081612dda565b92915050565b600060208284031215612e1c57612e1b612c59565b5b6000612e2a84828501612df1565b91505092915050565b600073ffffffffffffffffffffffffffffffffffffffff82169050919050565b6000612e5e82612e33565b9050919050565b612e6e81612e53565b82525050565b6000602082019050612e896000830184612e65565b92915050565b612e9881612e53565b8114612ea357600080fd5b50565b600081359050612eb581612e8f565b92915050565b60008060408385031215612ed257612ed1612c59565b5b6000612ee085828601612ea6565b9250506020612ef185828601612df1565b9150509250929050565b612f0481612dd0565b82525050565b6000602082019050612f1f6000830184612efb565b92915050565b600060208284031215612f3b57612f3a612c59565b5b6000612f4984828501612ea6565b91505092915050565b600080600060608486031215612f6b57612f6a612c59565b5b6000612f7986828701612ea6565b9350506020612f8a86828701612ea6565b9250506040612f9b86828701612df1565b9150509250925092565b600080fd5b7f4e487b7100000000000000000000000000000000000000000000000000000000600052604160045260246000fd5b612fe282612d64565b810181811067ffffffffffffffff8211171561300157613000612faa565b5b80604052505050565b6000613014612c4f565b90506130208282612fd9565b919050565b600080fd5b600080fd5b600067ffffffffffffffff82111561304a57613049612faa565b5b602082029050602081019050919050565b600080fd5b600080fd5b600067ffffffffffffffff8211156130805761307f612faa565b5b61308982612d64565b9050602081019050919050565b82818337600083830152505050565b60006130b86130b384613065565b61300a565b9050828152602081018484840111156130d4576130d3613060565b5b6130df848285613096565b509392505050565b600082601f8301126130fc576130fb61302a565b5b813561310c8482602086016130a5565b91505092915050565b60006131286131238461302f565b61300a565b9050808382526020820190506020840283018581111561314b5761314a61305b565b5b835b8181101561319257803567ffffffffffffffff8111156131705761316f61302a565b5b80860161317d89826130e7565b8552602085019450505060208101905061314d565b5050509392505050565b600082601f8301126131b1576131b061302a565b5b81356131c1848260208601613115565b91505092915050565b600067ffffffffffffffff8211156131e5576131e4612faa565b5b602082029050602081019050919050565b600067ffffffffffffffff82111561321157613210612faa565b5b61321a82612d64565b9050602081019050919050565b600061323a613235846131f6565b61300a565b90508281526020810184848401111561325657613255613060565b5b613261848285613096565b509392505050565b600082601f83011261327e5761327d61302a565b5b813561328e848260208601613227565b91505092915050565b60006132aa6132a5846131ca565b61300a565b905080838252602082019050602084028301858111156132cd576132cc61305b565b5b835b8181101561331457803567ffffffffffffffff8111156132f2576132f161302a565b5b8086016132ff8982613269565b855260208501945050506020810190506132cf565b5050509392505050565b600082601f8301126133335761333261302a565b5b8135613343848260208601613297565b91505092915050565b600067ffffffffffffffff82111561336757613366612faa565b5b602082029050602081019050919050565b600060ff82169050919050565b61338e81613378565b811461339957600080fd5b50565b6000813590506133ab81613385565b92915050565b60006133c46133bf8461334c565b61300a565b905080838252602082019050602084028301858111156133e7576133e661305b565b5b835b8181101561341057806133fc888261339c565b8452602084019350506020810190506133e9565b5050509392505050565b600082601f83011261342f5761342e61302a565b5b813561343f8482602086016133b1565b91505092915050565b60006080828403121561345e5761345d612fa5565b5b613468608061300a565b9050600082013567ffffffffffffffff81111561348857613487613025565b5b6134948482850161319c565b600083015250602082013567ffffffffffffffff8111156134b8576134b7613025565b5b6134c48482850161331e565b602083015250604082013567ffffffffffffffff8111156134e8576134e7613025565b5b6134f48482850161341a565b604083015250606082013567ffffffffffffffff81111561351857613517613025565b5b6135248482850161331e565b60608301525092915050565b60006020828403121561354657613545612c59565b5b600082013567ffffffffffffffff81111561356457613563612c5e565b5b61357084828501613448565b91505092915050565b60008060006060848603121561359257613591612c59565b5b60006135a086828701612df1565b93505060206135b186828701612ea6565b92505060406135c286828701612ea6565b9150509250925092565b6000819050919050565b60006135f16135ec6135e784612e33565b6135cc565b612e33565b9050919050565b6000613603826135d6565b9050919050565b6000613615826135f8565b9050919050565b6136258161360a565b82525050565b6000602082019050613640600083018461361c565b92915050565b60006020828403121561365c5761365b612c59565b5b600082013567ffffffffffffffff81111561367a57613679612c5e565b5b61368684828501613269565b91505092915050565b600061369a82612e53565b9050919050565b6136aa8161368f565b81146136b557600080fd5b50565b6000813590506136c7816136a1565b92915050565b6000806000606084860312156136e6576136e5612c59565b5b60006136f486828701612df1565b9350506020613705868287016136b8565b925050604061371686828701612df1565b9150509250925092565b600061372b826135f8565b9050919050565b61373b81613720565b82525050565b60006020820190506137566000830184613732565b92915050565b61376581612ce8565b811461377057600080fd5b50565b6000813590506137828161375c565b92915050565b6000806040838503121561379f5761379e612c59565b5b60006137ad85828601612ea6565b92505060206137be85828601613773565b9150509250929050565b60006137d3826135f8565b9050919050565b6137e3816137c8565b82525050565b60006020820190506137fe60008301846137da565b92915050565b600061380f82612e53565b9050919050565b61381f81613804565b811461382a57600080fd5b50565b60008135905061383c81613816565b92915050565b60006020828403121561385857613857612c59565b5b60006138668482850161382d565b91505092915050565b6000806000806080858703121561388957613888612c59565b5b600061389787828801612ea6565b94505060206138a887828801612ea6565b93505060406138b987828801612df1565b925050606085013567ffffffffffffffff8111156138da576138d9612c5e565b5b6138e6878288016130e7565b91505092959194509250565b6000604082019050818103600083015261390c8185612d75565b905061391b6020830184612efb565b9392505050565b6000806040838503121561393957613938612c59565b5b600061394785828601612ea6565b925050602061395885828601612ea6565b9150509250929050565b6000806040838503121561397957613978612c59565b5b600061398785828601612df1565b925050602061399885828601612df1565b9150509250929050565b7f4e487b7100000000000000000000000000000000000000000000000000000000600052602260045260246000fd5b600060028204905060018216806139e957607f821691505b6020821081036139fc576139fb6139a2565b5b50919050565b6000604082019050613a176000830185612e65565b613a246020830184612e65565b9392505050565b600081519050613a3a8161375c565b92915050565b600060208284031215613a5657613a55612c59565b5b6000613a6484828501613a2b565b91505092915050565b7f6d757374206e6f742063616c6c00000000000000000000000000000000000000600082015250565b6000613aa3600d83612d29565b9150613aae82613a6d565b602082019050919050565b60006020820190508181036000830152613ad281613a96565b9050919050565b600081519050919050565b600082825260208201905092915050565b6000819050602082019050919050565b600081519050919050565b600082825260208201905092915050565b6000613b2c82613b05565b613b368185613b10565b9350613b46818560208601612d3a565b613b4f81612d64565b840191505092915050565b6000613b668383613b21565b905092915050565b6000602082019050919050565b6000613b8682613ad9565b613b908185613ae4565b935083602082028501613ba285613af5565b8060005b85811015613bde5784840389528151613bbf8582613b5a565b9450613bca83613b6e565b925060208a01995050600181019050613ba6565b50829750879550505050505092915050565b600081519050919050565b600082825260208201905092915050565b6000819050602082019050919050565b600082825260208201905092915050565b6000613c3882612d1e565b613c428185613c1c565b9350613c52818560208601612d3a565b613c5b81612d64565b840191505092915050565b6000613c728383613c2d565b905092915050565b6000602082019050919050565b6000613c9282613bf0565b613c9c8185613bfb565b935083602082028501613cae85613c0c565b8060005b85811015613cea5784840389528151613ccb8582613c66565b9450613cd683613c7a565b925060208a01995050600181019050613cb2565b50829750879550505050505092915050565b600081519050919050565b600082825260208201905092915050565b6000819050602082019050919050565b613d3181613378565b82525050565b6000613d438383613d28565b60208301905092915050565b6000602082019050919050565b6000613d6782613cfc565b613d718185613d07565b9350613d7c83613d18565b8060005b83811015613dad578151613d948882613d37565b9750613d9f83613d4f565b925050600181019050613d80565b5085935050505092915050565b60006080830160008301518482036000860152613dd78282613b7b565b91505060208301518482036020860152613df18282613c87565b91505060408301518482036040860152613e0b8282613d5c565b91505060608301518482036060860152613e258282613c87565b9150508091505092915050565b60006020820190508181036000830152613e4c8184613dba565b905092915050565b600081519050613e6381612dda565b92915050565b600060208284031215613e7f57613e7e612c59565b5b6000613e8d84828501613e54565b91505092915050565b7f546f6b656e206973206e6f74206f6e2073616c65000000000000000000000000600082015250565b6000613ecc601483612d29565b9150613ed782613e96565b602082019050919050565b60006020820190508181036000830152613efb81613ebf565b9050919050565b7f4e6f7420656e6f7567682066756e640000000000000000000000000000000000600082015250565b6000613f38600f83612d29565b9150613f4382613f02565b602082019050919050565b60006020820190508181036000830152613f6781613f2b565b9050919050565b7f4e487b7100000000000000000000000000000000000000000000000000000000600052601160045260246000fd5b6000613fa882612dd0565b9150613fb383612dd0565b9250828203905081811115613fcb57613fca613f6e565b5b92915050565b60008190508160005260206000209050919050565b60006020601f8301049050919050565b600082821b905092915050565b6000600883026140337fffffffffffffffffffffffffffffffffffffffffffffffffffffffffffffffff82613ff6565b61403d8683613ff6565b95508019841693508086168417925050509392505050565b600061407061406b61406684612dd0565b6135cc565b612dd0565b9050919050565b6000819050919050565b61408a83614055565b61409e61409682614077565b848454614003565b825550505050565b600090565b6140b36140a6565b6140be818484614081565b505050565b5b818110156140e2576140d76000826140ab565b6001810190506140c4565b5050565b601f821115614127576140f881613fd1565b61410184613fe6565b81016020851015614110578190505b61412461411c85613fe6565b8301826140c3565b50505b505050565b600082821c905092915050565b600061414a6000198460080261412c565b1980831691505092915050565b60006141638383614139565b9150826002028217905092915050565b61417c82612d1e565b67ffffffffffffffff81111561419557614194612faa565b5b61419f82546139d1565b6141aa8282856140e6565b600060209050601f8311600181146141dd57600084156141cb578287015190505b6141d58582614157565b86555061423d565b601f1984166141eb86613fd1565b60005b82811015614213578489015182556001820191506020850194506020810190506141ee565b86831015614230578489015161422c601f891682614139565b8355505b6001600288020188555050505b505050505050565b6000614250826135f8565b9050919050565b61426081614245565b82525050565b600060608201905061427b6000830186614257565b6142886020830185612efb565b6142956040830184612efb565b949350505050565b7f535647546f6b656e2e746f6b656e5552493a206e6f6e6578697374656e74207460008201527f6f6b656e00000000000000000000000000000000000000000000000000000000602082015250565b60006142f9602483612d29565b91506143048261429d565b604082019050919050565b60006020820190508181036000830152614328816142ec565b9050919050565b600081905092915050565b7f7b226e616d65223a220000000000000000000000000000000000000000000000600082015250565b600061437060098361432f565b915061437b8261433a565b600982019050919050565b600061439182612d1e565b61439b818561432f565b93506143ab818560208601612d3a565b80840191505092915050565b7f222c226465736372697074696f6e223a22000000000000000000000000000000600082015250565b60006143ed60118361432f565b91506143f8826143b7565b601182019050919050565b60008154614410816139d1565b61441a818661432f565b94506001821660008114614435576001811461444a5761447d565b60ff198316865281151582028601935061447d565b61445385613fd1565b60005b8381101561447557815481890152600182019150602081019050614456565b838801955050505b50505092915050565b7f222c2261747472696275746573223a5b00000000000000000000000000000000600082015250565b60006144bc60108361432f565b91506144c782614486565b601082019050919050565b600081905092915050565b60006144e882613b05565b6144f281856144d2565b9350614502818560208601612d3a565b80840191505092915050565b7f5d2c22696d616765223a22646174613a696d6167652f7376672b786d6c3b626160008201527f736536342c000000000000000000000000000000000000000000000000000000602082015250565b600061456a60258361432f565b91506145758261450e565b602582019050919050565b7f227d000000000000000000000000000000000000000000000000000000000000600082015250565b60006145b660028361432f565b91506145c182614580565b600282019050919050565b60006145d782614363565b91506145e38287614386565b91506145ee826143e0565b91506145fa8286614403565b9150614605826144af565b915061461182856144dd565b915061461c8261455d565b91506146288284614386565b9150614633826145a9565b915081905095945050505050565b7f646174613a6170706c69636174696f6e2f6a736f6e3b6261736536342c000000600082015250565b6000614677601d8361432f565b915061468282614641565b601d82019050919050565b60006146988261466a565b91506146a48284614386565b915081905092915050565b7f4f776e61626c653a206e6577206f776e657220697320746865207a65726f206160008201527f6464726573730000000000000000000000000000000000000000000000000000602082015250565b600061470b602683612d29565b9150614716826146af565b604082019050919050565b6000602082019050818103600083015261473a816146fe565b9050919050565b7f4f6e6c7920746865206f6e7765722063616e2073657420746865207072696365600082015250565b6000614777602083612d29565b915061478282614741565b602082019050919050565b600060208201905081810360008301526147a68161476a565b9050919050565b7f536f6c64206f7574000000000000000000000000000000000000000000000000600082015250565b60006147e3600883612d29565b91506147ee826147ad565b602082019050919050565b60006020820190508181036000830152614812816147d6565b9050919050565b600061482482612dd0565b91507fffffffffffffffffffffffffffffffffffffffffffffffffffffffffffffffff820361485657614855613f6e565b5b600182019050919050565b600061486c82612dd0565b915061487783612dd0565b925082820261488581612dd0565b9150828204841483151761489c5761489b613f6e565b5b5092915050565b7f4e487b7100000000000000000000000000000000000000000000000000000000600052601260045260246000fd5b60006148dd82612dd0565b91506148e883612dd0565b9250826148f8576148f76148a3565b5b828204905092915050565b7f4f776e61626c653a2063616c6c6572206973206e6f7420746865206f776e6572600082015250565b6000614939602083612d29565b915061494482614903565b602082019050919050565b600060208201905081810360008301526149688161492c565b9050919050565b600061498261497d846131f6565b61300a565b90508281526020810184848401111561499e5761499d613060565b5b6149a9848285612d3a565b509392505050565b600082601f8301126149c6576149c561302a565b5b81516149d684826020860161496f565b91505092915050565b600080604083850312156149f6576149f5612c59565b5b600083015167ffffffffffffffff811115614a1457614a13612c5e565b5b614a20858286016149b1565b925050602083015167ffffffffffffffff811115614a4157614a40612c5e565b5b614a4d858286016149b1565b9150509250929050565b7f3c2f646566733e0a3c75736520687265663d2223000000000000000000000000600082015250565b6000614a8d60148361432f565b9150614a9882614a57565b601482019050919050565b7f22202f3e0a3c2f7376673e0a0000000000000000000000000000000000000000600082015250565b6000614ad9600c8361432f565b9150614ae482614aa3565b600c82019050919050565b6000614afb8286614386565b9150614b078285614386565b9150614b1282614a80565b9150614b1e8284614386565b9150614b2982614acc565b9150819050949350505050565b7f53564720546f6b656e2056312000000000000000000000000000000000000000600082015250565b6000614b6c600d8361432f565b9150614b7782614b36565b600d82019050919050565b6000614b8d82614b5f565b9150614b998284614386565b915081905092915050565b600060208284031215614bba57614bb9612c59565b5b600082015167ffffffffffffffff811115614bd857614bd7612c5e565b5b614be4848285016149b1565b91505092915050565b6000614bf882612dd0565b9150614c0383612dd0565b9250828201905080821115614c1b57614c1a613f6e565b5b92915050565b600082825260208201905092915050565b6000614c3d82613b05565b614c478185614c21565b9350614c57818560208601612d3a565b614c6081612d64565b840191505092915050565b6000608082019050614c806000830187612e65565b614c8d6020830186612e65565b614c9a6040830185612efb565b8181036060830152614cac8184614c32565b905095945050505050565b600081519050614cc681612c8f565b92915050565b600060208284031215614ce257614ce1612c59565b5b6000614cf084828501614cb7565b91505092915050565b6000614d0482612dd0565b9150614d0f83612dd0565b925082614d1f57614d1e6148a3565b5b828206905092915050565b7f4e487b7100000000000000000000000000000000000000000000000000000000600052603260045260246000fdfe4142434445464748494a4b4c4d4e4f505152535455565758595a6162636465666768696a6b6c6d6e6f707172737475767778797a303132333435363738392b2f3c7376672076696577426f783d2230203020313032342031303234222020786d6c6e733d22687474703a2f2f7777772e77332e6f72672f323030302f737667223e0a3c646566733e0aa26469706673582212205b8b360a074ed79ecf537452fa94325859d58a4ccef231db02edca84e36792a964736f6c63430008110033",
  "linkReferences": {},
  "deployedLinkReferences": {}
}